{
  "contractName": "CredentialStore",
  "abi": [
    {
      "anonymous": false,
      "inputs": [
        {
          "indexed": true,
          "internalType": "address",
          "name": "previousOwner",
          "type": "address"
        },
        {
          "indexed": true,
          "internalType": "address",
          "name": "newOwner",
          "type": "address"
        }
      ],
      "name": "OwnershipTransferred",
      "type": "event"
    },
    {
      "anonymous": false,
      "inputs": [
        {
          "indexed": true,
          "internalType": "bytes32",
          "name": "role",
          "type": "bytes32"
        },
        {
          "indexed": true,
          "internalType": "bytes32",
          "name": "previousAdminRole",
          "type": "bytes32"
        },
        {
          "indexed": true,
          "internalType": "bytes32",
          "name": "newAdminRole",
          "type": "bytes32"
        }
      ],
      "name": "RoleAdminChanged",
      "type": "event"
    },
    {
      "anonymous": false,
      "inputs": [
        {
          "indexed": true,
          "internalType": "bytes32",
          "name": "role",
          "type": "bytes32"
        },
        {
          "indexed": true,
          "internalType": "address",
          "name": "account",
          "type": "address"
        },
        {
          "indexed": true,
          "internalType": "address",
          "name": "sender",
          "type": "address"
        }
      ],
      "name": "RoleGranted",
      "type": "event"
    },
    {
      "anonymous": false,
      "inputs": [
        {
          "indexed": true,
          "internalType": "bytes32",
          "name": "role",
          "type": "bytes32"
        },
        {
          "indexed": true,
          "internalType": "address",
          "name": "account",
          "type": "address"
        },
        {
          "indexed": true,
          "internalType": "address",
          "name": "sender",
          "type": "address"
        }
      ],
      "name": "RoleRevoked",
      "type": "event"
    },
    {
      "inputs": [],
      "name": "DEFAULT_ADMIN_ROLE",
      "outputs": [
        {
          "internalType": "bytes32",
          "name": "",
          "type": "bytes32"
        }
      ],
      "stateMutability": "view",
      "type": "function",
      "constant": true
    },
    {
      "inputs": [
        {
          "internalType": "bytes32",
          "name": "role",
          "type": "bytes32"
        }
      ],
      "name": "getRoleAdmin",
      "outputs": [
        {
          "internalType": "bytes32",
          "name": "",
          "type": "bytes32"
        }
      ],
      "stateMutability": "view",
      "type": "function",
      "constant": true
    },
    {
      "inputs": [
        {
          "internalType": "bytes32",
          "name": "role",
          "type": "bytes32"
        },
        {
          "internalType": "uint256",
          "name": "index",
          "type": "uint256"
        }
      ],
      "name": "getRoleMember",
      "outputs": [
        {
          "internalType": "address",
          "name": "",
          "type": "address"
        }
      ],
      "stateMutability": "view",
      "type": "function",
      "constant": true
    },
    {
      "inputs": [
        {
          "internalType": "bytes32",
          "name": "role",
          "type": "bytes32"
        }
      ],
      "name": "getRoleMemberCount",
      "outputs": [
        {
          "internalType": "uint256",
          "name": "",
          "type": "uint256"
        }
      ],
      "stateMutability": "view",
      "type": "function",
      "constant": true
    },
    {
      "inputs": [
        {
          "internalType": "bytes32",
          "name": "role",
          "type": "bytes32"
        },
        {
          "internalType": "address",
          "name": "account",
          "type": "address"
        }
      ],
      "name": "grantRole",
      "outputs": [],
      "stateMutability": "nonpayable",
      "type": "function"
    },
    {
      "inputs": [
        {
          "internalType": "bytes32",
          "name": "role",
          "type": "bytes32"
        },
        {
          "internalType": "address",
          "name": "account",
          "type": "address"
        }
      ],
      "name": "hasRole",
      "outputs": [
        {
          "internalType": "bool",
          "name": "",
          "type": "bool"
        }
      ],
      "stateMutability": "view",
      "type": "function",
      "constant": true
    },
    {
      "inputs": [],
      "name": "owner",
      "outputs": [
        {
          "internalType": "address",
          "name": "",
          "type": "address"
        }
      ],
      "stateMutability": "view",
      "type": "function",
      "constant": true
    },
    {
      "inputs": [],
      "name": "renounceOwnership",
      "outputs": [],
      "stateMutability": "nonpayable",
      "type": "function"
    },
    {
      "inputs": [
        {
          "internalType": "bytes32",
          "name": "role",
          "type": "bytes32"
        },
        {
          "internalType": "address",
          "name": "account",
          "type": "address"
        }
      ],
      "name": "renounceRole",
      "outputs": [],
      "stateMutability": "nonpayable",
      "type": "function"
    },
    {
      "inputs": [
        {
          "internalType": "bytes32",
          "name": "role",
          "type": "bytes32"
        },
        {
          "internalType": "address",
          "name": "account",
          "type": "address"
        }
      ],
      "name": "revokeRole",
      "outputs": [],
      "stateMutability": "nonpayable",
      "type": "function"
    },
    {
      "inputs": [
        {
          "internalType": "address",
          "name": "newOwner",
          "type": "address"
        }
      ],
      "name": "transferOwnership",
      "outputs": [],
      "stateMutability": "nonpayable",
      "type": "function"
    },
    {
      "inputs": [
        {
          "internalType": "string",
          "name": "_usr",
          "type": "string"
        },
        {
          "internalType": "string",
          "name": "_date",
          "type": "string"
        }
      ],
      "name": "signUpUserOrLogin",
      "outputs": [],
      "stateMutability": "nonpayable",
      "type": "function"
    },
    {
      "inputs": [],
      "name": "getUsernames",
      "outputs": [
        {
          "internalType": "string[]",
          "name": "",
          "type": "string[]"
        }
      ],
      "stateMutability": "view",
      "type": "function",
      "constant": true
    },
    {
      "inputs": [
        {
          "internalType": "string",
          "name": "_usrName",
          "type": "string"
        },
        {
          "internalType": "address",
          "name": "_address",
          "type": "address"
        },
        {
          "internalType": "bytes32",
          "name": "_imageHash",
          "type": "bytes32"
        },
        {
          "internalType": "bytes32",
          "name": "_imageName",
          "type": "bytes32"
        },
        {
          "internalType": "string",
          "name": "_date",
          "type": "string"
        },
        {
          "internalType": "bool",
          "name": "_viewOnly",
          "type": "bool"
        }
      ],
      "name": "shareImage",
      "outputs": [],
      "stateMutability": "nonpayable",
      "type": "function"
    },
    {
      "inputs": [],
      "name": "getSharedImageArr",
      "outputs": [
        {
          "internalType": "bytes32[]",
          "name": "",
          "type": "bytes32[]"
        },
        {
          "internalType": "bytes32[]",
          "name": "",
          "type": "bytes32[]"
        },
        {
          "internalType": "address[]",
          "name": "",
          "type": "address[]"
        },
        {
          "internalType": "string[]",
          "name": "",
          "type": "string[]"
        },
        {
          "internalType": "string[]",
          "name": "",
          "type": "string[]"
        },
        {
          "internalType": "bool[]",
          "name": "",
          "type": "bool[]"
        }
      ],
      "stateMutability": "view",
      "type": "function",
      "constant": true
    },
    {
      "inputs": [
        {
          "internalType": "string",
          "name": "_usrName",
          "type": "string"
        },
        {
          "internalType": "address",
          "name": "_address",
          "type": "address"
        },
        {
          "internalType": "bytes32",
          "name": "_fileHash",
          "type": "bytes32"
        },
        {
          "internalType": "bytes32",
          "name": "_fileName",
          "type": "bytes32"
        },
        {
          "internalType": "string",
          "name": "_date",
          "type": "string"
        },
        {
          "internalType": "bool",
          "name": "_viewOnly",
          "type": "bool"
        }
      ],
      "name": "shareFile",
      "outputs": [],
      "stateMutability": "nonpayable",
      "type": "function"
    },
    {
      "inputs": [],
      "name": "getSharedFileArr",
      "outputs": [
        {
          "internalType": "bytes32[]",
          "name": "",
          "type": "bytes32[]"
        },
        {
          "internalType": "bytes32[]",
          "name": "",
          "type": "bytes32[]"
        },
        {
          "internalType": "address[]",
          "name": "",
          "type": "address[]"
        },
        {
          "internalType": "string[]",
          "name": "",
          "type": "string[]"
        },
        {
          "internalType": "string[]",
          "name": "",
          "type": "string[]"
        },
        {
          "internalType": "bool[]",
          "name": "",
          "type": "bool[]"
        }
      ],
      "stateMutability": "view",
      "type": "function",
      "constant": true
    },
    {
      "inputs": [
        {
          "internalType": "bytes32",
          "name": "_imageHash",
          "type": "bytes32"
        },
        {
          "internalType": "bytes32",
          "name": "_imageName",
          "type": "bytes32"
        },
        {
          "internalType": "string",
          "name": "_date",
          "type": "string"
        }
      ],
      "name": "set",
      "outputs": [],
      "stateMutability": "nonpayable",
      "type": "function"
    },
    {
      "inputs": [
        {
          "internalType": "bytes32",
          "name": "_fileHash",
          "type": "bytes32"
        },
        {
          "internalType": "bytes32",
          "name": "_fileName",
          "type": "bytes32"
        },
        {
          "internalType": "string",
          "name": "_date",
          "type": "string"
        }
      ],
      "name": "setFile",
      "outputs": [],
      "stateMutability": "nonpayable",
      "type": "function"
    },
    {
      "inputs": [],
      "name": "get",
      "outputs": [
        {
          "internalType": "bytes32[]",
          "name": "",
          "type": "bytes32[]"
        },
        {
          "internalType": "bytes32[]",
          "name": "",
          "type": "bytes32[]"
        },
        {
          "internalType": "string",
          "name": "",
          "type": "string"
        },
        {
          "internalType": "string[]",
          "name": "",
          "type": "string[]"
        },
        {
          "internalType": "address[]",
          "name": "",
          "type": "address[]"
        },
        {
          "internalType": "bytes32[]",
          "name": "",
          "type": "bytes32[]"
        },
        {
          "internalType": "string",
          "name": "",
          "type": "string"
        }
      ],
      "stateMutability": "view",
      "type": "function",
      "constant": true
    },
    {
      "inputs": [],
      "name": "getFile",
      "outputs": [
        {
          "internalType": "bytes32[]",
          "name": "",
          "type": "bytes32[]"
        },
        {
          "internalType": "bytes32[]",
          "name": "",
          "type": "bytes32[]"
        },
        {
          "internalType": "string",
          "name": "",
          "type": "string"
        },
        {
          "internalType": "string[]",
          "name": "",
          "type": "string[]"
        },
        {
          "internalType": "address[]",
          "name": "",
          "type": "address[]"
        },
        {
          "internalType": "bytes32[]",
          "name": "",
          "type": "bytes32[]"
        }
      ],
      "stateMutability": "view",
      "type": "function",
      "constant": true
    }
  ],
  "bytecode": "0x6080604052600062000016620000ba60201b60201c565b9050806000806101000a81548173ffffffffffffffffffffffffffffffffffffffff021916908373ffffffffffffffffffffffffffffffffffffffff1602179055508073ffffffffffffffffffffffffffffffffffffffff16600073ffffffffffffffffffffffffffffffffffffffff167f8be0079c531659141344cd1fd0a4f28419497f9722a3daafe3b4186f6b6457e060405160405180910390a350620000c2565b600033905090565b6140dc80620000d26000396000f3fe608060405234801561001057600080fd5b50600436106101375760003560e01c806387e3310f116100b8578063c10e3d651161007c578063c10e3d651461032d578063ca15c87314610349578063cf9b75e714610379578063d547741f14610395578063f2fde38b146103b1578063fa0b3ed9146103cd57610137565b806387e3310f146102755780638da5cb5b146102915780639010d07c146102af57806391d14854146102df578063a217fddf1461030f57610137565b80632fa81692116100ff5780632fa81692146101e557806336568abe146102085780636d4ce63c14610224578063715018a61461024857806384acf9631461025257610137565b806311397b5f1461013c57806313d921581461015a578063248a9ca31461017d5780632ad8cb03146101ad5780632f2ff15d146101c9575b600080fd5b6101446103e9565b6040516101519190613cd2565b60405180910390f35b6101626104d2565b60405161017496959493929190613b1c565b60405180910390f35b6101976004803603610192919081019061333b565b610a40565b6040516101a49190613d0f565b60405180910390f35b6101c760048036036101c291908101906134fc565b610a60565b005b6101e360048036036101de9190810190613364565b610c1b565b005b6101ed610c8f565b6040516101ff96959493929190613ba7565b60405180910390f35b610222600480360361021d9190810190613364565b611191565b005b61022c611214565b60405161023f9796959493929190613c32565b60405180910390f35b6102506117f9565b005b61025a61194e565b60405161026c96959493929190613b1c565b60405180910390f35b61028f600480360361028a91908101906133a0565b611ebc565b005b61029961206b565b6040516102a69190613b01565b60405180910390f35b6102c960048036036102c49190810190613407565b612094565b6040516102d69190613b01565b60405180910390f35b6102f960048036036102f49190810190613364565b6120c6565b6040516103069190613cf4565b60405180910390f35b6103176120f8565b6040516103249190613d0f565b60405180910390f35b610347600480360361034291908101906133a0565b6120ff565b005b610363600480360361035e919081019061333b565b6122ae565b6040516103709190613e0a565b60405180910390f35b610393600480360361038e9190810190613443565b6122d5565b005b6103af60048036036103aa9190810190613364565b612736565b005b6103cb60048036036103c69190810190613312565b6127aa565b005b6103e760048036036103e29190810190613443565b61296e565b005b60606003805480602002602001604051908101604052809291908181526020016000905b828210156104c9578382906000526020600020018054600181600116156101000203166002900480601f0160208091040260200160405190810160405280929190818152602001828054600181600116156101000203166002900480156104b55780601f1061048a576101008083540402835291602001916104b5565b820191906000526020600020905b81548152906001019060200180831161049857829003601f168201915b50505050508152602001906001019061040d565b50505050905090565b6060806060806060806104f86040516104ea90613aec565b6040518091039020336120c6565b610537576040517f08c379a000000000000000000000000000000000000000000000000000000000815260040161052e90613dca565b60405180910390fd5b600260003373ffffffffffffffffffffffffffffffffffffffff1673ffffffffffffffffffffffffffffffffffffffff168152602001908152602001600020600c01600260003373ffffffffffffffffffffffffffffffffffffffff1673ffffffffffffffffffffffffffffffffffffffff168152602001908152602001600020600d01600260003373ffffffffffffffffffffffffffffffffffffffff1673ffffffffffffffffffffffffffffffffffffffff168152602001908152602001600020601001600260003373ffffffffffffffffffffffffffffffffffffffff1673ffffffffffffffffffffffffffffffffffffffff168152602001908152602001600020601201600260003373ffffffffffffffffffffffffffffffffffffffff1673ffffffffffffffffffffffffffffffffffffffff168152602001908152602001600020601401600260003373ffffffffffffffffffffffffffffffffffffffff1673ffffffffffffffffffffffffffffffffffffffff1681526020019081526020016000206004018580548060200260200160405190810160405280929190818152602001828054801561070e57602002820191906000526020600020905b8154815260200190600101908083116106fa575b505050505095508480548060200260200160405190810160405280929190818152602001828054801561076057602002820191906000526020600020905b81548152602001906001019080831161074c575b50505050509450838054806020026020016040519081016040528092919081815260200182805480156107e857602002820191906000526020600020905b8160009054906101000a900473ffffffffffffffffffffffffffffffffffffffff1673ffffffffffffffffffffffffffffffffffffffff168152602001906001019080831161079e575b5050505050935082805480602002602001604051908101604052809291908181526020016000905b828210156108cc578382906000526020600020018054600181600116156101000203166002900480601f0160208091040260200160405190810160405280929190818152602001828054600181600116156101000203166002900480156108b85780601f1061088d576101008083540402835291602001916108b8565b820191906000526020600020905b81548152906001019060200180831161089b57829003601f168201915b505050505081526020019060010190610810565b50505050925081805480602002602001604051908101604052809291908181526020016000905b828210156109af578382906000526020600020018054600181600116156101000203166002900480601f01602080910402602001604051908101604052809291908181526020018280546001816001161561010002031660029004801561099b5780601f106109705761010080835404028352916020019161099b565b820191906000526020600020905b81548152906001019060200180831161097e57829003601f168201915b5050505050815260200190600101906108f3565b50505050915080805480602002602001604051908101604052809291908181526020018280548015610a2557602002820191906000526020600020906000905b82829054906101000a900460ff161515815260200190600101906020826000010492830192600103820291508084116109ef5790505b50505050509050955095509550955095509550909192939495565b600060016000838152602001908152602001600020600201549050919050565b600260003373ffffffffffffffffffffffffffffffffffffffff1673ffffffffffffffffffffffffffffffffffffffff16815260200190815260200160002060000160009054906101000a900460ff16610c17576001600260003373ffffffffffffffffffffffffffffffffffffffff1673ffffffffffffffffffffffffffffffffffffffff16815260200190815260200160002060000160006101000a81548160ff02191690831515021790555081600260003373ffffffffffffffffffffffffffffffffffffffff1673ffffffffffffffffffffffffffffffffffffffff1681526020019081526020016000206002019080519060200190610b659291906131c5565b5080600260003373ffffffffffffffffffffffffffffffffffffffff1673ffffffffffffffffffffffffffffffffffffffff1681526020019081526020016000206001019080519060200190610bbc9291906131c5565b50600382908060018154018082558091505060019003906000526020600020016000909190919091509080519060200190610bf89291906131c5565b50610c16604051610c0890613aec565b604051809103902033612dcf565b5b5050565b610c426001600084815260200190815260200160002060020154610c3d612ddd565b6120c6565b610c81576040517f08c379a0000000000000000000000000000000000000000000000000000000008152600401610c7890613d4a565b60405180910390fd5b610c8b8282612de5565b5050565b606080606080606080610cb5604051610ca790613aec565b6040518091039020336120c6565b610cf4576040517f08c379a0000000000000000000000000000000000000000000000000000000008152600401610ceb90613dca565b60405180910390fd5b600260003373ffffffffffffffffffffffffffffffffffffffff1673ffffffffffffffffffffffffffffffffffffffff168152602001908152602001600020600a01600260003373ffffffffffffffffffffffffffffffffffffffff1673ffffffffffffffffffffffffffffffffffffffff168152602001908152602001600020600b01600260003373ffffffffffffffffffffffffffffffffffffffff1673ffffffffffffffffffffffffffffffffffffffff168152602001908152602001600020600201600260003373ffffffffffffffffffffffffffffffffffffffff1673ffffffffffffffffffffffffffffffffffffffff168152602001908152602001600020600e01600260003373ffffffffffffffffffffffffffffffffffffffff1673ffffffffffffffffffffffffffffffffffffffff168152602001908152602001600020601701600260003373ffffffffffffffffffffffffffffffffffffffff1673ffffffffffffffffffffffffffffffffffffffff16815260200190815260200160002060180185805480602002602001604051908101604052809291908181526020018280548015610ecb57602002820191906000526020600020905b815481526020019060010190808311610eb7575b5050505050955084805480602002602001604051908101604052809291908181526020018280548015610f1d57602002820191906000526020600020905b815481526020019060010190808311610f09575b50505050509450838054600181600116156101000203166002900480601f016020809104026020016040519081016040528092919081815260200182805460018160011615610100020316600290048015610fb95780601f10610f8e57610100808354040283529160200191610fb9565b820191906000526020600020905b815481529060010190602001808311610f9c57829003601f168201915b5050505050935082805480602002602001604051908101604052809291908181526020016000905b8282101561109d578382906000526020600020018054600181600116156101000203166002900480601f0160208091040260200160405190810160405280929190818152602001828054600181600116156101000203166002900480156110895780601f1061105e57610100808354040283529160200191611089565b820191906000526020600020905b81548152906001019060200180831161106c57829003601f168201915b505050505081526020019060010190610fe1565b5050505092508180548060200260200160405190810160405280929190818152602001828054801561112457602002820191906000526020600020905b8160009054906101000a900473ffffffffffffffffffffffffffffffffffffffff1673ffffffffffffffffffffffffffffffffffffffff16815260200190600101908083116110da575b505050505091508080548060200260200160405190810160405280929190818152602001828054801561117657602002820191906000526020600020905b815481526020019060010190808311611162575b50505050509050955095509550955095509550909192939495565b611199612ddd565b73ffffffffffffffffffffffffffffffffffffffff168173ffffffffffffffffffffffffffffffffffffffff1614611206576040517f08c379a00000000000000000000000000000000000000000000000000000000081526004016111fd90613dea565b60405180910390fd5b6112108282612e79565b5050565b606080606080606080606061123c60405161122e90613aec565b6040518091039020336120c6565b61127b576040517f08c379a000000000000000000000000000000000000000000000000000000000815260040161127290613dca565b60405180910390fd5b600260003373ffffffffffffffffffffffffffffffffffffffff1673ffffffffffffffffffffffffffffffffffffffff168152602001908152602001600020600501600260003373ffffffffffffffffffffffffffffffffffffffff1673ffffffffffffffffffffffffffffffffffffffff168152602001908152602001600020600601600260003373ffffffffffffffffffffffffffffffffffffffff1673ffffffffffffffffffffffffffffffffffffffff168152602001908152602001600020600201600260003373ffffffffffffffffffffffffffffffffffffffff1673ffffffffffffffffffffffffffffffffffffffff168152602001908152602001600020600901600260003373ffffffffffffffffffffffffffffffffffffffff1673ffffffffffffffffffffffffffffffffffffffff168152602001908152602001600020601501600260003373ffffffffffffffffffffffffffffffffffffffff1673ffffffffffffffffffffffffffffffffffffffff168152602001908152602001600020601601600260003373ffffffffffffffffffffffffffffffffffffffff1673ffffffffffffffffffffffffffffffffffffffff1681526020019081526020016000206001018680548060200260200160405190810160405280929190818152602001828054801561149457602002820191906000526020600020905b815481526020019060010190808311611480575b50505050509650858054806020026020016040519081016040528092919081815260200182805480156114e657602002820191906000526020600020905b8154815260200190600101908083116114d2575b50505050509550848054600181600116156101000203166002900480601f0160208091040260200160405190810160405280929190818152602001828054600181600116156101000203166002900480156115825780601f1061155757610100808354040283529160200191611582565b820191906000526020600020905b81548152906001019060200180831161156557829003601f168201915b5050505050945083805480602002602001604051908101604052809291908181526020016000905b82821015611666578382906000526020600020018054600181600116156101000203166002900480601f0160208091040260200160405190810160405280929190818152602001828054600181600116156101000203166002900480156116525780601f1061162757610100808354040283529160200191611652565b820191906000526020600020905b81548152906001019060200180831161163557829003601f168201915b5050505050815260200190600101906115aa565b505050509350828054806020026020016040519081016040528092919081815260200182805480156116ed57602002820191906000526020600020905b8160009054906101000a900473ffffffffffffffffffffffffffffffffffffffff1673ffffffffffffffffffffffffffffffffffffffff16815260200190600101908083116116a3575b505050505092508180548060200260200160405190810160405280929190818152602001828054801561173f57602002820191906000526020600020905b81548152602001906001019080831161172b575b50505050509150808054600181600116156101000203166002900480601f0160208091040260200160405190810160405280929190818152602001828054600181600116156101000203166002900480156117db5780601f106117b0576101008083540402835291602001916117db565b820191906000526020600020905b8154815290600101906020018083116117be57829003601f168201915b50505050509050965096509650965096509650965090919293949596565b611801612ddd565b73ffffffffffffffffffffffffffffffffffffffff166000809054906101000a900473ffffffffffffffffffffffffffffffffffffffff1673ffffffffffffffffffffffffffffffffffffffff161461188f576040517f08c379a000000000000000000000000000000000000000000000000000000000815260040161188690613daa565b60405180910390fd5b600073ffffffffffffffffffffffffffffffffffffffff166000809054906101000a900473ffffffffffffffffffffffffffffffffffffffff1673ffffffffffffffffffffffffffffffffffffffff167f8be0079c531659141344cd1fd0a4f28419497f9722a3daafe3b4186f6b6457e060405160405180910390a360008060006101000a81548173ffffffffffffffffffffffffffffffffffffffff021916908373ffffffffffffffffffffffffffffffffffffffff160217905550565b60608060608060608061197460405161196690613aec565b6040518091039020336120c6565b6119b3576040517f08c379a00000000000000000000000000000000000000000000000000000000081526004016119aa90613dca565b60405180910390fd5b600260003373ffffffffffffffffffffffffffffffffffffffff1673ffffffffffffffffffffffffffffffffffffffff168152602001908152602001600020600701600260003373ffffffffffffffffffffffffffffffffffffffff1673ffffffffffffffffffffffffffffffffffffffff168152602001908152602001600020600801600260003373ffffffffffffffffffffffffffffffffffffffff1673ffffffffffffffffffffffffffffffffffffffff168152602001908152602001600020600f01600260003373ffffffffffffffffffffffffffffffffffffffff1673ffffffffffffffffffffffffffffffffffffffff168152602001908152602001600020601101600260003373ffffffffffffffffffffffffffffffffffffffff1673ffffffffffffffffffffffffffffffffffffffff168152602001908152602001600020601301600260003373ffffffffffffffffffffffffffffffffffffffff1673ffffffffffffffffffffffffffffffffffffffff16815260200190815260200160002060030185805480602002602001604051908101604052809291908181526020018280548015611b8a57602002820191906000526020600020905b815481526020019060010190808311611b76575b5050505050955084805480602002602001604051908101604052809291908181526020018280548015611bdc57602002820191906000526020600020905b815481526020019060010190808311611bc8575b5050505050945083805480602002602001604051908101604052809291908181526020018280548015611c6457602002820191906000526020600020905b8160009054906101000a900473ffffffffffffffffffffffffffffffffffffffff1673ffffffffffffffffffffffffffffffffffffffff1681526020019060010190808311611c1a575b5050505050935082805480602002602001604051908101604052809291908181526020016000905b82821015611d48578382906000526020600020018054600181600116156101000203166002900480601f016020809104026020016040519081016040528092919081815260200182805460018160011615610100020316600290048015611d345780601f10611d0957610100808354040283529160200191611d34565b820191906000526020600020905b815481529060010190602001808311611d1757829003601f168201915b505050505081526020019060010190611c8c565b50505050925081805480602002602001604051908101604052809291908181526020016000905b82821015611e2b578382906000526020600020018054600181600116156101000203166002900480601f016020809104026020016040519081016040528092919081815260200182805460018160011615610100020316600290048015611e175780601f10611dec57610100808354040283529160200191611e17565b820191906000526020600020905b815481529060010190602001808311611dfa57829003601f168201915b505050505081526020019060010190611d6f565b50505050915080805480602002602001604051908101604052809291908181526020018280548015611ea157602002820191906000526020600020906000905b82829054906101000a900460ff16151581526020019060010190602082600001049283019260010382029150808411611e6b5790505b50505050509050955095509550955095509550909192939495565b611ed9604051611ecb90613aec565b6040518091039020336120c6565b611f18576040517f08c379a0000000000000000000000000000000000000000000000000000000008152600401611f0f90613dca565b60405180910390fd5b600260003373ffffffffffffffffffffffffffffffffffffffff1673ffffffffffffffffffffffffffffffffffffffff168152602001908152602001600020600a01839080600181540180825580915050600190039060005260206000200160009091909190915055600260003373ffffffffffffffffffffffffffffffffffffffff1673ffffffffffffffffffffffffffffffffffffffff168152602001908152602001600020600b01829080600181540180825580915050600190039060005260206000200160009091909190915055600260003373ffffffffffffffffffffffffffffffffffffffff1673ffffffffffffffffffffffffffffffffffffffff168152602001908152602001600020600e01819080600181540180825580915050600190039060005260206000200160009091909190915090805190602001906120659291906131c5565b50505050565b60008060009054906101000a900473ffffffffffffffffffffffffffffffffffffffff16905090565b60006120be8260016000868152602001908152602001600020600001612f0d90919063ffffffff16565b905092915050565b60006120f08260016000868152602001908152602001600020600001612f2790919063ffffffff16565b905092915050565b6000801b81565b61211c60405161210e90613aec565b6040518091039020336120c6565b61215b576040517f08c379a000000000000000000000000000000000000000000000000000000000815260040161215290613dca565b60405180910390fd5b600260003373ffffffffffffffffffffffffffffffffffffffff1673ffffffffffffffffffffffffffffffffffffffff168152602001908152602001600020600501839080600181540180825580915050600190039060005260206000200160009091909190915055600260003373ffffffffffffffffffffffffffffffffffffffff1673ffffffffffffffffffffffffffffffffffffffff168152602001908152602001600020600601829080600181540180825580915050600190039060005260206000200160009091909190915055600260003373ffffffffffffffffffffffffffffffffffffffff1673ffffffffffffffffffffffffffffffffffffffff168152602001908152602001600020600901819080600181540180825580915050600190039060005260206000200160009091909190915090805190602001906122a89291906131c5565b50505050565b60006122ce60016000848152602001908152602001600020600001612f57565b9050919050565b6122f26040516122e490613aec565b6040518091039020336120c6565b612331576040517f08c379a000000000000000000000000000000000000000000000000000000000815260040161232890613dca565b60405180910390fd5b600260008673ffffffffffffffffffffffffffffffffffffffff1673ffffffffffffffffffffffffffffffffffffffff168152602001908152602001600020600c01849080600181540180825580915050600190039060005260206000200160009091909190915055600260008673ffffffffffffffffffffffffffffffffffffffff1673ffffffffffffffffffffffffffffffffffffffff168152602001908152602001600020600d01839080600181540180825580915050600190039060005260206000200160009091909190915055600260008673ffffffffffffffffffffffffffffffffffffffff1673ffffffffffffffffffffffffffffffffffffffff1681526020019081526020016000206012018690806001815401808255809150506001900390600052602060002001600090919091909150908051906020019061247e9291906131c5565b50600260008673ffffffffffffffffffffffffffffffffffffffff1673ffffffffffffffffffffffffffffffffffffffff168152602001908152602001600020601001339080600181540180825580915050600190039060005260206000200160009091909190916101000a81548173ffffffffffffffffffffffffffffffffffffffff021916908373ffffffffffffffffffffffffffffffffffffffff160217905550600260008673ffffffffffffffffffffffffffffffffffffffff1673ffffffffffffffffffffffffffffffffffffffff1681526020019081526020016000206014018290806001815401808255809150506001900390600052602060002001600090919091909150908051906020019061259d9291906131c5565b50600260003373ffffffffffffffffffffffffffffffffffffffff1673ffffffffffffffffffffffffffffffffffffffff168152602001908152602001600020601701859080600181540180825580915050600190039060005260206000200160009091909190916101000a81548173ffffffffffffffffffffffffffffffffffffffff021916908373ffffffffffffffffffffffffffffffffffffffff160217905550600260003373ffffffffffffffffffffffffffffffffffffffff1673ffffffffffffffffffffffffffffffffffffffff168152602001908152602001600020601801849080600181540180825580915050600190039060005260206000200160009091909190915055600260008673ffffffffffffffffffffffffffffffffffffffff1673ffffffffffffffffffffffffffffffffffffffff1681526020019081526020016000206004018190806001815401808255809150506001900390600052602060002090602091828204019190069091909190916101000a81548160ff021916908315150217905550505050505050565b61275d6001600084815260200190815260200160002060020154612758612ddd565b6120c6565b61279c576040517f08c379a000000000000000000000000000000000000000000000000000000000815260040161279390613d8a565b60405180910390fd5b6127a68282612e79565b5050565b6127b2612ddd565b73ffffffffffffffffffffffffffffffffffffffff166000809054906101000a900473ffffffffffffffffffffffffffffffffffffffff1673ffffffffffffffffffffffffffffffffffffffff1614612840576040517f08c379a000000000000000000000000000000000000000000000000000000000815260040161283790613daa565b60405180910390fd5b600073ffffffffffffffffffffffffffffffffffffffff168173ffffffffffffffffffffffffffffffffffffffff1614156128b0576040517f08c379a00000000000000000000000000000000000000000000000000000000081526004016128a790613d6a565b60405180910390fd5b8073ffffffffffffffffffffffffffffffffffffffff166000809054906101000a900473ffffffffffffffffffffffffffffffffffffffff1673ffffffffffffffffffffffffffffffffffffffff167f8be0079c531659141344cd1fd0a4f28419497f9722a3daafe3b4186f6b6457e060405160405180910390a3806000806101000a81548173ffffffffffffffffffffffffffffffffffffffff021916908373ffffffffffffffffffffffffffffffffffffffff16021790555050565b61298b60405161297d90613aec565b6040518091039020336120c6565b6129ca576040517f08c379a00000000000000000000000000000000000000000000000000000000081526004016129c190613dca565b60405180910390fd5b600260008673ffffffffffffffffffffffffffffffffffffffff1673ffffffffffffffffffffffffffffffffffffffff168152602001908152602001600020600701849080600181540180825580915050600190039060005260206000200160009091909190915055600260008673ffffffffffffffffffffffffffffffffffffffff1673ffffffffffffffffffffffffffffffffffffffff168152602001908152602001600020600801839080600181540180825580915050600190039060005260206000200160009091909190915055600260008673ffffffffffffffffffffffffffffffffffffffff1673ffffffffffffffffffffffffffffffffffffffff16815260200190815260200160002060110186908060018154018082558091505060019003906000526020600020016000909190919091509080519060200190612b179291906131c5565b50600260008673ffffffffffffffffffffffffffffffffffffffff1673ffffffffffffffffffffffffffffffffffffffff168152602001908152602001600020600f01339080600181540180825580915050600190039060005260206000200160009091909190916101000a81548173ffffffffffffffffffffffffffffffffffffffff021916908373ffffffffffffffffffffffffffffffffffffffff160217905550600260008673ffffffffffffffffffffffffffffffffffffffff1673ffffffffffffffffffffffffffffffffffffffff16815260200190815260200160002060130182908060018154018082558091505060019003906000526020600020016000909190919091509080519060200190612c369291906131c5565b50600260003373ffffffffffffffffffffffffffffffffffffffff1673ffffffffffffffffffffffffffffffffffffffff168152602001908152602001600020601501859080600181540180825580915050600190039060005260206000200160009091909190916101000a81548173ffffffffffffffffffffffffffffffffffffffff021916908373ffffffffffffffffffffffffffffffffffffffff160217905550600260003373ffffffffffffffffffffffffffffffffffffffff1673ffffffffffffffffffffffffffffffffffffffff168152602001908152602001600020601601849080600181540180825580915050600190039060005260206000200160009091909190915055600260008673ffffffffffffffffffffffffffffffffffffffff1673ffffffffffffffffffffffffffffffffffffffff1681526020019081526020016000206003018190806001815401808255809150506001900390600052602060002090602091828204019190069091909190916101000a81548160ff021916908315150217905550505050505050565b612dd98282612de5565b5050565b600033905090565b612e0d8160016000858152602001908152602001600020600001612f6c90919063ffffffff16565b15612e7557612e1a612ddd565b73ffffffffffffffffffffffffffffffffffffffff168173ffffffffffffffffffffffffffffffffffffffff16837f2f8788117e7eff1d82e926ec794901d17c78024a50270940304540a733656f0d60405160405180910390a45b5050565b612ea18160016000858152602001908152602001600020600001612f9c90919063ffffffff16565b15612f0957612eae612ddd565b73ffffffffffffffffffffffffffffffffffffffff168173ffffffffffffffffffffffffffffffffffffffff16837ff6391f5c32d9c69d2a47ea670b442974b53935d1edc7fd64eb21e047a839171b60405160405180910390a45b5050565b6000612f1c8360000183612fcc565b60001c905092915050565b6000612f4f836000018373ffffffffffffffffffffffffffffffffffffffff1660001b613039565b905092915050565b6000612f658260000161305c565b9050919050565b6000612f94836000018373ffffffffffffffffffffffffffffffffffffffff1660001b61306d565b905092915050565b6000612fc4836000018373ffffffffffffffffffffffffffffffffffffffff1660001b6130dd565b905092915050565b600081836000018054905011613017576040517f08c379a000000000000000000000000000000000000000000000000000000000815260040161300e90613d2a565b60405180910390fd5b82600001828154811061302657fe5b9060005260206000200154905092915050565b600080836001016000848152602001908152602001600020541415905092915050565b600081600001805490509050919050565b60006130798383613039565b6130d25782600001829080600181540180825580915050600190039060005260206000200160009091909190915055826000018054905083600101600084815260200190815260200160002081905550600190506130d7565b600090505b92915050565b600080836001016000848152602001908152602001600020549050600081146131b9576000600182039050600060018660000180549050039050600086600001828154811061312857fe5b906000526020600020015490508087600001848154811061314557fe5b906000526020600020018190555060018301876001016000838152602001908152602001600020819055508660000180548061317d57fe5b600190038181906000526020600020016000905590558660010160008781526020019081526020016000206000905560019450505050506131bf565b60009150505b92915050565b828054600181600116156101000203166002900490600052602060002090601f016020900481019282601f1061320657805160ff1916838001178555613234565b82800160010185558215613234579182015b82811115613233578251825591602001919060010190613218565b5b5090506132419190613245565b5090565b61326791905b8082111561326357600081600090555060010161324b565b5090565b90565b6000813590506132798161404a565b92915050565b60008135905061328e81614061565b92915050565b6000813590506132a381614078565b92915050565b600082601f8301126132ba57600080fd5b81356132cd6132c882613e52565b613e25565b915080825260208301602083018583830111156132e957600080fd5b6132f4838284613ff7565b50505092915050565b60008135905061330c8161408f565b92915050565b60006020828403121561332457600080fd5b60006133328482850161326a565b91505092915050565b60006020828403121561334d57600080fd5b600061335b84828501613294565b91505092915050565b6000806040838503121561337757600080fd5b600061338585828601613294565b92505060206133968582860161326a565b9150509250929050565b6000806000606084860312156133b557600080fd5b60006133c386828701613294565b93505060206133d486828701613294565b925050604084013567ffffffffffffffff8111156133f157600080fd5b6133fd868287016132a9565b9150509250925092565b6000806040838503121561341a57600080fd5b600061342885828601613294565b9250506020613439858286016132fd565b9150509250929050565b60008060008060008060c0878903121561345c57600080fd5b600087013567ffffffffffffffff81111561347657600080fd5b61348289828a016132a9565b965050602061349389828a0161326a565b95505060406134a489828a01613294565b94505060606134b589828a01613294565b935050608087013567ffffffffffffffff8111156134d257600080fd5b6134de89828a016132a9565b92505060a06134ef89828a0161327f565b9150509295509295509295565b6000806040838503121561350f57600080fd5b600083013567ffffffffffffffff81111561352957600080fd5b613535858286016132a9565b925050602083013567ffffffffffffffff81111561355257600080fd5b61355e858286016132a9565b9150509250929050565b600061357483836135c4565b60208301905092915050565b600061358c8383613771565b60208301905092915050565b60006135a4838361378f565b60208301905092915050565b60006135bc83836137e6565b905092915050565b6135cd81613fa5565b82525050565b6135dc81613fa5565b82525050565b60006135ed82613ebe565b6135f78185613f34565b935061360283613e7e565b8060005b8381101561363357815161361a8882613568565b975061362583613f00565b925050600181019050613606565b5085935050505092915050565b600061364b82613ec9565b6136558185613f45565b935061366083613e8e565b8060005b838110156136915781516136788882613580565b975061368383613f0d565b925050600181019050613664565b5085935050505092915050565b60006136a982613ed4565b6136b38185613f56565b93506136be83613e9e565b8060005b838110156136ef5781516136d68882613598565b97506136e183613f1a565b9250506001810190506136c2565b5085935050505092915050565b600061370782613edf565b6137118185613f67565b93508360208202850161372385613eae565b8060005b8581101561375f578484038952815161374085826135b0565b945061374b83613f27565b925060208a01995050600181019050613727565b50829750879550505050505092915050565b61377a81613fb7565b82525050565b61378981613fb7565b82525050565b61379881613fc3565b82525050565b6137a781613fc3565b82525050565b60006137b882613ef5565b6137c28185613f89565b93506137d2818560208601614006565b6137db81614039565b840191505092915050565b60006137f182613eea565b6137fb8185613f78565b935061380b818560208601614006565b61381481614039565b840191505092915050565b600061382c602283613f89565b91507f456e756d657261626c655365743a20696e646578206f7574206f6620626f756e60008301527f64730000000000000000000000000000000000000000000000000000000000006020830152604082019050919050565b6000613892602f83613f89565b91507f416363657373436f6e74726f6c3a2073656e646572206d75737420626520616e60008301527f2061646d696e20746f206772616e7400000000000000000000000000000000006020830152604082019050919050565b60006138f8600983613f9a565b91507f555345525f524f4c4500000000000000000000000000000000000000000000006000830152600982019050919050565b6000613938602683613f89565b91507f4f776e61626c653a206e6577206f776e657220697320746865207a65726f206160008301527f64647265737300000000000000000000000000000000000000000000000000006020830152604082019050919050565b600061399e603083613f89565b91507f416363657373436f6e74726f6c3a2073656e646572206d75737420626520616e60008301527f2061646d696e20746f207265766f6b65000000000000000000000000000000006020830152604082019050919050565b6000613a04602083613f89565b91507f4f776e61626c653a2063616c6c6572206973206e6f7420746865206f776e65726000830152602082019050919050565b6000613a44601483613f89565b91507f43616c6c6572206973206e6f74206120757365720000000000000000000000006000830152602082019050919050565b6000613a84602f83613f89565b91507f416363657373436f6e74726f6c3a2063616e206f6e6c792072656e6f756e636560008301527f20726f6c657320666f722073656c6600000000000000000000000000000000006020830152604082019050919050565b613ae681613fed565b82525050565b6000613af7826138eb565b9150819050919050565b6000602082019050613b1660008301846135d3565b92915050565b600060c0820190508181036000830152613b36818961369e565b90508181036020830152613b4a818861369e565b90508181036040830152613b5e81876135e2565b90508181036060830152613b7281866136fc565b90508181036080830152613b8681856136fc565b905081810360a0830152613b9a8184613640565b9050979650505050505050565b600060c0820190508181036000830152613bc1818961369e565b90508181036020830152613bd5818861369e565b90508181036040830152613be981876137ad565b90508181036060830152613bfd81866136fc565b90508181036080830152613c1181856135e2565b905081810360a0830152613c25818461369e565b9050979650505050505050565b600060e0820190508181036000830152613c4c818a61369e565b90508181036020830152613c60818961369e565b90508181036040830152613c7481886137ad565b90508181036060830152613c8881876136fc565b90508181036080830152613c9c81866135e2565b905081810360a0830152613cb0818561369e565b905081810360c0830152613cc481846137ad565b905098975050505050505050565b60006020820190508181036000830152613cec81846136fc565b905092915050565b6000602082019050613d096000830184613780565b92915050565b6000602082019050613d24600083018461379e565b92915050565b60006020820190508181036000830152613d438161381f565b9050919050565b60006020820190508181036000830152613d6381613885565b9050919050565b60006020820190508181036000830152613d838161392b565b9050919050565b60006020820190508181036000830152613da381613991565b9050919050565b60006020820190508181036000830152613dc3816139f7565b9050919050565b60006020820190508181036000830152613de381613a37565b9050919050565b60006020820190508181036000830152613e0381613a77565b9050919050565b6000602082019050613e1f6000830184613add565b92915050565b6000604051905081810181811067ffffffffffffffff82111715613e4857600080fd5b8060405250919050565b600067ffffffffffffffff821115613e6957600080fd5b601f19601f8301169050602081019050919050565b6000819050602082019050919050565b6000819050602082019050919050565b6000819050602082019050919050565b6000819050602082019050919050565b600081519050919050565b600081519050919050565b600081519050919050565b600081519050919050565b600081519050919050565b600081519050919050565b6000602082019050919050565b6000602082019050919050565b6000602082019050919050565b6000602082019050919050565b600082825260208201905092915050565b600082825260208201905092915050565b600082825260208201905092915050565b600082825260208201905092915050565b600082825260208201905092915050565b600082825260208201905092915050565b600081905092915050565b6000613fb082613fcd565b9050919050565b60008115159050919050565b6000819050919050565b600073ffffffffffffffffffffffffffffffffffffffff82169050919050565b6000819050919050565b82818337600083830152505050565b60005b83811015614024578082015181840152602081019050614009565b83811115614033576000848401525b50505050565b6000601f19601f8301169050919050565b61405381613fa5565b811461405e57600080fd5b50565b61406a81613fb7565b811461407557600080fd5b50565b61408181613fc3565b811461408c57600080fd5b50565b61409881613fed565b81146140a357600080fd5b5056fea2646970667358221220860246db0c1c7848d59984857f2d54d5d40c71c911c52d1de68593e339050a3464736f6c63430006020033",
  "source": "// SPDX-License-Identifier: MIT\r\npragma experimental ABIEncoderV2;\r\npragma solidity >=0.6.0;\r\nimport \"@openzeppelin/contracts/access/Ownable.sol\";\r\nimport \"@openzeppelin/contracts/access/AccessControl.sol\";\r\n\r\ncontract CredentialStore is Ownable, AccessControl {\r\n\r\n  bytes32 private constant USER_ROLE = keccak256(\"USER_ROLE\");\r\n\r\n  struct userData {\r\n\r\n    bool userExists; \r\n    string acceptTermsConditionsDate; \r\n    string username;\r\n    bool[] viewOnlyImage;\r\n    bool[] viewOnlyFile;\r\n    // int256 newlySharedItems;\r\n    // if user does getSharedFileArr & getSharedImageArr means that user logged in and is in sharepoint \r\n\r\n    bytes32[] imageHashes;\r\n    bytes32[] imageNames;\r\n    bytes32[] imageHashesSharedWithUser;\r\n    bytes32[] imageNamesSharedWithUser;\r\n    string[] dateImageUpload;\r\n\r\n    bytes32[] fileHashes;\r\n    bytes32[] fileNames;\r\n    bytes32[] fileHashesSharedWithUser;\r\n    bytes32[] fileNamesSharedWithUser;\r\n    string[] dateFileUpload;\r\n\r\n    address[] imageAddressSharedWithUser;\r\n    address[] fileAddressSharedWithUser;\r\n    string[] imageUsernameSharedWithUser;\r\n    string[] fileUsernameSharedWithUser;\r\n\r\n    string[] dateImageSharedWithUser;\r\n    string[] dateFileSharedWithUser;\r\n\r\n    // user shared files with:\r\n    address[] imageAddressUserSharedWith;\r\n    bytes32[] imageHashUserSharedWith;\r\n\r\n    address[] fileAddressUserSharedWith;\r\n    bytes32[] fileHashUserSharedWith;\r\n  }\r\n\r\n  mapping (address => userData) private idUserData;\r\n\r\n  string[] private allUsernames;\r\n\r\n  function signUpUserOrLogin(string memory _usr, string memory _date) public { \r\n\r\n    if (!idUserData[msg.sender].userExists) {\r\n      idUserData[msg.sender].userExists = true;\r\n      idUserData[msg.sender].username = _usr;\r\n      idUserData[msg.sender].acceptTermsConditionsDate = _date;\r\n      allUsernames.push(_usr);\r\n      _setupRole(USER_ROLE, msg.sender);\r\n    } // else user already exists\r\n  }\r\n\r\n  function getUsernames() public view returns (string[] memory) {  \r\n    return (allUsernames); \r\n  }\r\n\r\n  function shareImage(string memory _usrName, address _address, bytes32 _imageHash, bytes32 _imageName, string memory _date, bool _viewOnly) public {\r\n    require(hasRole(USER_ROLE, msg.sender), \"Caller is not a user\");\r\n\r\n    idUserData[_address].imageHashesSharedWithUser.push(_imageHash);\r\n    idUserData[_address].imageNamesSharedWithUser.push(_imageName);\r\n    idUserData[_address].imageUsernameSharedWithUser.push(_usrName);\r\n    idUserData[_address].imageAddressSharedWithUser.push(msg.sender); \r\n    idUserData[_address].dateImageSharedWithUser.push(_date);\r\n\r\n    idUserData[msg.sender].imageAddressUserSharedWith.push(_address);\r\n    idUserData[msg.sender].imageHashUserSharedWith.push(_imageHash);\r\n    idUserData[_address].viewOnlyImage.push(_viewOnly);\r\n  }\r\n\r\n  function getSharedImageArr() public view returns (bytes32[] memory, bytes32[] memory, address[] memory, string[] memory, string[] memory, bool[] memory) { \r\n    require(hasRole(USER_ROLE, msg.sender), \"Caller is not a user\");\r\n\r\n    return (idUserData[msg.sender].imageHashesSharedWithUser, idUserData[msg.sender].imageNamesSharedWithUser, idUserData[msg.sender].imageAddressSharedWithUser, \r\n    idUserData[msg.sender].imageUsernameSharedWithUser, idUserData[msg.sender].dateImageSharedWithUser, idUserData[msg.sender].viewOnlyImage); \r\n  }\r\n\r\n  function shareFile(string memory _usrName, address _address, bytes32 _fileHash, bytes32 _fileName, string memory _date, bool _viewOnly) public {\r\n    require(hasRole(USER_ROLE, msg.sender), \"Caller is not a user\");\r\n\r\n    idUserData[_address].fileHashesSharedWithUser.push(_fileHash);\r\n    idUserData[_address].fileNamesSharedWithUser.push(_fileName);\r\n    idUserData[_address].fileUsernameSharedWithUser.push(_usrName);\r\n    idUserData[_address].fileAddressSharedWithUser.push(msg.sender); \r\n    idUserData[_address].dateFileSharedWithUser.push(_date);\r\n\r\n    idUserData[msg.sender].fileAddressUserSharedWith.push(_address);\r\n    idUserData[msg.sender].fileHashUserSharedWith.push(_fileHash);\r\n    idUserData[_address].viewOnlyFile.push(_viewOnly);\r\n  }\r\n\r\n  function getSharedFileArr() public view returns (bytes32[] memory, bytes32[] memory, address[] memory, string[] memory, string[] memory, bool[] memory) { \r\n    require(hasRole(USER_ROLE, msg.sender), \"Caller is not a user\");\r\n\r\n    return (idUserData[msg.sender].fileHashesSharedWithUser, idUserData[msg.sender].fileNamesSharedWithUser, idUserData[msg.sender].fileAddressSharedWithUser, \r\n    idUserData[msg.sender].fileUsernameSharedWithUser, idUserData[msg.sender].dateFileSharedWithUser, idUserData[msg.sender].viewOnlyFile); \r\n  }\r\n\r\n  function set(bytes32 _imageHash, bytes32 _imageName, string memory _date) public { \r\n    require(hasRole(USER_ROLE, msg.sender), \"Caller is not a user\");\r\n\r\n    idUserData[msg.sender].imageHashes.push(_imageHash);\r\n    idUserData[msg.sender].imageNames.push(_imageName); \r\n    idUserData[msg.sender].dateImageUpload.push(_date);\r\n  }\r\n\r\n  function setFile(bytes32 _fileHash, bytes32 _fileName, string memory _date) public { \r\n    require(hasRole(USER_ROLE, msg.sender), \"Caller is not a user\");\r\n\r\n    idUserData[msg.sender].fileHashes.push(_fileHash);\r\n    idUserData[msg.sender].fileNames.push(_fileName);\r\n    idUserData[msg.sender].dateFileUpload.push(_date);\r\n  }\r\n\r\n  function get() public view returns (bytes32[] memory, bytes32[] memory, string memory, string[] memory, address[] memory, bytes32[] memory, string memory) {  \r\n    require(hasRole(USER_ROLE, msg.sender), \"Caller is not a user\");\r\n\r\n    return (idUserData[msg.sender].imageHashes, idUserData[msg.sender].imageNames, idUserData[msg.sender].username, idUserData[msg.sender].dateImageUpload,\r\n    idUserData[msg.sender].imageAddressUserSharedWith, idUserData[msg.sender].imageHashUserSharedWith, idUserData[msg.sender].acceptTermsConditionsDate); \r\n  }\r\n\r\n  function getFile() public view returns (bytes32[] memory, bytes32[] memory, string memory, string[] memory, address[] memory, bytes32[] memory) {   \r\n    require(hasRole(USER_ROLE, msg.sender), \"Caller is not a user\");\r\n\r\n    return (idUserData[msg.sender].fileHashes, idUserData[msg.sender].fileNames, idUserData[msg.sender].username, idUserData[msg.sender].dateFileUpload,\r\n    idUserData[msg.sender].fileAddressUserSharedWith, idUserData[msg.sender].fileHashUserSharedWith); \r\n  }\r\n  \r\n}",
  "sourcePath": "/mnt/c/Users/theod/git/y3_project/contracts/CredentialStore.sol",
  "compiler": {
    "name": "solc",
    "version": "0.6.2+commit.bacdbe57.Emscripten.clang"
  },
  "schemaVersion": "3.2.5",
  "updatedAt": "2021-03-11T09:11:02.361Z",
  "networkType": "ethereum",
  "devdoc": {
    "methods": {
      "getRoleAdmin(bytes32)": {
        "details": "Returns the admin role that controls `role`. See {grantRole} and {revokeRole}.     * To change a role's admin, use {_setRoleAdmin}."
      },
      "getRoleMember(bytes32,uint256)": {
        "details": "Returns one of the accounts that have `role`. `index` must be a value between 0 and {getRoleMemberCount}, non-inclusive.     * Role bearers are not sorted in any particular way, and their ordering may change at any point.     * WARNING: When using {getRoleMember} and {getRoleMemberCount}, make sure you perform all queries on the same block. See the following https://forum.openzeppelin.com/t/iterating-over-elements-on-enumerableset-in-openzeppelin-contracts/2296[forum post] for more information."
      },
      "getRoleMemberCount(bytes32)": {
        "details": "Returns the number of accounts that have `role`. Can be used together with {getRoleMember} to enumerate all bearers of a role."
      },
      "grantRole(bytes32,address)": {
        "details": "Grants `role` to `account`.     * If `account` had not been already granted `role`, emits a {RoleGranted} event.     * Requirements:     * - the caller must have ``role``'s admin role."
      },
      "hasRole(bytes32,address)": {
        "details": "Returns `true` if `account` has been granted `role`."
      },
      "owner()": {
        "details": "Returns the address of the current owner."
      },
      "renounceOwnership()": {
        "details": "Leaves the contract without owner. It will not be possible to call `onlyOwner` functions anymore. Can only be called by the current owner.     * NOTE: Renouncing ownership will leave the contract without an owner, thereby removing any functionality that is only available to the owner."
      },
      "renounceRole(bytes32,address)": {
        "details": "Revokes `role` from the calling account.     * Roles are often managed via {grantRole} and {revokeRole}: this function's purpose is to provide a mechanism for accounts to lose their privileges if they are compromised (such as when a trusted device is misplaced).     * If the calling account had been granted `role`, emits a {RoleRevoked} event.     * Requirements:     * - the caller must be `account`."
      },
      "revokeRole(bytes32,address)": {
        "details": "Revokes `role` from `account`.     * If `account` had been granted `role`, emits a {RoleRevoked} event.     * Requirements:     * - the caller must have ``role``'s admin role."
      },
      "transferOwnership(address)": {
        "details": "Transfers ownership of the contract to a new account (`newOwner`). Can only be called by the current owner."
      }
    }
  },
  "userdoc": {
    "methods": {}
  }
}