{
  "contractName": "CredentialStore",
  "abi": [
    {
      "anonymous": false,
      "inputs": [
        {
          "indexed": true,
          "internalType": "address",
          "name": "previousOwner",
          "type": "address"
        },
        {
          "indexed": true,
          "internalType": "address",
          "name": "newOwner",
          "type": "address"
        }
      ],
      "name": "OwnershipTransferred",
      "type": "event"
    },
    {
      "anonymous": false,
      "inputs": [
        {
          "indexed": true,
          "internalType": "bytes32",
          "name": "role",
          "type": "bytes32"
        },
        {
          "indexed": true,
          "internalType": "bytes32",
          "name": "previousAdminRole",
          "type": "bytes32"
        },
        {
          "indexed": true,
          "internalType": "bytes32",
          "name": "newAdminRole",
          "type": "bytes32"
        }
      ],
      "name": "RoleAdminChanged",
      "type": "event"
    },
    {
      "anonymous": false,
      "inputs": [
        {
          "indexed": true,
          "internalType": "bytes32",
          "name": "role",
          "type": "bytes32"
        },
        {
          "indexed": true,
          "internalType": "address",
          "name": "account",
          "type": "address"
        },
        {
          "indexed": true,
          "internalType": "address",
          "name": "sender",
          "type": "address"
        }
      ],
      "name": "RoleGranted",
      "type": "event"
    },
    {
      "anonymous": false,
      "inputs": [
        {
          "indexed": true,
          "internalType": "bytes32",
          "name": "role",
          "type": "bytes32"
        },
        {
          "indexed": true,
          "internalType": "address",
          "name": "account",
          "type": "address"
        },
        {
          "indexed": true,
          "internalType": "address",
          "name": "sender",
          "type": "address"
        }
      ],
      "name": "RoleRevoked",
      "type": "event"
    },
    {
      "inputs": [],
      "name": "DEFAULT_ADMIN_ROLE",
      "outputs": [
        {
          "internalType": "bytes32",
          "name": "",
          "type": "bytes32"
        }
      ],
      "stateMutability": "view",
      "type": "function"
    },
    {
      "inputs": [
        {
          "internalType": "bytes32",
          "name": "role",
          "type": "bytes32"
        }
      ],
      "name": "getRoleAdmin",
      "outputs": [
        {
          "internalType": "bytes32",
          "name": "",
          "type": "bytes32"
        }
      ],
      "stateMutability": "view",
      "type": "function"
    },
    {
      "inputs": [
        {
          "internalType": "bytes32",
          "name": "role",
          "type": "bytes32"
        },
        {
          "internalType": "uint256",
          "name": "index",
          "type": "uint256"
        }
      ],
      "name": "getRoleMember",
      "outputs": [
        {
          "internalType": "address",
          "name": "",
          "type": "address"
        }
      ],
      "stateMutability": "view",
      "type": "function"
    },
    {
      "inputs": [
        {
          "internalType": "bytes32",
          "name": "role",
          "type": "bytes32"
        }
      ],
      "name": "getRoleMemberCount",
      "outputs": [
        {
          "internalType": "uint256",
          "name": "",
          "type": "uint256"
        }
      ],
      "stateMutability": "view",
      "type": "function"
    },
    {
      "inputs": [
        {
          "internalType": "bytes32",
          "name": "role",
          "type": "bytes32"
        },
        {
          "internalType": "address",
          "name": "account",
          "type": "address"
        }
      ],
      "name": "grantRole",
      "outputs": [],
      "stateMutability": "nonpayable",
      "type": "function"
    },
    {
      "inputs": [
        {
          "internalType": "bytes32",
          "name": "role",
          "type": "bytes32"
        },
        {
          "internalType": "address",
          "name": "account",
          "type": "address"
        }
      ],
      "name": "hasRole",
      "outputs": [
        {
          "internalType": "bool",
          "name": "",
          "type": "bool"
        }
      ],
      "stateMutability": "view",
      "type": "function"
    },
    {
      "inputs": [],
      "name": "owner",
      "outputs": [
        {
          "internalType": "address",
          "name": "",
          "type": "address"
        }
      ],
      "stateMutability": "view",
      "type": "function"
    },
    {
      "inputs": [],
      "name": "renounceOwnership",
      "outputs": [],
      "stateMutability": "nonpayable",
      "type": "function"
    },
    {
      "inputs": [
        {
          "internalType": "bytes32",
          "name": "role",
          "type": "bytes32"
        },
        {
          "internalType": "address",
          "name": "account",
          "type": "address"
        }
      ],
      "name": "renounceRole",
      "outputs": [],
      "stateMutability": "nonpayable",
      "type": "function"
    },
    {
      "inputs": [
        {
          "internalType": "bytes32",
          "name": "role",
          "type": "bytes32"
        },
        {
          "internalType": "address",
          "name": "account",
          "type": "address"
        }
      ],
      "name": "revokeRole",
      "outputs": [],
      "stateMutability": "nonpayable",
      "type": "function"
    },
    {
      "inputs": [
        {
          "internalType": "address",
          "name": "newOwner",
          "type": "address"
        }
      ],
      "name": "transferOwnership",
      "outputs": [],
      "stateMutability": "nonpayable",
      "type": "function"
    },
    {
      "inputs": [
        {
          "internalType": "string",
          "name": "_usr",
          "type": "string"
        },
        {
          "internalType": "string",
          "name": "_date",
          "type": "string"
        }
      ],
      "name": "signUpUserOrLogin",
      "outputs": [],
      "stateMutability": "nonpayable",
      "type": "function"
    },
    {
      "inputs": [],
      "name": "getUsernames",
      "outputs": [
        {
          "internalType": "string[]",
          "name": "",
          "type": "string[]"
        }
      ],
      "stateMutability": "view",
      "type": "function"
    },
    {
      "inputs": [
        {
          "internalType": "string",
          "name": "_usrName",
          "type": "string"
        },
        {
          "internalType": "address",
          "name": "_address",
          "type": "address"
        },
        {
          "internalType": "bytes32",
          "name": "_imageHash",
          "type": "bytes32"
        },
        {
          "internalType": "bytes32",
          "name": "_imageName",
          "type": "bytes32"
        },
        {
          "internalType": "string",
          "name": "_date",
          "type": "string"
        },
        {
          "internalType": "bool",
          "name": "_viewOnly",
          "type": "bool"
        }
      ],
      "name": "shareImage",
      "outputs": [],
      "stateMutability": "nonpayable",
      "type": "function"
    },
    {
      "inputs": [],
      "name": "getSharedImageArr",
      "outputs": [
        {
          "internalType": "bytes32[]",
          "name": "",
          "type": "bytes32[]"
        },
        {
          "internalType": "bytes32[]",
          "name": "",
          "type": "bytes32[]"
        },
        {
          "internalType": "address[]",
          "name": "",
          "type": "address[]"
        },
        {
          "internalType": "string[]",
          "name": "",
          "type": "string[]"
        },
        {
          "internalType": "string[]",
          "name": "",
          "type": "string[]"
        },
        {
          "internalType": "bool[]",
          "name": "",
          "type": "bool[]"
        }
      ],
      "stateMutability": "view",
      "type": "function"
    },
    {
      "inputs": [
        {
          "internalType": "string",
          "name": "_usrName",
          "type": "string"
        },
        {
          "internalType": "address",
          "name": "_address",
          "type": "address"
        },
        {
          "internalType": "bytes32",
          "name": "_fileHash",
          "type": "bytes32"
        },
        {
          "internalType": "bytes32",
          "name": "_fileName",
          "type": "bytes32"
        },
        {
          "internalType": "string",
          "name": "_date",
          "type": "string"
        },
        {
          "internalType": "bool",
          "name": "_viewOnly",
          "type": "bool"
        }
      ],
      "name": "shareFile",
      "outputs": [],
      "stateMutability": "nonpayable",
      "type": "function"
    },
    {
      "inputs": [],
      "name": "getSharedFileArr",
      "outputs": [
        {
          "internalType": "bytes32[]",
          "name": "",
          "type": "bytes32[]"
        },
        {
          "internalType": "bytes32[]",
          "name": "",
          "type": "bytes32[]"
        },
        {
          "internalType": "address[]",
          "name": "",
          "type": "address[]"
        },
        {
          "internalType": "string[]",
          "name": "",
          "type": "string[]"
        },
        {
          "internalType": "string[]",
          "name": "",
          "type": "string[]"
        },
        {
          "internalType": "bool[]",
          "name": "",
          "type": "bool[]"
        }
      ],
      "stateMutability": "view",
      "type": "function"
    },
    {
      "inputs": [
        {
          "internalType": "bytes32",
          "name": "_imageHash",
          "type": "bytes32"
        },
        {
          "internalType": "bytes32",
          "name": "_imageName",
          "type": "bytes32"
        },
        {
          "internalType": "string",
          "name": "_date",
          "type": "string"
        }
      ],
      "name": "setImage",
      "outputs": [],
      "stateMutability": "nonpayable",
      "type": "function"
    },
    {
      "inputs": [
        {
          "internalType": "bytes32",
          "name": "_fileHash",
          "type": "bytes32"
        },
        {
          "internalType": "bytes32",
          "name": "_fileName",
          "type": "bytes32"
        },
        {
          "internalType": "string",
          "name": "_date",
          "type": "string"
        }
      ],
      "name": "setFile",
      "outputs": [],
      "stateMutability": "nonpayable",
      "type": "function"
    },
    {
      "inputs": [],
      "name": "getImages",
      "outputs": [
        {
          "internalType": "bytes32[]",
          "name": "",
          "type": "bytes32[]"
        },
        {
          "internalType": "bytes32[]",
          "name": "",
          "type": "bytes32[]"
        },
        {
          "internalType": "string",
          "name": "",
          "type": "string"
        },
        {
          "internalType": "string[]",
          "name": "",
          "type": "string[]"
        },
        {
          "internalType": "address[]",
          "name": "",
          "type": "address[]"
        },
        {
          "internalType": "bytes32[]",
          "name": "",
          "type": "bytes32[]"
        },
        {
          "internalType": "string",
          "name": "",
          "type": "string"
        },
        {
          "internalType": "bytes32[]",
          "name": "",
          "type": "bytes32[]"
        }
      ],
      "stateMutability": "view",
      "type": "function"
    },
    {
      "inputs": [],
      "name": "getFiles",
      "outputs": [
        {
          "internalType": "bytes32[]",
          "name": "",
          "type": "bytes32[]"
        },
        {
          "internalType": "bytes32[]",
          "name": "",
          "type": "bytes32[]"
        },
        {
          "internalType": "string",
          "name": "",
          "type": "string"
        },
        {
          "internalType": "string[]",
          "name": "",
          "type": "string[]"
        },
        {
          "internalType": "address[]",
          "name": "",
          "type": "address[]"
        },
        {
          "internalType": "bytes32[]",
          "name": "",
          "type": "bytes32[]"
        },
        {
          "internalType": "bytes32[]",
          "name": "",
          "type": "bytes32[]"
        }
      ],
      "stateMutability": "view",
      "type": "function"
    }
  ],
  "bytecode": "0x60806040526000610017640100000000610066810204565b60008054600160a060020a031916600160a060020a0383169081178255604051929350917f8be0079c531659141344cd1fd0a4f28419497f9722a3daafe3b4186f6b6457e0908290a35061006a565b3390565b6128e7806100796000396000f3fe608060405234801561001057600080fd5b5060043610610194576000357c01000000000000000000000000000000000000000000000000000000009004806384acf963116100f5578063a217fddf116100a9578063d547741f11610083578063d547741f1461030f578063f2fde38b14610322578063fa0b3ed91461033557610194565b8063a217fddf146102e1578063ca15c873146102e9578063cf9b75e7146102fc57610194565b80638da5cb5b116100da5780638da5cb5b146102995780639010d07c146102ae57806391d14854146102c157610194565b806384acf9631461027e57806387e3310f1461028657610194565b80632da96d731161014c57806336568abe1161013157806336568abe146102505780635a144e8214610263578063715018a61461027657610194565b80632da96d73146102225780632f2ff15d1461023d57610194565b806313d921581161017d57806313d92158146101d3578063248a9ca3146101ed5780632ad8cb031461020d57610194565b806311397b5f1461019957806311498334146101b7575b600080fd5b6101a1610348565b6040516101ae919061264d565b60405180910390f35b6101bf610421565b6040516101ae9897969594939291906125a2565b6101db610876565b6040516101ae96959493929190612467565b6102006101fb366004612131565b610c26565b6040516101ae919061266b565b61022061021b36600461229c565b610c3b565b005b61022a610d10565b6040516101ae979695949392919061250e565b61022061024b366004612149565b6110b6565b61022061025e366004612149565b611114565b610220610271366004612190565b61118a565b610220611237565b6101db6112f7565b610220610294366004612190565b61161b565b6102a16116c2565b6040516101ae9190612446565b6102a16102bc3660046121de565b6116de565b6102d46102cf366004612149565b611705565b6040516101ae9190612660565b610200611723565b6102006102f7366004612131565b611728565b61022061030a3660046121ff565b61173f565b61022061031d366004612149565b61193f565b610220610330366004612116565b611993565b6102206103433660046121ff565b611abe565b60606003805480602002602001604051908101604052809291908181526020016000905b828210156104175760008481526020908190208301805460408051601f60026000196101006001871615020190941693909304928301859004850281018501909152818152928301828280156104035780601f106103d857610100808354040283529160200191610403565b820191906000526020600020905b8154815290600101906020018083116103e657829003601f168201915b50505050508152602001906001019061036c565b5050505090505b90565b60608060608060608060608061044a60405161043c9061241d565b604051809103902033611705565b610489576040517f08c379a00000000000000000000000000000000000000000000000000000000081526004016104809061281d565b60405180910390fd5b3360009081526002602081815260409283902060058101805485518185028101850190965280865290946006830194830193600984019360158101936016820193600183019360179093019290918a9183018282801561050857602002820191906000526020600020905b8154815260200190600101908083116104f4575b505050505097508680548060200260200160405190810160405280929190818152602001828054801561055a57602002820191906000526020600020905b815481526020019060010190808311610546575b5050895460408051602060026001851615610100026000190190941693909304601f8101849004840282018401909252818152959c508b9450925084019050828280156105e85780601f106105bd576101008083540402835291602001916105e8565b820191906000526020600020905b8154815290600101906020018083116105cb57829003601f168201915b5050505050955084805480602002602001604051908101604052809291908181526020016000905b828210156106bb5760008481526020908190208301805460408051601f60026000196101006001871615020190941693909304928301859004850281018501909152818152928301828280156106a75780601f1061067c576101008083540402835291602001916106a7565b820191906000526020600020905b81548152906001019060200180831161068a57829003601f168201915b505050505081526020019060010190610610565b5050505094508380548060200260200160405190810160405280929190818152602001828054801561072357602002820191906000526020600020905b815473ffffffffffffffffffffffffffffffffffffffff1681526001909101906020018083116106f8575b505050505093508280548060200260200160405190810160405280929190818152602001828054801561077557602002820191906000526020600020905b815481526020019060010190808311610761575b5050855460408051602060026001851615610100026000190190941693909304601f8101849004840282018401909252818152959850879450925084019050828280156108035780601f106107d857610100808354040283529160200191610803565b820191906000526020600020905b8154815290600101906020018083116107e657829003601f168201915b505050505091508080548060200260200160405190810160405280929190818152602001828054801561085557602002820191906000526020600020905b815481526020019060010190808311610841575b50505050509050975097509750975097509750975097509091929394959697565b60608060608060608061088e60405161043c9061241d565b6108c4576040517f08c379a00000000000000000000000000000000000000000000000000000000081526004016104809061281d565b33600090815260026020908152604091829020600c810180548451818502810185019095528085529093600d83019360108401936012810193601482019360049092019288919083018282801561093a57602002820191906000526020600020905b815481526020019060010190808311610926575b505050505095508480548060200260200160405190810160405280929190818152602001828054801561098c57602002820191906000526020600020905b815481526020019060010190808311610978575b50505050509450838054806020026020016040519081016040528092919081815260200182805480156109f557602002820191906000526020600020905b815473ffffffffffffffffffffffffffffffffffffffff1681526001909101906020018083116109ca575b5050505050935082805480602002602001604051908101604052809291908181526020016000905b82821015610ac85760008481526020908190208301805460408051601f6002600019610100600187161502019094169390930492830185900485028101850190915281815292830182828015610ab45780601f10610a8957610100808354040283529160200191610ab4565b820191906000526020600020905b815481529060010190602001808311610a9757829003601f168201915b505050505081526020019060010190610a1d565b50505050925081805480602002602001604051908101604052809291908181526020016000905b82821015610b9a5760008481526020908190208301805460408051601f6002600019610100600187161502019094169390930492830185900485028101850190915281815292830182828015610b865780601f10610b5b57610100808354040283529160200191610b86565b820191906000526020600020905b815481529060010190602001808311610b6957829003601f168201915b505050505081526020019060010190610aef565b50505050915080805480602002602001604051908101604052809291908181526020018280548015610c0b57602002820191906000526020600020906000905b825461010083900a900460ff161515815260206001928301818104948501949093039092029101808411610bda5790505b50505050509050955095509550955095509550909192939495565b60009081526001602052604090206002015490565b3360009081526002602052604090205460ff16610d0c57336000908152600260208181526040909220805460ff191660011781558451610c8393919092019190850190611fdc565b503360009081526002602090815260409091208251610caa92600190920191840190611fdc565b50600380546001810182556000919091528251610cee917fc2575a0e9e593c00f959f8c92f12db2869c3395a3b0502d05e2516446f71f85b01906020850190611fdc565b50610d0c604051610cfe9061241d565b60405180910390203361110a565b5050565b6060806060806060806060610d2a60405161043c9061241d565b610d60576040517f08c379a00000000000000000000000000000000000000000000000000000000081526004016104809061281d565b33600090815260026020818152604092839020600a810180548551818502810185019096528086529094600b830194830193600e84019360188101936019820193601a90920192899190830182828015610dd957602002820191906000526020600020905b815481526020019060010190808311610dc5575b5050505050965085805480602002602001604051908101604052809291908181526020018280548015610e2b57602002820191906000526020600020905b815481526020019060010190808311610e17575b5050885460408051602060026001851615610100026000190190941693909304601f8101849004840282018401909252818152959b508a945092508401905082828015610eb95780601f10610e8e57610100808354040283529160200191610eb9565b820191906000526020600020905b815481529060010190602001808311610e9c57829003601f168201915b5050505050945083805480602002602001604051908101604052809291908181526020016000905b82821015610f8c5760008481526020908190208301805460408051601f6002600019610100600187161502019094169390930492830185900485028101850190915281815292830182828015610f785780601f10610f4d57610100808354040283529160200191610f78565b820191906000526020600020905b815481529060010190602001808311610f5b57829003601f168201915b505050505081526020019060010190610ee1565b50505050935082805480602002602001604051908101604052809291908181526020018280548015610ff457602002820191906000526020600020905b815473ffffffffffffffffffffffffffffffffffffffff168152600190910190602001808311610fc9575b505050505092508180548060200260200160405190810160405280929190818152602001828054801561104657602002820191906000526020600020905b815481526020019060010190808311611032575b505050505091508080548060200260200160405190810160405280929190818152602001828054801561109857602002820191906000526020600020905b815481526020019060010190808311611084575b50505050509050965096509650965096509650965090919293949596565b6000828152600160205260409020600201546110d4906102cf611cbe565b61110a576040517f08c379a0000000000000000000000000000000000000000000000000000000008152600401610480906126d1565b610d0c8282611cc2565b61111c611cbe565b73ffffffffffffffffffffffffffffffffffffffff168173ffffffffffffffffffffffffffffffffffffffff1614611180576040517f08c379a000000000000000000000000000000000000000000000000000000000815260040161048090612854565b610d0c8282611d4b565b61119960405161043c9061241d565b6111cf576040517f08c379a00000000000000000000000000000000000000000000000000000000081526004016104809061281d565b336000908152600260209081526040822060058101805460018181018355918552838520018790556006820180548083018255908552838520018690556009909101805491820181558352918190208351611231939190910191840190611fdc565b50505050565b61123f611cbe565b60005473ffffffffffffffffffffffffffffffffffffffff908116911614611293576040517f08c379a0000000000000000000000000000000000000000000000000000000008152600401610480906127e8565b6000805460405173ffffffffffffffffffffffffffffffffffffffff909116907f8be0079c531659141344cd1fd0a4f28419497f9722a3daafe3b4186f6b6457e0908390a36000805473ffffffffffffffffffffffffffffffffffffffff19169055565b60608060608060608061130f60405161043c9061241d565b611345576040517f08c379a00000000000000000000000000000000000000000000000000000000081526004016104809061281d565b3360009081526002602090815260409182902060078101805484518185028101850190955280855290936008830193600f840193601181019360138201936003909201928891908301828280156113bb57602002820191906000526020600020905b8154815260200190600101908083116113a7575b505050505095508480548060200260200160405190810160405280929190818152602001828054801561140d57602002820191906000526020600020905b8154815260200190600101908083116113f9575b505050505094508380548060200260200160405190810160405280929190818152602001828054801561147657602002820191906000526020600020905b815473ffffffffffffffffffffffffffffffffffffffff16815260019091019060200180831161144b575b5050505050935082805480602002602001604051908101604052809291908181526020016000905b828210156115495760008481526020908190208301805460408051601f60026000196101006001871615020190941693909304928301859004850281018501909152818152928301828280156115355780601f1061150a57610100808354040283529160200191611535565b820191906000526020600020905b81548152906001019060200180831161151857829003601f168201915b50505050508152602001906001019061149e565b50505050925081805480602002602001604051908101604052809291908181526020016000905b82821015610b9a5760008481526020908190208301805460408051601f60026000196101006001871615020190941693909304928301859004850281018501909152818152928301828280156116075780601f106115dc57610100808354040283529160200191611607565b820191906000526020600020905b8154815290600101906020018083116115ea57829003601f168201915b505050505081526020019060010190611570565b61162a60405161043c9061241d565b611660576040517f08c379a00000000000000000000000000000000000000000000000000000000081526004016104809061281d565b3360009081526002602090815260408220600a810180546001818101835591855283852001879055600b82018054808301825590855283852001869055600e909101805491820181558352918190208351611231939190910191840190611fdc565b60005473ffffffffffffffffffffffffffffffffffffffff1690565b60008281526001602052604081206116fc908363ffffffff611dd416565b90505b92915050565b60008281526001602052604081206116fc908363ffffffff611de016565b600081565b60008181526001602052604081206116ff90611e02565b61174e60405161043c9061241d565b611784576040517f08c379a00000000000000000000000000000000000000000000000000000000081526004016104809061281d565b73ffffffffffffffffffffffffffffffffffffffff851660009081526002602090815260408220600c810180546001818101835591855283852001889055600d8201805480830182559085528385200187905560129091018054918201815583529181902088516117fc939190910191890190611fdc565b5073ffffffffffffffffffffffffffffffffffffffff8516600090815260026020908152604082206010810180546001818101835591855283852001805473ffffffffffffffffffffffffffffffffffffffff191633179055601490910180549182018155835291819020845161187a939190910191850190611fdc565b503360009081526002602090815260408083206018810180546001808201835591865284862001805473ffffffffffffffffffffffffffffffffffffffff191673ffffffffffffffffffffffffffffffffffffffff9b909b169a8b17905560198201805480830182559086528486200198909855601a0180548089018255908452828420019590955595815292832060040180549485018155835291849020938304909301805460ff601f9094166101000a9384021916911515929092021790555050565b60008281526001602052604090206002015461195d906102cf611cbe565b611180576040517f08c379a00000000000000000000000000000000000000000000000000000000081526004016104809061278b565b61199b611cbe565b60005473ffffffffffffffffffffffffffffffffffffffff9081169116146119ef576040517f08c379a0000000000000000000000000000000000000000000000000000000008152600401610480906127e8565b73ffffffffffffffffffffffffffffffffffffffff8116611a3c576040517f08c379a00000000000000000000000000000000000000000000000000000000081526004016104809061272e565b6000805460405173ffffffffffffffffffffffffffffffffffffffff808516939216917f8be0079c531659141344cd1fd0a4f28419497f9722a3daafe3b4186f6b6457e091a36000805473ffffffffffffffffffffffffffffffffffffffff191673ffffffffffffffffffffffffffffffffffffffff92909216919091179055565b611acd60405161043c9061241d565b611b03576040517f08c379a00000000000000000000000000000000000000000000000000000000081526004016104809061281d565b73ffffffffffffffffffffffffffffffffffffffff85166000908152600260209081526040822060078101805460018181018355918552838520018890556008820180548083018255908552838520018790556011909101805491820181558352918190208851611b7b939190910191890190611fdc565b5073ffffffffffffffffffffffffffffffffffffffff851660009081526002602090815260408220600f810180546001818101835591855283852001805473ffffffffffffffffffffffffffffffffffffffff1916331790556013909101805491820181558352918190208451611bf9939190910191850190611fdc565b503360009081526002602090815260408083206015810180546001808201835591865284862001805473ffffffffffffffffffffffffffffffffffffffff191673ffffffffffffffffffffffffffffffffffffffff9b909b169a8b1790556016820180548083018255908652848620019890985560170180548089018255908452828420019590955595815292832060030180549485018155835291849020938304909301805460ff601f9094166101000a9384021916911515929092021790555050565b3390565b6000828152600160205260409020611ce0908263ffffffff611e0d16565b15610d0c57611ced611cbe565b73ffffffffffffffffffffffffffffffffffffffff168173ffffffffffffffffffffffffffffffffffffffff16837f2f8788117e7eff1d82e926ec794901d17c78024a50270940304540a733656f0d60405160405180910390a45050565b6000828152600160205260409020611d69908263ffffffff611e2f16565b15610d0c57611d76611cbe565b73ffffffffffffffffffffffffffffffffffffffff168173ffffffffffffffffffffffffffffffffffffffff16837ff6391f5c32d9c69d2a47ea670b442974b53935d1edc7fd64eb21e047a839171b60405160405180910390a45050565b60006116fc8383611e51565b60006116fc8373ffffffffffffffffffffffffffffffffffffffff8416611eb0565b60006116ff82611ec8565b60006116fc8373ffffffffffffffffffffffffffffffffffffffff8416611ecc565b60006116fc8373ffffffffffffffffffffffffffffffffffffffff8416611f16565b81546000908210611e8e576040517f08c379a000000000000000000000000000000000000000000000000000000000815260040161048090612674565b826000018281548110611e9d57fe5b9060005260206000200154905092915050565b60009081526001919091016020526040902054151590565b5490565b6000611ed88383611eb0565b611f0e575081546001818101845560008481526020808220909301849055845484825282860190935260409020919091556116ff565b5060006116ff565b60008181526001830160205260408120548015611fd25783546000198083019190810190600090879083908110611f4957fe5b9060005260206000200154905080876000018481548110611f6657fe5b600091825260208083209091019290925582815260018981019092526040902090840190558654879080611f9657fe5b600190038181906000526020600020016000905590558660010160008781526020019081526020016000206000905560019450505050506116ff565b60009150506116ff565b828054600181600116156101000203166002900490600052602060002090601f016020900481019282601f1061201d57805160ff191683800117855561204a565b8280016001018555821561204a579182015b8281111561204a57825182559160200191906001019061202f565b5061205692915061205a565b5090565b61041e91905b808211156120565760008155600101612060565b803573ffffffffffffffffffffffffffffffffffffffff811681146116ff57600080fd5b600082601f8301126120a8578081fd5b813567ffffffffffffffff808211156120bf578283fd5b604051601f8301601f1916810160200182811182821017156120df578485fd5b6040528281529250828483016020018610156120fa57600080fd5b8260208601602083013760006020848301015250505092915050565b600060208284031215612127578081fd5b6116fc8383612074565b600060208284031215612142578081fd5b5035919050565b6000806040838503121561215b578081fd5b82359150602083013573ffffffffffffffffffffffffffffffffffffffff81168114612185578182fd5b809150509250929050565b6000806000606084860312156121a4578081fd5b8335925060208401359150604084013567ffffffffffffffff8111156121c8578182fd5b6121d486828701612098565b9150509250925092565b600080604083850312156121f0578182fd5b50508035926020909101359150565b60008060008060008060c08789031215612217578182fd5b863567ffffffffffffffff8082111561222e578384fd5b61223a8a838b01612098565b97506122498a60208b01612074565b96506040890135955060608901359450608089013591508082111561226c578384fd5b5061227989828a01612098565b92505060a0870135801515811461228e578182fd5b809150509295509295509295565b600080604083850312156122ae578182fd5b823567ffffffffffffffff808211156122c5578384fd5b6122d186838701612098565b935060208501359150808211156122e6578283fd5b506122f385828601612098565b9150509250929050565b6000815180845260208085019450808401835b8381101561234257815173ffffffffffffffffffffffffffffffffffffffff1687529582019590820190600101612310565b509495945050505050565b6000815180845260208085019450808401835b8381101561234257815187529582019590820190600101612360565b60008282518085526020808601955080818302840101818601855b848110156123c557601f198684030189526123b38383516123d2565b98840198925090830190600101612397565b5090979650505050505050565b60008151808452815b818110156123f7576020818501810151868301820152016123db565b818111156124085782602083870101525b50601f01601f19169290920160200192915050565b7f555345525f524f4c450000000000000000000000000000000000000000000000815260090190565b73ffffffffffffffffffffffffffffffffffffffff91909116815260200190565b600060c0825261247a60c083018961234d565b60208382038185015261248d828a61234d565b848103604086015261249f818a6122fd565b92505083820360608501526124b4828861237c565b84810360808601526124c6818861237c565b85810360a0870152865180825283880194509083019150845b818110156124fd5784511515835293830193918301916001016124df565b50909b9a5050505050505050505050565b600060e0825261252160e083018a61234d565b8281036020840152612533818a61234d565b8381036040850152612545818a6123d2565b915050828103606084015261255a818861237c565b838103608085015261256c81886122fd565b91505082810360a0840152612581818661234d565b83810360c0850152612593818661234d565b9b9a5050505050505050505050565b60006101008083526125b68184018c61234d565b83810360208501526125c8818c61234d565b91505082810360408401526125dd818a6123d2565b83810360608501526125ef818a61237c565b915050828103608084015261260481886122fd565b83810360a0850152612616818861234d565b91505082810360c084015261262b81866123d2565b83810360e085015261263d818661234d565b9c9b505050505050505050505050565b6000602082526116fc602083018461237c565b901515815260200190565b90815260200190565b60208082526022908201527f456e756d657261626c655365743a20696e646578206f7574206f6620626f756e60408201527f6473000000000000000000000000000000000000000000000000000000000000606082015260800190565b6020808252602f908201527f416363657373436f6e74726f6c3a2073656e646572206d75737420626520616e60408201527f2061646d696e20746f206772616e740000000000000000000000000000000000606082015260800190565b60208082526026908201527f4f776e61626c653a206e6577206f776e657220697320746865207a65726f206160408201527f6464726573730000000000000000000000000000000000000000000000000000606082015260800190565b60208082526030908201527f416363657373436f6e74726f6c3a2073656e646572206d75737420626520616e60408201527f2061646d696e20746f207265766f6b6500000000000000000000000000000000606082015260800190565b6020808252818101527f4f776e61626c653a2063616c6c6572206973206e6f7420746865206f776e6572604082015260600190565b60208082526014908201527f43616c6c6572206973206e6f7420612075736572000000000000000000000000604082015260600190565b6020808252602f908201527f416363657373436f6e74726f6c3a2063616e206f6e6c792072656e6f756e636560408201527f20726f6c657320666f722073656c66000000000000000000000000000000000060608201526080019056fea2646970667358221220e79f71190e07987c161bdec892adcdc009abc38b4eeefee9c3129b120aa0054764736f6c63430006020033",
  "source": "// SPDX-License-Identifier: MIT\r\npragma experimental ABIEncoderV2;\r\npragma solidity >=0.6.0;\r\nimport \"@openzeppelin/contracts/access/Ownable.sol\";\r\nimport \"@openzeppelin/contracts/access/AccessControl.sol\";\r\n\r\ncontract CredentialStore is Ownable, AccessControl {\r\n\r\n  bytes32 private constant USER_ROLE = keccak256(\"USER_ROLE\");\r\n\r\n  struct userData {\r\n\r\n    bool userExists; \r\n    string acceptTermsConditionsDate; \r\n    string username;\r\n    bool[] viewOnlyImage;\r\n    bool[] viewOnlyFile;\r\n\r\n    bytes32[] imageHashes;\r\n    bytes32[] imageNames;\r\n    bytes32[] imageHashesSharedWithUser;\r\n    bytes32[] imageNamesSharedWithUser;\r\n    string[] dateImageUpload;\r\n\r\n    bytes32[] fileHashes;\r\n    bytes32[] fileNames;\r\n    bytes32[] fileHashesSharedWithUser;\r\n    bytes32[] fileNamesSharedWithUser;\r\n    string[] dateFileUpload;\r\n\r\n    address[] imageAddressSharedWithUser;\r\n    address[] fileAddressSharedWithUser;\r\n    string[] imageUsernameSharedWithUser;\r\n    string[] fileUsernameSharedWithUser;\r\n\r\n    string[] dateImageSharedWithUser;\r\n    string[] dateFileSharedWithUser;\r\n\r\n    address[] imageAddressUserSharedWith;\r\n    bytes32[] imageHashUserSharedWith;\r\n    bytes32[] imageNamesUserSharedWith;\r\n\r\n    address[] fileAddressUserSharedWith;\r\n    bytes32[] fileHashUserSharedWith;\r\n    bytes32[] fileNamesUserSharedWith;\r\n  }\r\n\r\n  mapping (address => userData) private idUserData;\r\n\r\n  string[] private allUsernames;\r\n\r\n  function signUpUserOrLogin(string memory _usr, string memory _date) public { \r\n\r\n    if (!idUserData[msg.sender].userExists) {\r\n      idUserData[msg.sender].userExists = true;\r\n      idUserData[msg.sender].username = _usr;\r\n      idUserData[msg.sender].acceptTermsConditionsDate = _date;\r\n      allUsernames.push(_usr);\r\n      _setupRole(USER_ROLE, msg.sender);\r\n    } // else user already exists\r\n  }\r\n\r\n  function getUsernames() public view returns (string[] memory) {  \r\n    return (allUsernames); \r\n  }\r\n\r\n  function shareImage(string memory _usrName, address _address, bytes32 _imageHash, bytes32 _imageName, string memory _date, bool _viewOnly) public {\r\n    require(hasRole(USER_ROLE, msg.sender), \"Caller is not a user\");\r\n\r\n    idUserData[_address].imageHashesSharedWithUser.push(_imageHash);\r\n    idUserData[_address].imageNamesSharedWithUser.push(_imageName);\r\n    idUserData[_address].imageUsernameSharedWithUser.push(_usrName);\r\n    idUserData[_address].imageAddressSharedWithUser.push(msg.sender); \r\n    idUserData[_address].dateImageSharedWithUser.push(_date);\r\n\r\n    idUserData[msg.sender].imageAddressUserSharedWith.push(_address);\r\n    idUserData[msg.sender].imageHashUserSharedWith.push(_imageHash);\r\n    idUserData[msg.sender].imageNamesUserSharedWith.push(_imageName); \r\n    idUserData[_address].viewOnlyImage.push(_viewOnly);\r\n  }\r\n\r\n  function getSharedImageArr() public view returns (bytes32[] memory, bytes32[] memory, address[] memory, string[] memory, string[] memory, bool[] memory) { \r\n    require(hasRole(USER_ROLE, msg.sender), \"Caller is not a user\");\r\n\r\n    return (idUserData[msg.sender].imageHashesSharedWithUser, idUserData[msg.sender].imageNamesSharedWithUser, idUserData[msg.sender].imageAddressSharedWithUser, \r\n    idUserData[msg.sender].imageUsernameSharedWithUser, idUserData[msg.sender].dateImageSharedWithUser, idUserData[msg.sender].viewOnlyImage); \r\n  }\r\n\r\n  function shareFile(string memory _usrName, address _address, bytes32 _fileHash, bytes32 _fileName, string memory _date, bool _viewOnly) public {\r\n    require(hasRole(USER_ROLE, msg.sender), \"Caller is not a user\");\r\n\r\n    idUserData[_address].fileHashesSharedWithUser.push(_fileHash);\r\n    idUserData[_address].fileNamesSharedWithUser.push(_fileName);\r\n    idUserData[_address].fileUsernameSharedWithUser.push(_usrName);\r\n    idUserData[_address].fileAddressSharedWithUser.push(msg.sender); \r\n    idUserData[_address].dateFileSharedWithUser.push(_date);\r\n\r\n    idUserData[msg.sender].fileAddressUserSharedWith.push(_address);\r\n    idUserData[msg.sender].fileHashUserSharedWith.push(_fileHash);\r\n    idUserData[msg.sender].fileNamesUserSharedWith.push(_fileName); \r\n    idUserData[_address].viewOnlyFile.push(_viewOnly);\r\n  }\r\n\r\n  function getSharedFileArr() public view returns (bytes32[] memory, bytes32[] memory, address[] memory, string[] memory, string[] memory, bool[] memory) { \r\n    require(hasRole(USER_ROLE, msg.sender), \"Caller is not a user\");\r\n\r\n    return (idUserData[msg.sender].fileHashesSharedWithUser, idUserData[msg.sender].fileNamesSharedWithUser, idUserData[msg.sender].fileAddressSharedWithUser, \r\n    idUserData[msg.sender].fileUsernameSharedWithUser, idUserData[msg.sender].dateFileSharedWithUser, idUserData[msg.sender].viewOnlyFile); \r\n  }\r\n\r\n  function setImage(bytes32 _imageHash, bytes32 _imageName, string memory _date) public { \r\n    require(hasRole(USER_ROLE, msg.sender), \"Caller is not a user\");\r\n\r\n    idUserData[msg.sender].imageHashes.push(_imageHash);\r\n    idUserData[msg.sender].imageNames.push(_imageName); \r\n    idUserData[msg.sender].dateImageUpload.push(_date);\r\n  }\r\n\r\n  function setFile(bytes32 _fileHash, bytes32 _fileName, string memory _date) public { \r\n    require(hasRole(USER_ROLE, msg.sender), \"Caller is not a user\");\r\n\r\n    idUserData[msg.sender].fileHashes.push(_fileHash);\r\n    idUserData[msg.sender].fileNames.push(_fileName);\r\n    idUserData[msg.sender].dateFileUpload.push(_date);\r\n  }\r\n\r\n  function getImages() public view returns (bytes32[] memory, bytes32[] memory, string memory, string[] memory, address[] memory, bytes32[] memory, string memory, bytes32[] memory) {  \r\n    require(hasRole(USER_ROLE, msg.sender), \"Caller is not a user\");\r\n\r\n    return (idUserData[msg.sender].imageHashes, idUserData[msg.sender].imageNames, idUserData[msg.sender].username, idUserData[msg.sender].dateImageUpload,\r\n    idUserData[msg.sender].imageAddressUserSharedWith, idUserData[msg.sender].imageHashUserSharedWith, idUserData[msg.sender].acceptTermsConditionsDate, idUserData[msg.sender].imageNamesUserSharedWith); \r\n  }\r\n\r\n  function getFiles() public view returns (bytes32[] memory, bytes32[] memory, string memory, string[] memory, address[] memory, bytes32[] memory, bytes32[] memory) {   \r\n    require(hasRole(USER_ROLE, msg.sender), \"Caller is not a user\");\r\n\r\n    return (idUserData[msg.sender].fileHashes, idUserData[msg.sender].fileNames, idUserData[msg.sender].username, idUserData[msg.sender].dateFileUpload,\r\n    idUserData[msg.sender].fileAddressUserSharedWith, idUserData[msg.sender].fileHashUserSharedWith, idUserData[msg.sender].fileNamesUserSharedWith); \r\n  }\r\n  \r\n}",
  "sourcePath": "/mnt/c/Users/theod/git/y3_project/contracts/CredentialStore.sol",
  "compiler": {
    "name": "solc",
    "version": "0.6.2+commit.bacdbe57.Emscripten.clang"
  },
  "schemaVersion": "3.3.4",
  "updatedAt": "2021-04-08T10:03:18.896Z",
  "devdoc": {
    "methods": {
      "getRoleAdmin(bytes32)": {
        "details": "Returns the admin role that controls `role`. See {grantRole} and {revokeRole}.     * To change a role's admin, use {_setRoleAdmin}."
      },
      "getRoleMember(bytes32,uint256)": {
        "details": "Returns one of the accounts that have `role`. `index` must be a value between 0 and {getRoleMemberCount}, non-inclusive.     * Role bearers are not sorted in any particular way, and their ordering may change at any point.     * WARNING: When using {getRoleMember} and {getRoleMemberCount}, make sure you perform all queries on the same block. See the following https://forum.openzeppelin.com/t/iterating-over-elements-on-enumerableset-in-openzeppelin-contracts/2296[forum post] for more information."
      },
      "getRoleMemberCount(bytes32)": {
        "details": "Returns the number of accounts that have `role`. Can be used together with {getRoleMember} to enumerate all bearers of a role."
      },
      "grantRole(bytes32,address)": {
        "details": "Grants `role` to `account`.     * If `account` had not been already granted `role`, emits a {RoleGranted} event.     * Requirements:     * - the caller must have ``role``'s admin role."
      },
      "hasRole(bytes32,address)": {
        "details": "Returns `true` if `account` has been granted `role`."
      },
      "owner()": {
        "details": "Returns the address of the current owner."
      },
      "renounceOwnership()": {
        "details": "Leaves the contract without owner. It will not be possible to call `onlyOwner` functions anymore. Can only be called by the current owner.     * NOTE: Renouncing ownership will leave the contract without an owner, thereby removing any functionality that is only available to the owner."
      },
      "renounceRole(bytes32,address)": {
        "details": "Revokes `role` from the calling account.     * Roles are often managed via {grantRole} and {revokeRole}: this function's purpose is to provide a mechanism for accounts to lose their privileges if they are compromised (such as when a trusted device is misplaced).     * If the calling account had been granted `role`, emits a {RoleRevoked} event.     * Requirements:     * - the caller must be `account`."
      },
      "revokeRole(bytes32,address)": {
        "details": "Revokes `role` from `account`.     * If `account` had been granted `role`, emits a {RoleRevoked} event.     * Requirements:     * - the caller must have ``role``'s admin role."
      },
      "transferOwnership(address)": {
        "details": "Transfers ownership of the contract to a new account (`newOwner`). Can only be called by the current owner."
      }
    }
  },
  "userdoc": {
    "methods": {}
  }
}