{
  "contractName": "CredentialStore",
  "abi": [
    {
      "anonymous": false,
      "inputs": [
        {
          "indexed": true,
          "internalType": "address",
          "name": "previousOwner",
          "type": "address"
        },
        {
          "indexed": true,
          "internalType": "address",
          "name": "newOwner",
          "type": "address"
        }
      ],
      "name": "OwnershipTransferred",
      "type": "event"
    },
    {
      "anonymous": false,
      "inputs": [
        {
          "indexed": true,
          "internalType": "bytes32",
          "name": "role",
          "type": "bytes32"
        },
        {
          "indexed": true,
          "internalType": "bytes32",
          "name": "previousAdminRole",
          "type": "bytes32"
        },
        {
          "indexed": true,
          "internalType": "bytes32",
          "name": "newAdminRole",
          "type": "bytes32"
        }
      ],
      "name": "RoleAdminChanged",
      "type": "event"
    },
    {
      "anonymous": false,
      "inputs": [
        {
          "indexed": true,
          "internalType": "bytes32",
          "name": "role",
          "type": "bytes32"
        },
        {
          "indexed": true,
          "internalType": "address",
          "name": "account",
          "type": "address"
        },
        {
          "indexed": true,
          "internalType": "address",
          "name": "sender",
          "type": "address"
        }
      ],
      "name": "RoleGranted",
      "type": "event"
    },
    {
      "anonymous": false,
      "inputs": [
        {
          "indexed": true,
          "internalType": "bytes32",
          "name": "role",
          "type": "bytes32"
        },
        {
          "indexed": true,
          "internalType": "address",
          "name": "account",
          "type": "address"
        },
        {
          "indexed": true,
          "internalType": "address",
          "name": "sender",
          "type": "address"
        }
      ],
      "name": "RoleRevoked",
      "type": "event"
    },
    {
      "inputs": [],
      "name": "DEFAULT_ADMIN_ROLE",
      "outputs": [
        {
          "internalType": "bytes32",
          "name": "",
          "type": "bytes32"
        }
      ],
      "stateMutability": "view",
      "type": "function",
      "constant": true
    },
    {
      "inputs": [
        {
          "internalType": "bytes32",
          "name": "role",
          "type": "bytes32"
        }
      ],
      "name": "getRoleAdmin",
      "outputs": [
        {
          "internalType": "bytes32",
          "name": "",
          "type": "bytes32"
        }
      ],
      "stateMutability": "view",
      "type": "function",
      "constant": true
    },
    {
      "inputs": [
        {
          "internalType": "bytes32",
          "name": "role",
          "type": "bytes32"
        },
        {
          "internalType": "uint256",
          "name": "index",
          "type": "uint256"
        }
      ],
      "name": "getRoleMember",
      "outputs": [
        {
          "internalType": "address",
          "name": "",
          "type": "address"
        }
      ],
      "stateMutability": "view",
      "type": "function",
      "constant": true
    },
    {
      "inputs": [
        {
          "internalType": "bytes32",
          "name": "role",
          "type": "bytes32"
        }
      ],
      "name": "getRoleMemberCount",
      "outputs": [
        {
          "internalType": "uint256",
          "name": "",
          "type": "uint256"
        }
      ],
      "stateMutability": "view",
      "type": "function",
      "constant": true
    },
    {
      "inputs": [
        {
          "internalType": "bytes32",
          "name": "role",
          "type": "bytes32"
        },
        {
          "internalType": "address",
          "name": "account",
          "type": "address"
        }
      ],
      "name": "grantRole",
      "outputs": [],
      "stateMutability": "nonpayable",
      "type": "function"
    },
    {
      "inputs": [
        {
          "internalType": "bytes32",
          "name": "role",
          "type": "bytes32"
        },
        {
          "internalType": "address",
          "name": "account",
          "type": "address"
        }
      ],
      "name": "hasRole",
      "outputs": [
        {
          "internalType": "bool",
          "name": "",
          "type": "bool"
        }
      ],
      "stateMutability": "view",
      "type": "function",
      "constant": true
    },
    {
      "inputs": [],
      "name": "owner",
      "outputs": [
        {
          "internalType": "address",
          "name": "",
          "type": "address"
        }
      ],
      "stateMutability": "view",
      "type": "function",
      "constant": true
    },
    {
      "inputs": [],
      "name": "renounceOwnership",
      "outputs": [],
      "stateMutability": "nonpayable",
      "type": "function"
    },
    {
      "inputs": [
        {
          "internalType": "bytes32",
          "name": "role",
          "type": "bytes32"
        },
        {
          "internalType": "address",
          "name": "account",
          "type": "address"
        }
      ],
      "name": "renounceRole",
      "outputs": [],
      "stateMutability": "nonpayable",
      "type": "function"
    },
    {
      "inputs": [
        {
          "internalType": "bytes32",
          "name": "role",
          "type": "bytes32"
        },
        {
          "internalType": "address",
          "name": "account",
          "type": "address"
        }
      ],
      "name": "revokeRole",
      "outputs": [],
      "stateMutability": "nonpayable",
      "type": "function"
    },
    {
      "inputs": [
        {
          "internalType": "address",
          "name": "newOwner",
          "type": "address"
        }
      ],
      "name": "transferOwnership",
      "outputs": [],
      "stateMutability": "nonpayable",
      "type": "function"
    },
    {
      "inputs": [
        {
          "internalType": "string",
          "name": "_usr",
          "type": "string"
        },
        {
          "internalType": "string",
          "name": "_date",
          "type": "string"
        }
      ],
      "name": "signUpUserOrLogin",
      "outputs": [],
      "stateMutability": "nonpayable",
      "type": "function"
    },
    {
      "inputs": [],
      "name": "getUsernames",
      "outputs": [
        {
          "internalType": "string[]",
          "name": "",
          "type": "string[]"
        }
      ],
      "stateMutability": "view",
      "type": "function",
      "constant": true
    },
    {
      "inputs": [
        {
          "internalType": "string",
          "name": "_usrName",
          "type": "string"
        },
        {
          "internalType": "address",
          "name": "_address",
          "type": "address"
        },
        {
          "internalType": "bytes32",
          "name": "_imageHash",
          "type": "bytes32"
        },
        {
          "internalType": "bytes32",
          "name": "_imageName",
          "type": "bytes32"
        },
        {
          "internalType": "string",
          "name": "_date",
          "type": "string"
        },
        {
          "internalType": "bool",
          "name": "_viewOnly",
          "type": "bool"
        }
      ],
      "name": "shareImage",
      "outputs": [],
      "stateMutability": "nonpayable",
      "type": "function"
    },
    {
      "inputs": [],
      "name": "getSharedImageArr",
      "outputs": [
        {
          "internalType": "bytes32[]",
          "name": "",
          "type": "bytes32[]"
        },
        {
          "internalType": "bytes32[]",
          "name": "",
          "type": "bytes32[]"
        },
        {
          "internalType": "address[]",
          "name": "",
          "type": "address[]"
        },
        {
          "internalType": "string[]",
          "name": "",
          "type": "string[]"
        },
        {
          "internalType": "string[]",
          "name": "",
          "type": "string[]"
        },
        {
          "internalType": "bool[]",
          "name": "",
          "type": "bool[]"
        }
      ],
      "stateMutability": "view",
      "type": "function",
      "constant": true
    },
    {
      "inputs": [
        {
          "internalType": "string",
          "name": "_usrName",
          "type": "string"
        },
        {
          "internalType": "address",
          "name": "_address",
          "type": "address"
        },
        {
          "internalType": "bytes32",
          "name": "_fileHash",
          "type": "bytes32"
        },
        {
          "internalType": "bytes32",
          "name": "_fileName",
          "type": "bytes32"
        },
        {
          "internalType": "string",
          "name": "_date",
          "type": "string"
        },
        {
          "internalType": "bool",
          "name": "_viewOnly",
          "type": "bool"
        }
      ],
      "name": "shareFile",
      "outputs": [],
      "stateMutability": "nonpayable",
      "type": "function"
    },
    {
      "inputs": [],
      "name": "getSharedFileArr",
      "outputs": [
        {
          "internalType": "bytes32[]",
          "name": "",
          "type": "bytes32[]"
        },
        {
          "internalType": "bytes32[]",
          "name": "",
          "type": "bytes32[]"
        },
        {
          "internalType": "address[]",
          "name": "",
          "type": "address[]"
        },
        {
          "internalType": "string[]",
          "name": "",
          "type": "string[]"
        },
        {
          "internalType": "string[]",
          "name": "",
          "type": "string[]"
        },
        {
          "internalType": "bool[]",
          "name": "",
          "type": "bool[]"
        }
      ],
      "stateMutability": "view",
      "type": "function",
      "constant": true
    },
    {
      "inputs": [
        {
          "internalType": "bytes32",
          "name": "_imageHash",
          "type": "bytes32"
        },
        {
          "internalType": "bytes32",
          "name": "_imageName",
          "type": "bytes32"
        },
        {
          "internalType": "string",
          "name": "_date",
          "type": "string"
        }
      ],
      "name": "set",
      "outputs": [],
      "stateMutability": "nonpayable",
      "type": "function"
    },
    {
      "inputs": [
        {
          "internalType": "bytes32",
          "name": "_fileHash",
          "type": "bytes32"
        },
        {
          "internalType": "bytes32",
          "name": "_fileName",
          "type": "bytes32"
        },
        {
          "internalType": "string",
          "name": "_date",
          "type": "string"
        }
      ],
      "name": "setFile",
      "outputs": [],
      "stateMutability": "nonpayable",
      "type": "function"
    },
    {
      "inputs": [],
      "name": "get",
      "outputs": [
        {
          "internalType": "bytes32[]",
          "name": "",
          "type": "bytes32[]"
        },
        {
          "internalType": "bytes32[]",
          "name": "",
          "type": "bytes32[]"
        },
        {
          "internalType": "string",
          "name": "",
          "type": "string"
        },
        {
          "internalType": "string[]",
          "name": "",
          "type": "string[]"
        },
        {
          "internalType": "address[]",
          "name": "",
          "type": "address[]"
        },
        {
          "internalType": "bytes32[]",
          "name": "",
          "type": "bytes32[]"
        },
        {
          "internalType": "string",
          "name": "",
          "type": "string"
        },
        {
          "internalType": "bytes32[]",
          "name": "",
          "type": "bytes32[]"
        }
      ],
      "stateMutability": "view",
      "type": "function",
      "constant": true
    },
    {
      "inputs": [],
      "name": "getFile",
      "outputs": [
        {
          "internalType": "bytes32[]",
          "name": "",
          "type": "bytes32[]"
        },
        {
          "internalType": "bytes32[]",
          "name": "",
          "type": "bytes32[]"
        },
        {
          "internalType": "string",
          "name": "",
          "type": "string"
        },
        {
          "internalType": "string[]",
          "name": "",
          "type": "string[]"
        },
        {
          "internalType": "address[]",
          "name": "",
          "type": "address[]"
        },
        {
          "internalType": "bytes32[]",
          "name": "",
          "type": "bytes32[]"
        },
        {
          "internalType": "bytes32[]",
          "name": "",
          "type": "bytes32[]"
        }
      ],
      "stateMutability": "view",
      "type": "function",
      "constant": true
    }
  ],
  "bytecode": "0x6080604052600062000016620000ba60201b60201c565b9050806000806101000a81548173ffffffffffffffffffffffffffffffffffffffff021916908373ffffffffffffffffffffffffffffffffffffffff1602179055508073ffffffffffffffffffffffffffffffffffffffff16600073ffffffffffffffffffffffffffffffffffffffff167f8be0079c531659141344cd1fd0a4f28419497f9722a3daafe3b4186f6b6457e060405160405180910390a350620000c2565b600033905090565b61430c80620000d26000396000f3fe608060405234801561001057600080fd5b50600436106101375760003560e01c806387e3310f116100b8578063c10e3d651161007c578063c10e3d651461032f578063ca15c8731461034b578063cf9b75e71461037b578063d547741f14610397578063f2fde38b146103b3578063fa0b3ed9146103cf57610137565b806387e3310f146102775780638da5cb5b146102935780639010d07c146102b157806391d14854146102e1578063a217fddf1461031157610137565b80632fa81692116100ff5780632fa81692146101e557806336568abe146102095780636d4ce63c14610225578063715018a61461024a57806384acf9631461025457610137565b806311397b5f1461013c57806313d921581461015a578063248a9ca31461017d5780632ad8cb03146101ad5780632f2ff15d146101c9575b600080fd5b6101446103eb565b6040516101519190613f02565b60405180910390f35b6101626104d4565b60405161017496959493929190613d21565b60405180910390f35b61019760048036036101929190810190613540565b610a42565b6040516101a49190613f3f565b60405180910390f35b6101c760048036036101c29190810190613701565b610a62565b005b6101e360048036036101de9190810190613569565b610c1d565b005b6101ed610c91565b6040516102009796959493929190613dac565b60405180910390f35b610223600480360361021e9190810190613569565b61122c565b005b61022d6112af565b604051610241989796959493929190613e4c565b60405180910390f35b61025261192c565b005b61025c611a81565b60405161026e96959493929190613d21565b60405180910390f35b610291600480360361028c91908101906135a5565b611fef565b005b61029b61219e565b6040516102a89190613d06565b60405180910390f35b6102cb60048036036102c6919081019061360c565b6121c7565b6040516102d89190613d06565b60405180910390f35b6102fb60048036036102f69190810190613569565b6121f9565b6040516103089190613f24565b60405180910390f35b61031961222b565b6040516103269190613f3f565b60405180910390f35b610349600480360361034491908101906135a5565b612232565b005b61036560048036036103609190810190613540565b6123e1565b604051610372919061403a565b60405180910390f35b61039560048036036103909190810190613648565b612408565b005b6103b160048036036103ac9190810190613569565b6128d2565b005b6103cd60048036036103c89190810190613517565b612946565b005b6103e960048036036103e49190810190613648565b612b0a565b005b60606003805480602002602001604051908101604052809291908181526020016000905b828210156104cb578382906000526020600020018054600181600116156101000203166002900480601f0160208091040260200160405190810160405280929190818152602001828054600181600116156101000203166002900480156104b75780601f1061048c576101008083540402835291602001916104b7565b820191906000526020600020905b81548152906001019060200180831161049a57829003601f168201915b50505050508152602001906001019061040f565b50505050905090565b6060806060806060806104fa6040516104ec90613cf1565b6040518091039020336121f9565b610539576040517f08c379a000000000000000000000000000000000000000000000000000000000815260040161053090613ffa565b60405180910390fd5b600260003373ffffffffffffffffffffffffffffffffffffffff1673ffffffffffffffffffffffffffffffffffffffff168152602001908152602001600020600c01600260003373ffffffffffffffffffffffffffffffffffffffff1673ffffffffffffffffffffffffffffffffffffffff168152602001908152602001600020600d01600260003373ffffffffffffffffffffffffffffffffffffffff1673ffffffffffffffffffffffffffffffffffffffff168152602001908152602001600020601001600260003373ffffffffffffffffffffffffffffffffffffffff1673ffffffffffffffffffffffffffffffffffffffff168152602001908152602001600020601201600260003373ffffffffffffffffffffffffffffffffffffffff1673ffffffffffffffffffffffffffffffffffffffff168152602001908152602001600020601401600260003373ffffffffffffffffffffffffffffffffffffffff1673ffffffffffffffffffffffffffffffffffffffff1681526020019081526020016000206004018580548060200260200160405190810160405280929190818152602001828054801561071057602002820191906000526020600020905b8154815260200190600101908083116106fc575b505050505095508480548060200260200160405190810160405280929190818152602001828054801561076257602002820191906000526020600020905b81548152602001906001019080831161074e575b50505050509450838054806020026020016040519081016040528092919081815260200182805480156107ea57602002820191906000526020600020905b8160009054906101000a900473ffffffffffffffffffffffffffffffffffffffff1673ffffffffffffffffffffffffffffffffffffffff16815260200190600101908083116107a0575b5050505050935082805480602002602001604051908101604052809291908181526020016000905b828210156108ce578382906000526020600020018054600181600116156101000203166002900480601f0160208091040260200160405190810160405280929190818152602001828054600181600116156101000203166002900480156108ba5780601f1061088f576101008083540402835291602001916108ba565b820191906000526020600020905b81548152906001019060200180831161089d57829003601f168201915b505050505081526020019060010190610812565b50505050925081805480602002602001604051908101604052809291908181526020016000905b828210156109b1578382906000526020600020018054600181600116156101000203166002900480601f01602080910402602001604051908101604052809291908181526020018280546001816001161561010002031660029004801561099d5780601f106109725761010080835404028352916020019161099d565b820191906000526020600020905b81548152906001019060200180831161098057829003601f168201915b5050505050815260200190600101906108f5565b50505050915080805480602002602001604051908101604052809291908181526020018280548015610a2757602002820191906000526020600020906000905b82829054906101000a900460ff161515815260200190600101906020826000010492830192600103820291508084116109f15790505b50505050509050955095509550955095509550909192939495565b600060016000838152602001908152602001600020600201549050919050565b600260003373ffffffffffffffffffffffffffffffffffffffff1673ffffffffffffffffffffffffffffffffffffffff16815260200190815260200160002060000160009054906101000a900460ff16610c19576001600260003373ffffffffffffffffffffffffffffffffffffffff1673ffffffffffffffffffffffffffffffffffffffff16815260200190815260200160002060000160006101000a81548160ff02191690831515021790555081600260003373ffffffffffffffffffffffffffffffffffffffff1673ffffffffffffffffffffffffffffffffffffffff1681526020019081526020016000206002019080519060200190610b679291906133ca565b5080600260003373ffffffffffffffffffffffffffffffffffffffff1673ffffffffffffffffffffffffffffffffffffffff1681526020019081526020016000206001019080519060200190610bbe9291906133ca565b50600382908060018154018082558091505060019003906000526020600020016000909190919091509080519060200190610bfa9291906133ca565b50610c18604051610c0a90613cf1565b604051809103902033612fd4565b5b5050565b610c446001600084815260200190815260200160002060020154610c3f612fe2565b6121f9565b610c83576040517f08c379a0000000000000000000000000000000000000000000000000000000008152600401610c7a90613f7a565b60405180910390fd5b610c8d8282612fea565b5050565b6060806060806060806060610cb9604051610cab90613cf1565b6040518091039020336121f9565b610cf8576040517f08c379a0000000000000000000000000000000000000000000000000000000008152600401610cef90613ffa565b60405180910390fd5b600260003373ffffffffffffffffffffffffffffffffffffffff1673ffffffffffffffffffffffffffffffffffffffff168152602001908152602001600020600a01600260003373ffffffffffffffffffffffffffffffffffffffff1673ffffffffffffffffffffffffffffffffffffffff168152602001908152602001600020600b01600260003373ffffffffffffffffffffffffffffffffffffffff1673ffffffffffffffffffffffffffffffffffffffff168152602001908152602001600020600201600260003373ffffffffffffffffffffffffffffffffffffffff1673ffffffffffffffffffffffffffffffffffffffff168152602001908152602001600020600e01600260003373ffffffffffffffffffffffffffffffffffffffff1673ffffffffffffffffffffffffffffffffffffffff168152602001908152602001600020601801600260003373ffffffffffffffffffffffffffffffffffffffff1673ffffffffffffffffffffffffffffffffffffffff168152602001908152602001600020601901600260003373ffffffffffffffffffffffffffffffffffffffff1673ffffffffffffffffffffffffffffffffffffffff168152602001908152602001600020601a0186805480602002602001604051908101604052809291908181526020018280548015610f1157602002820191906000526020600020905b815481526020019060010190808311610efd575b5050505050965085805480602002602001604051908101604052809291908181526020018280548015610f6357602002820191906000526020600020905b815481526020019060010190808311610f4f575b50505050509550848054600181600116156101000203166002900480601f016020809104026020016040519081016040528092919081815260200182805460018160011615610100020316600290048015610fff5780601f10610fd457610100808354040283529160200191610fff565b820191906000526020600020905b815481529060010190602001808311610fe257829003601f168201915b5050505050945083805480602002602001604051908101604052809291908181526020016000905b828210156110e3578382906000526020600020018054600181600116156101000203166002900480601f0160208091040260200160405190810160405280929190818152602001828054600181600116156101000203166002900480156110cf5780601f106110a4576101008083540402835291602001916110cf565b820191906000526020600020905b8154815290600101906020018083116110b257829003601f168201915b505050505081526020019060010190611027565b5050505093508280548060200260200160405190810160405280929190818152602001828054801561116a57602002820191906000526020600020905b8160009054906101000a900473ffffffffffffffffffffffffffffffffffffffff1673ffffffffffffffffffffffffffffffffffffffff1681526020019060010190808311611120575b50505050509250818054806020026020016040519081016040528092919081815260200182805480156111bc57602002820191906000526020600020905b8154815260200190600101908083116111a8575b505050505091508080548060200260200160405190810160405280929190818152602001828054801561120e57602002820191906000526020600020905b8154815260200190600101908083116111fa575b50505050509050965096509650965096509650965090919293949596565b611234612fe2565b73ffffffffffffffffffffffffffffffffffffffff168173ffffffffffffffffffffffffffffffffffffffff16146112a1576040517f08c379a00000000000000000000000000000000000000000000000000000000081526004016112989061401a565b60405180910390fd5b6112ab828261307e565b5050565b6060806060806060806060806112d86040516112ca90613cf1565b6040518091039020336121f9565b611317576040517f08c379a000000000000000000000000000000000000000000000000000000000815260040161130e90613ffa565b60405180910390fd5b600260003373ffffffffffffffffffffffffffffffffffffffff1673ffffffffffffffffffffffffffffffffffffffff168152602001908152602001600020600501600260003373ffffffffffffffffffffffffffffffffffffffff1673ffffffffffffffffffffffffffffffffffffffff168152602001908152602001600020600601600260003373ffffffffffffffffffffffffffffffffffffffff1673ffffffffffffffffffffffffffffffffffffffff168152602001908152602001600020600201600260003373ffffffffffffffffffffffffffffffffffffffff1673ffffffffffffffffffffffffffffffffffffffff168152602001908152602001600020600901600260003373ffffffffffffffffffffffffffffffffffffffff1673ffffffffffffffffffffffffffffffffffffffff168152602001908152602001600020601501600260003373ffffffffffffffffffffffffffffffffffffffff1673ffffffffffffffffffffffffffffffffffffffff168152602001908152602001600020601601600260003373ffffffffffffffffffffffffffffffffffffffff1673ffffffffffffffffffffffffffffffffffffffff168152602001908152602001600020600101600260003373ffffffffffffffffffffffffffffffffffffffff1673ffffffffffffffffffffffffffffffffffffffff1681526020019081526020016000206017018780548060200260200160405190810160405280929190818152602001828054801561157257602002820191906000526020600020905b81548152602001906001019080831161155e575b50505050509750868054806020026020016040519081016040528092919081815260200182805480156115c457602002820191906000526020600020905b8154815260200190600101908083116115b0575b50505050509650858054600181600116156101000203166002900480601f0160208091040260200160405190810160405280929190818152602001828054600181600116156101000203166002900480156116605780601f1061163557610100808354040283529160200191611660565b820191906000526020600020905b81548152906001019060200180831161164357829003601f168201915b5050505050955084805480602002602001604051908101604052809291908181526020016000905b82821015611744578382906000526020600020018054600181600116156101000203166002900480601f0160208091040260200160405190810160405280929190818152602001828054600181600116156101000203166002900480156117305780601f1061170557610100808354040283529160200191611730565b820191906000526020600020905b81548152906001019060200180831161171357829003601f168201915b505050505081526020019060010190611688565b505050509450838054806020026020016040519081016040528092919081815260200182805480156117cb57602002820191906000526020600020905b8160009054906101000a900473ffffffffffffffffffffffffffffffffffffffff1673ffffffffffffffffffffffffffffffffffffffff1681526020019060010190808311611781575b505050505093508280548060200260200160405190810160405280929190818152602001828054801561181d57602002820191906000526020600020905b815481526020019060010190808311611809575b50505050509250818054600181600116156101000203166002900480601f0160208091040260200160405190810160405280929190818152602001828054600181600116156101000203166002900480156118b95780601f1061188e576101008083540402835291602001916118b9565b820191906000526020600020905b81548152906001019060200180831161189c57829003601f168201915b505050505091508080548060200260200160405190810160405280929190818152602001828054801561190b57602002820191906000526020600020905b8154815260200190600101908083116118f7575b50505050509050975097509750975097509750975097509091929394959697565b611934612fe2565b73ffffffffffffffffffffffffffffffffffffffff166000809054906101000a900473ffffffffffffffffffffffffffffffffffffffff1673ffffffffffffffffffffffffffffffffffffffff16146119c2576040517f08c379a00000000000000000000000000000000000000000000000000000000081526004016119b990613fda565b60405180910390fd5b600073ffffffffffffffffffffffffffffffffffffffff166000809054906101000a900473ffffffffffffffffffffffffffffffffffffffff1673ffffffffffffffffffffffffffffffffffffffff167f8be0079c531659141344cd1fd0a4f28419497f9722a3daafe3b4186f6b6457e060405160405180910390a360008060006101000a81548173ffffffffffffffffffffffffffffffffffffffff021916908373ffffffffffffffffffffffffffffffffffffffff160217905550565b606080606080606080611aa7604051611a9990613cf1565b6040518091039020336121f9565b611ae6576040517f08c379a0000000000000000000000000000000000000000000000000000000008152600401611add90613ffa565b60405180910390fd5b600260003373ffffffffffffffffffffffffffffffffffffffff1673ffffffffffffffffffffffffffffffffffffffff168152602001908152602001600020600701600260003373ffffffffffffffffffffffffffffffffffffffff1673ffffffffffffffffffffffffffffffffffffffff168152602001908152602001600020600801600260003373ffffffffffffffffffffffffffffffffffffffff1673ffffffffffffffffffffffffffffffffffffffff168152602001908152602001600020600f01600260003373ffffffffffffffffffffffffffffffffffffffff1673ffffffffffffffffffffffffffffffffffffffff168152602001908152602001600020601101600260003373ffffffffffffffffffffffffffffffffffffffff1673ffffffffffffffffffffffffffffffffffffffff168152602001908152602001600020601301600260003373ffffffffffffffffffffffffffffffffffffffff1673ffffffffffffffffffffffffffffffffffffffff16815260200190815260200160002060030185805480602002602001604051908101604052809291908181526020018280548015611cbd57602002820191906000526020600020905b815481526020019060010190808311611ca9575b5050505050955084805480602002602001604051908101604052809291908181526020018280548015611d0f57602002820191906000526020600020905b815481526020019060010190808311611cfb575b5050505050945083805480602002602001604051908101604052809291908181526020018280548015611d9757602002820191906000526020600020905b8160009054906101000a900473ffffffffffffffffffffffffffffffffffffffff1673ffffffffffffffffffffffffffffffffffffffff1681526020019060010190808311611d4d575b5050505050935082805480602002602001604051908101604052809291908181526020016000905b82821015611e7b578382906000526020600020018054600181600116156101000203166002900480601f016020809104026020016040519081016040528092919081815260200182805460018160011615610100020316600290048015611e675780601f10611e3c57610100808354040283529160200191611e67565b820191906000526020600020905b815481529060010190602001808311611e4a57829003601f168201915b505050505081526020019060010190611dbf565b50505050925081805480602002602001604051908101604052809291908181526020016000905b82821015611f5e578382906000526020600020018054600181600116156101000203166002900480601f016020809104026020016040519081016040528092919081815260200182805460018160011615610100020316600290048015611f4a5780601f10611f1f57610100808354040283529160200191611f4a565b820191906000526020600020905b815481529060010190602001808311611f2d57829003601f168201915b505050505081526020019060010190611ea2565b50505050915080805480602002602001604051908101604052809291908181526020018280548015611fd457602002820191906000526020600020906000905b82829054906101000a900460ff16151581526020019060010190602082600001049283019260010382029150808411611f9e5790505b50505050509050955095509550955095509550909192939495565b61200c604051611ffe90613cf1565b6040518091039020336121f9565b61204b576040517f08c379a000000000000000000000000000000000000000000000000000000000815260040161204290613ffa565b60405180910390fd5b600260003373ffffffffffffffffffffffffffffffffffffffff1673ffffffffffffffffffffffffffffffffffffffff168152602001908152602001600020600a01839080600181540180825580915050600190039060005260206000200160009091909190915055600260003373ffffffffffffffffffffffffffffffffffffffff1673ffffffffffffffffffffffffffffffffffffffff168152602001908152602001600020600b01829080600181540180825580915050600190039060005260206000200160009091909190915055600260003373ffffffffffffffffffffffffffffffffffffffff1673ffffffffffffffffffffffffffffffffffffffff168152602001908152602001600020600e01819080600181540180825580915050600190039060005260206000200160009091909190915090805190602001906121989291906133ca565b50505050565b60008060009054906101000a900473ffffffffffffffffffffffffffffffffffffffff16905090565b60006121f1826001600086815260200190815260200160002060000161311290919063ffffffff16565b905092915050565b6000612223826001600086815260200190815260200160002060000161312c90919063ffffffff16565b905092915050565b6000801b81565b61224f60405161224190613cf1565b6040518091039020336121f9565b61228e576040517f08c379a000000000000000000000000000000000000000000000000000000000815260040161228590613ffa565b60405180910390fd5b600260003373ffffffffffffffffffffffffffffffffffffffff1673ffffffffffffffffffffffffffffffffffffffff168152602001908152602001600020600501839080600181540180825580915050600190039060005260206000200160009091909190915055600260003373ffffffffffffffffffffffffffffffffffffffff1673ffffffffffffffffffffffffffffffffffffffff168152602001908152602001600020600601829080600181540180825580915050600190039060005260206000200160009091909190915055600260003373ffffffffffffffffffffffffffffffffffffffff1673ffffffffffffffffffffffffffffffffffffffff168152602001908152602001600020600901819080600181540180825580915050600190039060005260206000200160009091909190915090805190602001906123db9291906133ca565b50505050565b60006124016001600084815260200190815260200160002060000161315c565b9050919050565b61242560405161241790613cf1565b6040518091039020336121f9565b612464576040517f08c379a000000000000000000000000000000000000000000000000000000000815260040161245b90613ffa565b60405180910390fd5b600260008673ffffffffffffffffffffffffffffffffffffffff1673ffffffffffffffffffffffffffffffffffffffff168152602001908152602001600020600c01849080600181540180825580915050600190039060005260206000200160009091909190915055600260008673ffffffffffffffffffffffffffffffffffffffff1673ffffffffffffffffffffffffffffffffffffffff168152602001908152602001600020600d01839080600181540180825580915050600190039060005260206000200160009091909190915055600260008673ffffffffffffffffffffffffffffffffffffffff1673ffffffffffffffffffffffffffffffffffffffff168152602001908152602001600020601201869080600181540180825580915050600190039060005260206000200160009091909190915090805190602001906125b19291906133ca565b50600260008673ffffffffffffffffffffffffffffffffffffffff1673ffffffffffffffffffffffffffffffffffffffff168152602001908152602001600020601001339080600181540180825580915050600190039060005260206000200160009091909190916101000a81548173ffffffffffffffffffffffffffffffffffffffff021916908373ffffffffffffffffffffffffffffffffffffffff160217905550600260008673ffffffffffffffffffffffffffffffffffffffff1673ffffffffffffffffffffffffffffffffffffffff168152602001908152602001600020601401829080600181540180825580915050600190039060005260206000200160009091909190915090805190602001906126d09291906133ca565b50600260003373ffffffffffffffffffffffffffffffffffffffff1673ffffffffffffffffffffffffffffffffffffffff168152602001908152602001600020601801859080600181540180825580915050600190039060005260206000200160009091909190916101000a81548173ffffffffffffffffffffffffffffffffffffffff021916908373ffffffffffffffffffffffffffffffffffffffff160217905550600260003373ffffffffffffffffffffffffffffffffffffffff1673ffffffffffffffffffffffffffffffffffffffff168152602001908152602001600020601901849080600181540180825580915050600190039060005260206000200160009091909190915055600260003373ffffffffffffffffffffffffffffffffffffffff1673ffffffffffffffffffffffffffffffffffffffff168152602001908152602001600020601a01839080600181540180825580915050600190039060005260206000200160009091909190915055600260008673ffffffffffffffffffffffffffffffffffffffff1673ffffffffffffffffffffffffffffffffffffffff1681526020019081526020016000206004018190806001815401808255809150506001900390600052602060002090602091828204019190069091909190916101000a81548160ff021916908315150217905550505050505050565b6128f960016000848152602001908152602001600020600201546128f4612fe2565b6121f9565b612938576040517f08c379a000000000000000000000000000000000000000000000000000000000815260040161292f90613fba565b60405180910390fd5b612942828261307e565b5050565b61294e612fe2565b73ffffffffffffffffffffffffffffffffffffffff166000809054906101000a900473ffffffffffffffffffffffffffffffffffffffff1673ffffffffffffffffffffffffffffffffffffffff16146129dc576040517f08c379a00000000000000000000000000000000000000000000000000000000081526004016129d390613fda565b60405180910390fd5b600073ffffffffffffffffffffffffffffffffffffffff168173ffffffffffffffffffffffffffffffffffffffff161415612a4c576040517f08c379a0000000000000000000000000000000000000000000000000000000008152600401612a4390613f9a565b60405180910390fd5b8073ffffffffffffffffffffffffffffffffffffffff166000809054906101000a900473ffffffffffffffffffffffffffffffffffffffff1673ffffffffffffffffffffffffffffffffffffffff167f8be0079c531659141344cd1fd0a4f28419497f9722a3daafe3b4186f6b6457e060405160405180910390a3806000806101000a81548173ffffffffffffffffffffffffffffffffffffffff021916908373ffffffffffffffffffffffffffffffffffffffff16021790555050565b612b27604051612b1990613cf1565b6040518091039020336121f9565b612b66576040517f08c379a0000000000000000000000000000000000000000000000000000000008152600401612b5d90613ffa565b60405180910390fd5b600260008673ffffffffffffffffffffffffffffffffffffffff1673ffffffffffffffffffffffffffffffffffffffff168152602001908152602001600020600701849080600181540180825580915050600190039060005260206000200160009091909190915055600260008673ffffffffffffffffffffffffffffffffffffffff1673ffffffffffffffffffffffffffffffffffffffff168152602001908152602001600020600801839080600181540180825580915050600190039060005260206000200160009091909190915055600260008673ffffffffffffffffffffffffffffffffffffffff1673ffffffffffffffffffffffffffffffffffffffff16815260200190815260200160002060110186908060018154018082558091505060019003906000526020600020016000909190919091509080519060200190612cb39291906133ca565b50600260008673ffffffffffffffffffffffffffffffffffffffff1673ffffffffffffffffffffffffffffffffffffffff168152602001908152602001600020600f01339080600181540180825580915050600190039060005260206000200160009091909190916101000a81548173ffffffffffffffffffffffffffffffffffffffff021916908373ffffffffffffffffffffffffffffffffffffffff160217905550600260008673ffffffffffffffffffffffffffffffffffffffff1673ffffffffffffffffffffffffffffffffffffffff16815260200190815260200160002060130182908060018154018082558091505060019003906000526020600020016000909190919091509080519060200190612dd29291906133ca565b50600260003373ffffffffffffffffffffffffffffffffffffffff1673ffffffffffffffffffffffffffffffffffffffff168152602001908152602001600020601501859080600181540180825580915050600190039060005260206000200160009091909190916101000a81548173ffffffffffffffffffffffffffffffffffffffff021916908373ffffffffffffffffffffffffffffffffffffffff160217905550600260003373ffffffffffffffffffffffffffffffffffffffff1673ffffffffffffffffffffffffffffffffffffffff168152602001908152602001600020601601849080600181540180825580915050600190039060005260206000200160009091909190915055600260003373ffffffffffffffffffffffffffffffffffffffff1673ffffffffffffffffffffffffffffffffffffffff168152602001908152602001600020601701839080600181540180825580915050600190039060005260206000200160009091909190915055600260008673ffffffffffffffffffffffffffffffffffffffff1673ffffffffffffffffffffffffffffffffffffffff1681526020019081526020016000206003018190806001815401808255809150506001900390600052602060002090602091828204019190069091909190916101000a81548160ff021916908315150217905550505050505050565b612fde8282612fea565b5050565b600033905090565b613012816001600085815260200190815260200160002060000161317190919063ffffffff16565b1561307a5761301f612fe2565b73ffffffffffffffffffffffffffffffffffffffff168173ffffffffffffffffffffffffffffffffffffffff16837f2f8788117e7eff1d82e926ec794901d17c78024a50270940304540a733656f0d60405160405180910390a45b5050565b6130a681600160008581526020019081526020016000206000016131a190919063ffffffff16565b1561310e576130b3612fe2565b73ffffffffffffffffffffffffffffffffffffffff168173ffffffffffffffffffffffffffffffffffffffff16837ff6391f5c32d9c69d2a47ea670b442974b53935d1edc7fd64eb21e047a839171b60405160405180910390a45b5050565b600061312183600001836131d1565b60001c905092915050565b6000613154836000018373ffffffffffffffffffffffffffffffffffffffff1660001b61323e565b905092915050565b600061316a82600001613261565b9050919050565b6000613199836000018373ffffffffffffffffffffffffffffffffffffffff1660001b613272565b905092915050565b60006131c9836000018373ffffffffffffffffffffffffffffffffffffffff1660001b6132e2565b905092915050565b60008183600001805490501161321c576040517f08c379a000000000000000000000000000000000000000000000000000000000815260040161321390613f5a565b60405180910390fd5b82600001828154811061322b57fe5b9060005260206000200154905092915050565b600080836001016000848152602001908152602001600020541415905092915050565b600081600001805490509050919050565b600061327e838361323e565b6132d75782600001829080600181540180825580915050600190039060005260206000200160009091909190915055826000018054905083600101600084815260200190815260200160002081905550600190506132dc565b600090505b92915050565b600080836001016000848152602001908152602001600020549050600081146133be576000600182039050600060018660000180549050039050600086600001828154811061332d57fe5b906000526020600020015490508087600001848154811061334a57fe5b906000526020600020018190555060018301876001016000838152602001908152602001600020819055508660000180548061338257fe5b600190038181906000526020600020016000905590558660010160008781526020019081526020016000206000905560019450505050506133c4565b60009150505b92915050565b828054600181600116156101000203166002900490600052602060002090601f016020900481019282601f1061340b57805160ff1916838001178555613439565b82800160010185558215613439579182015b8281111561343857825182559160200191906001019061341d565b5b509050613446919061344a565b5090565b61346c91905b80821115613468576000816000905550600101613450565b5090565b90565b60008135905061347e8161427a565b92915050565b60008135905061349381614291565b92915050565b6000813590506134a8816142a8565b92915050565b600082601f8301126134bf57600080fd5b81356134d26134cd82614082565b614055565b915080825260208301602083018583830111156134ee57600080fd5b6134f9838284614227565b50505092915050565b600081359050613511816142bf565b92915050565b60006020828403121561352957600080fd5b60006135378482850161346f565b91505092915050565b60006020828403121561355257600080fd5b600061356084828501613499565b91505092915050565b6000806040838503121561357c57600080fd5b600061358a85828601613499565b925050602061359b8582860161346f565b9150509250929050565b6000806000606084860312156135ba57600080fd5b60006135c886828701613499565b93505060206135d986828701613499565b925050604084013567ffffffffffffffff8111156135f657600080fd5b613602868287016134ae565b9150509250925092565b6000806040838503121561361f57600080fd5b600061362d85828601613499565b925050602061363e85828601613502565b9150509250929050565b60008060008060008060c0878903121561366157600080fd5b600087013567ffffffffffffffff81111561367b57600080fd5b61368789828a016134ae565b965050602061369889828a0161346f565b95505060406136a989828a01613499565b94505060606136ba89828a01613499565b935050608087013567ffffffffffffffff8111156136d757600080fd5b6136e389828a016134ae565b92505060a06136f489828a01613484565b9150509295509295509295565b6000806040838503121561371457600080fd5b600083013567ffffffffffffffff81111561372e57600080fd5b61373a858286016134ae565b925050602083013567ffffffffffffffff81111561375757600080fd5b613763858286016134ae565b9150509250929050565b600061377983836137c9565b60208301905092915050565b60006137918383613976565b60208301905092915050565b60006137a98383613994565b60208301905092915050565b60006137c183836139eb565b905092915050565b6137d2816141d5565b82525050565b6137e1816141d5565b82525050565b60006137f2826140ee565b6137fc8185614164565b9350613807836140ae565b8060005b8381101561383857815161381f888261376d565b975061382a83614130565b92505060018101905061380b565b5085935050505092915050565b6000613850826140f9565b61385a8185614175565b9350613865836140be565b8060005b8381101561389657815161387d8882613785565b97506138888361413d565b925050600181019050613869565b5085935050505092915050565b60006138ae82614104565b6138b88185614186565b93506138c3836140ce565b8060005b838110156138f45781516138db888261379d565b97506138e68361414a565b9250506001810190506138c7565b5085935050505092915050565b600061390c8261410f565b6139168185614197565b935083602082028501613928856140de565b8060005b85811015613964578484038952815161394585826137b5565b945061395083614157565b925060208a0199505060018101905061392c565b50829750879550505050505092915050565b61397f816141e7565b82525050565b61398e816141e7565b82525050565b61399d816141f3565b82525050565b6139ac816141f3565b82525050565b60006139bd82614125565b6139c781856141b9565b93506139d7818560208601614236565b6139e081614269565b840191505092915050565b60006139f68261411a565b613a0081856141a8565b9350613a10818560208601614236565b613a1981614269565b840191505092915050565b6000613a316022836141b9565b91507f456e756d657261626c655365743a20696e646578206f7574206f6620626f756e60008301527f64730000000000000000000000000000000000000000000000000000000000006020830152604082019050919050565b6000613a97602f836141b9565b91507f416363657373436f6e74726f6c3a2073656e646572206d75737420626520616e60008301527f2061646d696e20746f206772616e7400000000000000000000000000000000006020830152604082019050919050565b6000613afd6009836141ca565b91507f555345525f524f4c4500000000000000000000000000000000000000000000006000830152600982019050919050565b6000613b3d6026836141b9565b91507f4f776e61626c653a206e6577206f776e657220697320746865207a65726f206160008301527f64647265737300000000000000000000000000000000000000000000000000006020830152604082019050919050565b6000613ba36030836141b9565b91507f416363657373436f6e74726f6c3a2073656e646572206d75737420626520616e60008301527f2061646d696e20746f207265766f6b65000000000000000000000000000000006020830152604082019050919050565b6000613c096020836141b9565b91507f4f776e61626c653a2063616c6c6572206973206e6f7420746865206f776e65726000830152602082019050919050565b6000613c496014836141b9565b91507f43616c6c6572206973206e6f74206120757365720000000000000000000000006000830152602082019050919050565b6000613c89602f836141b9565b91507f416363657373436f6e74726f6c3a2063616e206f6e6c792072656e6f756e636560008301527f20726f6c657320666f722073656c6600000000000000000000000000000000006020830152604082019050919050565b613ceb8161421d565b82525050565b6000613cfc82613af0565b9150819050919050565b6000602082019050613d1b60008301846137d8565b92915050565b600060c0820190508181036000830152613d3b81896138a3565b90508181036020830152613d4f81886138a3565b90508181036040830152613d6381876137e7565b90508181036060830152613d778186613901565b90508181036080830152613d8b8185613901565b905081810360a0830152613d9f8184613845565b9050979650505050505050565b600060e0820190508181036000830152613dc6818a6138a3565b90508181036020830152613dda81896138a3565b90508181036040830152613dee81886139b2565b90508181036060830152613e028187613901565b90508181036080830152613e1681866137e7565b905081810360a0830152613e2a81856138a3565b905081810360c0830152613e3e81846138a3565b905098975050505050505050565b6000610100820190508181036000830152613e67818b6138a3565b90508181036020830152613e7b818a6138a3565b90508181036040830152613e8f81896139b2565b90508181036060830152613ea38188613901565b90508181036080830152613eb781876137e7565b905081810360a0830152613ecb81866138a3565b905081810360c0830152613edf81856139b2565b905081810360e0830152613ef381846138a3565b90509998505050505050505050565b60006020820190508181036000830152613f1c8184613901565b905092915050565b6000602082019050613f396000830184613985565b92915050565b6000602082019050613f5460008301846139a3565b92915050565b60006020820190508181036000830152613f7381613a24565b9050919050565b60006020820190508181036000830152613f9381613a8a565b9050919050565b60006020820190508181036000830152613fb381613b30565b9050919050565b60006020820190508181036000830152613fd381613b96565b9050919050565b60006020820190508181036000830152613ff381613bfc565b9050919050565b6000602082019050818103600083015261401381613c3c565b9050919050565b6000602082019050818103600083015261403381613c7c565b9050919050565b600060208201905061404f6000830184613ce2565b92915050565b6000604051905081810181811067ffffffffffffffff8211171561407857600080fd5b8060405250919050565b600067ffffffffffffffff82111561409957600080fd5b601f19601f8301169050602081019050919050565b6000819050602082019050919050565b6000819050602082019050919050565b6000819050602082019050919050565b6000819050602082019050919050565b600081519050919050565b600081519050919050565b600081519050919050565b600081519050919050565b600081519050919050565b600081519050919050565b6000602082019050919050565b6000602082019050919050565b6000602082019050919050565b6000602082019050919050565b600082825260208201905092915050565b600082825260208201905092915050565b600082825260208201905092915050565b600082825260208201905092915050565b600082825260208201905092915050565b600082825260208201905092915050565b600081905092915050565b60006141e0826141fd565b9050919050565b60008115159050919050565b6000819050919050565b600073ffffffffffffffffffffffffffffffffffffffff82169050919050565b6000819050919050565b82818337600083830152505050565b60005b83811015614254578082015181840152602081019050614239565b83811115614263576000848401525b50505050565b6000601f19601f8301169050919050565b614283816141d5565b811461428e57600080fd5b50565b61429a816141e7565b81146142a557600080fd5b50565b6142b1816141f3565b81146142bc57600080fd5b50565b6142c88161421d565b81146142d357600080fd5b5056fea2646970667358221220337042c11ea5931df6930bae97d0fa856287bb77e5c54c407a56431a95d56f0964736f6c63430006020033",
  "source": "// SPDX-License-Identifier: MIT\r\npragma experimental ABIEncoderV2;\r\npragma solidity >=0.6.0;\r\nimport \"@openzeppelin/contracts/access/Ownable.sol\";\r\nimport \"@openzeppelin/contracts/access/AccessControl.sol\";\r\n\r\ncontract CredentialStore is Ownable, AccessControl {\r\n\r\n  bytes32 private constant USER_ROLE = keccak256(\"USER_ROLE\");\r\n\r\n  struct userData {\r\n\r\n    bool userExists; \r\n    string acceptTermsConditionsDate; \r\n    string username;\r\n    bool[] viewOnlyImage;\r\n    bool[] viewOnlyFile;\r\n    // int256 newlySharedItems;\r\n    // if user does getSharedFileArr & getSharedImageArr means that user logged in and is in sharepoint \r\n\r\n    bytes32[] imageHashes;\r\n    bytes32[] imageNames;\r\n    bytes32[] imageHashesSharedWithUser;\r\n    bytes32[] imageNamesSharedWithUser;\r\n    string[] dateImageUpload;\r\n\r\n    bytes32[] fileHashes;\r\n    bytes32[] fileNames;\r\n    bytes32[] fileHashesSharedWithUser;\r\n    bytes32[] fileNamesSharedWithUser;\r\n    string[] dateFileUpload;\r\n\r\n    address[] imageAddressSharedWithUser;\r\n    address[] fileAddressSharedWithUser;\r\n    string[] imageUsernameSharedWithUser;\r\n    string[] fileUsernameSharedWithUser;\r\n\r\n    string[] dateImageSharedWithUser;\r\n    string[] dateFileSharedWithUser;\r\n\r\n    // user shared files with:\r\n    address[] imageAddressUserSharedWith;\r\n    bytes32[] imageHashUserSharedWith;\r\n    bytes32[] imageNamesUserSharedWith;\r\n\r\n    address[] fileAddressUserSharedWith;\r\n    bytes32[] fileHashUserSharedWith;\r\n    bytes32[] fileNamesUserSharedWith;\r\n  }\r\n\r\n  mapping (address => userData) private idUserData;\r\n\r\n  string[] private allUsernames;\r\n\r\n  function signUpUserOrLogin(string memory _usr, string memory _date) public { \r\n\r\n    if (!idUserData[msg.sender].userExists) {\r\n      idUserData[msg.sender].userExists = true;\r\n      idUserData[msg.sender].username = _usr;\r\n      idUserData[msg.sender].acceptTermsConditionsDate = _date;\r\n      allUsernames.push(_usr);\r\n      _setupRole(USER_ROLE, msg.sender);\r\n    } // else user already exists\r\n  }\r\n\r\n  function getUsernames() public view returns (string[] memory) {  \r\n    return (allUsernames); \r\n  }\r\n\r\n  function shareImage(string memory _usrName, address _address, bytes32 _imageHash, bytes32 _imageName, string memory _date, bool _viewOnly) public {\r\n    require(hasRole(USER_ROLE, msg.sender), \"Caller is not a user\");\r\n\r\n    idUserData[_address].imageHashesSharedWithUser.push(_imageHash);\r\n    idUserData[_address].imageNamesSharedWithUser.push(_imageName);\r\n    idUserData[_address].imageUsernameSharedWithUser.push(_usrName);\r\n    idUserData[_address].imageAddressSharedWithUser.push(msg.sender); \r\n    idUserData[_address].dateImageSharedWithUser.push(_date);\r\n\r\n    idUserData[msg.sender].imageAddressUserSharedWith.push(_address);\r\n    idUserData[msg.sender].imageHashUserSharedWith.push(_imageHash);\r\n    idUserData[msg.sender].imageNamesUserSharedWith.push(_imageName); \r\n    idUserData[_address].viewOnlyImage.push(_viewOnly);\r\n  }\r\n\r\n  function getSharedImageArr() public view returns (bytes32[] memory, bytes32[] memory, address[] memory, string[] memory, string[] memory, bool[] memory) { \r\n    require(hasRole(USER_ROLE, msg.sender), \"Caller is not a user\");\r\n\r\n    return (idUserData[msg.sender].imageHashesSharedWithUser, idUserData[msg.sender].imageNamesSharedWithUser, idUserData[msg.sender].imageAddressSharedWithUser, \r\n    idUserData[msg.sender].imageUsernameSharedWithUser, idUserData[msg.sender].dateImageSharedWithUser, idUserData[msg.sender].viewOnlyImage); \r\n  }\r\n\r\n  function shareFile(string memory _usrName, address _address, bytes32 _fileHash, bytes32 _fileName, string memory _date, bool _viewOnly) public {\r\n    require(hasRole(USER_ROLE, msg.sender), \"Caller is not a user\");\r\n\r\n    idUserData[_address].fileHashesSharedWithUser.push(_fileHash);\r\n    idUserData[_address].fileNamesSharedWithUser.push(_fileName);\r\n    idUserData[_address].fileUsernameSharedWithUser.push(_usrName);\r\n    idUserData[_address].fileAddressSharedWithUser.push(msg.sender); \r\n    idUserData[_address].dateFileSharedWithUser.push(_date);\r\n\r\n    idUserData[msg.sender].fileAddressUserSharedWith.push(_address);\r\n    idUserData[msg.sender].fileHashUserSharedWith.push(_fileHash);\r\n    idUserData[msg.sender].fileNamesUserSharedWith.push(_fileName); \r\n    idUserData[_address].viewOnlyFile.push(_viewOnly);\r\n  }\r\n\r\n  function getSharedFileArr() public view returns (bytes32[] memory, bytes32[] memory, address[] memory, string[] memory, string[] memory, bool[] memory) { \r\n    require(hasRole(USER_ROLE, msg.sender), \"Caller is not a user\");\r\n\r\n    return (idUserData[msg.sender].fileHashesSharedWithUser, idUserData[msg.sender].fileNamesSharedWithUser, idUserData[msg.sender].fileAddressSharedWithUser, \r\n    idUserData[msg.sender].fileUsernameSharedWithUser, idUserData[msg.sender].dateFileSharedWithUser, idUserData[msg.sender].viewOnlyFile); \r\n  }\r\n\r\n  function set(bytes32 _imageHash, bytes32 _imageName, string memory _date) public { \r\n    require(hasRole(USER_ROLE, msg.sender), \"Caller is not a user\");\r\n\r\n    idUserData[msg.sender].imageHashes.push(_imageHash);\r\n    idUserData[msg.sender].imageNames.push(_imageName); \r\n    idUserData[msg.sender].dateImageUpload.push(_date);\r\n  }\r\n\r\n  function setFile(bytes32 _fileHash, bytes32 _fileName, string memory _date) public { \r\n    require(hasRole(USER_ROLE, msg.sender), \"Caller is not a user\");\r\n\r\n    idUserData[msg.sender].fileHashes.push(_fileHash);\r\n    idUserData[msg.sender].fileNames.push(_fileName);\r\n    idUserData[msg.sender].dateFileUpload.push(_date);\r\n  }\r\n\r\n  function get() public view returns (bytes32[] memory, bytes32[] memory, string memory, string[] memory, address[] memory, bytes32[] memory, string memory, bytes32[] memory) {  \r\n    require(hasRole(USER_ROLE, msg.sender), \"Caller is not a user\");\r\n\r\n    return (idUserData[msg.sender].imageHashes, idUserData[msg.sender].imageNames, idUserData[msg.sender].username, idUserData[msg.sender].dateImageUpload,\r\n    idUserData[msg.sender].imageAddressUserSharedWith, idUserData[msg.sender].imageHashUserSharedWith, idUserData[msg.sender].acceptTermsConditionsDate, idUserData[msg.sender].imageNamesUserSharedWith); \r\n  }\r\n\r\n  function getFile() public view returns (bytes32[] memory, bytes32[] memory, string memory, string[] memory, address[] memory, bytes32[] memory, bytes32[] memory) {   \r\n    require(hasRole(USER_ROLE, msg.sender), \"Caller is not a user\");\r\n\r\n    return (idUserData[msg.sender].fileHashes, idUserData[msg.sender].fileNames, idUserData[msg.sender].username, idUserData[msg.sender].dateFileUpload,\r\n    idUserData[msg.sender].fileAddressUserSharedWith, idUserData[msg.sender].fileHashUserSharedWith, idUserData[msg.sender].fileNamesUserSharedWith); \r\n  }\r\n  \r\n}",
  "sourcePath": "/mnt/c/Users/theod/git/y3_project/contracts/CredentialStore.sol",
  "compiler": {
    "name": "solc",
    "version": "0.6.2+commit.bacdbe57.Emscripten.clang"
  },
  "schemaVersion": "3.3.4",
  "updatedAt": "2021-03-14T16:23:47.157Z",
  "networkType": "ethereum",
  "devdoc": {
    "methods": {
      "getRoleAdmin(bytes32)": {
        "details": "Returns the admin role that controls `role`. See {grantRole} and {revokeRole}.     * To change a role's admin, use {_setRoleAdmin}."
      },
      "getRoleMember(bytes32,uint256)": {
        "details": "Returns one of the accounts that have `role`. `index` must be a value between 0 and {getRoleMemberCount}, non-inclusive.     * Role bearers are not sorted in any particular way, and their ordering may change at any point.     * WARNING: When using {getRoleMember} and {getRoleMemberCount}, make sure you perform all queries on the same block. See the following https://forum.openzeppelin.com/t/iterating-over-elements-on-enumerableset-in-openzeppelin-contracts/2296[forum post] for more information."
      },
      "getRoleMemberCount(bytes32)": {
        "details": "Returns the number of accounts that have `role`. Can be used together with {getRoleMember} to enumerate all bearers of a role."
      },
      "grantRole(bytes32,address)": {
        "details": "Grants `role` to `account`.     * If `account` had not been already granted `role`, emits a {RoleGranted} event.     * Requirements:     * - the caller must have ``role``'s admin role."
      },
      "hasRole(bytes32,address)": {
        "details": "Returns `true` if `account` has been granted `role`."
      },
      "owner()": {
        "details": "Returns the address of the current owner."
      },
      "renounceOwnership()": {
        "details": "Leaves the contract without owner. It will not be possible to call `onlyOwner` functions anymore. Can only be called by the current owner.     * NOTE: Renouncing ownership will leave the contract without an owner, thereby removing any functionality that is only available to the owner."
      },
      "renounceRole(bytes32,address)": {
        "details": "Revokes `role` from the calling account.     * Roles are often managed via {grantRole} and {revokeRole}: this function's purpose is to provide a mechanism for accounts to lose their privileges if they are compromised (such as when a trusted device is misplaced).     * If the calling account had been granted `role`, emits a {RoleRevoked} event.     * Requirements:     * - the caller must be `account`."
      },
      "revokeRole(bytes32,address)": {
        "details": "Revokes `role` from `account`.     * If `account` had been granted `role`, emits a {RoleRevoked} event.     * Requirements:     * - the caller must have ``role``'s admin role."
      },
      "transferOwnership(address)": {
        "details": "Transfers ownership of the contract to a new account (`newOwner`). Can only be called by the current owner."
      }
    }
  },
  "userdoc": {
    "methods": {}
  }
}