{
  "contractName": "Meme",
  "abi": [
    {
      "anonymous": false,
      "inputs": [
        {
          "indexed": true,
          "internalType": "address",
          "name": "previousOwner",
          "type": "address"
        },
        {
          "indexed": true,
          "internalType": "address",
          "name": "newOwner",
          "type": "address"
        }
      ],
      "name": "OwnershipTransferred",
      "type": "event"
    },
    {
      "anonymous": false,
      "inputs": [
        {
          "indexed": true,
          "internalType": "bytes32",
          "name": "role",
          "type": "bytes32"
        },
        {
          "indexed": true,
          "internalType": "bytes32",
          "name": "previousAdminRole",
          "type": "bytes32"
        },
        {
          "indexed": true,
          "internalType": "bytes32",
          "name": "newAdminRole",
          "type": "bytes32"
        }
      ],
      "name": "RoleAdminChanged",
      "type": "event"
    },
    {
      "anonymous": false,
      "inputs": [
        {
          "indexed": true,
          "internalType": "bytes32",
          "name": "role",
          "type": "bytes32"
        },
        {
          "indexed": true,
          "internalType": "address",
          "name": "account",
          "type": "address"
        },
        {
          "indexed": true,
          "internalType": "address",
          "name": "sender",
          "type": "address"
        }
      ],
      "name": "RoleGranted",
      "type": "event"
    },
    {
      "anonymous": false,
      "inputs": [
        {
          "indexed": true,
          "internalType": "bytes32",
          "name": "role",
          "type": "bytes32"
        },
        {
          "indexed": true,
          "internalType": "address",
          "name": "account",
          "type": "address"
        },
        {
          "indexed": true,
          "internalType": "address",
          "name": "sender",
          "type": "address"
        }
      ],
      "name": "RoleRevoked",
      "type": "event"
    },
    {
      "inputs": [],
      "name": "DEFAULT_ADMIN_ROLE",
      "outputs": [
        {
          "internalType": "bytes32",
          "name": "",
          "type": "bytes32"
        }
      ],
      "stateMutability": "view",
      "type": "function",
      "constant": true
    },
    {
      "inputs": [],
      "name": "USER_ROLE",
      "outputs": [
        {
          "internalType": "bytes32",
          "name": "",
          "type": "bytes32"
        }
      ],
      "stateMutability": "view",
      "type": "function",
      "constant": true
    },
    {
      "inputs": [
        {
          "internalType": "bytes32",
          "name": "role",
          "type": "bytes32"
        }
      ],
      "name": "getRoleAdmin",
      "outputs": [
        {
          "internalType": "bytes32",
          "name": "",
          "type": "bytes32"
        }
      ],
      "stateMutability": "view",
      "type": "function",
      "constant": true
    },
    {
      "inputs": [
        {
          "internalType": "bytes32",
          "name": "role",
          "type": "bytes32"
        },
        {
          "internalType": "uint256",
          "name": "index",
          "type": "uint256"
        }
      ],
      "name": "getRoleMember",
      "outputs": [
        {
          "internalType": "address",
          "name": "",
          "type": "address"
        }
      ],
      "stateMutability": "view",
      "type": "function",
      "constant": true
    },
    {
      "inputs": [
        {
          "internalType": "bytes32",
          "name": "role",
          "type": "bytes32"
        }
      ],
      "name": "getRoleMemberCount",
      "outputs": [
        {
          "internalType": "uint256",
          "name": "",
          "type": "uint256"
        }
      ],
      "stateMutability": "view",
      "type": "function",
      "constant": true
    },
    {
      "inputs": [
        {
          "internalType": "bytes32",
          "name": "role",
          "type": "bytes32"
        },
        {
          "internalType": "address",
          "name": "account",
          "type": "address"
        }
      ],
      "name": "grantRole",
      "outputs": [],
      "stateMutability": "nonpayable",
      "type": "function"
    },
    {
      "inputs": [
        {
          "internalType": "bytes32",
          "name": "role",
          "type": "bytes32"
        },
        {
          "internalType": "address",
          "name": "account",
          "type": "address"
        }
      ],
      "name": "hasRole",
      "outputs": [
        {
          "internalType": "bool",
          "name": "",
          "type": "bool"
        }
      ],
      "stateMutability": "view",
      "type": "function",
      "constant": true
    },
    {
      "inputs": [],
      "name": "owner",
      "outputs": [
        {
          "internalType": "address",
          "name": "",
          "type": "address"
        }
      ],
      "stateMutability": "view",
      "type": "function",
      "constant": true
    },
    {
      "inputs": [],
      "name": "renounceOwnership",
      "outputs": [],
      "stateMutability": "nonpayable",
      "type": "function"
    },
    {
      "inputs": [
        {
          "internalType": "bytes32",
          "name": "role",
          "type": "bytes32"
        },
        {
          "internalType": "address",
          "name": "account",
          "type": "address"
        }
      ],
      "name": "renounceRole",
      "outputs": [],
      "stateMutability": "nonpayable",
      "type": "function"
    },
    {
      "inputs": [
        {
          "internalType": "bytes32",
          "name": "role",
          "type": "bytes32"
        },
        {
          "internalType": "address",
          "name": "account",
          "type": "address"
        }
      ],
      "name": "revokeRole",
      "outputs": [],
      "stateMutability": "nonpayable",
      "type": "function"
    },
    {
      "inputs": [
        {
          "internalType": "address",
          "name": "newOwner",
          "type": "address"
        }
      ],
      "name": "transferOwnership",
      "outputs": [],
      "stateMutability": "nonpayable",
      "type": "function"
    },
    {
      "inputs": [
        {
          "internalType": "string",
          "name": "_usr",
          "type": "string"
        }
      ],
      "name": "signUpUserOrLogin",
      "outputs": [],
      "stateMutability": "nonpayable",
      "type": "function"
    },
    {
      "inputs": [
        {
          "internalType": "string",
          "name": "_usrName",
          "type": "string"
        },
        {
          "internalType": "address",
          "name": "_address",
          "type": "address"
        },
        {
          "internalType": "bytes32",
          "name": "_imageHash",
          "type": "bytes32"
        },
        {
          "internalType": "bytes32",
          "name": "_imageName",
          "type": "bytes32"
        }
      ],
      "name": "shareImage",
      "outputs": [],
      "stateMutability": "nonpayable",
      "type": "function"
    },
    {
      "inputs": [],
      "name": "getSharedImageArr",
      "outputs": [
        {
          "internalType": "bytes32[]",
          "name": "",
          "type": "bytes32[]"
        },
        {
          "internalType": "bytes32[]",
          "name": "",
          "type": "bytes32[]"
        },
        {
          "internalType": "address[]",
          "name": "",
          "type": "address[]"
        },
        {
          "internalType": "string[]",
          "name": "",
          "type": "string[]"
        }
      ],
      "stateMutability": "view",
      "type": "function",
      "constant": true
    },
    {
      "inputs": [
        {
          "internalType": "bytes32",
          "name": "_imageHash",
          "type": "bytes32"
        },
        {
          "internalType": "bytes32",
          "name": "_imageName",
          "type": "bytes32"
        }
      ],
      "name": "set",
      "outputs": [],
      "stateMutability": "nonpayable",
      "type": "function"
    },
    {
      "inputs": [],
      "name": "get",
      "outputs": [
        {
          "internalType": "bytes32[]",
          "name": "",
          "type": "bytes32[]"
        },
        {
          "internalType": "bytes32[]",
          "name": "",
          "type": "bytes32[]"
        },
        {
          "internalType": "string",
          "name": "",
          "type": "string"
        }
      ],
      "stateMutability": "view",
      "type": "function",
      "constant": true
    }
  ],
  "bytecode": "0x608060405260006100146100b760201b60201c565b9050806000806101000a81548173ffffffffffffffffffffffffffffffffffffffff021916908373ffffffffffffffffffffffffffffffffffffffff1602179055508073ffffffffffffffffffffffffffffffffffffffff16600073ffffffffffffffffffffffffffffffffffffffff167f8be0079c531659141344cd1fd0a4f28419497f9722a3daafe3b4186f6b6457e060405160405180910390a3506100bf565b600033905090565b6126aa806100ce6000396000f3fe608060405234801561001057600080fd5b506004361061010b5760003560e01c806384acf963116100a2578063a217fddf11610071578063a217fddf14610297578063ca15c873146102b5578063d547741f146102e5578063f2fde38b14610301578063f71f7a251461031d5761010b565b806384acf963146101f85780638da5cb5b146102195780639010d07c1461023757806391d14854146102675761010b565b80632f2ff15d116100de5780632f2ff15d1461019657806336568abe146101b25780636d4ce63c146101ce578063715018a6146101ee5761010b565b80630d1475fb14610110578063131191611461012c5780631e8f09111461014a578063248a9ca314610166575b600080fd5b61012a60048036036101259190810190611cbb565b610339565b005b610134610661565b604051610141919061232d565b60405180910390f35b610164600480360361015f9190810190611c7a565b610678565b005b610180600480360361017b9190810190611b9d565b610945565b60405161018d919061232d565b60405180910390f35b6101b060048036036101ab9190810190611bc6565b610965565b005b6101cc60048036036101c79190810190611bc6565b6109d9565b005b6101d6610a5c565b6040516101e5939291906122c6565b60405180910390f35b6101f6610cce565b005b610200610e23565b6040516102109493929190612265565b60405180910390f35b6102216111aa565b60405161022e919061224a565b60405180910390f35b610251600480360361024c9190810190611c3e565b6111d3565b60405161025e919061224a565b60405180910390f35b610281600480360361027c9190810190611bc6565b611205565b60405161028e9190612312565b60405180910390f35b61029f611237565b6040516102ac919061232d565b60405180910390f35b6102cf60048036036102ca9190810190611b9d565b61123e565b6040516102dc9190612428565b60405180910390f35b6102ff60048036036102fa9190810190611bc6565b611265565b005b61031b60048036036103169190810190611b74565b6112d9565b005b61033760048036036103329190810190611c02565b61149d565b005b61035660405161034890612235565b604051809103902033611205565b610395576040517f08c379a000000000000000000000000000000000000000000000000000000000815260040161038c906123e8565b60405180910390fd5b600080905060008090505b600260008673ffffffffffffffffffffffffffffffffffffffff1673ffffffffffffffffffffffffffffffffffffffff168152602001908152602001600020600401805490508110156104625783600260008773ffffffffffffffffffffffffffffffffffffffff1673ffffffffffffffffffffffffffffffffffffffff168152602001908152602001600020600401828154811061043b57fe5b906000526020600020015414156104555760019150610462565b80806001019150506103a0565b508061065a57600260008573ffffffffffffffffffffffffffffffffffffffff1673ffffffffffffffffffffffffffffffffffffffff168152602001908152602001600020600401839080600181540180825580915050600190039060005260206000200160009091909190915055600260008573ffffffffffffffffffffffffffffffffffffffff1673ffffffffffffffffffffffffffffffffffffffff168152602001908152602001600020600501829080600181540180825580915050600190039060005260206000200160009091909190915055600260008573ffffffffffffffffffffffffffffffffffffffff1673ffffffffffffffffffffffffffffffffffffffff168152602001908152602001600020600701859080600181540180825580915050600190039060005260206000200160009091909190915090805190602001906105b59291906119c5565b50600260008573ffffffffffffffffffffffffffffffffffffffff1673ffffffffffffffffffffffffffffffffffffffff168152602001908152602001600020600601339080600181540180825580915050600190039060005260206000200160009091909190916101000a81548173ffffffffffffffffffffffffffffffffffffffff021916908373ffffffffffffffffffffffffffffffffffffffff1602179055505b5050505050565b60405161066d90612235565b604051809103902081565b600260003373ffffffffffffffffffffffffffffffffffffffff1673ffffffffffffffffffffffffffffffffffffffff16815260200190815260200160002060030160009054906101000a900460ff16610942576003600260003373ffffffffffffffffffffffffffffffffffffffff1673ffffffffffffffffffffffffffffffffffffffff16815260200190815260200160002060010190805461071e929190611a45565b506003600260003373ffffffffffffffffffffffffffffffffffffffff1673ffffffffffffffffffffffffffffffffffffffff168152602001908152602001600020600201908054610771929190611a45565b506001600260003373ffffffffffffffffffffffffffffffffffffffff1673ffffffffffffffffffffffffffffffffffffffff16815260200190815260200160002060030160006101000a81548160ff02191690831515021790555080600260003373ffffffffffffffffffffffffffffffffffffffff1673ffffffffffffffffffffffffffffffffffffffff16815260200190815260200160002060000190805190602001906108239291906119c5565b50600260003373ffffffffffffffffffffffffffffffffffffffff1673ffffffffffffffffffffffffffffffffffffffff16815260200190815260200160002050600260003373ffffffffffffffffffffffffffffffffffffffff1673ffffffffffffffffffffffffffffffffffffffff16815260200190815260200160002050600260003373ffffffffffffffffffffffffffffffffffffffff1673ffffffffffffffffffffffffffffffffffffffff16815260200190815260200160002050600260003373ffffffffffffffffffffffffffffffffffffffff1673ffffffffffffffffffffffffffffffffffffffff1681526020019081526020016000205061094160405161093390612235565b6040518091039020336115cf565b5b50565b600060016000838152602001908152602001600020600201549050919050565b61098c60016000848152602001908152602001600020600201546109876115dd565b611205565b6109cb576040517f08c379a00000000000000000000000000000000000000000000000000000000081526004016109c290612368565b60405180910390fd5b6109d582826115e5565b5050565b6109e16115dd565b73ffffffffffffffffffffffffffffffffffffffff168173ffffffffffffffffffffffffffffffffffffffff1614610a4e576040517f08c379a0000000000000000000000000000000000000000000000000000000008152600401610a4590612408565b60405180910390fd5b610a588282611679565b5050565b6060806060610a7e604051610a7090612235565b604051809103902033611205565b610abd576040517f08c379a0000000000000000000000000000000000000000000000000000000008152600401610ab4906123e8565b60405180910390fd5b600260003373ffffffffffffffffffffffffffffffffffffffff1673ffffffffffffffffffffffffffffffffffffffff168152602001908152602001600020600101600260003373ffffffffffffffffffffffffffffffffffffffff1673ffffffffffffffffffffffffffffffffffffffff168152602001908152602001600020600201600260003373ffffffffffffffffffffffffffffffffffffffff1673ffffffffffffffffffffffffffffffffffffffff16815260200190815260200160002060000182805480602002602001604051908101604052809291908181526020018280548015610bce57602002820191906000526020600020905b815481526020019060010190808311610bba575b5050505050925081805480602002602001604051908101604052809291908181526020018280548015610c2057602002820191906000526020600020905b815481526020019060010190808311610c0c575b50505050509150808054600181600116156101000203166002900480601f016020809104026020016040519081016040528092919081815260200182805460018160011615610100020316600290048015610cbc5780601f10610c9157610100808354040283529160200191610cbc565b820191906000526020600020905b815481529060010190602001808311610c9f57829003601f168201915b50505050509050925092509250909192565b610cd66115dd565b73ffffffffffffffffffffffffffffffffffffffff166000809054906101000a900473ffffffffffffffffffffffffffffffffffffffff1673ffffffffffffffffffffffffffffffffffffffff1614610d64576040517f08c379a0000000000000000000000000000000000000000000000000000000008152600401610d5b906123c8565b60405180910390fd5b600073ffffffffffffffffffffffffffffffffffffffff166000809054906101000a900473ffffffffffffffffffffffffffffffffffffffff1673ffffffffffffffffffffffffffffffffffffffff167f8be0079c531659141344cd1fd0a4f28419497f9722a3daafe3b4186f6b6457e060405160405180910390a360008060006101000a81548173ffffffffffffffffffffffffffffffffffffffff021916908373ffffffffffffffffffffffffffffffffffffffff160217905550565b606080606080610e46604051610e3890612235565b604051809103902033611205565b610e85576040517f08c379a0000000000000000000000000000000000000000000000000000000008152600401610e7c906123e8565b60405180910390fd5b600260003373ffffffffffffffffffffffffffffffffffffffff1673ffffffffffffffffffffffffffffffffffffffff168152602001908152602001600020600401600260003373ffffffffffffffffffffffffffffffffffffffff1673ffffffffffffffffffffffffffffffffffffffff168152602001908152602001600020600501600260003373ffffffffffffffffffffffffffffffffffffffff1673ffffffffffffffffffffffffffffffffffffffff168152602001908152602001600020600601600260003373ffffffffffffffffffffffffffffffffffffffff1673ffffffffffffffffffffffffffffffffffffffff16815260200190815260200160002060070183805480602002602001604051908101604052809291908181526020018280548015610fd857602002820191906000526020600020905b815481526020019060010190808311610fc4575b505050505093508280548060200260200160405190810160405280929190818152602001828054801561102a57602002820191906000526020600020905b815481526020019060010190808311611016575b50505050509250818054806020026020016040519081016040528092919081815260200182805480156110b257602002820191906000526020600020905b8160009054906101000a900473ffffffffffffffffffffffffffffffffffffffff1673ffffffffffffffffffffffffffffffffffffffff1681526020019060010190808311611068575b5050505050915080805480602002602001604051908101604052809291908181526020016000905b82821015611196578382906000526020600020018054600181600116156101000203166002900480601f0160208091040260200160405190810160405280929190818152602001828054600181600116156101000203166002900480156111825780601f1061115757610100808354040283529160200191611182565b820191906000526020600020905b81548152906001019060200180831161116557829003601f168201915b5050505050815260200190600101906110da565b505050509050935093509350935090919293565b60008060009054906101000a900473ffffffffffffffffffffffffffffffffffffffff16905090565b60006111fd826001600086815260200190815260200160002060000161170d90919063ffffffff16565b905092915050565b600061122f826001600086815260200190815260200160002060000161172790919063ffffffff16565b905092915050565b6000801b81565b600061125e60016000848152602001908152602001600020600001611757565b9050919050565b61128c60016000848152602001908152602001600020600201546112876115dd565b611205565b6112cb576040517f08c379a00000000000000000000000000000000000000000000000000000000081526004016112c2906123a8565b60405180910390fd5b6112d58282611679565b5050565b6112e16115dd565b73ffffffffffffffffffffffffffffffffffffffff166000809054906101000a900473ffffffffffffffffffffffffffffffffffffffff1673ffffffffffffffffffffffffffffffffffffffff161461136f576040517f08c379a0000000000000000000000000000000000000000000000000000000008152600401611366906123c8565b60405180910390fd5b600073ffffffffffffffffffffffffffffffffffffffff168173ffffffffffffffffffffffffffffffffffffffff1614156113df576040517f08c379a00000000000000000000000000000000000000000000000000000000081526004016113d690612388565b60405180910390fd5b8073ffffffffffffffffffffffffffffffffffffffff166000809054906101000a900473ffffffffffffffffffffffffffffffffffffffff1673ffffffffffffffffffffffffffffffffffffffff167f8be0079c531659141344cd1fd0a4f28419497f9722a3daafe3b4186f6b6457e060405160405180910390a3806000806101000a81548173ffffffffffffffffffffffffffffffffffffffff021916908373ffffffffffffffffffffffffffffffffffffffff16021790555050565b6114ba6040516114ac90612235565b604051809103902033611205565b6114f9576040517f08c379a00000000000000000000000000000000000000000000000000000000081526004016114f0906123e8565b60405180910390fd5b600260003373ffffffffffffffffffffffffffffffffffffffff1673ffffffffffffffffffffffffffffffffffffffff168152602001908152602001600020600101829080600181540180825580915050600190039060005260206000200160009091909190915055600260003373ffffffffffffffffffffffffffffffffffffffff1673ffffffffffffffffffffffffffffffffffffffff1681526020019081526020016000206002018190806001815401808255809150506001900390600052602060002001600090919091909150555050565b6115d982826115e5565b5050565b600033905090565b61160d816001600085815260200190815260200160002060000161176c90919063ffffffff16565b156116755761161a6115dd565b73ffffffffffffffffffffffffffffffffffffffff168173ffffffffffffffffffffffffffffffffffffffff16837f2f8788117e7eff1d82e926ec794901d17c78024a50270940304540a733656f0d60405160405180910390a45b5050565b6116a1816001600085815260200190815260200160002060000161179c90919063ffffffff16565b15611709576116ae6115dd565b73ffffffffffffffffffffffffffffffffffffffff168173ffffffffffffffffffffffffffffffffffffffff16837ff6391f5c32d9c69d2a47ea670b442974b53935d1edc7fd64eb21e047a839171b60405160405180910390a45b5050565b600061171c83600001836117cc565b60001c905092915050565b600061174f836000018373ffffffffffffffffffffffffffffffffffffffff1660001b611839565b905092915050565b60006117658260000161185c565b9050919050565b6000611794836000018373ffffffffffffffffffffffffffffffffffffffff1660001b61186d565b905092915050565b60006117c4836000018373ffffffffffffffffffffffffffffffffffffffff1660001b6118dd565b905092915050565b600081836000018054905011611817576040517f08c379a000000000000000000000000000000000000000000000000000000000815260040161180e90612348565b60405180910390fd5b82600001828154811061182657fe5b9060005260206000200154905092915050565b600080836001016000848152602001908152602001600020541415905092915050565b600081600001805490509050919050565b60006118798383611839565b6118d25782600001829080600181540180825580915050600190039060005260206000200160009091909190915055826000018054905083600101600084815260200190815260200160002081905550600190506118d7565b600090505b92915050565b600080836001016000848152602001908152602001600020549050600081146119b9576000600182039050600060018660000180549050039050600086600001828154811061192857fe5b906000526020600020015490508087600001848154811061194557fe5b906000526020600020018190555060018301876001016000838152602001908152602001600020819055508660000180548061197d57fe5b600190038181906000526020600020016000905590558660010160008781526020019081526020016000206000905560019450505050506119bf565b60009150505b92915050565b828054600181600116156101000203166002900490600052602060002090601f016020900481019282601f10611a0657805160ff1916838001178555611a34565b82800160010185558215611a34579182015b82811115611a33578251825591602001919060010190611a18565b5b509050611a419190611a97565b5090565b828054828255906000526020600020908101928215611a865760005260206000209182015b82811115611a85578254825591600101919060010190611a6a565b5b509050611a939190611abc565b5090565b611ab991905b80821115611ab5576000816000905550600101611a9d565b5090565b90565b611ade91905b80821115611ada576000816000905550600101611ac2565b5090565b90565b600081359050611af08161262f565b92915050565b600081359050611b0581612646565b92915050565b600082601f830112611b1c57600080fd5b8135611b2f611b2a82612470565b612443565b91508082526020830160208301858383011115611b4b57600080fd5b611b568382846125dc565b50505092915050565b600081359050611b6e8161265d565b92915050565b600060208284031215611b8657600080fd5b6000611b9484828501611ae1565b91505092915050565b600060208284031215611baf57600080fd5b6000611bbd84828501611af6565b91505092915050565b60008060408385031215611bd957600080fd5b6000611be785828601611af6565b9250506020611bf885828601611ae1565b9150509250929050565b60008060408385031215611c1557600080fd5b6000611c2385828601611af6565b9250506020611c3485828601611af6565b9150509250929050565b60008060408385031215611c5157600080fd5b6000611c5f85828601611af6565b9250506020611c7085828601611b5f565b9150509250929050565b600060208284031215611c8c57600080fd5b600082013567ffffffffffffffff811115611ca657600080fd5b611cb284828501611b0b565b91505092915050565b60008060008060808587031215611cd157600080fd5b600085013567ffffffffffffffff811115611ceb57600080fd5b611cf787828801611b0b565b9450506020611d0887828801611ae1565b9350506040611d1987828801611af6565b9250506060611d2a87828801611af6565b91505092959194509250565b6000611d428383611d7a565b60208301905092915050565b6000611d5a8383611ed8565b60208301905092915050565b6000611d728383611f2f565b905092915050565b611d838161258a565b82525050565b611d928161258a565b82525050565b6000611da3826124cc565b611dad818561252a565b9350611db88361249c565b8060005b83811015611de9578151611dd08882611d36565b9750611ddb83612503565b925050600181019050611dbc565b5085935050505092915050565b6000611e01826124d7565b611e0b818561253b565b9350611e16836124ac565b8060005b83811015611e47578151611e2e8882611d4e565b9750611e3983612510565b925050600181019050611e1a565b5085935050505092915050565b6000611e5f826124e2565b611e69818561254c565b935083602082028501611e7b856124bc565b8060005b85811015611eb75784840389528151611e988582611d66565b9450611ea38361251d565b925060208a01995050600181019050611e7f565b50829750879550505050505092915050565b611ed28161259c565b82525050565b611ee1816125a8565b82525050565b611ef0816125a8565b82525050565b6000611f01826124f8565b611f0b818561256e565b9350611f1b8185602086016125eb565b611f248161261e565b840191505092915050565b6000611f3a826124ed565b611f44818561255d565b9350611f548185602086016125eb565b611f5d8161261e565b840191505092915050565b6000611f7560228361256e565b91507f456e756d657261626c655365743a20696e646578206f7574206f6620626f756e60008301527f64730000000000000000000000000000000000000000000000000000000000006020830152604082019050919050565b6000611fdb602f8361256e565b91507f416363657373436f6e74726f6c3a2073656e646572206d75737420626520616e60008301527f2061646d696e20746f206772616e7400000000000000000000000000000000006020830152604082019050919050565b600061204160098361257f565b91507f555345525f524f4c4500000000000000000000000000000000000000000000006000830152600982019050919050565b600061208160268361256e565b91507f4f776e61626c653a206e6577206f776e657220697320746865207a65726f206160008301527f64647265737300000000000000000000000000000000000000000000000000006020830152604082019050919050565b60006120e760308361256e565b91507f416363657373436f6e74726f6c3a2073656e646572206d75737420626520616e60008301527f2061646d696e20746f207265766f6b65000000000000000000000000000000006020830152604082019050919050565b600061214d60208361256e565b91507f4f776e61626c653a2063616c6c6572206973206e6f7420746865206f776e65726000830152602082019050919050565b600061218d60148361256e565b91507f43616c6c6572206973206e6f74206120757365720000000000000000000000006000830152602082019050919050565b60006121cd602f8361256e565b91507f416363657373436f6e74726f6c3a2063616e206f6e6c792072656e6f756e636560008301527f20726f6c657320666f722073656c6600000000000000000000000000000000006020830152604082019050919050565b61222f816125d2565b82525050565b600061224082612034565b9150819050919050565b600060208201905061225f6000830184611d89565b92915050565b6000608082019050818103600083015261227f8187611df6565b905081810360208301526122938186611df6565b905081810360408301526122a78185611d98565b905081810360608301526122bb8184611e54565b905095945050505050565b600060608201905081810360008301526122e08186611df6565b905081810360208301526122f48185611df6565b905081810360408301526123088184611ef6565b9050949350505050565b60006020820190506123276000830184611ec9565b92915050565b60006020820190506123426000830184611ee7565b92915050565b6000602082019050818103600083015261236181611f68565b9050919050565b6000602082019050818103600083015261238181611fce565b9050919050565b600060208201905081810360008301526123a181612074565b9050919050565b600060208201905081810360008301526123c1816120da565b9050919050565b600060208201905081810360008301526123e181612140565b9050919050565b6000602082019050818103600083015261240181612180565b9050919050565b60006020820190508181036000830152612421816121c0565b9050919050565b600060208201905061243d6000830184612226565b92915050565b6000604051905081810181811067ffffffffffffffff8211171561246657600080fd5b8060405250919050565b600067ffffffffffffffff82111561248757600080fd5b601f19601f8301169050602081019050919050565b6000819050602082019050919050565b6000819050602082019050919050565b6000819050602082019050919050565b600081519050919050565b600081519050919050565b600081519050919050565b600081519050919050565b600081519050919050565b6000602082019050919050565b6000602082019050919050565b6000602082019050919050565b600082825260208201905092915050565b600082825260208201905092915050565b600082825260208201905092915050565b600082825260208201905092915050565b600082825260208201905092915050565b600081905092915050565b6000612595826125b2565b9050919050565b60008115159050919050565b6000819050919050565b600073ffffffffffffffffffffffffffffffffffffffff82169050919050565b6000819050919050565b82818337600083830152505050565b60005b838110156126095780820151818401526020810190506125ee565b83811115612618576000848401525b50505050565b6000601f19601f8301169050919050565b6126388161258a565b811461264357600080fd5b50565b61264f816125a8565b811461265a57600080fd5b50565b612666816125d2565b811461267157600080fd5b5056fea2646970667358221220b70dd9720338c185b5a6e6b916f5d43df17a87b56c176a19c8399b8271cdd23264736f6c63430006020033",
  "source": "// SPDX-License-Identifier: MIT\r\npragma experimental ABIEncoderV2;\r\npragma solidity >=0.6.0;\r\nimport \"@openzeppelin/contracts/access/Ownable.sol\";\r\nimport \"@openzeppelin/contracts/access/AccessControl.sol\";\r\n\r\ncontract Meme is Ownable, AccessControl {\r\n\r\n  bytes32 public constant USER_ROLE = keccak256(\"USER_ROLE\"); //  enum State { Created, Locked, Inactive }\r\n  \r\n  // array of structs // 0 default \r\n  struct userData {\r\n\r\n    string username;\r\n\r\n    bytes32[] imageHashes;\r\n    bytes32[] imageNames;\r\n    bool userExists; \r\n    bytes32[] imageHashesSharedWithUser;\r\n    bytes32[] imageNamesSharedWithUser;\r\n    address[] addressSharedWithUser;\r\n    string[] usernameSharedWithUser;\r\n  }\r\n\r\n  mapping (address => userData) idUserData;\r\n\r\n  // onlyOwner fun that add users \r\n  bytes32[] initArr;\r\n  bytes32[] initArrShared;\r\n  function signUpUserOrLogin(string memory _usr) public { // onlyOwner { acc2 can connect, acc3,4 cannot }\r\n    // owner = msg.sender;\r\n    if (!idUserData[msg.sender].userExists) {\r\n      idUserData[msg.sender].imageHashes = initArr;\r\n      idUserData[msg.sender].imageNames = initArr;\r\n      idUserData[msg.sender].userExists = true;\r\n      idUserData[msg.sender].username = _usr;\r\n      // check why do that******** Sign up problem\r\n      idUserData[msg.sender].imageHashesSharedWithUser;// = initArrShared;\r\n      idUserData[msg.sender].imageNamesSharedWithUser; \r\n      idUserData[msg.sender].addressSharedWithUser;  \r\n      idUserData[msg.sender].usernameSharedWithUser; \r\n\r\n      _setupRole(USER_ROLE, msg.sender);\r\n    } // else user already exists\r\n  }\r\n\r\n  // set msg.sender [from who it was shared] \r\n  function shareImage(string memory _usrName, address _address, bytes32 _imageHash, bytes32 _imageName) public {\r\n    require(hasRole(USER_ROLE, msg.sender), \"Caller is not a user\");\r\n\r\n    // prevents duplicate images from being inserted (shared again)\r\n    bool duplicateFound = false;\r\n    for (uint i = 0; i < idUserData[_address].imageHashesSharedWithUser.length; i++) {\r\n      if (idUserData[_address].imageHashesSharedWithUser[i] == _imageHash) {\r\n        duplicateFound = true;\r\n        break;\r\n      }\r\n    }\r\n    if (!duplicateFound) {\r\n      idUserData[_address].imageHashesSharedWithUser.push(_imageHash);\r\n      idUserData[_address].imageNamesSharedWithUser.push(_imageName);\r\n      idUserData[_address].usernameSharedWithUser.push(_usrName);\r\n      idUserData[_address].addressSharedWithUser.push(msg.sender); \r\n    } \r\n    // return duplicateFound;\r\n    //************** */ else alert user that it has already been shared with that user\r\n  }\r\n\r\n  function getSharedImageArr() public view returns (bytes32[] memory, bytes32[] memory, address[] memory, string[] memory) { \r\n    require(hasRole(USER_ROLE, msg.sender), \"Caller is not a user\");\r\n    return (idUserData[msg.sender].imageHashesSharedWithUser, idUserData[msg.sender].imageNamesSharedWithUser,\r\n    idUserData[msg.sender].addressSharedWithUser, idUserData[msg.sender].usernameSharedWithUser); \r\n  }\r\n\r\n  function set(bytes32 _imageHash, bytes32 _imageName) public { \r\n    require(hasRole(USER_ROLE, msg.sender), \"Caller is not a user\");\r\n    idUserData[msg.sender].imageHashes.push(_imageHash);\r\n    idUserData[msg.sender].imageNames.push(_imageName);\r\n  }\r\n\r\n  function get() public view returns (bytes32[] memory, bytes32[] memory, string memory) {  // CATCH THE EXCEPTION: CALLER IS NOT A USER - HAPPENS WHEN GETS USERNAME \r\n    require(hasRole(USER_ROLE, msg.sender), \"Caller is not a user\");\r\n    return (idUserData[msg.sender].imageHashes, idUserData[msg.sender].imageNames, idUserData[msg.sender].username); \r\n  }\r\n\r\n  // delete: reset variable to default value\r\n  // function deleteImage(address userAddress, uint index) public {\r\n  //   delete idUserData[userAddress].imageHashes[index];\r\n  // }\r\n\r\n  // bytes32[] public imageHashes;\r\n  // function set(bytes32 _imageHash) public { // abstract 0.7.0\r\n  //   imageHashes.push(_imageHash);\r\n  // }\r\n\r\n  // function get() public view returns (bytes32[] memory) { //internal dw\r\n  //   return imageHashes;\r\n  // }\r\n}",
  "sourcePath": "/mnt/c/Users/theod/git/y3_project/contracts/Meme.sol",
  "compiler": {
    "name": "solc",
    "version": "0.6.2+commit.bacdbe57.Emscripten.clang"
  },
  "schemaVersion": "3.2.5",
  "updatedAt": "2021-02-09T09:05:21.979Z",
  "networkType": "ethereum",
  "devdoc": {
    "methods": {
      "getRoleAdmin(bytes32)": {
        "details": "Returns the admin role that controls `role`. See {grantRole} and {revokeRole}.     * To change a role's admin, use {_setRoleAdmin}."
      },
      "getRoleMember(bytes32,uint256)": {
        "details": "Returns one of the accounts that have `role`. `index` must be a value between 0 and {getRoleMemberCount}, non-inclusive.     * Role bearers are not sorted in any particular way, and their ordering may change at any point.     * WARNING: When using {getRoleMember} and {getRoleMemberCount}, make sure you perform all queries on the same block. See the following https://forum.openzeppelin.com/t/iterating-over-elements-on-enumerableset-in-openzeppelin-contracts/2296[forum post] for more information."
      },
      "getRoleMemberCount(bytes32)": {
        "details": "Returns the number of accounts that have `role`. Can be used together with {getRoleMember} to enumerate all bearers of a role."
      },
      "grantRole(bytes32,address)": {
        "details": "Grants `role` to `account`.     * If `account` had not been already granted `role`, emits a {RoleGranted} event.     * Requirements:     * - the caller must have ``role``'s admin role."
      },
      "hasRole(bytes32,address)": {
        "details": "Returns `true` if `account` has been granted `role`."
      },
      "owner()": {
        "details": "Returns the address of the current owner."
      },
      "renounceOwnership()": {
        "details": "Leaves the contract without owner. It will not be possible to call `onlyOwner` functions anymore. Can only be called by the current owner.     * NOTE: Renouncing ownership will leave the contract without an owner, thereby removing any functionality that is only available to the owner."
      },
      "renounceRole(bytes32,address)": {
        "details": "Revokes `role` from the calling account.     * Roles are often managed via {grantRole} and {revokeRole}: this function's purpose is to provide a mechanism for accounts to lose their privileges if they are compromised (such as when a trusted device is misplaced).     * If the calling account had been granted `role`, emits a {RoleRevoked} event.     * Requirements:     * - the caller must be `account`."
      },
      "revokeRole(bytes32,address)": {
        "details": "Revokes `role` from `account`.     * If `account` had been granted `role`, emits a {RoleRevoked} event.     * Requirements:     * - the caller must have ``role``'s admin role."
      },
      "transferOwnership(address)": {
        "details": "Transfers ownership of the contract to a new account (`newOwner`). Can only be called by the current owner."
      }
    }
  },
  "userdoc": {
    "methods": {}
  }
}