{
  "contractName": "Meme",
  "abi": [
    {
      "constant": false,
      "inputs": [],
      "name": "signUpUserOrLogin",
      "outputs": [],
      "payable": false,
      "stateMutability": "nonpayable",
      "type": "function"
    },
    {
      "constant": false,
      "inputs": [
        {
          "internalType": "address",
          "name": "userAddress",
          "type": "address"
        },
        {
          "internalType": "bytes32",
          "name": "_imageHash",
          "type": "bytes32"
        }
      ],
      "name": "set",
      "outputs": [],
      "payable": false,
      "stateMutability": "nonpayable",
      "type": "function"
    },
    {
      "constant": true,
      "inputs": [
        {
          "internalType": "address",
          "name": "userAddress",
          "type": "address"
        }
      ],
      "name": "get",
      "outputs": [
        {
          "internalType": "bytes32[]",
          "name": "",
          "type": "bytes32[]"
        }
      ],
      "payable": false,
      "stateMutability": "view",
      "type": "function"
    }
  ],
  "bytecode": "0x608060405234801561001057600080fd5b506103ed806100206000396000f3fe608060405234801561001057600080fd5b50600436106100415760003560e01c80633e7b8e71146100465780637dc9983b14610094578063c2bc2efc1461009e575b600080fd5b6100926004803603604081101561005c57600080fd5b81019080803573ffffffffffffffffffffffffffffffffffffffff16906020019092919080359060200190929190505050610137565b005b61009c6101a6565b005b6100e0600480360360208110156100b457600080fd5b81019080803573ffffffffffffffffffffffffffffffffffffffff1690602001909291905050506102a8565b6040518080602001828103825283818151815260200191508051906020019060200280838360005b83811015610123578082015181840152602081019050610108565b505050509050019250505060405180910390f35b6000808373ffffffffffffffffffffffffffffffffffffffff1673ffffffffffffffffffffffffffffffffffffffff1681526020019081526020016000206000018190806001815401808255809150509060018203906000526020600020016000909192909190915055505050565b6000803373ffffffffffffffffffffffffffffffffffffffff1673ffffffffffffffffffffffffffffffffffffffff16815260200190815260200160002060010160009054906101000a900460ff166102a65760016000803373ffffffffffffffffffffffffffffffffffffffff1673ffffffffffffffffffffffffffffffffffffffff16815260200190815260200160002060000190805461024a929190610341565b5060016000803373ffffffffffffffffffffffffffffffffffffffff1673ffffffffffffffffffffffffffffffffffffffff16815260200190815260200160002060010160006101000a81548160ff0219169083151502179055505b565b60606000808373ffffffffffffffffffffffffffffffffffffffff1673ffffffffffffffffffffffffffffffffffffffff16815260200190815260200160002060000180548060200260200160405190810160405280929190818152602001828054801561033557602002820191906000526020600020905b815481526020019060010190808311610321575b50505050509050919050565b8280548282559060005260206000209081019282156103825760005260206000209182015b82811115610381578254825591600101919060010190610366565b5b50905061038f9190610393565b5090565b6103b591905b808211156103b1576000816000905550600101610399565b5090565b9056fea265627a7a7231582085e14809b1196ca74b6b5c619910a7c27306f0037380a1e397f7a0cb2308a05764736f6c63430005100032",
  "source": "// SPDX-License-Identifier: MIT\r\npragma solidity >=0.4.0;\r\n\r\ncontract Meme {\r\n\r\n  // array of structs \r\n  struct userData {\r\n    bytes32[] imageHashes;\r\n    bool userExists; // 0 default \r\n  }\r\n\r\n  mapping (address => userData) idUserData;\r\n\r\n  bytes32[] initArr;\r\n  function signUpUserOrLogin() public { // returns(address) {\r\n    // address _address\r\n    if (!idUserData[msg.sender].userExists) {\r\n      idUserData[msg.sender].imageHashes = initArr;\r\n      idUserData[msg.sender].userExists = true;\r\n    } // else user already exists  try catch\r\n    // return msg.sender;\r\n  }\r\n\r\n  function set(address userAddress, bytes32 _imageHash) public { \r\n    // require(userAdress in authenticated)\r\n    idUserData[userAddress].imageHashes.push(_imageHash);\r\n  }\r\n\r\n  // not passing the address resulted in mix of accounts\r\n  function get(address userAddress) public view returns (bytes32[] memory) { \r\n    return idUserData[userAddress].imageHashes; \r\n  }\r\n\r\n  // delete: reset variable to default value\r\n  // function deleteImage(address userAddress, uint index) public {\r\n  //   delete idUserData[userAddress].imageHashes[index];\r\n  // }\r\n\r\n  // bytes32[] public imageHashes;\r\n  // function set(bytes32 _imageHash) public { // abstract 0.7.0\r\n  //   imageHashes.push(_imageHash);\r\n  // }\r\n\r\n  // function get() public view returns (bytes32[] memory) { //internal dw\r\n  //   return imageHashes;\r\n  // }\r\n}",
  "sourcePath": "/mnt/c/Users/theod/git/y3_project/contracts/Meme.sol",
  "compiler": {
    "name": "solc",
    "version": "0.5.16+commit.9c3226ce.Emscripten.clang"
  },
  "schemaVersion": "3.2.5",
  "updatedAt": "2020-10-28T14:25:31.636Z",
  "networkType": "ethereum",
  "devdoc": {
    "methods": {}
  },
  "userdoc": {
    "methods": {}
  }
}