{
  "contractName": "Meme",
  "abi": [
    {
      "anonymous": false,
      "inputs": [
        {
          "indexed": true,
          "internalType": "address",
          "name": "previousOwner",
          "type": "address"
        },
        {
          "indexed": true,
          "internalType": "address",
          "name": "newOwner",
          "type": "address"
        }
      ],
      "name": "OwnershipTransferred",
      "type": "event"
    },
    {
      "anonymous": false,
      "inputs": [
        {
          "indexed": true,
          "internalType": "bytes32",
          "name": "role",
          "type": "bytes32"
        },
        {
          "indexed": true,
          "internalType": "bytes32",
          "name": "previousAdminRole",
          "type": "bytes32"
        },
        {
          "indexed": true,
          "internalType": "bytes32",
          "name": "newAdminRole",
          "type": "bytes32"
        }
      ],
      "name": "RoleAdminChanged",
      "type": "event"
    },
    {
      "anonymous": false,
      "inputs": [
        {
          "indexed": true,
          "internalType": "bytes32",
          "name": "role",
          "type": "bytes32"
        },
        {
          "indexed": true,
          "internalType": "address",
          "name": "account",
          "type": "address"
        },
        {
          "indexed": true,
          "internalType": "address",
          "name": "sender",
          "type": "address"
        }
      ],
      "name": "RoleGranted",
      "type": "event"
    },
    {
      "anonymous": false,
      "inputs": [
        {
          "indexed": true,
          "internalType": "bytes32",
          "name": "role",
          "type": "bytes32"
        },
        {
          "indexed": true,
          "internalType": "address",
          "name": "account",
          "type": "address"
        },
        {
          "indexed": true,
          "internalType": "address",
          "name": "sender",
          "type": "address"
        }
      ],
      "name": "RoleRevoked",
      "type": "event"
    },
    {
      "inputs": [],
      "name": "DEFAULT_ADMIN_ROLE",
      "outputs": [
        {
          "internalType": "bytes32",
          "name": "",
          "type": "bytes32"
        }
      ],
      "stateMutability": "view",
      "type": "function",
      "constant": true
    },
    {
      "inputs": [],
      "name": "USER_ROLE",
      "outputs": [
        {
          "internalType": "bytes32",
          "name": "",
          "type": "bytes32"
        }
      ],
      "stateMutability": "view",
      "type": "function",
      "constant": true
    },
    {
      "inputs": [
        {
          "internalType": "bytes32",
          "name": "role",
          "type": "bytes32"
        }
      ],
      "name": "getRoleAdmin",
      "outputs": [
        {
          "internalType": "bytes32",
          "name": "",
          "type": "bytes32"
        }
      ],
      "stateMutability": "view",
      "type": "function",
      "constant": true
    },
    {
      "inputs": [
        {
          "internalType": "bytes32",
          "name": "role",
          "type": "bytes32"
        },
        {
          "internalType": "uint256",
          "name": "index",
          "type": "uint256"
        }
      ],
      "name": "getRoleMember",
      "outputs": [
        {
          "internalType": "address",
          "name": "",
          "type": "address"
        }
      ],
      "stateMutability": "view",
      "type": "function",
      "constant": true
    },
    {
      "inputs": [
        {
          "internalType": "bytes32",
          "name": "role",
          "type": "bytes32"
        }
      ],
      "name": "getRoleMemberCount",
      "outputs": [
        {
          "internalType": "uint256",
          "name": "",
          "type": "uint256"
        }
      ],
      "stateMutability": "view",
      "type": "function",
      "constant": true
    },
    {
      "inputs": [
        {
          "internalType": "bytes32",
          "name": "role",
          "type": "bytes32"
        },
        {
          "internalType": "address",
          "name": "account",
          "type": "address"
        }
      ],
      "name": "grantRole",
      "outputs": [],
      "stateMutability": "nonpayable",
      "type": "function"
    },
    {
      "inputs": [
        {
          "internalType": "bytes32",
          "name": "role",
          "type": "bytes32"
        },
        {
          "internalType": "address",
          "name": "account",
          "type": "address"
        }
      ],
      "name": "hasRole",
      "outputs": [
        {
          "internalType": "bool",
          "name": "",
          "type": "bool"
        }
      ],
      "stateMutability": "view",
      "type": "function",
      "constant": true
    },
    {
      "inputs": [],
      "name": "owner",
      "outputs": [
        {
          "internalType": "address",
          "name": "",
          "type": "address"
        }
      ],
      "stateMutability": "view",
      "type": "function",
      "constant": true
    },
    {
      "inputs": [],
      "name": "renounceOwnership",
      "outputs": [],
      "stateMutability": "nonpayable",
      "type": "function"
    },
    {
      "inputs": [
        {
          "internalType": "bytes32",
          "name": "role",
          "type": "bytes32"
        },
        {
          "internalType": "address",
          "name": "account",
          "type": "address"
        }
      ],
      "name": "renounceRole",
      "outputs": [],
      "stateMutability": "nonpayable",
      "type": "function"
    },
    {
      "inputs": [
        {
          "internalType": "bytes32",
          "name": "role",
          "type": "bytes32"
        },
        {
          "internalType": "address",
          "name": "account",
          "type": "address"
        }
      ],
      "name": "revokeRole",
      "outputs": [],
      "stateMutability": "nonpayable",
      "type": "function"
    },
    {
      "inputs": [
        {
          "internalType": "address",
          "name": "newOwner",
          "type": "address"
        }
      ],
      "name": "transferOwnership",
      "outputs": [],
      "stateMutability": "nonpayable",
      "type": "function"
    },
    {
      "inputs": [
        {
          "internalType": "string",
          "name": "_usr",
          "type": "string"
        }
      ],
      "name": "signUpUserOrLogin",
      "outputs": [],
      "stateMutability": "nonpayable",
      "type": "function"
    },
    {
      "inputs": [
        {
          "internalType": "string",
          "name": "_usrName",
          "type": "string"
        },
        {
          "internalType": "address",
          "name": "_address",
          "type": "address"
        },
        {
          "internalType": "bytes32",
          "name": "_imageHash",
          "type": "bytes32"
        },
        {
          "internalType": "bytes32",
          "name": "_imageName",
          "type": "bytes32"
        }
      ],
      "name": "shareImage",
      "outputs": [],
      "stateMutability": "nonpayable",
      "type": "function"
    },
    {
      "inputs": [],
      "name": "getSharedImageArr",
      "outputs": [
        {
          "internalType": "bytes32[]",
          "name": "",
          "type": "bytes32[]"
        },
        {
          "internalType": "bytes32[]",
          "name": "",
          "type": "bytes32[]"
        },
        {
          "internalType": "address[]",
          "name": "",
          "type": "address[]"
        },
        {
          "internalType": "string[]",
          "name": "",
          "type": "string[]"
        }
      ],
      "stateMutability": "view",
      "type": "function",
      "constant": true
    },
    {
      "inputs": [
        {
          "internalType": "string",
          "name": "_usrName",
          "type": "string"
        },
        {
          "internalType": "address",
          "name": "_address",
          "type": "address"
        },
        {
          "internalType": "bytes32",
          "name": "_fileHash",
          "type": "bytes32"
        },
        {
          "internalType": "bytes32",
          "name": "_fileName",
          "type": "bytes32"
        }
      ],
      "name": "shareFile",
      "outputs": [],
      "stateMutability": "nonpayable",
      "type": "function"
    },
    {
      "inputs": [],
      "name": "getSharedFileArr",
      "outputs": [
        {
          "internalType": "bytes32[]",
          "name": "",
          "type": "bytes32[]"
        },
        {
          "internalType": "bytes32[]",
          "name": "",
          "type": "bytes32[]"
        },
        {
          "internalType": "address[]",
          "name": "",
          "type": "address[]"
        },
        {
          "internalType": "string[]",
          "name": "",
          "type": "string[]"
        }
      ],
      "stateMutability": "view",
      "type": "function",
      "constant": true
    },
    {
      "inputs": [
        {
          "internalType": "bytes32",
          "name": "_imageHash",
          "type": "bytes32"
        },
        {
          "internalType": "bytes32",
          "name": "_imageName",
          "type": "bytes32"
        }
      ],
      "name": "set",
      "outputs": [],
      "stateMutability": "nonpayable",
      "type": "function"
    },
    {
      "inputs": [
        {
          "internalType": "bytes32",
          "name": "_fileHash",
          "type": "bytes32"
        },
        {
          "internalType": "bytes32",
          "name": "_fileName",
          "type": "bytes32"
        }
      ],
      "name": "setFile",
      "outputs": [],
      "stateMutability": "nonpayable",
      "type": "function"
    },
    {
      "inputs": [],
      "name": "get",
      "outputs": [
        {
          "internalType": "bytes32[]",
          "name": "",
          "type": "bytes32[]"
        },
        {
          "internalType": "bytes32[]",
          "name": "",
          "type": "bytes32[]"
        },
        {
          "internalType": "string",
          "name": "",
          "type": "string"
        }
      ],
      "stateMutability": "view",
      "type": "function",
      "constant": true
    },
    {
      "inputs": [],
      "name": "getFile",
      "outputs": [
        {
          "internalType": "bytes32[]",
          "name": "",
          "type": "bytes32[]"
        },
        {
          "internalType": "bytes32[]",
          "name": "",
          "type": "bytes32[]"
        },
        {
          "internalType": "string",
          "name": "",
          "type": "string"
        }
      ],
      "stateMutability": "view",
      "type": "function",
      "constant": true
    }
  ],
  "bytecode": "0x608060405260006100146100b760201b60201c565b9050806000806101000a81548173ffffffffffffffffffffffffffffffffffffffff021916908373ffffffffffffffffffffffffffffffffffffffff1602179055508073ffffffffffffffffffffffffffffffffffffffff16600073ffffffffffffffffffffffffffffffffffffffff167f8be0079c531659141344cd1fd0a4f28419497f9722a3daafe3b4186f6b6457e060405160405180910390a3506100bf565b600033905090565b612f85806100ce6000396000f3fe608060405234801561001057600080fd5b50600436106101375760003560e01c806384acf963116100b8578063a217fddf1161007c578063a217fddf14610320578063ca15c8731461033e578063cc213e2a1461036e578063d547741f1461038a578063f2fde38b146103a6578063f71f7a25146103c257610137565b806384acf963146102655780638da5cb5b146102865780639010d07c146102a457806391d14854146102d4578063a1fed6e81461030457610137565b80632f2ff15d116100ff5780632f2ff15d146101e35780632fa81692146101ff57806336568abe1461021f5780636d4ce63c1461023b578063715018a61461025b57610137565b80630d1475fb1461013c578063131191611461015857806313d92158146101765780631e8f091114610197578063248a9ca3146101b3575b600080fd5b61015660048036036101519190810190612596565b6103de565b005b610160610706565b60405161016d9190612c08565b60405180910390f35b61017e61071d565b60405161018e9493929190612b40565b60405180910390f35b6101b160048036036101ac9190810190612555565b610aa4565b005b6101cd60048036036101c89190810190612478565b610bcb565b6040516101da9190612c08565b60405180910390f35b6101fd60048036036101f891908101906124a1565b610beb565b005b610207610c5f565b60405161021693929190612ba1565b60405180910390f35b610239600480360361023491908101906124a1565b610ed1565b005b610243610f54565b60405161025293929190612ba1565b60405180910390f35b6102636111c6565b005b61026d61131b565b60405161027d9493929190612b40565b60405180910390f35b61028e6116a2565b60405161029b9190612b25565b60405180910390f35b6102be60048036036102b99190810190612519565b6116cb565b6040516102cb9190612b25565b60405180910390f35b6102ee60048036036102e991908101906124a1565b6116fd565b6040516102fb9190612bed565b60405180910390f35b61031e600480360361031991908101906124dd565b61172f565b005b610328611861565b6040516103359190612c08565b60405180910390f35b61035860048036036103539190810190612478565b611868565b6040516103659190612d03565b60405180910390f35b61038860048036036103839190810190612596565b61188f565b005b6103a4600480360361039f91908101906124a1565b611bb7565b005b6103c060048036036103bb919081019061244f565b611c2b565b005b6103dc60048036036103d791908101906124dd565b611def565b005b6103fb6040516103ed90612b10565b6040518091039020336116fd565b61043a576040517f08c379a000000000000000000000000000000000000000000000000000000000815260040161043190612cc3565b60405180910390fd5b600080905060008090505b600260008673ffffffffffffffffffffffffffffffffffffffff1673ffffffffffffffffffffffffffffffffffffffff168152602001908152602001600020600401805490508110156105075783600260008773ffffffffffffffffffffffffffffffffffffffff1673ffffffffffffffffffffffffffffffffffffffff16815260200190815260200160002060040182815481106104e057fe5b906000526020600020015414156104fa5760019150610507565b8080600101915050610445565b50806106ff57600260008573ffffffffffffffffffffffffffffffffffffffff1673ffffffffffffffffffffffffffffffffffffffff168152602001908152602001600020600401839080600181540180825580915050600190039060005260206000200160009091909190915055600260008573ffffffffffffffffffffffffffffffffffffffff1673ffffffffffffffffffffffffffffffffffffffff168152602001908152602001600020600501829080600181540180825580915050600190039060005260206000200160009091909190915055600260008573ffffffffffffffffffffffffffffffffffffffff1673ffffffffffffffffffffffffffffffffffffffff168152602001908152602001600020600c018590806001815401808255809150506001900390600052602060002001600090919091909150908051906020019061065a929190612317565b50600260008573ffffffffffffffffffffffffffffffffffffffff1673ffffffffffffffffffffffffffffffffffffffff168152602001908152602001600020600a01339080600181540180825580915050600190039060005260206000200160009091909190916101000a81548173ffffffffffffffffffffffffffffffffffffffff021916908373ffffffffffffffffffffffffffffffffffffffff1602179055505b5050505050565b60405161071290612b10565b604051809103902081565b60608060608061074060405161073290612b10565b6040518091039020336116fd565b61077f576040517f08c379a000000000000000000000000000000000000000000000000000000000815260040161077690612cc3565b60405180910390fd5b600260003373ffffffffffffffffffffffffffffffffffffffff1673ffffffffffffffffffffffffffffffffffffffff168152602001908152602001600020600801600260003373ffffffffffffffffffffffffffffffffffffffff1673ffffffffffffffffffffffffffffffffffffffff168152602001908152602001600020600901600260003373ffffffffffffffffffffffffffffffffffffffff1673ffffffffffffffffffffffffffffffffffffffff168152602001908152602001600020600b01600260003373ffffffffffffffffffffffffffffffffffffffff1673ffffffffffffffffffffffffffffffffffffffff168152602001908152602001600020600d01838054806020026020016040519081016040528092919081815260200182805480156108d257602002820191906000526020600020905b8154815260200190600101908083116108be575b505050505093508280548060200260200160405190810160405280929190818152602001828054801561092457602002820191906000526020600020905b815481526020019060010190808311610910575b50505050509250818054806020026020016040519081016040528092919081815260200182805480156109ac57602002820191906000526020600020905b8160009054906101000a900473ffffffffffffffffffffffffffffffffffffffff1673ffffffffffffffffffffffffffffffffffffffff1681526020019060010190808311610962575b5050505050915080805480602002602001604051908101604052809291908181526020016000905b82821015610a90578382906000526020600020018054600181600116156101000203166002900480601f016020809104026020016040519081016040528092919081815260200182805460018160011615610100020316600290048015610a7c5780601f10610a5157610100808354040283529160200191610a7c565b820191906000526020600020905b815481529060010190602001808311610a5f57829003601f168201915b5050505050815260200190600101906109d4565b505050509050935093509350935090919293565b600260003373ffffffffffffffffffffffffffffffffffffffff1673ffffffffffffffffffffffffffffffffffffffff16815260200190815260200160002060000160009054906101000a900460ff16610bc8576001600260003373ffffffffffffffffffffffffffffffffffffffff1673ffffffffffffffffffffffffffffffffffffffff16815260200190815260200160002060000160006101000a81548160ff02191690831515021790555080600260003373ffffffffffffffffffffffffffffffffffffffff1673ffffffffffffffffffffffffffffffffffffffff1681526020019081526020016000206001019080519060200190610ba9929190612317565b50610bc7604051610bb990612b10565b604051809103902033611f21565b5b50565b600060016000838152602001908152602001600020600201549050919050565b610c126001600084815260200190815260200160002060020154610c0d611f2f565b6116fd565b610c51576040517f08c379a0000000000000000000000000000000000000000000000000000000008152600401610c4890612c43565b60405180910390fd5b610c5b8282611f37565b5050565b6060806060610c81604051610c7390612b10565b6040518091039020336116fd565b610cc0576040517f08c379a0000000000000000000000000000000000000000000000000000000008152600401610cb790612cc3565b60405180910390fd5b600260003373ffffffffffffffffffffffffffffffffffffffff1673ffffffffffffffffffffffffffffffffffffffff168152602001908152602001600020600601600260003373ffffffffffffffffffffffffffffffffffffffff1673ffffffffffffffffffffffffffffffffffffffff168152602001908152602001600020600701600260003373ffffffffffffffffffffffffffffffffffffffff1673ffffffffffffffffffffffffffffffffffffffff16815260200190815260200160002060010182805480602002602001604051908101604052809291908181526020018280548015610dd157602002820191906000526020600020905b815481526020019060010190808311610dbd575b5050505050925081805480602002602001604051908101604052809291908181526020018280548015610e2357602002820191906000526020600020905b815481526020019060010190808311610e0f575b50505050509150808054600181600116156101000203166002900480601f016020809104026020016040519081016040528092919081815260200182805460018160011615610100020316600290048015610ebf5780601f10610e9457610100808354040283529160200191610ebf565b820191906000526020600020905b815481529060010190602001808311610ea257829003601f168201915b50505050509050925092509250909192565b610ed9611f2f565b73ffffffffffffffffffffffffffffffffffffffff168173ffffffffffffffffffffffffffffffffffffffff1614610f46576040517f08c379a0000000000000000000000000000000000000000000000000000000008152600401610f3d90612ce3565b60405180910390fd5b610f508282611fcb565b5050565b6060806060610f76604051610f6890612b10565b6040518091039020336116fd565b610fb5576040517f08c379a0000000000000000000000000000000000000000000000000000000008152600401610fac90612cc3565b60405180910390fd5b600260003373ffffffffffffffffffffffffffffffffffffffff1673ffffffffffffffffffffffffffffffffffffffff168152602001908152602001600020600201600260003373ffffffffffffffffffffffffffffffffffffffff1673ffffffffffffffffffffffffffffffffffffffff168152602001908152602001600020600301600260003373ffffffffffffffffffffffffffffffffffffffff1673ffffffffffffffffffffffffffffffffffffffff168152602001908152602001600020600101828054806020026020016040519081016040528092919081815260200182805480156110c657602002820191906000526020600020905b8154815260200190600101908083116110b2575b505050505092508180548060200260200160405190810160405280929190818152602001828054801561111857602002820191906000526020600020905b815481526020019060010190808311611104575b50505050509150808054600181600116156101000203166002900480601f0160208091040260200160405190810160405280929190818152602001828054600181600116156101000203166002900480156111b45780601f10611189576101008083540402835291602001916111b4565b820191906000526020600020905b81548152906001019060200180831161119757829003601f168201915b50505050509050925092509250909192565b6111ce611f2f565b73ffffffffffffffffffffffffffffffffffffffff166000809054906101000a900473ffffffffffffffffffffffffffffffffffffffff1673ffffffffffffffffffffffffffffffffffffffff161461125c576040517f08c379a000000000000000000000000000000000000000000000000000000000815260040161125390612ca3565b60405180910390fd5b600073ffffffffffffffffffffffffffffffffffffffff166000809054906101000a900473ffffffffffffffffffffffffffffffffffffffff1673ffffffffffffffffffffffffffffffffffffffff167f8be0079c531659141344cd1fd0a4f28419497f9722a3daafe3b4186f6b6457e060405160405180910390a360008060006101000a81548173ffffffffffffffffffffffffffffffffffffffff021916908373ffffffffffffffffffffffffffffffffffffffff160217905550565b60608060608061133e60405161133090612b10565b6040518091039020336116fd565b61137d576040517f08c379a000000000000000000000000000000000000000000000000000000000815260040161137490612cc3565b60405180910390fd5b600260003373ffffffffffffffffffffffffffffffffffffffff1673ffffffffffffffffffffffffffffffffffffffff168152602001908152602001600020600401600260003373ffffffffffffffffffffffffffffffffffffffff1673ffffffffffffffffffffffffffffffffffffffff168152602001908152602001600020600501600260003373ffffffffffffffffffffffffffffffffffffffff1673ffffffffffffffffffffffffffffffffffffffff168152602001908152602001600020600a01600260003373ffffffffffffffffffffffffffffffffffffffff1673ffffffffffffffffffffffffffffffffffffffff168152602001908152602001600020600c01838054806020026020016040519081016040528092919081815260200182805480156114d057602002820191906000526020600020905b8154815260200190600101908083116114bc575b505050505093508280548060200260200160405190810160405280929190818152602001828054801561152257602002820191906000526020600020905b81548152602001906001019080831161150e575b50505050509250818054806020026020016040519081016040528092919081815260200182805480156115aa57602002820191906000526020600020905b8160009054906101000a900473ffffffffffffffffffffffffffffffffffffffff1673ffffffffffffffffffffffffffffffffffffffff1681526020019060010190808311611560575b5050505050915080805480602002602001604051908101604052809291908181526020016000905b8282101561168e578382906000526020600020018054600181600116156101000203166002900480601f01602080910402602001604051908101604052809291908181526020018280546001816001161561010002031660029004801561167a5780601f1061164f5761010080835404028352916020019161167a565b820191906000526020600020905b81548152906001019060200180831161165d57829003601f168201915b5050505050815260200190600101906115d2565b505050509050935093509350935090919293565b60008060009054906101000a900473ffffffffffffffffffffffffffffffffffffffff16905090565b60006116f5826001600086815260200190815260200160002060000161205f90919063ffffffff16565b905092915050565b6000611727826001600086815260200190815260200160002060000161207990919063ffffffff16565b905092915050565b61174c60405161173e90612b10565b6040518091039020336116fd565b61178b576040517f08c379a000000000000000000000000000000000000000000000000000000000815260040161178290612cc3565b60405180910390fd5b600260003373ffffffffffffffffffffffffffffffffffffffff1673ffffffffffffffffffffffffffffffffffffffff168152602001908152602001600020600601829080600181540180825580915050600190039060005260206000200160009091909190915055600260003373ffffffffffffffffffffffffffffffffffffffff1673ffffffffffffffffffffffffffffffffffffffff1681526020019081526020016000206007018190806001815401808255809150506001900390600052602060002001600090919091909150555050565b6000801b81565b6000611888600160008481526020019081526020016000206000016120a9565b9050919050565b6118ac60405161189e90612b10565b6040518091039020336116fd565b6118eb576040517f08c379a00000000000000000000000000000000000000000000000000000000081526004016118e290612cc3565b60405180910390fd5b600080905060008090505b600260008673ffffffffffffffffffffffffffffffffffffffff1673ffffffffffffffffffffffffffffffffffffffff168152602001908152602001600020600801805490508110156119b85783600260008773ffffffffffffffffffffffffffffffffffffffff1673ffffffffffffffffffffffffffffffffffffffff168152602001908152602001600020600801828154811061199157fe5b906000526020600020015414156119ab57600191506119b8565b80806001019150506118f6565b5080611bb057600260008573ffffffffffffffffffffffffffffffffffffffff1673ffffffffffffffffffffffffffffffffffffffff168152602001908152602001600020600801839080600181540180825580915050600190039060005260206000200160009091909190915055600260008573ffffffffffffffffffffffffffffffffffffffff1673ffffffffffffffffffffffffffffffffffffffff168152602001908152602001600020600901829080600181540180825580915050600190039060005260206000200160009091909190915055600260008573ffffffffffffffffffffffffffffffffffffffff1673ffffffffffffffffffffffffffffffffffffffff168152602001908152602001600020600d0185908060018154018082558091505060019003906000526020600020016000909190919091509080519060200190611b0b929190612317565b50600260008573ffffffffffffffffffffffffffffffffffffffff1673ffffffffffffffffffffffffffffffffffffffff168152602001908152602001600020600b01339080600181540180825580915050600190039060005260206000200160009091909190916101000a81548173ffffffffffffffffffffffffffffffffffffffff021916908373ffffffffffffffffffffffffffffffffffffffff1602179055505b5050505050565b611bde6001600084815260200190815260200160002060020154611bd9611f2f565b6116fd565b611c1d576040517f08c379a0000000000000000000000000000000000000000000000000000000008152600401611c1490612c83565b60405180910390fd5b611c278282611fcb565b5050565b611c33611f2f565b73ffffffffffffffffffffffffffffffffffffffff166000809054906101000a900473ffffffffffffffffffffffffffffffffffffffff1673ffffffffffffffffffffffffffffffffffffffff1614611cc1576040517f08c379a0000000000000000000000000000000000000000000000000000000008152600401611cb890612ca3565b60405180910390fd5b600073ffffffffffffffffffffffffffffffffffffffff168173ffffffffffffffffffffffffffffffffffffffff161415611d31576040517f08c379a0000000000000000000000000000000000000000000000000000000008152600401611d2890612c63565b60405180910390fd5b8073ffffffffffffffffffffffffffffffffffffffff166000809054906101000a900473ffffffffffffffffffffffffffffffffffffffff1673ffffffffffffffffffffffffffffffffffffffff167f8be0079c531659141344cd1fd0a4f28419497f9722a3daafe3b4186f6b6457e060405160405180910390a3806000806101000a81548173ffffffffffffffffffffffffffffffffffffffff021916908373ffffffffffffffffffffffffffffffffffffffff16021790555050565b611e0c604051611dfe90612b10565b6040518091039020336116fd565b611e4b576040517f08c379a0000000000000000000000000000000000000000000000000000000008152600401611e4290612cc3565b60405180910390fd5b600260003373ffffffffffffffffffffffffffffffffffffffff1673ffffffffffffffffffffffffffffffffffffffff168152602001908152602001600020600201829080600181540180825580915050600190039060005260206000200160009091909190915055600260003373ffffffffffffffffffffffffffffffffffffffff1673ffffffffffffffffffffffffffffffffffffffff1681526020019081526020016000206003018190806001815401808255809150506001900390600052602060002001600090919091909150555050565b611f2b8282611f37565b5050565b600033905090565b611f5f81600160008581526020019081526020016000206000016120be90919063ffffffff16565b15611fc757611f6c611f2f565b73ffffffffffffffffffffffffffffffffffffffff168173ffffffffffffffffffffffffffffffffffffffff16837f2f8788117e7eff1d82e926ec794901d17c78024a50270940304540a733656f0d60405160405180910390a45b5050565b611ff381600160008581526020019081526020016000206000016120ee90919063ffffffff16565b1561205b57612000611f2f565b73ffffffffffffffffffffffffffffffffffffffff168173ffffffffffffffffffffffffffffffffffffffff16837ff6391f5c32d9c69d2a47ea670b442974b53935d1edc7fd64eb21e047a839171b60405160405180910390a45b5050565b600061206e836000018361211e565b60001c905092915050565b60006120a1836000018373ffffffffffffffffffffffffffffffffffffffff1660001b61218b565b905092915050565b60006120b7826000016121ae565b9050919050565b60006120e6836000018373ffffffffffffffffffffffffffffffffffffffff1660001b6121bf565b905092915050565b6000612116836000018373ffffffffffffffffffffffffffffffffffffffff1660001b61222f565b905092915050565b600081836000018054905011612169576040517f08c379a000000000000000000000000000000000000000000000000000000000815260040161216090612c23565b60405180910390fd5b82600001828154811061217857fe5b9060005260206000200154905092915050565b600080836001016000848152602001908152602001600020541415905092915050565b600081600001805490509050919050565b60006121cb838361218b565b612224578260000182908060018154018082558091505060019003906000526020600020016000909190919091505582600001805490508360010160008481526020019081526020016000208190555060019050612229565b600090505b92915050565b6000808360010160008481526020019081526020016000205490506000811461230b576000600182039050600060018660000180549050039050600086600001828154811061227a57fe5b906000526020600020015490508087600001848154811061229757fe5b90600052602060002001819055506001830187600101600083815260200190815260200160002081905550866000018054806122cf57fe5b60019003818190600052602060002001600090559055866001016000878152602001908152602001600020600090556001945050505050612311565b60009150505b92915050565b828054600181600116156101000203166002900490600052602060002090601f016020900481019282601f1061235857805160ff1916838001178555612386565b82800160010185558215612386579182015b8281111561238557825182559160200191906001019061236a565b5b5090506123939190612397565b5090565b6123b991905b808211156123b557600081600090555060010161239d565b5090565b90565b6000813590506123cb81612f0a565b92915050565b6000813590506123e081612f21565b92915050565b600082601f8301126123f757600080fd5b813561240a61240582612d4b565b612d1e565b9150808252602083016020830185838301111561242657600080fd5b612431838284612eb7565b50505092915050565b60008135905061244981612f38565b92915050565b60006020828403121561246157600080fd5b600061246f848285016123bc565b91505092915050565b60006020828403121561248a57600080fd5b6000612498848285016123d1565b91505092915050565b600080604083850312156124b457600080fd5b60006124c2858286016123d1565b92505060206124d3858286016123bc565b9150509250929050565b600080604083850312156124f057600080fd5b60006124fe858286016123d1565b925050602061250f858286016123d1565b9150509250929050565b6000806040838503121561252c57600080fd5b600061253a858286016123d1565b925050602061254b8582860161243a565b9150509250929050565b60006020828403121561256757600080fd5b600082013567ffffffffffffffff81111561258157600080fd5b61258d848285016123e6565b91505092915050565b600080600080608085870312156125ac57600080fd5b600085013567ffffffffffffffff8111156125c657600080fd5b6125d2878288016123e6565b94505060206125e3878288016123bc565b93505060406125f4878288016123d1565b9250506060612605878288016123d1565b91505092959194509250565b600061261d8383612655565b60208301905092915050565b600061263583836127b3565b60208301905092915050565b600061264d838361280a565b905092915050565b61265e81612e65565b82525050565b61266d81612e65565b82525050565b600061267e82612da7565b6126888185612e05565b935061269383612d77565b8060005b838110156126c45781516126ab8882612611565b97506126b683612dde565b925050600181019050612697565b5085935050505092915050565b60006126dc82612db2565b6126e68185612e16565b93506126f183612d87565b8060005b838110156127225781516127098882612629565b975061271483612deb565b9250506001810190506126f5565b5085935050505092915050565b600061273a82612dbd565b6127448185612e27565b93508360208202850161275685612d97565b8060005b8581101561279257848403895281516127738582612641565b945061277e83612df8565b925060208a0199505060018101905061275a565b50829750879550505050505092915050565b6127ad81612e77565b82525050565b6127bc81612e83565b82525050565b6127cb81612e83565b82525050565b60006127dc82612dd3565b6127e68185612e49565b93506127f6818560208601612ec6565b6127ff81612ef9565b840191505092915050565b600061281582612dc8565b61281f8185612e38565b935061282f818560208601612ec6565b61283881612ef9565b840191505092915050565b6000612850602283612e49565b91507f456e756d657261626c655365743a20696e646578206f7574206f6620626f756e60008301527f64730000000000000000000000000000000000000000000000000000000000006020830152604082019050919050565b60006128b6602f83612e49565b91507f416363657373436f6e74726f6c3a2073656e646572206d75737420626520616e60008301527f2061646d696e20746f206772616e7400000000000000000000000000000000006020830152604082019050919050565b600061291c600983612e5a565b91507f555345525f524f4c4500000000000000000000000000000000000000000000006000830152600982019050919050565b600061295c602683612e49565b91507f4f776e61626c653a206e6577206f776e657220697320746865207a65726f206160008301527f64647265737300000000000000000000000000000000000000000000000000006020830152604082019050919050565b60006129c2603083612e49565b91507f416363657373436f6e74726f6c3a2073656e646572206d75737420626520616e60008301527f2061646d696e20746f207265766f6b65000000000000000000000000000000006020830152604082019050919050565b6000612a28602083612e49565b91507f4f776e61626c653a2063616c6c6572206973206e6f7420746865206f776e65726000830152602082019050919050565b6000612a68601483612e49565b91507f43616c6c6572206973206e6f74206120757365720000000000000000000000006000830152602082019050919050565b6000612aa8602f83612e49565b91507f416363657373436f6e74726f6c3a2063616e206f6e6c792072656e6f756e636560008301527f20726f6c657320666f722073656c6600000000000000000000000000000000006020830152604082019050919050565b612b0a81612ead565b82525050565b6000612b1b8261290f565b9150819050919050565b6000602082019050612b3a6000830184612664565b92915050565b60006080820190508181036000830152612b5a81876126d1565b90508181036020830152612b6e81866126d1565b90508181036040830152612b828185612673565b90508181036060830152612b96818461272f565b905095945050505050565b60006060820190508181036000830152612bbb81866126d1565b90508181036020830152612bcf81856126d1565b90508181036040830152612be381846127d1565b9050949350505050565b6000602082019050612c0260008301846127a4565b92915050565b6000602082019050612c1d60008301846127c2565b92915050565b60006020820190508181036000830152612c3c81612843565b9050919050565b60006020820190508181036000830152612c5c816128a9565b9050919050565b60006020820190508181036000830152612c7c8161294f565b9050919050565b60006020820190508181036000830152612c9c816129b5565b9050919050565b60006020820190508181036000830152612cbc81612a1b565b9050919050565b60006020820190508181036000830152612cdc81612a5b565b9050919050565b60006020820190508181036000830152612cfc81612a9b565b9050919050565b6000602082019050612d186000830184612b01565b92915050565b6000604051905081810181811067ffffffffffffffff82111715612d4157600080fd5b8060405250919050565b600067ffffffffffffffff821115612d6257600080fd5b601f19601f8301169050602081019050919050565b6000819050602082019050919050565b6000819050602082019050919050565b6000819050602082019050919050565b600081519050919050565b600081519050919050565b600081519050919050565b600081519050919050565b600081519050919050565b6000602082019050919050565b6000602082019050919050565b6000602082019050919050565b600082825260208201905092915050565b600082825260208201905092915050565b600082825260208201905092915050565b600082825260208201905092915050565b600082825260208201905092915050565b600081905092915050565b6000612e7082612e8d565b9050919050565b60008115159050919050565b6000819050919050565b600073ffffffffffffffffffffffffffffffffffffffff82169050919050565b6000819050919050565b82818337600083830152505050565b60005b83811015612ee4578082015181840152602081019050612ec9565b83811115612ef3576000848401525b50505050565b6000601f19601f8301169050919050565b612f1381612e65565b8114612f1e57600080fd5b50565b612f2a81612e83565b8114612f3557600080fd5b50565b612f4181612ead565b8114612f4c57600080fd5b5056fea264697066735822122086859da6c25e05ddf0b5364d3b5f8ca3a7bb08d3075dd61ef88a476e7adcb72164736f6c63430006020033",
  "source": "// SPDX-License-Identifier: MIT\r\npragma experimental ABIEncoderV2;\r\npragma solidity >=0.6.0;\r\nimport \"@openzeppelin/contracts/access/Ownable.sol\";\r\nimport \"@openzeppelin/contracts/access/AccessControl.sol\";\r\n\r\ncontract Meme is Ownable, AccessControl {\r\n\r\n  bytes32 public constant USER_ROLE = keccak256(\"USER_ROLE\"); //  enum State { Created, Locked, Inactive }\r\n  \r\n  // array of structs // 0 default \r\n  struct userData {\r\n\r\n    bool userExists; \r\n    string username;\r\n\r\n    bytes32[] imageHashes;\r\n    bytes32[] imageNames;\r\n    bytes32[] imageHashesSharedWithUser;\r\n    bytes32[] imageNamesSharedWithUser;\r\n\r\n    bytes32[] fileHashes;\r\n    bytes32[] fileNames;\r\n    bytes32[] fileHashesSharedWithUser;\r\n    bytes32[] fileNamesSharedWithUser;\r\n\r\n    address[] addressSharedWithUser;\r\n    address[] fileAddressSharedWithUser;\r\n    string[] usernameSharedWithUser;\r\n    string[] fileUsernameSharedWithUser;\r\n  }\r\n\r\n  mapping (address => userData) idUserData;\r\n\r\n  // onlyOwner fun that add users \r\n  bytes32[] initArr;\r\n  bytes32[] initArrShared;\r\n  function signUpUserOrLogin(string memory _usr) public { // onlyOwner { acc2 can connect, acc3,4 cannot }\r\n    // owner = msg.sender;\r\n    if (!idUserData[msg.sender].userExists) {\r\n      // idUserData[msg.sender].imageHashes = initArr;\r\n      // idUserData[msg.sender].imageNames = initArr;\r\n      // idUserData[msg.sender].fileHashes = initArr;\r\n      // idUserData[msg.sender].fileNames = initArr;\r\n      idUserData[msg.sender].userExists = true;\r\n      idUserData[msg.sender].username = _usr;\r\n      // check why do that******** Sign up problem\r\n      // idUserData[msg.sender].imageHashesSharedWithUser;// = initArrShared;\r\n      // idUserData[msg.sender].imageNamesSharedWithUser; \r\n      // idUserData[msg.sender].fileHashesSharedWithUser;// = initArrShared;\r\n      // idUserData[msg.sender].fileNamesSharedWithUser; \r\n      // idUserData[msg.sender].addressSharedWithUser;\r\n      // idUserData[msg.sender].usernameSharedWithUser;\r\n      // idUserData[msg.sender].fileAddressSharedWithUser;   \r\n      // idUserData[msg.sender].fileUsernameSharedWithUser;  \r\n\r\n      _setupRole(USER_ROLE, msg.sender);\r\n    } // else user already exists\r\n  }\r\n\r\n  // set msg.sender [from who it was shared] \r\n  function shareImage(string memory _usrName, address _address, bytes32 _imageHash, bytes32 _imageName) public {\r\n    require(hasRole(USER_ROLE, msg.sender), \"Caller is not a user\");\r\n\r\n    // prevents duplicate images from being inserted (shared again)\r\n    bool duplicateFound = false;\r\n    for (uint i = 0; i < idUserData[_address].imageHashesSharedWithUser.length; i++) {\r\n      if (idUserData[_address].imageHashesSharedWithUser[i] == _imageHash) {\r\n        duplicateFound = true;\r\n        break;\r\n      }\r\n    }\r\n    if (!duplicateFound) {\r\n      idUserData[_address].imageHashesSharedWithUser.push(_imageHash);\r\n      idUserData[_address].imageNamesSharedWithUser.push(_imageName);\r\n      idUserData[_address].usernameSharedWithUser.push(_usrName);\r\n      idUserData[_address].addressSharedWithUser.push(msg.sender); \r\n    } \r\n    // return duplicateFound;\r\n    //************** */ else alert user that it has already been shared with that user\r\n  }\r\n\r\n  function getSharedImageArr() public view returns (bytes32[] memory, bytes32[] memory, address[] memory, string[] memory) { \r\n    require(hasRole(USER_ROLE, msg.sender), \"Caller is not a user\");\r\n    return (idUserData[msg.sender].imageHashesSharedWithUser, idUserData[msg.sender].imageNamesSharedWithUser,\r\n    idUserData[msg.sender].addressSharedWithUser, idUserData[msg.sender].usernameSharedWithUser); \r\n  }\r\n\r\n\r\n    // set msg.sender [from who it was shared] \r\n  function shareFile(string memory _usrName, address _address, bytes32 _fileHash, bytes32 _fileName) public {\r\n    require(hasRole(USER_ROLE, msg.sender), \"Caller is not a user\");\r\n\r\n    // prevents duplicate files from being inserted (shared again)\r\n    bool duplicateFound = false;\r\n    for (uint i = 0; i < idUserData[_address].fileHashesSharedWithUser.length; i++) {\r\n      if (idUserData[_address].fileHashesSharedWithUser[i] == _fileHash) {\r\n        duplicateFound = true;\r\n        break;\r\n      }\r\n    }\r\n    if (!duplicateFound) {\r\n      idUserData[_address].fileHashesSharedWithUser.push(_fileHash);\r\n      idUserData[_address].fileNamesSharedWithUser.push(_fileName);\r\n      idUserData[_address].fileUsernameSharedWithUser.push(_usrName);\r\n      idUserData[_address].fileAddressSharedWithUser.push(msg.sender); \r\n    } \r\n    // return duplicateFound;\r\n    //************** */ else alert user that it has already been shared with that user\r\n  }\r\n\r\n  function getSharedFileArr() public view returns (bytes32[] memory, bytes32[] memory, address[] memory, string[] memory) { \r\n    require(hasRole(USER_ROLE, msg.sender), \"Caller is not a user\");\r\n    return (idUserData[msg.sender].fileHashesSharedWithUser, idUserData[msg.sender].fileNamesSharedWithUser,\r\n    idUserData[msg.sender].fileAddressSharedWithUser, idUserData[msg.sender].fileUsernameSharedWithUser); \r\n  }\r\n\r\n\r\n\r\n  function set(bytes32 _imageHash, bytes32 _imageName) public { \r\n    require(hasRole(USER_ROLE, msg.sender), \"Caller is not a user\");\r\n    idUserData[msg.sender].imageHashes.push(_imageHash);\r\n    idUserData[msg.sender].imageNames.push(_imageName);\r\n  }\r\n\r\n  function setFile(bytes32 _fileHash, bytes32 _fileName) public { \r\n    require(hasRole(USER_ROLE, msg.sender), \"Caller is not a user\");\r\n    idUserData[msg.sender].fileHashes.push(_fileHash);\r\n    idUserData[msg.sender].fileNames.push(_fileName);\r\n  }\r\n\r\n  function get() public view returns (bytes32[] memory, bytes32[] memory, string memory) {  // CATCH THE EXCEPTION: CALLER IS NOT A USER - HAPPENS WHEN GETS USERNAME \r\n    require(hasRole(USER_ROLE, msg.sender), \"Caller is not a user\");\r\n    return (idUserData[msg.sender].imageHashes, idUserData[msg.sender].imageNames, idUserData[msg.sender].username); \r\n  }\r\n\r\n  function getFile() public view returns (bytes32[] memory, bytes32[] memory, string memory) {  // CATCH THE EXCEPTION: CALLER IS NOT A USER - HAPPENS WHEN GETS USERNAME \r\n    require(hasRole(USER_ROLE, msg.sender), \"Caller is not a user\");\r\n    return (idUserData[msg.sender].fileHashes, idUserData[msg.sender].fileNames, idUserData[msg.sender].username); \r\n  }\r\n\r\n  // delete: reset variable to default value\r\n  // function deleteImage(address userAddress, uint index) public {\r\n  //   delete idUserData[userAddress].imageHashes[index];\r\n  // }\r\n\r\n  // bytes32[] public imageHashes;\r\n  // function set(bytes32 _imageHash) public { // abstract 0.7.0\r\n  //   imageHashes.push(_imageHash);\r\n  // }\r\n\r\n  // function get() public view returns (bytes32[] memory) { //internal dw\r\n  //   return imageHashes;\r\n  // }\r\n}",
  "sourcePath": "/mnt/c/Users/theod/git/y3_project/contracts/Meme.sol",
  "compiler": {
    "name": "solc",
    "version": "0.6.2+commit.bacdbe57.Emscripten.clang"
  },
  "schemaVersion": "3.2.5",
  "updatedAt": "2021-02-23T10:38:35.927Z",
  "networkType": "ethereum",
  "devdoc": {
    "methods": {
      "getRoleAdmin(bytes32)": {
        "details": "Returns the admin role that controls `role`. See {grantRole} and {revokeRole}.     * To change a role's admin, use {_setRoleAdmin}."
      },
      "getRoleMember(bytes32,uint256)": {
        "details": "Returns one of the accounts that have `role`. `index` must be a value between 0 and {getRoleMemberCount}, non-inclusive.     * Role bearers are not sorted in any particular way, and their ordering may change at any point.     * WARNING: When using {getRoleMember} and {getRoleMemberCount}, make sure you perform all queries on the same block. See the following https://forum.openzeppelin.com/t/iterating-over-elements-on-enumerableset-in-openzeppelin-contracts/2296[forum post] for more information."
      },
      "getRoleMemberCount(bytes32)": {
        "details": "Returns the number of accounts that have `role`. Can be used together with {getRoleMember} to enumerate all bearers of a role."
      },
      "grantRole(bytes32,address)": {
        "details": "Grants `role` to `account`.     * If `account` had not been already granted `role`, emits a {RoleGranted} event.     * Requirements:     * - the caller must have ``role``'s admin role."
      },
      "hasRole(bytes32,address)": {
        "details": "Returns `true` if `account` has been granted `role`."
      },
      "owner()": {
        "details": "Returns the address of the current owner."
      },
      "renounceOwnership()": {
        "details": "Leaves the contract without owner. It will not be possible to call `onlyOwner` functions anymore. Can only be called by the current owner.     * NOTE: Renouncing ownership will leave the contract without an owner, thereby removing any functionality that is only available to the owner."
      },
      "renounceRole(bytes32,address)": {
        "details": "Revokes `role` from the calling account.     * Roles are often managed via {grantRole} and {revokeRole}: this function's purpose is to provide a mechanism for accounts to lose their privileges if they are compromised (such as when a trusted device is misplaced).     * If the calling account had been granted `role`, emits a {RoleRevoked} event.     * Requirements:     * - the caller must be `account`."
      },
      "revokeRole(bytes32,address)": {
        "details": "Revokes `role` from `account`.     * If `account` had been granted `role`, emits a {RoleRevoked} event.     * Requirements:     * - the caller must have ``role``'s admin role."
      },
      "transferOwnership(address)": {
        "details": "Transfers ownership of the contract to a new account (`newOwner`). Can only be called by the current owner."
      }
    }
  },
  "userdoc": {
    "methods": {}
  }
}