{
  "contractName": "Meme",
  "abi": [
    {
      "anonymous": false,
      "inputs": [
        {
          "indexed": true,
          "internalType": "address",
          "name": "previousOwner",
          "type": "address"
        },
        {
          "indexed": true,
          "internalType": "address",
          "name": "newOwner",
          "type": "address"
        }
      ],
      "name": "OwnershipTransferred",
      "type": "event"
    },
    {
      "anonymous": false,
      "inputs": [
        {
          "indexed": true,
          "internalType": "bytes32",
          "name": "role",
          "type": "bytes32"
        },
        {
          "indexed": true,
          "internalType": "bytes32",
          "name": "previousAdminRole",
          "type": "bytes32"
        },
        {
          "indexed": true,
          "internalType": "bytes32",
          "name": "newAdminRole",
          "type": "bytes32"
        }
      ],
      "name": "RoleAdminChanged",
      "type": "event"
    },
    {
      "anonymous": false,
      "inputs": [
        {
          "indexed": true,
          "internalType": "bytes32",
          "name": "role",
          "type": "bytes32"
        },
        {
          "indexed": true,
          "internalType": "address",
          "name": "account",
          "type": "address"
        },
        {
          "indexed": true,
          "internalType": "address",
          "name": "sender",
          "type": "address"
        }
      ],
      "name": "RoleGranted",
      "type": "event"
    },
    {
      "anonymous": false,
      "inputs": [
        {
          "indexed": true,
          "internalType": "bytes32",
          "name": "role",
          "type": "bytes32"
        },
        {
          "indexed": true,
          "internalType": "address",
          "name": "account",
          "type": "address"
        },
        {
          "indexed": true,
          "internalType": "address",
          "name": "sender",
          "type": "address"
        }
      ],
      "name": "RoleRevoked",
      "type": "event"
    },
    {
      "inputs": [],
      "name": "DEFAULT_ADMIN_ROLE",
      "outputs": [
        {
          "internalType": "bytes32",
          "name": "",
          "type": "bytes32"
        }
      ],
      "stateMutability": "view",
      "type": "function",
      "constant": true
    },
    {
      "inputs": [],
      "name": "USER_ROLE",
      "outputs": [
        {
          "internalType": "bytes32",
          "name": "",
          "type": "bytes32"
        }
      ],
      "stateMutability": "view",
      "type": "function",
      "constant": true
    },
    {
      "inputs": [
        {
          "internalType": "bytes32",
          "name": "role",
          "type": "bytes32"
        }
      ],
      "name": "getRoleAdmin",
      "outputs": [
        {
          "internalType": "bytes32",
          "name": "",
          "type": "bytes32"
        }
      ],
      "stateMutability": "view",
      "type": "function",
      "constant": true
    },
    {
      "inputs": [
        {
          "internalType": "bytes32",
          "name": "role",
          "type": "bytes32"
        },
        {
          "internalType": "uint256",
          "name": "index",
          "type": "uint256"
        }
      ],
      "name": "getRoleMember",
      "outputs": [
        {
          "internalType": "address",
          "name": "",
          "type": "address"
        }
      ],
      "stateMutability": "view",
      "type": "function",
      "constant": true
    },
    {
      "inputs": [
        {
          "internalType": "bytes32",
          "name": "role",
          "type": "bytes32"
        }
      ],
      "name": "getRoleMemberCount",
      "outputs": [
        {
          "internalType": "uint256",
          "name": "",
          "type": "uint256"
        }
      ],
      "stateMutability": "view",
      "type": "function",
      "constant": true
    },
    {
      "inputs": [
        {
          "internalType": "bytes32",
          "name": "role",
          "type": "bytes32"
        },
        {
          "internalType": "address",
          "name": "account",
          "type": "address"
        }
      ],
      "name": "grantRole",
      "outputs": [],
      "stateMutability": "nonpayable",
      "type": "function"
    },
    {
      "inputs": [
        {
          "internalType": "bytes32",
          "name": "role",
          "type": "bytes32"
        },
        {
          "internalType": "address",
          "name": "account",
          "type": "address"
        }
      ],
      "name": "hasRole",
      "outputs": [
        {
          "internalType": "bool",
          "name": "",
          "type": "bool"
        }
      ],
      "stateMutability": "view",
      "type": "function",
      "constant": true
    },
    {
      "inputs": [],
      "name": "owner",
      "outputs": [
        {
          "internalType": "address",
          "name": "",
          "type": "address"
        }
      ],
      "stateMutability": "view",
      "type": "function",
      "constant": true
    },
    {
      "inputs": [],
      "name": "renounceOwnership",
      "outputs": [],
      "stateMutability": "nonpayable",
      "type": "function"
    },
    {
      "inputs": [
        {
          "internalType": "bytes32",
          "name": "role",
          "type": "bytes32"
        },
        {
          "internalType": "address",
          "name": "account",
          "type": "address"
        }
      ],
      "name": "renounceRole",
      "outputs": [],
      "stateMutability": "nonpayable",
      "type": "function"
    },
    {
      "inputs": [
        {
          "internalType": "bytes32",
          "name": "role",
          "type": "bytes32"
        },
        {
          "internalType": "address",
          "name": "account",
          "type": "address"
        }
      ],
      "name": "revokeRole",
      "outputs": [],
      "stateMutability": "nonpayable",
      "type": "function"
    },
    {
      "inputs": [
        {
          "internalType": "address",
          "name": "newOwner",
          "type": "address"
        }
      ],
      "name": "transferOwnership",
      "outputs": [],
      "stateMutability": "nonpayable",
      "type": "function"
    },
    {
      "inputs": [
        {
          "internalType": "string",
          "name": "_usr",
          "type": "string"
        }
      ],
      "name": "signUpUserOrLogin",
      "outputs": [],
      "stateMutability": "nonpayable",
      "type": "function"
    },
    {
      "inputs": [
        {
          "internalType": "string",
          "name": "_usrName",
          "type": "string"
        },
        {
          "internalType": "address",
          "name": "_address",
          "type": "address"
        },
        {
          "internalType": "bytes32",
          "name": "_imageHash",
          "type": "bytes32"
        },
        {
          "internalType": "bytes32",
          "name": "_imageName",
          "type": "bytes32"
        }
      ],
      "name": "shareImage",
      "outputs": [],
      "stateMutability": "nonpayable",
      "type": "function"
    },
    {
      "inputs": [],
      "name": "getSharedImageArr",
      "outputs": [
        {
          "internalType": "bytes32[]",
          "name": "",
          "type": "bytes32[]"
        },
        {
          "internalType": "bytes32[]",
          "name": "",
          "type": "bytes32[]"
        },
        {
          "internalType": "address[]",
          "name": "",
          "type": "address[]"
        },
        {
          "internalType": "string[]",
          "name": "",
          "type": "string[]"
        }
      ],
      "stateMutability": "view",
      "type": "function",
      "constant": true
    },
    {
      "inputs": [
        {
          "internalType": "string",
          "name": "_usrName",
          "type": "string"
        },
        {
          "internalType": "address",
          "name": "_address",
          "type": "address"
        },
        {
          "internalType": "bytes32",
          "name": "_fileHash",
          "type": "bytes32"
        },
        {
          "internalType": "bytes32",
          "name": "_fileName",
          "type": "bytes32"
        }
      ],
      "name": "shareFile",
      "outputs": [],
      "stateMutability": "nonpayable",
      "type": "function"
    },
    {
      "inputs": [],
      "name": "getSharedFileArr",
      "outputs": [
        {
          "internalType": "bytes32[]",
          "name": "",
          "type": "bytes32[]"
        },
        {
          "internalType": "bytes32[]",
          "name": "",
          "type": "bytes32[]"
        },
        {
          "internalType": "address[]",
          "name": "",
          "type": "address[]"
        },
        {
          "internalType": "string[]",
          "name": "",
          "type": "string[]"
        }
      ],
      "stateMutability": "view",
      "type": "function",
      "constant": true
    },
    {
      "inputs": [
        {
          "internalType": "bytes32",
          "name": "_imageHash",
          "type": "bytes32"
        },
        {
          "internalType": "bytes32",
          "name": "_imageName",
          "type": "bytes32"
        }
      ],
      "name": "set",
      "outputs": [],
      "stateMutability": "nonpayable",
      "type": "function"
    },
    {
      "inputs": [
        {
          "internalType": "bytes32",
          "name": "_fileHash",
          "type": "bytes32"
        },
        {
          "internalType": "bytes32",
          "name": "_fileName",
          "type": "bytes32"
        }
      ],
      "name": "setFile",
      "outputs": [],
      "stateMutability": "nonpayable",
      "type": "function"
    },
    {
      "inputs": [],
      "name": "get",
      "outputs": [
        {
          "internalType": "bytes32[]",
          "name": "",
          "type": "bytes32[]"
        },
        {
          "internalType": "bytes32[]",
          "name": "",
          "type": "bytes32[]"
        },
        {
          "internalType": "string",
          "name": "",
          "type": "string"
        }
      ],
      "stateMutability": "view",
      "type": "function",
      "constant": true
    },
    {
      "inputs": [],
      "name": "getFile",
      "outputs": [
        {
          "internalType": "bytes32[]",
          "name": "",
          "type": "bytes32[]"
        },
        {
          "internalType": "bytes32[]",
          "name": "",
          "type": "bytes32[]"
        },
        {
          "internalType": "string",
          "name": "",
          "type": "string"
        }
      ],
      "stateMutability": "view",
      "type": "function",
      "constant": true
    }
  ],
  "bytecode": "0x608060405260006100146100b760201b60201c565b9050806000806101000a81548173ffffffffffffffffffffffffffffffffffffffff021916908373ffffffffffffffffffffffffffffffffffffffff1602179055508073ffffffffffffffffffffffffffffffffffffffff16600073ffffffffffffffffffffffffffffffffffffffff167f8be0079c531659141344cd1fd0a4f28419497f9722a3daafe3b4186f6b6457e060405160405180910390a3506100bf565b600033905090565b61334880620000cf6000396000f3fe608060405234801561001057600080fd5b50600436106101375760003560e01c806384acf963116100b8578063a217fddf1161007c578063a217fddf14610320578063ca15c8731461033e578063cc213e2a1461036e578063d547741f1461038a578063f2fde38b146103a6578063f71f7a25146103c257610137565b806384acf963146102655780638da5cb5b146102865780639010d07c146102a457806391d14854146102d4578063a1fed6e81461030457610137565b80632f2ff15d116100ff5780632f2ff15d146101e35780632fa81692146101ff57806336568abe1461021f5780636d4ce63c1461023b578063715018a61461025b57610137565b80630d1475fb1461013c578063131191611461015857806313d92158146101765780631e8f091114610197578063248a9ca3146101b3575b600080fd5b61015660048036036101519190810190612959565b6103de565b005b610160610706565b60405161016d9190612fcb565b60405180910390f35b61017e61071d565b60405161018e9493929190612f03565b60405180910390f35b6101b160048036036101ac9190810190612918565b610aa4565b005b6101cd60048036036101c8919081019061283b565b610f17565b6040516101da9190612fcb565b60405180910390f35b6101fd60048036036101f89190810190612864565b610f37565b005b610207610fab565b60405161021693929190612f64565b60405180910390f35b61023960048036036102349190810190612864565b61121d565b005b6102436112a0565b60405161025293929190612f64565b60405180910390f35b610263611512565b005b61026d611667565b60405161027d9493929190612f03565b60405180910390f35b61028e6119ee565b60405161029b9190612ee8565b60405180910390f35b6102be60048036036102b991908101906128dc565b611a17565b6040516102cb9190612ee8565b60405180910390f35b6102ee60048036036102e99190810190612864565b611a49565b6040516102fb9190612fb0565b60405180910390f35b61031e600480360361031991908101906128a0565b611a7b565b005b610328611bad565b6040516103359190612fcb565b60405180910390f35b6103586004803603610353919081019061283b565b611bb4565b60405161036591906130c6565b60405180910390f35b61038860048036036103839190810190612959565b611bdb565b005b6103a4600480360361039f9190810190612864565b611f03565b005b6103c060048036036103bb9190810190612812565b611f77565b005b6103dc60048036036103d791908101906128a0565b61213b565b005b6103fb6040516103ed90612ed3565b604051809103902033611a49565b61043a576040517f08c379a000000000000000000000000000000000000000000000000000000000815260040161043190613086565b60405180910390fd5b600080905060008090505b600260008673ffffffffffffffffffffffffffffffffffffffff1673ffffffffffffffffffffffffffffffffffffffff168152602001908152602001600020600401805490508110156105075783600260008773ffffffffffffffffffffffffffffffffffffffff1673ffffffffffffffffffffffffffffffffffffffff16815260200190815260200160002060040182815481106104e057fe5b906000526020600020015414156104fa5760019150610507565b8080600101915050610445565b50806106ff57600260008573ffffffffffffffffffffffffffffffffffffffff1673ffffffffffffffffffffffffffffffffffffffff168152602001908152602001600020600401839080600181540180825580915050600190039060005260206000200160009091909190915055600260008573ffffffffffffffffffffffffffffffffffffffff1673ffffffffffffffffffffffffffffffffffffffff168152602001908152602001600020600501829080600181540180825580915050600190039060005260206000200160009091909190915055600260008573ffffffffffffffffffffffffffffffffffffffff1673ffffffffffffffffffffffffffffffffffffffff168152602001908152602001600020600c018590806001815401808255809150506001900390600052602060002001600090919091909150908051906020019061065a929190612663565b50600260008573ffffffffffffffffffffffffffffffffffffffff1673ffffffffffffffffffffffffffffffffffffffff168152602001908152602001600020600a01339080600181540180825580915050600190039060005260206000200160009091909190916101000a81548173ffffffffffffffffffffffffffffffffffffffff021916908373ffffffffffffffffffffffffffffffffffffffff1602179055505b5050505050565b60405161071290612ed3565b604051809103902081565b60608060608061074060405161073290612ed3565b604051809103902033611a49565b61077f576040517f08c379a000000000000000000000000000000000000000000000000000000000815260040161077690613086565b60405180910390fd5b600260003373ffffffffffffffffffffffffffffffffffffffff1673ffffffffffffffffffffffffffffffffffffffff168152602001908152602001600020600801600260003373ffffffffffffffffffffffffffffffffffffffff1673ffffffffffffffffffffffffffffffffffffffff168152602001908152602001600020600901600260003373ffffffffffffffffffffffffffffffffffffffff1673ffffffffffffffffffffffffffffffffffffffff168152602001908152602001600020600b01600260003373ffffffffffffffffffffffffffffffffffffffff1673ffffffffffffffffffffffffffffffffffffffff168152602001908152602001600020600d01838054806020026020016040519081016040528092919081815260200182805480156108d257602002820191906000526020600020905b8154815260200190600101908083116108be575b505050505093508280548060200260200160405190810160405280929190818152602001828054801561092457602002820191906000526020600020905b815481526020019060010190808311610910575b50505050509250818054806020026020016040519081016040528092919081815260200182805480156109ac57602002820191906000526020600020905b8160009054906101000a900473ffffffffffffffffffffffffffffffffffffffff1673ffffffffffffffffffffffffffffffffffffffff1681526020019060010190808311610962575b5050505050915080805480602002602001604051908101604052809291908181526020016000905b82821015610a90578382906000526020600020018054600181600116156101000203166002900480601f016020809104026020016040519081016040528092919081815260200182805460018160011615610100020316600290048015610a7c5780601f10610a5157610100808354040283529160200191610a7c565b820191906000526020600020905b815481529060010190602001808311610a5f57829003601f168201915b5050505050815260200190600101906109d4565b505050509050935093509350935090919293565b600260003373ffffffffffffffffffffffffffffffffffffffff1673ffffffffffffffffffffffffffffffffffffffff16815260200190815260200160002060000160009054906101000a900460ff16610f14576003600260003373ffffffffffffffffffffffffffffffffffffffff1673ffffffffffffffffffffffffffffffffffffffff168152602001908152602001600020600201908054610b4a9291906126e3565b506003600260003373ffffffffffffffffffffffffffffffffffffffff1673ffffffffffffffffffffffffffffffffffffffff168152602001908152602001600020600301908054610b9d9291906126e3565b506003600260003373ffffffffffffffffffffffffffffffffffffffff1673ffffffffffffffffffffffffffffffffffffffff168152602001908152602001600020600601908054610bf09291906126e3565b506003600260003373ffffffffffffffffffffffffffffffffffffffff1673ffffffffffffffffffffffffffffffffffffffff168152602001908152602001600020600701908054610c439291906126e3565b506001600260003373ffffffffffffffffffffffffffffffffffffffff1673ffffffffffffffffffffffffffffffffffffffff16815260200190815260200160002060000160006101000a81548160ff02191690831515021790555080600260003373ffffffffffffffffffffffffffffffffffffffff1673ffffffffffffffffffffffffffffffffffffffff1681526020019081526020016000206001019080519060200190610cf5929190612663565b50600260003373ffffffffffffffffffffffffffffffffffffffff1673ffffffffffffffffffffffffffffffffffffffff16815260200190815260200160002050600260003373ffffffffffffffffffffffffffffffffffffffff1673ffffffffffffffffffffffffffffffffffffffff16815260200190815260200160002050600260003373ffffffffffffffffffffffffffffffffffffffff1673ffffffffffffffffffffffffffffffffffffffff16815260200190815260200160002050600260003373ffffffffffffffffffffffffffffffffffffffff1673ffffffffffffffffffffffffffffffffffffffff16815260200190815260200160002050600260003373ffffffffffffffffffffffffffffffffffffffff1673ffffffffffffffffffffffffffffffffffffffff16815260200190815260200160002050600260003373ffffffffffffffffffffffffffffffffffffffff1673ffffffffffffffffffffffffffffffffffffffff16815260200190815260200160002050600260003373ffffffffffffffffffffffffffffffffffffffff1673ffffffffffffffffffffffffffffffffffffffff16815260200190815260200160002050600260003373ffffffffffffffffffffffffffffffffffffffff1673ffffffffffffffffffffffffffffffffffffffff16815260200190815260200160002050610f13604051610f0590612ed3565b60405180910390203361226d565b5b50565b600060016000838152602001908152602001600020600201549050919050565b610f5e6001600084815260200190815260200160002060020154610f5961227b565b611a49565b610f9d576040517f08c379a0000000000000000000000000000000000000000000000000000000008152600401610f9490613006565b60405180910390fd5b610fa78282612283565b5050565b6060806060610fcd604051610fbf90612ed3565b604051809103902033611a49565b61100c576040517f08c379a000000000000000000000000000000000000000000000000000000000815260040161100390613086565b60405180910390fd5b600260003373ffffffffffffffffffffffffffffffffffffffff1673ffffffffffffffffffffffffffffffffffffffff168152602001908152602001600020600601600260003373ffffffffffffffffffffffffffffffffffffffff1673ffffffffffffffffffffffffffffffffffffffff168152602001908152602001600020600701600260003373ffffffffffffffffffffffffffffffffffffffff1673ffffffffffffffffffffffffffffffffffffffff1681526020019081526020016000206001018280548060200260200160405190810160405280929190818152602001828054801561111d57602002820191906000526020600020905b815481526020019060010190808311611109575b505050505092508180548060200260200160405190810160405280929190818152602001828054801561116f57602002820191906000526020600020905b81548152602001906001019080831161115b575b50505050509150808054600181600116156101000203166002900480601f01602080910402602001604051908101604052809291908181526020018280546001816001161561010002031660029004801561120b5780601f106111e05761010080835404028352916020019161120b565b820191906000526020600020905b8154815290600101906020018083116111ee57829003601f168201915b50505050509050925092509250909192565b61122561227b565b73ffffffffffffffffffffffffffffffffffffffff168173ffffffffffffffffffffffffffffffffffffffff1614611292576040517f08c379a0000000000000000000000000000000000000000000000000000000008152600401611289906130a6565b60405180910390fd5b61129c8282612317565b5050565b60608060606112c26040516112b490612ed3565b604051809103902033611a49565b611301576040517f08c379a00000000000000000000000000000000000000000000000000000000081526004016112f890613086565b60405180910390fd5b600260003373ffffffffffffffffffffffffffffffffffffffff1673ffffffffffffffffffffffffffffffffffffffff168152602001908152602001600020600201600260003373ffffffffffffffffffffffffffffffffffffffff1673ffffffffffffffffffffffffffffffffffffffff168152602001908152602001600020600301600260003373ffffffffffffffffffffffffffffffffffffffff1673ffffffffffffffffffffffffffffffffffffffff1681526020019081526020016000206001018280548060200260200160405190810160405280929190818152602001828054801561141257602002820191906000526020600020905b8154815260200190600101908083116113fe575b505050505092508180548060200260200160405190810160405280929190818152602001828054801561146457602002820191906000526020600020905b815481526020019060010190808311611450575b50505050509150808054600181600116156101000203166002900480601f0160208091040260200160405190810160405280929190818152602001828054600181600116156101000203166002900480156115005780601f106114d557610100808354040283529160200191611500565b820191906000526020600020905b8154815290600101906020018083116114e357829003601f168201915b50505050509050925092509250909192565b61151a61227b565b73ffffffffffffffffffffffffffffffffffffffff166000809054906101000a900473ffffffffffffffffffffffffffffffffffffffff1673ffffffffffffffffffffffffffffffffffffffff16146115a8576040517f08c379a000000000000000000000000000000000000000000000000000000000815260040161159f90613066565b60405180910390fd5b600073ffffffffffffffffffffffffffffffffffffffff166000809054906101000a900473ffffffffffffffffffffffffffffffffffffffff1673ffffffffffffffffffffffffffffffffffffffff167f8be0079c531659141344cd1fd0a4f28419497f9722a3daafe3b4186f6b6457e060405160405180910390a360008060006101000a81548173ffffffffffffffffffffffffffffffffffffffff021916908373ffffffffffffffffffffffffffffffffffffffff160217905550565b60608060608061168a60405161167c90612ed3565b604051809103902033611a49565b6116c9576040517f08c379a00000000000000000000000000000000000000000000000000000000081526004016116c090613086565b60405180910390fd5b600260003373ffffffffffffffffffffffffffffffffffffffff1673ffffffffffffffffffffffffffffffffffffffff168152602001908152602001600020600401600260003373ffffffffffffffffffffffffffffffffffffffff1673ffffffffffffffffffffffffffffffffffffffff168152602001908152602001600020600501600260003373ffffffffffffffffffffffffffffffffffffffff1673ffffffffffffffffffffffffffffffffffffffff168152602001908152602001600020600a01600260003373ffffffffffffffffffffffffffffffffffffffff1673ffffffffffffffffffffffffffffffffffffffff168152602001908152602001600020600c018380548060200260200160405190810160405280929190818152602001828054801561181c57602002820191906000526020600020905b815481526020019060010190808311611808575b505050505093508280548060200260200160405190810160405280929190818152602001828054801561186e57602002820191906000526020600020905b81548152602001906001019080831161185a575b50505050509250818054806020026020016040519081016040528092919081815260200182805480156118f657602002820191906000526020600020905b8160009054906101000a900473ffffffffffffffffffffffffffffffffffffffff1673ffffffffffffffffffffffffffffffffffffffff16815260200190600101908083116118ac575b5050505050915080805480602002602001604051908101604052809291908181526020016000905b828210156119da578382906000526020600020018054600181600116156101000203166002900480601f0160208091040260200160405190810160405280929190818152602001828054600181600116156101000203166002900480156119c65780601f1061199b576101008083540402835291602001916119c6565b820191906000526020600020905b8154815290600101906020018083116119a957829003601f168201915b50505050508152602001906001019061191e565b505050509050935093509350935090919293565b60008060009054906101000a900473ffffffffffffffffffffffffffffffffffffffff16905090565b6000611a4182600160008681526020019081526020016000206000016123ab90919063ffffffff16565b905092915050565b6000611a7382600160008681526020019081526020016000206000016123c590919063ffffffff16565b905092915050565b611a98604051611a8a90612ed3565b604051809103902033611a49565b611ad7576040517f08c379a0000000000000000000000000000000000000000000000000000000008152600401611ace90613086565b60405180910390fd5b600260003373ffffffffffffffffffffffffffffffffffffffff1673ffffffffffffffffffffffffffffffffffffffff168152602001908152602001600020600601829080600181540180825580915050600190039060005260206000200160009091909190915055600260003373ffffffffffffffffffffffffffffffffffffffff1673ffffffffffffffffffffffffffffffffffffffff1681526020019081526020016000206007018190806001815401808255809150506001900390600052602060002001600090919091909150555050565b6000801b81565b6000611bd4600160008481526020019081526020016000206000016123f5565b9050919050565b611bf8604051611bea90612ed3565b604051809103902033611a49565b611c37576040517f08c379a0000000000000000000000000000000000000000000000000000000008152600401611c2e90613086565b60405180910390fd5b600080905060008090505b600260008673ffffffffffffffffffffffffffffffffffffffff1673ffffffffffffffffffffffffffffffffffffffff16815260200190815260200160002060080180549050811015611d045783600260008773ffffffffffffffffffffffffffffffffffffffff1673ffffffffffffffffffffffffffffffffffffffff1681526020019081526020016000206008018281548110611cdd57fe5b90600052602060002001541415611cf75760019150611d04565b8080600101915050611c42565b5080611efc57600260008573ffffffffffffffffffffffffffffffffffffffff1673ffffffffffffffffffffffffffffffffffffffff168152602001908152602001600020600801839080600181540180825580915050600190039060005260206000200160009091909190915055600260008573ffffffffffffffffffffffffffffffffffffffff1673ffffffffffffffffffffffffffffffffffffffff168152602001908152602001600020600901829080600181540180825580915050600190039060005260206000200160009091909190915055600260008573ffffffffffffffffffffffffffffffffffffffff1673ffffffffffffffffffffffffffffffffffffffff168152602001908152602001600020600d0185908060018154018082558091505060019003906000526020600020016000909190919091509080519060200190611e57929190612663565b50600260008573ffffffffffffffffffffffffffffffffffffffff1673ffffffffffffffffffffffffffffffffffffffff168152602001908152602001600020600b01339080600181540180825580915050600190039060005260206000200160009091909190916101000a81548173ffffffffffffffffffffffffffffffffffffffff021916908373ffffffffffffffffffffffffffffffffffffffff1602179055505b5050505050565b611f2a6001600084815260200190815260200160002060020154611f2561227b565b611a49565b611f69576040517f08c379a0000000000000000000000000000000000000000000000000000000008152600401611f6090613046565b60405180910390fd5b611f738282612317565b5050565b611f7f61227b565b73ffffffffffffffffffffffffffffffffffffffff166000809054906101000a900473ffffffffffffffffffffffffffffffffffffffff1673ffffffffffffffffffffffffffffffffffffffff161461200d576040517f08c379a000000000000000000000000000000000000000000000000000000000815260040161200490613066565b60405180910390fd5b600073ffffffffffffffffffffffffffffffffffffffff168173ffffffffffffffffffffffffffffffffffffffff16141561207d576040517f08c379a000000000000000000000000000000000000000000000000000000000815260040161207490613026565b60405180910390fd5b8073ffffffffffffffffffffffffffffffffffffffff166000809054906101000a900473ffffffffffffffffffffffffffffffffffffffff1673ffffffffffffffffffffffffffffffffffffffff167f8be0079c531659141344cd1fd0a4f28419497f9722a3daafe3b4186f6b6457e060405160405180910390a3806000806101000a81548173ffffffffffffffffffffffffffffffffffffffff021916908373ffffffffffffffffffffffffffffffffffffffff16021790555050565b61215860405161214a90612ed3565b604051809103902033611a49565b612197576040517f08c379a000000000000000000000000000000000000000000000000000000000815260040161218e90613086565b60405180910390fd5b600260003373ffffffffffffffffffffffffffffffffffffffff1673ffffffffffffffffffffffffffffffffffffffff168152602001908152602001600020600201829080600181540180825580915050600190039060005260206000200160009091909190915055600260003373ffffffffffffffffffffffffffffffffffffffff1673ffffffffffffffffffffffffffffffffffffffff1681526020019081526020016000206003018190806001815401808255809150506001900390600052602060002001600090919091909150555050565b6122778282612283565b5050565b600033905090565b6122ab816001600085815260200190815260200160002060000161240a90919063ffffffff16565b15612313576122b861227b565b73ffffffffffffffffffffffffffffffffffffffff168173ffffffffffffffffffffffffffffffffffffffff16837f2f8788117e7eff1d82e926ec794901d17c78024a50270940304540a733656f0d60405160405180910390a45b5050565b61233f816001600085815260200190815260200160002060000161243a90919063ffffffff16565b156123a75761234c61227b565b73ffffffffffffffffffffffffffffffffffffffff168173ffffffffffffffffffffffffffffffffffffffff16837ff6391f5c32d9c69d2a47ea670b442974b53935d1edc7fd64eb21e047a839171b60405160405180910390a45b5050565b60006123ba836000018361246a565b60001c905092915050565b60006123ed836000018373ffffffffffffffffffffffffffffffffffffffff1660001b6124d7565b905092915050565b6000612403826000016124fa565b9050919050565b6000612432836000018373ffffffffffffffffffffffffffffffffffffffff1660001b61250b565b905092915050565b6000612462836000018373ffffffffffffffffffffffffffffffffffffffff1660001b61257b565b905092915050565b6000818360000180549050116124b5576040517f08c379a00000000000000000000000000000000000000000000000000000000081526004016124ac90612fe6565b60405180910390fd5b8260000182815481106124c457fe5b9060005260206000200154905092915050565b600080836001016000848152602001908152602001600020541415905092915050565b600081600001805490509050919050565b600061251783836124d7565b612570578260000182908060018154018082558091505060019003906000526020600020016000909190919091505582600001805490508360010160008481526020019081526020016000208190555060019050612575565b600090505b92915050565b6000808360010160008481526020019081526020016000205490506000811461265757600060018203905060006001866000018054905003905060008660000182815481106125c657fe5b90600052602060002001549050808760000184815481106125e357fe5b906000526020600020018190555060018301876001016000838152602001908152602001600020819055508660000180548061261b57fe5b6001900381819060005260206000200160009055905586600101600087815260200190815260200160002060009055600194505050505061265d565b60009150505b92915050565b828054600181600116156101000203166002900490600052602060002090601f016020900481019282601f106126a457805160ff19168380011785556126d2565b828001600101855582156126d2579182015b828111156126d15782518255916020019190600101906126b6565b5b5090506126df9190612735565b5090565b8280548282559060005260206000209081019282156127245760005260206000209182015b82811115612723578254825591600101919060010190612708565b5b509050612731919061275a565b5090565b61275791905b8082111561275357600081600090555060010161273b565b5090565b90565b61277c91905b80821115612778576000816000905550600101612760565b5090565b90565b60008135905061278e816132cd565b92915050565b6000813590506127a3816132e4565b92915050565b600082601f8301126127ba57600080fd5b81356127cd6127c88261310e565b6130e1565b915080825260208301602083018583830111156127e957600080fd5b6127f483828461327a565b50505092915050565b60008135905061280c816132fb565b92915050565b60006020828403121561282457600080fd5b60006128328482850161277f565b91505092915050565b60006020828403121561284d57600080fd5b600061285b84828501612794565b91505092915050565b6000806040838503121561287757600080fd5b600061288585828601612794565b92505060206128968582860161277f565b9150509250929050565b600080604083850312156128b357600080fd5b60006128c185828601612794565b92505060206128d285828601612794565b9150509250929050565b600080604083850312156128ef57600080fd5b60006128fd85828601612794565b925050602061290e858286016127fd565b9150509250929050565b60006020828403121561292a57600080fd5b600082013567ffffffffffffffff81111561294457600080fd5b612950848285016127a9565b91505092915050565b6000806000806080858703121561296f57600080fd5b600085013567ffffffffffffffff81111561298957600080fd5b612995878288016127a9565b94505060206129a68782880161277f565b93505060406129b787828801612794565b92505060606129c887828801612794565b91505092959194509250565b60006129e08383612a18565b60208301905092915050565b60006129f88383612b76565b60208301905092915050565b6000612a108383612bcd565b905092915050565b612a2181613228565b82525050565b612a3081613228565b82525050565b6000612a418261316a565b612a4b81856131c8565b9350612a568361313a565b8060005b83811015612a87578151612a6e88826129d4565b9750612a79836131a1565b925050600181019050612a5a565b5085935050505092915050565b6000612a9f82613175565b612aa981856131d9565b9350612ab48361314a565b8060005b83811015612ae5578151612acc88826129ec565b9750612ad7836131ae565b925050600181019050612ab8565b5085935050505092915050565b6000612afd82613180565b612b0781856131ea565b935083602082028501612b198561315a565b8060005b85811015612b555784840389528151612b368582612a04565b9450612b41836131bb565b925060208a01995050600181019050612b1d565b50829750879550505050505092915050565b612b708161323a565b82525050565b612b7f81613246565b82525050565b612b8e81613246565b82525050565b6000612b9f82613196565b612ba9818561320c565b9350612bb9818560208601613289565b612bc2816132bc565b840191505092915050565b6000612bd88261318b565b612be281856131fb565b9350612bf2818560208601613289565b612bfb816132bc565b840191505092915050565b6000612c1360228361320c565b91507f456e756d657261626c655365743a20696e646578206f7574206f6620626f756e60008301527f64730000000000000000000000000000000000000000000000000000000000006020830152604082019050919050565b6000612c79602f8361320c565b91507f416363657373436f6e74726f6c3a2073656e646572206d75737420626520616e60008301527f2061646d696e20746f206772616e7400000000000000000000000000000000006020830152604082019050919050565b6000612cdf60098361321d565b91507f555345525f524f4c4500000000000000000000000000000000000000000000006000830152600982019050919050565b6000612d1f60268361320c565b91507f4f776e61626c653a206e6577206f776e657220697320746865207a65726f206160008301527f64647265737300000000000000000000000000000000000000000000000000006020830152604082019050919050565b6000612d8560308361320c565b91507f416363657373436f6e74726f6c3a2073656e646572206d75737420626520616e60008301527f2061646d696e20746f207265766f6b65000000000000000000000000000000006020830152604082019050919050565b6000612deb60208361320c565b91507f4f776e61626c653a2063616c6c6572206973206e6f7420746865206f776e65726000830152602082019050919050565b6000612e2b60148361320c565b91507f43616c6c6572206973206e6f74206120757365720000000000000000000000006000830152602082019050919050565b6000612e6b602f8361320c565b91507f416363657373436f6e74726f6c3a2063616e206f6e6c792072656e6f756e636560008301527f20726f6c657320666f722073656c6600000000000000000000000000000000006020830152604082019050919050565b612ecd81613270565b82525050565b6000612ede82612cd2565b9150819050919050565b6000602082019050612efd6000830184612a27565b92915050565b60006080820190508181036000830152612f1d8187612a94565b90508181036020830152612f318186612a94565b90508181036040830152612f458185612a36565b90508181036060830152612f598184612af2565b905095945050505050565b60006060820190508181036000830152612f7e8186612a94565b90508181036020830152612f928185612a94565b90508181036040830152612fa68184612b94565b9050949350505050565b6000602082019050612fc56000830184612b67565b92915050565b6000602082019050612fe06000830184612b85565b92915050565b60006020820190508181036000830152612fff81612c06565b9050919050565b6000602082019050818103600083015261301f81612c6c565b9050919050565b6000602082019050818103600083015261303f81612d12565b9050919050565b6000602082019050818103600083015261305f81612d78565b9050919050565b6000602082019050818103600083015261307f81612dde565b9050919050565b6000602082019050818103600083015261309f81612e1e565b9050919050565b600060208201905081810360008301526130bf81612e5e565b9050919050565b60006020820190506130db6000830184612ec4565b92915050565b6000604051905081810181811067ffffffffffffffff8211171561310457600080fd5b8060405250919050565b600067ffffffffffffffff82111561312557600080fd5b601f19601f8301169050602081019050919050565b6000819050602082019050919050565b6000819050602082019050919050565b6000819050602082019050919050565b600081519050919050565b600081519050919050565b600081519050919050565b600081519050919050565b600081519050919050565b6000602082019050919050565b6000602082019050919050565b6000602082019050919050565b600082825260208201905092915050565b600082825260208201905092915050565b600082825260208201905092915050565b600082825260208201905092915050565b600082825260208201905092915050565b600081905092915050565b600061323382613250565b9050919050565b60008115159050919050565b6000819050919050565b600073ffffffffffffffffffffffffffffffffffffffff82169050919050565b6000819050919050565b82818337600083830152505050565b60005b838110156132a757808201518184015260208101905061328c565b838111156132b6576000848401525b50505050565b6000601f19601f8301169050919050565b6132d681613228565b81146132e157600080fd5b50565b6132ed81613246565b81146132f857600080fd5b50565b61330481613270565b811461330f57600080fd5b5056fea26469706673582212207e70cf276f14a8e489eee7e6dde6d4f6663b6403cbba236f53378bf282e43a7364736f6c63430006020033",
  "source": "// SPDX-License-Identifier: MIT\r\npragma experimental ABIEncoderV2;\r\npragma solidity >=0.6.0;\r\nimport \"@openzeppelin/contracts/access/Ownable.sol\";\r\nimport \"@openzeppelin/contracts/access/AccessControl.sol\";\r\n\r\ncontract Meme is Ownable, AccessControl {\r\n\r\n  bytes32 public constant USER_ROLE = keccak256(\"USER_ROLE\"); //  enum State { Created, Locked, Inactive }\r\n  \r\n  // array of structs // 0 default \r\n  struct userData {\r\n\r\n    bool userExists; \r\n    string username;\r\n\r\n    bytes32[] imageHashes;\r\n    bytes32[] imageNames;\r\n    bytes32[] imageHashesSharedWithUser;\r\n    bytes32[] imageNamesSharedWithUser;\r\n\r\n    bytes32[] fileHashes;\r\n    bytes32[] fileNames;\r\n    bytes32[] fileHashesSharedWithUser;\r\n    bytes32[] fileNamesSharedWithUser;\r\n\r\n    address[] addressSharedWithUser;\r\n    address[] fileAddressSharedWithUser;\r\n    string[] usernameSharedWithUser;\r\n    string[] fileUsernameSharedWithUser;\r\n  }\r\n\r\n  mapping (address => userData) idUserData;\r\n\r\n  // onlyOwner fun that add users \r\n  bytes32[] initArr;\r\n  bytes32[] initArrShared;\r\n  function signUpUserOrLogin(string memory _usr) public { // onlyOwner { acc2 can connect, acc3,4 cannot }\r\n    // owner = msg.sender;\r\n    if (!idUserData[msg.sender].userExists) {\r\n      idUserData[msg.sender].imageHashes = initArr;\r\n      idUserData[msg.sender].imageNames = initArr;\r\n      idUserData[msg.sender].fileHashes = initArr;\r\n      idUserData[msg.sender].fileNames = initArr;\r\n      idUserData[msg.sender].userExists = true;\r\n      idUserData[msg.sender].username = _usr;\r\n      // check why do that******** Sign up problem\r\n      idUserData[msg.sender].imageHashesSharedWithUser;// = initArrShared;\r\n      idUserData[msg.sender].imageNamesSharedWithUser; \r\n      idUserData[msg.sender].fileHashesSharedWithUser;// = initArrShared;\r\n      idUserData[msg.sender].fileNamesSharedWithUser; \r\n      idUserData[msg.sender].addressSharedWithUser;\r\n      idUserData[msg.sender].usernameSharedWithUser;\r\n      idUserData[msg.sender].fileAddressSharedWithUser;   \r\n      idUserData[msg.sender].fileUsernameSharedWithUser;  \r\n\r\n      _setupRole(USER_ROLE, msg.sender);\r\n    } // else user already exists\r\n  }\r\n\r\n  // set msg.sender [from who it was shared] \r\n  function shareImage(string memory _usrName, address _address, bytes32 _imageHash, bytes32 _imageName) public {\r\n    require(hasRole(USER_ROLE, msg.sender), \"Caller is not a user\");\r\n\r\n    // prevents duplicate images from being inserted (shared again)\r\n    bool duplicateFound = false;\r\n    for (uint i = 0; i < idUserData[_address].imageHashesSharedWithUser.length; i++) {\r\n      if (idUserData[_address].imageHashesSharedWithUser[i] == _imageHash) {\r\n        duplicateFound = true;\r\n        break;\r\n      }\r\n    }\r\n    if (!duplicateFound) {\r\n      idUserData[_address].imageHashesSharedWithUser.push(_imageHash);\r\n      idUserData[_address].imageNamesSharedWithUser.push(_imageName);\r\n      idUserData[_address].usernameSharedWithUser.push(_usrName);\r\n      idUserData[_address].addressSharedWithUser.push(msg.sender); \r\n    } \r\n    // return duplicateFound;\r\n    //************** */ else alert user that it has already been shared with that user\r\n  }\r\n\r\n  function getSharedImageArr() public view returns (bytes32[] memory, bytes32[] memory, address[] memory, string[] memory) { \r\n    require(hasRole(USER_ROLE, msg.sender), \"Caller is not a user\");\r\n    return (idUserData[msg.sender].imageHashesSharedWithUser, idUserData[msg.sender].imageNamesSharedWithUser,\r\n    idUserData[msg.sender].addressSharedWithUser, idUserData[msg.sender].usernameSharedWithUser); \r\n  }\r\n\r\n\r\n    // set msg.sender [from who it was shared] \r\n  function shareFile(string memory _usrName, address _address, bytes32 _fileHash, bytes32 _fileName) public {\r\n    require(hasRole(USER_ROLE, msg.sender), \"Caller is not a user\");\r\n\r\n    // prevents duplicate files from being inserted (shared again)\r\n    bool duplicateFound = false;\r\n    for (uint i = 0; i < idUserData[_address].fileHashesSharedWithUser.length; i++) {\r\n      if (idUserData[_address].fileHashesSharedWithUser[i] == _fileHash) {\r\n        duplicateFound = true;\r\n        break;\r\n      }\r\n    }\r\n    if (!duplicateFound) {\r\n      idUserData[_address].fileHashesSharedWithUser.push(_fileHash);\r\n      idUserData[_address].fileNamesSharedWithUser.push(_fileName);\r\n      idUserData[_address].fileUsernameSharedWithUser.push(_usrName);\r\n      idUserData[_address].fileAddressSharedWithUser.push(msg.sender); \r\n    } \r\n    // return duplicateFound;\r\n    //************** */ else alert user that it has already been shared with that user\r\n  }\r\n\r\n  function getSharedFileArr() public view returns (bytes32[] memory, bytes32[] memory, address[] memory, string[] memory) { \r\n    require(hasRole(USER_ROLE, msg.sender), \"Caller is not a user\");\r\n    return (idUserData[msg.sender].fileHashesSharedWithUser, idUserData[msg.sender].fileNamesSharedWithUser,\r\n    idUserData[msg.sender].fileAddressSharedWithUser, idUserData[msg.sender].fileUsernameSharedWithUser); \r\n  }\r\n\r\n\r\n\r\n  function set(bytes32 _imageHash, bytes32 _imageName) public { \r\n    require(hasRole(USER_ROLE, msg.sender), \"Caller is not a user\");\r\n    idUserData[msg.sender].imageHashes.push(_imageHash);\r\n    idUserData[msg.sender].imageNames.push(_imageName);\r\n  }\r\n\r\n  function setFile(bytes32 _fileHash, bytes32 _fileName) public { \r\n    require(hasRole(USER_ROLE, msg.sender), \"Caller is not a user\");\r\n    idUserData[msg.sender].fileHashes.push(_fileHash);\r\n    idUserData[msg.sender].fileNames.push(_fileName);\r\n  }\r\n\r\n  function get() public view returns (bytes32[] memory, bytes32[] memory, string memory) {  // CATCH THE EXCEPTION: CALLER IS NOT A USER - HAPPENS WHEN GETS USERNAME \r\n    require(hasRole(USER_ROLE, msg.sender), \"Caller is not a user\");\r\n    return (idUserData[msg.sender].imageHashes, idUserData[msg.sender].imageNames, idUserData[msg.sender].username); \r\n  }\r\n\r\n  function getFile() public view returns (bytes32[] memory, bytes32[] memory, string memory) {  // CATCH THE EXCEPTION: CALLER IS NOT A USER - HAPPENS WHEN GETS USERNAME \r\n    require(hasRole(USER_ROLE, msg.sender), \"Caller is not a user\");\r\n    return (idUserData[msg.sender].fileHashes, idUserData[msg.sender].fileNames, idUserData[msg.sender].username); \r\n  }\r\n\r\n  // delete: reset variable to default value\r\n  // function deleteImage(address userAddress, uint index) public {\r\n  //   delete idUserData[userAddress].imageHashes[index];\r\n  // }\r\n\r\n  // bytes32[] public imageHashes;\r\n  // function set(bytes32 _imageHash) public { // abstract 0.7.0\r\n  //   imageHashes.push(_imageHash);\r\n  // }\r\n\r\n  // function get() public view returns (bytes32[] memory) { //internal dw\r\n  //   return imageHashes;\r\n  // }\r\n}",
  "sourcePath": "/mnt/c/Users/theod/git/y3_project/contracts/Meme.sol",
  "compiler": {
    "name": "solc",
    "version": "0.6.2+commit.bacdbe57.Emscripten.clang"
  },
  "schemaVersion": "3.2.5",
  "updatedAt": "2021-02-16T10:53:39.515Z",
  "networkType": "ethereum",
  "devdoc": {
    "methods": {
      "getRoleAdmin(bytes32)": {
        "details": "Returns the admin role that controls `role`. See {grantRole} and {revokeRole}.     * To change a role's admin, use {_setRoleAdmin}."
      },
      "getRoleMember(bytes32,uint256)": {
        "details": "Returns one of the accounts that have `role`. `index` must be a value between 0 and {getRoleMemberCount}, non-inclusive.     * Role bearers are not sorted in any particular way, and their ordering may change at any point.     * WARNING: When using {getRoleMember} and {getRoleMemberCount}, make sure you perform all queries on the same block. See the following https://forum.openzeppelin.com/t/iterating-over-elements-on-enumerableset-in-openzeppelin-contracts/2296[forum post] for more information."
      },
      "getRoleMemberCount(bytes32)": {
        "details": "Returns the number of accounts that have `role`. Can be used together with {getRoleMember} to enumerate all bearers of a role."
      },
      "grantRole(bytes32,address)": {
        "details": "Grants `role` to `account`.     * If `account` had not been already granted `role`, emits a {RoleGranted} event.     * Requirements:     * - the caller must have ``role``'s admin role."
      },
      "hasRole(bytes32,address)": {
        "details": "Returns `true` if `account` has been granted `role`."
      },
      "owner()": {
        "details": "Returns the address of the current owner."
      },
      "renounceOwnership()": {
        "details": "Leaves the contract without owner. It will not be possible to call `onlyOwner` functions anymore. Can only be called by the current owner.     * NOTE: Renouncing ownership will leave the contract without an owner, thereby removing any functionality that is only available to the owner."
      },
      "renounceRole(bytes32,address)": {
        "details": "Revokes `role` from the calling account.     * Roles are often managed via {grantRole} and {revokeRole}: this function's purpose is to provide a mechanism for accounts to lose their privileges if they are compromised (such as when a trusted device is misplaced).     * If the calling account had been granted `role`, emits a {RoleRevoked} event.     * Requirements:     * - the caller must be `account`."
      },
      "revokeRole(bytes32,address)": {
        "details": "Revokes `role` from `account`.     * If `account` had been granted `role`, emits a {RoleRevoked} event.     * Requirements:     * - the caller must have ``role``'s admin role."
      },
      "transferOwnership(address)": {
        "details": "Transfers ownership of the contract to a new account (`newOwner`). Can only be called by the current owner."
      }
    }
  },
  "userdoc": {
    "methods": {}
  }
}