{
  "contractName": "Meme",
  "abi": [
    {
      "constant": false,
      "inputs": [],
      "name": "signUpUserOrLogin",
      "outputs": [],
      "payable": false,
      "stateMutability": "nonpayable",
      "type": "function"
    },
    {
      "constant": true,
      "inputs": [
        {
          "internalType": "address",
          "name": "userAddress",
          "type": "address"
        }
      ],
      "name": "get",
      "outputs": [
        {
          "internalType": "bytes32[]",
          "name": "",
          "type": "bytes32[]"
        }
      ],
      "payable": false,
      "stateMutability": "view",
      "type": "function"
    }
  ],
  "bytecode": "0x608060405234801561001057600080fd5b50610325806100206000396000f3fe608060405234801561001057600080fd5b50600436106100365760003560e01c80637dc9983b1461003b578063c2bc2efc14610045575b600080fd5b6100436100de565b005b6100876004803603602081101561005b57600080fd5b81019080803573ffffffffffffffffffffffffffffffffffffffff1690602001909291905050506101e0565b6040518080602001828103825283818151815260200191508051906020019060200280838360005b838110156100ca5780820151818401526020810190506100af565b505050509050019250505060405180910390f35b6000803373ffffffffffffffffffffffffffffffffffffffff1673ffffffffffffffffffffffffffffffffffffffff16815260200190815260200160002060010160009054906101000a900460ff166101de5760016000803373ffffffffffffffffffffffffffffffffffffffff1673ffffffffffffffffffffffffffffffffffffffff168152602001908152602001600020600001908054610182929190610279565b5060016000803373ffffffffffffffffffffffffffffffffffffffff1673ffffffffffffffffffffffffffffffffffffffff16815260200190815260200160002060010160006101000a81548160ff0219169083151502179055505b565b60606000808373ffffffffffffffffffffffffffffffffffffffff1673ffffffffffffffffffffffffffffffffffffffff16815260200190815260200160002060000180548060200260200160405190810160405280929190818152602001828054801561026d57602002820191906000526020600020905b815481526020019060010190808311610259575b50505050509050919050565b8280548282559060005260206000209081019282156102ba5760005260206000209182015b828111156102b957825482559160010191906001019061029e565b5b5090506102c791906102cb565b5090565b6102ed91905b808211156102e95760008160009055506001016102d1565b5090565b9056fea265627a7a72315820be686280f1bdacb30d1eced0be5d999b73c64b07ee6f670712057b8635d386ce64736f6c63430005100032",
  "source": "// SPDX-License-Identifier: MIT\r\npragma solidity >=0.4.0;\r\n\r\ncontract Meme {\r\n\r\n  // array of structs \r\n  struct userData {\r\n    bytes32[] imageHashes;\r\n    bool userExists; // 0 default \r\n  }\r\n\r\n  mapping (address => userData) idUserData;\r\n\r\n  bytes32[] initArr;\r\n  function signUpUserOrLogin() public { // returns(address) {\r\n    // address _address\r\n    if (!idUserData[msg.sender].userExists) {\r\n      idUserData[msg.sender].imageHashes = initArr;\r\n      idUserData[msg.sender].userExists = true;\r\n    } // else user already exists  try catch\r\n    // return msg.sender;\r\n  }\r\n\r\n  function set(address userAddress, bytes32 _imageHash) private { \r\n    idUserData[userAddress].imageHashes.push(_imageHash);\r\n  }\r\n\r\n  // not passing the address resulted in mix of accounts\r\n  function get(address userAddress) public view returns (bytes32[] memory) { \r\n    return idUserData[userAddress].imageHashes; \r\n  }\r\n\r\n  // delete: resets variable to default value\r\n  // function deleteImage(address userAddress, uint index) public {\r\n  //   delete idUserData[userAddress].imageHashes[index];\r\n  // }\r\n\r\n  // bytes32[] public imageHashes;\r\n  // function set(bytes32 _imageHash) public { // abstract 0.7.0\r\n  //   imageHashes.push(_imageHash);\r\n  // }\r\n\r\n  // function get() public view returns (bytes32[] memory) { //internal dw\r\n  //   return imageHashes;\r\n  // }\r\n}",
  "sourcePath": "/mnt/c/Users/theod/git/y3_project/contracts/Meme.sol",
  "compiler": {
    "name": "solc",
    "version": "0.5.16+commit.9c3226ce.Emscripten.clang"
  },
  "schemaVersion": "3.2.5",
  "updatedAt": "2020-10-20T22:27:00.813Z",
  "networkType": "ethereum",
  "devdoc": {
    "methods": {}
  },
  "userdoc": {
    "methods": {}
  }
}