{
  "contractName": "Meme",
  "abi": [
    {
      "anonymous": false,
      "inputs": [
        {
          "indexed": true,
          "internalType": "address",
          "name": "previousOwner",
          "type": "address"
        },
        {
          "indexed": true,
          "internalType": "address",
          "name": "newOwner",
          "type": "address"
        }
      ],
      "name": "OwnershipTransferred",
      "type": "event"
    },
    {
      "anonymous": false,
      "inputs": [
        {
          "indexed": true,
          "internalType": "bytes32",
          "name": "role",
          "type": "bytes32"
        },
        {
          "indexed": true,
          "internalType": "bytes32",
          "name": "previousAdminRole",
          "type": "bytes32"
        },
        {
          "indexed": true,
          "internalType": "bytes32",
          "name": "newAdminRole",
          "type": "bytes32"
        }
      ],
      "name": "RoleAdminChanged",
      "type": "event"
    },
    {
      "anonymous": false,
      "inputs": [
        {
          "indexed": true,
          "internalType": "bytes32",
          "name": "role",
          "type": "bytes32"
        },
        {
          "indexed": true,
          "internalType": "address",
          "name": "account",
          "type": "address"
        },
        {
          "indexed": true,
          "internalType": "address",
          "name": "sender",
          "type": "address"
        }
      ],
      "name": "RoleGranted",
      "type": "event"
    },
    {
      "anonymous": false,
      "inputs": [
        {
          "indexed": true,
          "internalType": "bytes32",
          "name": "role",
          "type": "bytes32"
        },
        {
          "indexed": true,
          "internalType": "address",
          "name": "account",
          "type": "address"
        },
        {
          "indexed": true,
          "internalType": "address",
          "name": "sender",
          "type": "address"
        }
      ],
      "name": "RoleRevoked",
      "type": "event"
    },
    {
      "inputs": [],
      "name": "DEFAULT_ADMIN_ROLE",
      "outputs": [
        {
          "internalType": "bytes32",
          "name": "",
          "type": "bytes32"
        }
      ],
      "stateMutability": "view",
      "type": "function",
      "constant": true
    },
    {
      "inputs": [],
      "name": "USER_ROLE",
      "outputs": [
        {
          "internalType": "bytes32",
          "name": "",
          "type": "bytes32"
        }
      ],
      "stateMutability": "view",
      "type": "function",
      "constant": true
    },
    {
      "inputs": [
        {
          "internalType": "bytes32",
          "name": "role",
          "type": "bytes32"
        }
      ],
      "name": "getRoleAdmin",
      "outputs": [
        {
          "internalType": "bytes32",
          "name": "",
          "type": "bytes32"
        }
      ],
      "stateMutability": "view",
      "type": "function",
      "constant": true
    },
    {
      "inputs": [
        {
          "internalType": "bytes32",
          "name": "role",
          "type": "bytes32"
        },
        {
          "internalType": "uint256",
          "name": "index",
          "type": "uint256"
        }
      ],
      "name": "getRoleMember",
      "outputs": [
        {
          "internalType": "address",
          "name": "",
          "type": "address"
        }
      ],
      "stateMutability": "view",
      "type": "function",
      "constant": true
    },
    {
      "inputs": [
        {
          "internalType": "bytes32",
          "name": "role",
          "type": "bytes32"
        }
      ],
      "name": "getRoleMemberCount",
      "outputs": [
        {
          "internalType": "uint256",
          "name": "",
          "type": "uint256"
        }
      ],
      "stateMutability": "view",
      "type": "function",
      "constant": true
    },
    {
      "inputs": [
        {
          "internalType": "bytes32",
          "name": "role",
          "type": "bytes32"
        },
        {
          "internalType": "address",
          "name": "account",
          "type": "address"
        }
      ],
      "name": "grantRole",
      "outputs": [],
      "stateMutability": "nonpayable",
      "type": "function"
    },
    {
      "inputs": [
        {
          "internalType": "bytes32",
          "name": "role",
          "type": "bytes32"
        },
        {
          "internalType": "address",
          "name": "account",
          "type": "address"
        }
      ],
      "name": "hasRole",
      "outputs": [
        {
          "internalType": "bool",
          "name": "",
          "type": "bool"
        }
      ],
      "stateMutability": "view",
      "type": "function",
      "constant": true
    },
    {
      "inputs": [],
      "name": "owner",
      "outputs": [
        {
          "internalType": "address",
          "name": "",
          "type": "address"
        }
      ],
      "stateMutability": "view",
      "type": "function",
      "constant": true
    },
    {
      "inputs": [],
      "name": "renounceOwnership",
      "outputs": [],
      "stateMutability": "nonpayable",
      "type": "function"
    },
    {
      "inputs": [
        {
          "internalType": "bytes32",
          "name": "role",
          "type": "bytes32"
        },
        {
          "internalType": "address",
          "name": "account",
          "type": "address"
        }
      ],
      "name": "renounceRole",
      "outputs": [],
      "stateMutability": "nonpayable",
      "type": "function"
    },
    {
      "inputs": [
        {
          "internalType": "bytes32",
          "name": "role",
          "type": "bytes32"
        },
        {
          "internalType": "address",
          "name": "account",
          "type": "address"
        }
      ],
      "name": "revokeRole",
      "outputs": [],
      "stateMutability": "nonpayable",
      "type": "function"
    },
    {
      "inputs": [
        {
          "internalType": "address",
          "name": "newOwner",
          "type": "address"
        }
      ],
      "name": "transferOwnership",
      "outputs": [],
      "stateMutability": "nonpayable",
      "type": "function"
    },
    {
      "inputs": [
        {
          "internalType": "string",
          "name": "_usr",
          "type": "string"
        },
        {
          "internalType": "string",
          "name": "_date",
          "type": "string"
        }
      ],
      "name": "signUpUserOrLogin",
      "outputs": [],
      "stateMutability": "nonpayable",
      "type": "function"
    },
    {
      "inputs": [
        {
          "internalType": "string",
          "name": "_usrName",
          "type": "string"
        },
        {
          "internalType": "address",
          "name": "_address",
          "type": "address"
        },
        {
          "internalType": "bytes32",
          "name": "_imageHash",
          "type": "bytes32"
        },
        {
          "internalType": "bytes32",
          "name": "_imageName",
          "type": "bytes32"
        },
        {
          "internalType": "string",
          "name": "_date",
          "type": "string"
        }
      ],
      "name": "shareImage",
      "outputs": [],
      "stateMutability": "nonpayable",
      "type": "function"
    },
    {
      "inputs": [],
      "name": "getSharedImageArr",
      "outputs": [
        {
          "internalType": "bytes32[]",
          "name": "",
          "type": "bytes32[]"
        },
        {
          "internalType": "bytes32[]",
          "name": "",
          "type": "bytes32[]"
        },
        {
          "internalType": "address[]",
          "name": "",
          "type": "address[]"
        },
        {
          "internalType": "string[]",
          "name": "",
          "type": "string[]"
        },
        {
          "internalType": "string[]",
          "name": "",
          "type": "string[]"
        }
      ],
      "stateMutability": "view",
      "type": "function",
      "constant": true
    },
    {
      "inputs": [
        {
          "internalType": "string",
          "name": "_usrName",
          "type": "string"
        },
        {
          "internalType": "address",
          "name": "_address",
          "type": "address"
        },
        {
          "internalType": "bytes32",
          "name": "_fileHash",
          "type": "bytes32"
        },
        {
          "internalType": "bytes32",
          "name": "_fileName",
          "type": "bytes32"
        },
        {
          "internalType": "string",
          "name": "_date",
          "type": "string"
        }
      ],
      "name": "shareFile",
      "outputs": [],
      "stateMutability": "nonpayable",
      "type": "function"
    },
    {
      "inputs": [],
      "name": "getSharedFileArr",
      "outputs": [
        {
          "internalType": "bytes32[]",
          "name": "",
          "type": "bytes32[]"
        },
        {
          "internalType": "bytes32[]",
          "name": "",
          "type": "bytes32[]"
        },
        {
          "internalType": "address[]",
          "name": "",
          "type": "address[]"
        },
        {
          "internalType": "string[]",
          "name": "",
          "type": "string[]"
        },
        {
          "internalType": "string[]",
          "name": "",
          "type": "string[]"
        }
      ],
      "stateMutability": "view",
      "type": "function",
      "constant": true
    },
    {
      "inputs": [
        {
          "internalType": "bytes32",
          "name": "_imageHash",
          "type": "bytes32"
        },
        {
          "internalType": "bytes32",
          "name": "_imageName",
          "type": "bytes32"
        },
        {
          "internalType": "string",
          "name": "_date",
          "type": "string"
        }
      ],
      "name": "set",
      "outputs": [],
      "stateMutability": "nonpayable",
      "type": "function"
    },
    {
      "inputs": [
        {
          "internalType": "bytes32",
          "name": "_fileHash",
          "type": "bytes32"
        },
        {
          "internalType": "bytes32",
          "name": "_fileName",
          "type": "bytes32"
        },
        {
          "internalType": "string",
          "name": "_date",
          "type": "string"
        }
      ],
      "name": "setFile",
      "outputs": [],
      "stateMutability": "nonpayable",
      "type": "function"
    },
    {
      "inputs": [],
      "name": "get",
      "outputs": [
        {
          "internalType": "bytes32[]",
          "name": "",
          "type": "bytes32[]"
        },
        {
          "internalType": "bytes32[]",
          "name": "",
          "type": "bytes32[]"
        },
        {
          "internalType": "string",
          "name": "",
          "type": "string"
        },
        {
          "internalType": "string[]",
          "name": "",
          "type": "string[]"
        },
        {
          "internalType": "address[]",
          "name": "",
          "type": "address[]"
        },
        {
          "internalType": "bytes32[]",
          "name": "",
          "type": "bytes32[]"
        },
        {
          "internalType": "string",
          "name": "",
          "type": "string"
        }
      ],
      "stateMutability": "view",
      "type": "function",
      "constant": true
    },
    {
      "inputs": [],
      "name": "getFile",
      "outputs": [
        {
          "internalType": "bytes32[]",
          "name": "",
          "type": "bytes32[]"
        },
        {
          "internalType": "bytes32[]",
          "name": "",
          "type": "bytes32[]"
        },
        {
          "internalType": "string",
          "name": "",
          "type": "string"
        },
        {
          "internalType": "string[]",
          "name": "",
          "type": "string[]"
        },
        {
          "internalType": "address[]",
          "name": "",
          "type": "address[]"
        },
        {
          "internalType": "bytes32[]",
          "name": "",
          "type": "bytes32[]"
        }
      ],
      "stateMutability": "view",
      "type": "function",
      "constant": true
    }
  ],
  "bytecode": "0x6080604052600062000016620000ba60201b60201c565b9050806000806101000a81548173ffffffffffffffffffffffffffffffffffffffff021916908373ffffffffffffffffffffffffffffffffffffffff1602179055508073ffffffffffffffffffffffffffffffffffffffff16600073ffffffffffffffffffffffffffffffffffffffff167f8be0079c531659141344cd1fd0a4f28419497f9722a3daafe3b4186f6b6457e060405160405180910390a350620000c2565b600033905090565b61405f80620000d26000396000f3fe608060405234801561001057600080fd5b50600436106101375760003560e01c806387e3310f116100b8578063a217fddf1161007c578063a217fddf14610329578063b24ed1b914610347578063c10e3d6514610363578063ca15c8731461037f578063d547741f146103af578063f2fde38b146103cb57610137565b806387e3310f146102735780638da5cb5b1461028f5780639010d07c146102ad57806390780adf146102dd57806391d14854146102f957610137565b80632fa81692116100ff5780632fa81692146101e457806336568abe146102075780636d4ce63c14610223578063715018a61461024757806384acf9631461025157610137565b8063131191611461013c57806313d921581461015a578063248a9ca31461017c5780632ad8cb03146101ac5780632f2ff15d146101c8575b600080fd5b6101446103e7565b6040516101519190613ce2565b60405180910390f35b6101626103fe565b604051610173959493929190613b26565b60405180910390f35b610196600480360361019191908101906133dc565b6108af565b6040516101a39190613ce2565b60405180910390f35b6101c660048036036101c1919081019061358b565b6108cf565b005b6101e260048036036101dd9190810190613405565b610ace565b005b6101ec610b42565b6040516101fe96959493929190613b9c565b60405180910390f35b610221600480360361021c9190810190613405565b611044565b005b61022b6110c7565b60405161023e9796959493929190613c27565b60405180910390f35b61024f6116ac565b005b610259611801565b60405161026a959493929190613b26565b60405180910390f35b61028d60048036036102889190810190613441565b611cb2565b005b610297611e61565b6040516102a49190613b0b565b60405180910390f35b6102c760048036036102c291908101906134a8565b611e8a565b6040516102d49190613b0b565b60405180910390f35b6102f760048036036102f291908101906134e4565b611ebc565b005b610313600480360361030e9190810190613405565b61247d565b6040516103209190613cc7565b60405180910390f35b6103316124af565b60405161033e9190613ce2565b60405180910390f35b610361600480360361035c91908101906134e4565b6124b6565b005b61037d60048036036103789190810190613441565b612a77565b005b610399600480360361039491908101906133dc565b612c26565b6040516103a69190613ddd565b60405180910390f35b6103c960048036036103c49190810190613405565b612c4d565b005b6103e560048036036103e091908101906133b3565b612cc1565b005b6040516103f390613af6565b604051809103902081565b606080606080606061042360405161041590613af6565b60405180910390203361247d565b610462576040517f08c379a000000000000000000000000000000000000000000000000000000000815260040161045990613d9d565b60405180910390fd5b600260003373ffffffffffffffffffffffffffffffffffffffff1673ffffffffffffffffffffffffffffffffffffffff168152602001908152602001600020600a01600260003373ffffffffffffffffffffffffffffffffffffffff1673ffffffffffffffffffffffffffffffffffffffff168152602001908152602001600020600b01600260003373ffffffffffffffffffffffffffffffffffffffff1673ffffffffffffffffffffffffffffffffffffffff168152602001908152602001600020600e01600260003373ffffffffffffffffffffffffffffffffffffffff1673ffffffffffffffffffffffffffffffffffffffff168152602001908152602001600020601001600260003373ffffffffffffffffffffffffffffffffffffffff1673ffffffffffffffffffffffffffffffffffffffff168152602001908152602001600020601201848054806020026020016040519081016040528092919081815260200182805480156105f757602002820191906000526020600020905b8154815260200190600101908083116105e3575b505050505094508380548060200260200160405190810160405280929190818152602001828054801561064957602002820191906000526020600020905b815481526020019060010190808311610635575b50505050509350828054806020026020016040519081016040528092919081815260200182805480156106d157602002820191906000526020600020905b8160009054906101000a900473ffffffffffffffffffffffffffffffffffffffff1673ffffffffffffffffffffffffffffffffffffffff1681526020019060010190808311610687575b5050505050925081805480602002602001604051908101604052809291908181526020016000905b828210156107b5578382906000526020600020018054600181600116156101000203166002900480601f0160208091040260200160405190810160405280929190818152602001828054600181600116156101000203166002900480156107a15780601f10610776576101008083540402835291602001916107a1565b820191906000526020600020905b81548152906001019060200180831161078457829003601f168201915b5050505050815260200190600101906106f9565b50505050915080805480602002602001604051908101604052809291908181526020016000905b82821015610898578382906000526020600020018054600181600116156101000203166002900480601f0160208091040260200160405190810160405280929190818152602001828054600181600116156101000203166002900480156108845780601f1061085957610100808354040283529160200191610884565b820191906000526020600020905b81548152906001019060200180831161086757829003601f168201915b5050505050815260200190600101906107dc565b505050509050945094509450945094509091929394565b600060016000838152602001908152602001600020600201549050919050565b600260003373ffffffffffffffffffffffffffffffffffffffff1673ffffffffffffffffffffffffffffffffffffffff16815260200190815260200160002060000160009054906101000a900460ff16610aca576001600260003373ffffffffffffffffffffffffffffffffffffffff1673ffffffffffffffffffffffffffffffffffffffff16815260200190815260200160002060000160006101000a81548160ff02191690831515021790555081600260003373ffffffffffffffffffffffffffffffffffffffff1673ffffffffffffffffffffffffffffffffffffffff16815260200190815260200160002060020190805190602001906109d492919061327b565b5080600260003373ffffffffffffffffffffffffffffffffffffffff1673ffffffffffffffffffffffffffffffffffffffff1681526020019081526020016000206001019080519060200190610a2b92919061327b565b50600260003373ffffffffffffffffffffffffffffffffffffffff1673ffffffffffffffffffffffffffffffffffffffff16815260200190815260200160002050600260003373ffffffffffffffffffffffffffffffffffffffff1673ffffffffffffffffffffffffffffffffffffffff16815260200190815260200160002050610ac9604051610abb90613af6565b604051809103902033612e85565b5b5050565b610af56001600084815260200190815260200160002060020154610af0612e93565b61247d565b610b34576040517f08c379a0000000000000000000000000000000000000000000000000000000008152600401610b2b90613d1d565b60405180910390fd5b610b3e8282612e9b565b5050565b606080606080606080610b68604051610b5a90613af6565b60405180910390203361247d565b610ba7576040517f08c379a0000000000000000000000000000000000000000000000000000000008152600401610b9e90613d9d565b60405180910390fd5b600260003373ffffffffffffffffffffffffffffffffffffffff1673ffffffffffffffffffffffffffffffffffffffff168152602001908152602001600020600801600260003373ffffffffffffffffffffffffffffffffffffffff1673ffffffffffffffffffffffffffffffffffffffff168152602001908152602001600020600901600260003373ffffffffffffffffffffffffffffffffffffffff1673ffffffffffffffffffffffffffffffffffffffff168152602001908152602001600020600201600260003373ffffffffffffffffffffffffffffffffffffffff1673ffffffffffffffffffffffffffffffffffffffff168152602001908152602001600020600c01600260003373ffffffffffffffffffffffffffffffffffffffff1673ffffffffffffffffffffffffffffffffffffffff168152602001908152602001600020601501600260003373ffffffffffffffffffffffffffffffffffffffff1673ffffffffffffffffffffffffffffffffffffffff16815260200190815260200160002060160185805480602002602001604051908101604052809291908181526020018280548015610d7e57602002820191906000526020600020905b815481526020019060010190808311610d6a575b5050505050955084805480602002602001604051908101604052809291908181526020018280548015610dd057602002820191906000526020600020905b815481526020019060010190808311610dbc575b50505050509450838054600181600116156101000203166002900480601f016020809104026020016040519081016040528092919081815260200182805460018160011615610100020316600290048015610e6c5780601f10610e4157610100808354040283529160200191610e6c565b820191906000526020600020905b815481529060010190602001808311610e4f57829003601f168201915b5050505050935082805480602002602001604051908101604052809291908181526020016000905b82821015610f50578382906000526020600020018054600181600116156101000203166002900480601f016020809104026020016040519081016040528092919081815260200182805460018160011615610100020316600290048015610f3c5780601f10610f1157610100808354040283529160200191610f3c565b820191906000526020600020905b815481529060010190602001808311610f1f57829003601f168201915b505050505081526020019060010190610e94565b50505050925081805480602002602001604051908101604052809291908181526020018280548015610fd757602002820191906000526020600020905b8160009054906101000a900473ffffffffffffffffffffffffffffffffffffffff1673ffffffffffffffffffffffffffffffffffffffff1681526020019060010190808311610f8d575b505050505091508080548060200260200160405190810160405280929190818152602001828054801561102957602002820191906000526020600020905b815481526020019060010190808311611015575b50505050509050955095509550955095509550909192939495565b61104c612e93565b73ffffffffffffffffffffffffffffffffffffffff168173ffffffffffffffffffffffffffffffffffffffff16146110b9576040517f08c379a00000000000000000000000000000000000000000000000000000000081526004016110b090613dbd565b60405180910390fd5b6110c38282612f2f565b5050565b60608060608060608060606110ef6040516110e190613af6565b60405180910390203361247d565b61112e576040517f08c379a000000000000000000000000000000000000000000000000000000000815260040161112590613d9d565b60405180910390fd5b600260003373ffffffffffffffffffffffffffffffffffffffff1673ffffffffffffffffffffffffffffffffffffffff168152602001908152602001600020600301600260003373ffffffffffffffffffffffffffffffffffffffff1673ffffffffffffffffffffffffffffffffffffffff168152602001908152602001600020600401600260003373ffffffffffffffffffffffffffffffffffffffff1673ffffffffffffffffffffffffffffffffffffffff168152602001908152602001600020600201600260003373ffffffffffffffffffffffffffffffffffffffff1673ffffffffffffffffffffffffffffffffffffffff168152602001908152602001600020600701600260003373ffffffffffffffffffffffffffffffffffffffff1673ffffffffffffffffffffffffffffffffffffffff168152602001908152602001600020601301600260003373ffffffffffffffffffffffffffffffffffffffff1673ffffffffffffffffffffffffffffffffffffffff168152602001908152602001600020601401600260003373ffffffffffffffffffffffffffffffffffffffff1673ffffffffffffffffffffffffffffffffffffffff1681526020019081526020016000206001018680548060200260200160405190810160405280929190818152602001828054801561134757602002820191906000526020600020905b815481526020019060010190808311611333575b505050505096508580548060200260200160405190810160405280929190818152602001828054801561139957602002820191906000526020600020905b815481526020019060010190808311611385575b50505050509550848054600181600116156101000203166002900480601f0160208091040260200160405190810160405280929190818152602001828054600181600116156101000203166002900480156114355780601f1061140a57610100808354040283529160200191611435565b820191906000526020600020905b81548152906001019060200180831161141857829003601f168201915b5050505050945083805480602002602001604051908101604052809291908181526020016000905b82821015611519578382906000526020600020018054600181600116156101000203166002900480601f0160208091040260200160405190810160405280929190818152602001828054600181600116156101000203166002900480156115055780601f106114da57610100808354040283529160200191611505565b820191906000526020600020905b8154815290600101906020018083116114e857829003601f168201915b50505050508152602001906001019061145d565b505050509350828054806020026020016040519081016040528092919081815260200182805480156115a057602002820191906000526020600020905b8160009054906101000a900473ffffffffffffffffffffffffffffffffffffffff1673ffffffffffffffffffffffffffffffffffffffff1681526020019060010190808311611556575b50505050509250818054806020026020016040519081016040528092919081815260200182805480156115f257602002820191906000526020600020905b8154815260200190600101908083116115de575b50505050509150808054600181600116156101000203166002900480601f01602080910402602001604051908101604052809291908181526020018280546001816001161561010002031660029004801561168e5780601f106116635761010080835404028352916020019161168e565b820191906000526020600020905b81548152906001019060200180831161167157829003601f168201915b50505050509050965096509650965096509650965090919293949596565b6116b4612e93565b73ffffffffffffffffffffffffffffffffffffffff166000809054906101000a900473ffffffffffffffffffffffffffffffffffffffff1673ffffffffffffffffffffffffffffffffffffffff1614611742576040517f08c379a000000000000000000000000000000000000000000000000000000000815260040161173990613d7d565b60405180910390fd5b600073ffffffffffffffffffffffffffffffffffffffff166000809054906101000a900473ffffffffffffffffffffffffffffffffffffffff1673ffffffffffffffffffffffffffffffffffffffff167f8be0079c531659141344cd1fd0a4f28419497f9722a3daafe3b4186f6b6457e060405160405180910390a360008060006101000a81548173ffffffffffffffffffffffffffffffffffffffff021916908373ffffffffffffffffffffffffffffffffffffffff160217905550565b606080606080606061182660405161181890613af6565b60405180910390203361247d565b611865576040517f08c379a000000000000000000000000000000000000000000000000000000000815260040161185c90613d9d565b60405180910390fd5b600260003373ffffffffffffffffffffffffffffffffffffffff1673ffffffffffffffffffffffffffffffffffffffff168152602001908152602001600020600501600260003373ffffffffffffffffffffffffffffffffffffffff1673ffffffffffffffffffffffffffffffffffffffff168152602001908152602001600020600601600260003373ffffffffffffffffffffffffffffffffffffffff1673ffffffffffffffffffffffffffffffffffffffff168152602001908152602001600020600d01600260003373ffffffffffffffffffffffffffffffffffffffff1673ffffffffffffffffffffffffffffffffffffffff168152602001908152602001600020600f01600260003373ffffffffffffffffffffffffffffffffffffffff1673ffffffffffffffffffffffffffffffffffffffff168152602001908152602001600020601101848054806020026020016040519081016040528092919081815260200182805480156119fa57602002820191906000526020600020905b8154815260200190600101908083116119e6575b5050505050945083805480602002602001604051908101604052809291908181526020018280548015611a4c57602002820191906000526020600020905b815481526020019060010190808311611a38575b5050505050935082805480602002602001604051908101604052809291908181526020018280548015611ad457602002820191906000526020600020905b8160009054906101000a900473ffffffffffffffffffffffffffffffffffffffff1673ffffffffffffffffffffffffffffffffffffffff1681526020019060010190808311611a8a575b5050505050925081805480602002602001604051908101604052809291908181526020016000905b82821015611bb8578382906000526020600020018054600181600116156101000203166002900480601f016020809104026020016040519081016040528092919081815260200182805460018160011615610100020316600290048015611ba45780601f10611b7957610100808354040283529160200191611ba4565b820191906000526020600020905b815481529060010190602001808311611b8757829003601f168201915b505050505081526020019060010190611afc565b50505050915080805480602002602001604051908101604052809291908181526020016000905b82821015611c9b578382906000526020600020018054600181600116156101000203166002900480601f016020809104026020016040519081016040528092919081815260200182805460018160011615610100020316600290048015611c875780601f10611c5c57610100808354040283529160200191611c87565b820191906000526020600020905b815481529060010190602001808311611c6a57829003601f168201915b505050505081526020019060010190611bdf565b505050509050945094509450945094509091929394565b611ccf604051611cc190613af6565b60405180910390203361247d565b611d0e576040517f08c379a0000000000000000000000000000000000000000000000000000000008152600401611d0590613d9d565b60405180910390fd5b600260003373ffffffffffffffffffffffffffffffffffffffff1673ffffffffffffffffffffffffffffffffffffffff168152602001908152602001600020600801839080600181540180825580915050600190039060005260206000200160009091909190915055600260003373ffffffffffffffffffffffffffffffffffffffff1673ffffffffffffffffffffffffffffffffffffffff168152602001908152602001600020600901829080600181540180825580915050600190039060005260206000200160009091909190915055600260003373ffffffffffffffffffffffffffffffffffffffff1673ffffffffffffffffffffffffffffffffffffffff168152602001908152602001600020600c0181908060018154018082558091505060019003906000526020600020016000909190919091509080519060200190611e5b92919061327b565b50505050565b60008060009054906101000a900473ffffffffffffffffffffffffffffffffffffffff16905090565b6000611eb48260016000868152602001908152602001600020600001612fc390919063ffffffff16565b905092915050565b611ed9604051611ecb90613af6565b60405180910390203361247d565b611f18576040517f08c379a0000000000000000000000000000000000000000000000000000000008152600401611f0f90613d9d565b60405180910390fd5b600080905060008090505b600260008773ffffffffffffffffffffffffffffffffffffffff1673ffffffffffffffffffffffffffffffffffffffff168152602001908152602001600020600a01805490508110156120f55784600260008873ffffffffffffffffffffffffffffffffffffffff1673ffffffffffffffffffffffffffffffffffffffff168152602001908152602001600020600a018281548110611fbe57fe5b906000526020600020015414801561207857503373ffffffffffffffffffffffffffffffffffffffff16600260008873ffffffffffffffffffffffffffffffffffffffff1673ffffffffffffffffffffffffffffffffffffffff168152602001908152602001600020600e01828154811061203557fe5b9060005260206000200160009054906101000a900473ffffffffffffffffffffffffffffffffffffffff1673ffffffffffffffffffffffffffffffffffffffff16145b80156120da575083600260008873ffffffffffffffffffffffffffffffffffffffff1673ffffffffffffffffffffffffffffffffffffffff168152602001908152602001600020600b0182815481106120cd57fe5b9060005260206000200154145b156120e857600191506120f5565b8080600101915050611f23565b508061247557600260008673ffffffffffffffffffffffffffffffffffffffff1673ffffffffffffffffffffffffffffffffffffffff168152602001908152602001600020600a01849080600181540180825580915050600190039060005260206000200160009091909190915055600260008673ffffffffffffffffffffffffffffffffffffffff1673ffffffffffffffffffffffffffffffffffffffff168152602001908152602001600020600b01839080600181540180825580915050600190039060005260206000200160009091909190915055600260008673ffffffffffffffffffffffffffffffffffffffff1673ffffffffffffffffffffffffffffffffffffffff1681526020019081526020016000206010018690806001815401808255809150506001900390600052602060002001600090919091909150908051906020019061224892919061327b565b50600260008673ffffffffffffffffffffffffffffffffffffffff1673ffffffffffffffffffffffffffffffffffffffff168152602001908152602001600020600e01339080600181540180825580915050600190039060005260206000200160009091909190916101000a81548173ffffffffffffffffffffffffffffffffffffffff021916908373ffffffffffffffffffffffffffffffffffffffff160217905550600260008673ffffffffffffffffffffffffffffffffffffffff1673ffffffffffffffffffffffffffffffffffffffff1681526020019081526020016000206012018290806001815401808255809150506001900390600052602060002001600090919091909150908051906020019061236792919061327b565b50600260003373ffffffffffffffffffffffffffffffffffffffff1673ffffffffffffffffffffffffffffffffffffffff168152602001908152602001600020601501859080600181540180825580915050600190039060005260206000200160009091909190916101000a81548173ffffffffffffffffffffffffffffffffffffffff021916908373ffffffffffffffffffffffffffffffffffffffff160217905550600260003373ffffffffffffffffffffffffffffffffffffffff1673ffffffffffffffffffffffffffffffffffffffff1681526020019081526020016000206016018490806001815401808255809150506001900390600052602060002001600090919091909150555b505050505050565b60006124a78260016000868152602001908152602001600020600001612fdd90919063ffffffff16565b905092915050565b6000801b81565b6124d36040516124c590613af6565b60405180910390203361247d565b612512576040517f08c379a000000000000000000000000000000000000000000000000000000000815260040161250990613d9d565b60405180910390fd5b600080905060008090505b600260008773ffffffffffffffffffffffffffffffffffffffff1673ffffffffffffffffffffffffffffffffffffffff168152602001908152602001600020600501805490508110156126ef5784600260008873ffffffffffffffffffffffffffffffffffffffff1673ffffffffffffffffffffffffffffffffffffffff16815260200190815260200160002060050182815481106125b857fe5b906000526020600020015414801561267257503373ffffffffffffffffffffffffffffffffffffffff16600260008873ffffffffffffffffffffffffffffffffffffffff1673ffffffffffffffffffffffffffffffffffffffff168152602001908152602001600020600d01828154811061262f57fe5b9060005260206000200160009054906101000a900473ffffffffffffffffffffffffffffffffffffffff1673ffffffffffffffffffffffffffffffffffffffff16145b80156126d4575083600260008873ffffffffffffffffffffffffffffffffffffffff1673ffffffffffffffffffffffffffffffffffffffff16815260200190815260200160002060060182815481106126c757fe5b9060005260206000200154145b156126e257600191506126ef565b808060010191505061251d565b5080612a6f57600260008673ffffffffffffffffffffffffffffffffffffffff1673ffffffffffffffffffffffffffffffffffffffff168152602001908152602001600020600501849080600181540180825580915050600190039060005260206000200160009091909190915055600260008673ffffffffffffffffffffffffffffffffffffffff1673ffffffffffffffffffffffffffffffffffffffff168152602001908152602001600020600601839080600181540180825580915050600190039060005260206000200160009091909190915055600260008673ffffffffffffffffffffffffffffffffffffffff1673ffffffffffffffffffffffffffffffffffffffff168152602001908152602001600020600f018690806001815401808255809150506001900390600052602060002001600090919091909150908051906020019061284292919061327b565b50600260008673ffffffffffffffffffffffffffffffffffffffff1673ffffffffffffffffffffffffffffffffffffffff168152602001908152602001600020600d01339080600181540180825580915050600190039060005260206000200160009091909190916101000a81548173ffffffffffffffffffffffffffffffffffffffff021916908373ffffffffffffffffffffffffffffffffffffffff160217905550600260008673ffffffffffffffffffffffffffffffffffffffff1673ffffffffffffffffffffffffffffffffffffffff1681526020019081526020016000206011018290806001815401808255809150506001900390600052602060002001600090919091909150908051906020019061296192919061327b565b50600260003373ffffffffffffffffffffffffffffffffffffffff1673ffffffffffffffffffffffffffffffffffffffff168152602001908152602001600020601301859080600181540180825580915050600190039060005260206000200160009091909190916101000a81548173ffffffffffffffffffffffffffffffffffffffff021916908373ffffffffffffffffffffffffffffffffffffffff160217905550600260003373ffffffffffffffffffffffffffffffffffffffff1673ffffffffffffffffffffffffffffffffffffffff1681526020019081526020016000206014018490806001815401808255809150506001900390600052602060002001600090919091909150555b505050505050565b612a94604051612a8690613af6565b60405180910390203361247d565b612ad3576040517f08c379a0000000000000000000000000000000000000000000000000000000008152600401612aca90613d9d565b60405180910390fd5b600260003373ffffffffffffffffffffffffffffffffffffffff1673ffffffffffffffffffffffffffffffffffffffff168152602001908152602001600020600301839080600181540180825580915050600190039060005260206000200160009091909190915055600260003373ffffffffffffffffffffffffffffffffffffffff1673ffffffffffffffffffffffffffffffffffffffff168152602001908152602001600020600401829080600181540180825580915050600190039060005260206000200160009091909190915055600260003373ffffffffffffffffffffffffffffffffffffffff1673ffffffffffffffffffffffffffffffffffffffff16815260200190815260200160002060070181908060018154018082558091505060019003906000526020600020016000909190919091509080519060200190612c2092919061327b565b50505050565b6000612c466001600084815260200190815260200160002060000161300d565b9050919050565b612c746001600084815260200190815260200160002060020154612c6f612e93565b61247d565b612cb3576040517f08c379a0000000000000000000000000000000000000000000000000000000008152600401612caa90613d5d565b60405180910390fd5b612cbd8282612f2f565b5050565b612cc9612e93565b73ffffffffffffffffffffffffffffffffffffffff166000809054906101000a900473ffffffffffffffffffffffffffffffffffffffff1673ffffffffffffffffffffffffffffffffffffffff1614612d57576040517f08c379a0000000000000000000000000000000000000000000000000000000008152600401612d4e90613d7d565b60405180910390fd5b600073ffffffffffffffffffffffffffffffffffffffff168173ffffffffffffffffffffffffffffffffffffffff161415612dc7576040517f08c379a0000000000000000000000000000000000000000000000000000000008152600401612dbe90613d3d565b60405180910390fd5b8073ffffffffffffffffffffffffffffffffffffffff166000809054906101000a900473ffffffffffffffffffffffffffffffffffffffff1673ffffffffffffffffffffffffffffffffffffffff167f8be0079c531659141344cd1fd0a4f28419497f9722a3daafe3b4186f6b6457e060405160405180910390a3806000806101000a81548173ffffffffffffffffffffffffffffffffffffffff021916908373ffffffffffffffffffffffffffffffffffffffff16021790555050565b612e8f8282612e9b565b5050565b600033905090565b612ec3816001600085815260200190815260200160002060000161302290919063ffffffff16565b15612f2b57612ed0612e93565b73ffffffffffffffffffffffffffffffffffffffff168173ffffffffffffffffffffffffffffffffffffffff16837f2f8788117e7eff1d82e926ec794901d17c78024a50270940304540a733656f0d60405160405180910390a45b5050565b612f57816001600085815260200190815260200160002060000161305290919063ffffffff16565b15612fbf57612f64612e93565b73ffffffffffffffffffffffffffffffffffffffff168173ffffffffffffffffffffffffffffffffffffffff16837ff6391f5c32d9c69d2a47ea670b442974b53935d1edc7fd64eb21e047a839171b60405160405180910390a45b5050565b6000612fd28360000183613082565b60001c905092915050565b6000613005836000018373ffffffffffffffffffffffffffffffffffffffff1660001b6130ef565b905092915050565b600061301b82600001613112565b9050919050565b600061304a836000018373ffffffffffffffffffffffffffffffffffffffff1660001b613123565b905092915050565b600061307a836000018373ffffffffffffffffffffffffffffffffffffffff1660001b613193565b905092915050565b6000818360000180549050116130cd576040517f08c379a00000000000000000000000000000000000000000000000000000000081526004016130c490613cfd565b60405180910390fd5b8260000182815481106130dc57fe5b9060005260206000200154905092915050565b600080836001016000848152602001908152602001600020541415905092915050565b600081600001805490509050919050565b600061312f83836130ef565b61318857826000018290806001815401808255809150506001900390600052602060002001600090919091909150558260000180549050836001016000848152602001908152602001600020819055506001905061318d565b600090505b92915050565b6000808360010160008481526020019081526020016000205490506000811461326f57600060018203905060006001866000018054905003905060008660000182815481106131de57fe5b90600052602060002001549050808760000184815481106131fb57fe5b906000526020600020018190555060018301876001016000838152602001908152602001600020819055508660000180548061323357fe5b60019003818190600052602060002001600090559055866001016000878152602001908152602001600020600090556001945050505050613275565b60009150505b92915050565b828054600181600116156101000203166002900490600052602060002090601f016020900481019282601f106132bc57805160ff19168380011785556132ea565b828001600101855582156132ea579182015b828111156132e95782518255916020019190600101906132ce565b5b5090506132f791906132fb565b5090565b61331d91905b80821115613319576000816000905550600101613301565b5090565b90565b60008135905061332f81613fe4565b92915050565b60008135905061334481613ffb565b92915050565b600082601f83011261335b57600080fd5b813561336e61336982613e25565b613df8565b9150808252602083016020830185838301111561338a57600080fd5b613395838284613f91565b50505092915050565b6000813590506133ad81614012565b92915050565b6000602082840312156133c557600080fd5b60006133d384828501613320565b91505092915050565b6000602082840312156133ee57600080fd5b60006133fc84828501613335565b91505092915050565b6000806040838503121561341857600080fd5b600061342685828601613335565b925050602061343785828601613320565b9150509250929050565b60008060006060848603121561345657600080fd5b600061346486828701613335565b935050602061347586828701613335565b925050604084013567ffffffffffffffff81111561349257600080fd5b61349e8682870161334a565b9150509250925092565b600080604083850312156134bb57600080fd5b60006134c985828601613335565b92505060206134da8582860161339e565b9150509250929050565b600080600080600060a086880312156134fc57600080fd5b600086013567ffffffffffffffff81111561351657600080fd5b6135228882890161334a565b955050602061353388828901613320565b945050604061354488828901613335565b935050606061355588828901613335565b925050608086013567ffffffffffffffff81111561357257600080fd5b61357e8882890161334a565b9150509295509295909350565b6000806040838503121561359e57600080fd5b600083013567ffffffffffffffff8111156135b857600080fd5b6135c48582860161334a565b925050602083013567ffffffffffffffff8111156135e157600080fd5b6135ed8582860161334a565b9150509250929050565b6000613603838361363b565b60208301905092915050565b600061361b8383613799565b60208301905092915050565b600061363383836137f0565b905092915050565b61364481613f3f565b82525050565b61365381613f3f565b82525050565b600061366482613e81565b61366e8185613edf565b935061367983613e51565b8060005b838110156136aa57815161369188826135f7565b975061369c83613eb8565b92505060018101905061367d565b5085935050505092915050565b60006136c282613e8c565b6136cc8185613ef0565b93506136d783613e61565b8060005b838110156137085781516136ef888261360f565b97506136fa83613ec5565b9250506001810190506136db565b5085935050505092915050565b600061372082613e97565b61372a8185613f01565b93508360208202850161373c85613e71565b8060005b8581101561377857848403895281516137598582613627565b945061376483613ed2565b925060208a01995050600181019050613740565b50829750879550505050505092915050565b61379381613f51565b82525050565b6137a281613f5d565b82525050565b6137b181613f5d565b82525050565b60006137c282613ead565b6137cc8185613f23565b93506137dc818560208601613fa0565b6137e581613fd3565b840191505092915050565b60006137fb82613ea2565b6138058185613f12565b9350613815818560208601613fa0565b61381e81613fd3565b840191505092915050565b6000613836602283613f23565b91507f456e756d657261626c655365743a20696e646578206f7574206f6620626f756e60008301527f64730000000000000000000000000000000000000000000000000000000000006020830152604082019050919050565b600061389c602f83613f23565b91507f416363657373436f6e74726f6c3a2073656e646572206d75737420626520616e60008301527f2061646d696e20746f206772616e7400000000000000000000000000000000006020830152604082019050919050565b6000613902600983613f34565b91507f555345525f524f4c4500000000000000000000000000000000000000000000006000830152600982019050919050565b6000613942602683613f23565b91507f4f776e61626c653a206e6577206f776e657220697320746865207a65726f206160008301527f64647265737300000000000000000000000000000000000000000000000000006020830152604082019050919050565b60006139a8603083613f23565b91507f416363657373436f6e74726f6c3a2073656e646572206d75737420626520616e60008301527f2061646d696e20746f207265766f6b65000000000000000000000000000000006020830152604082019050919050565b6000613a0e602083613f23565b91507f4f776e61626c653a2063616c6c6572206973206e6f7420746865206f776e65726000830152602082019050919050565b6000613a4e601483613f23565b91507f43616c6c6572206973206e6f74206120757365720000000000000000000000006000830152602082019050919050565b6000613a8e602f83613f23565b91507f416363657373436f6e74726f6c3a2063616e206f6e6c792072656e6f756e636560008301527f20726f6c657320666f722073656c6600000000000000000000000000000000006020830152604082019050919050565b613af081613f87565b82525050565b6000613b01826138f5565b9150819050919050565b6000602082019050613b20600083018461364a565b92915050565b600060a0820190508181036000830152613b4081886136b7565b90508181036020830152613b5481876136b7565b90508181036040830152613b688186613659565b90508181036060830152613b7c8185613715565b90508181036080830152613b908184613715565b90509695505050505050565b600060c0820190508181036000830152613bb681896136b7565b90508181036020830152613bca81886136b7565b90508181036040830152613bde81876137b7565b90508181036060830152613bf28186613715565b90508181036080830152613c068185613659565b905081810360a0830152613c1a81846136b7565b9050979650505050505050565b600060e0820190508181036000830152613c41818a6136b7565b90508181036020830152613c5581896136b7565b90508181036040830152613c6981886137b7565b90508181036060830152613c7d8187613715565b90508181036080830152613c918186613659565b905081810360a0830152613ca581856136b7565b905081810360c0830152613cb981846137b7565b905098975050505050505050565b6000602082019050613cdc600083018461378a565b92915050565b6000602082019050613cf760008301846137a8565b92915050565b60006020820190508181036000830152613d1681613829565b9050919050565b60006020820190508181036000830152613d368161388f565b9050919050565b60006020820190508181036000830152613d5681613935565b9050919050565b60006020820190508181036000830152613d768161399b565b9050919050565b60006020820190508181036000830152613d9681613a01565b9050919050565b60006020820190508181036000830152613db681613a41565b9050919050565b60006020820190508181036000830152613dd681613a81565b9050919050565b6000602082019050613df26000830184613ae7565b92915050565b6000604051905081810181811067ffffffffffffffff82111715613e1b57600080fd5b8060405250919050565b600067ffffffffffffffff821115613e3c57600080fd5b601f19601f8301169050602081019050919050565b6000819050602082019050919050565b6000819050602082019050919050565b6000819050602082019050919050565b600081519050919050565b600081519050919050565b600081519050919050565b600081519050919050565b600081519050919050565b6000602082019050919050565b6000602082019050919050565b6000602082019050919050565b600082825260208201905092915050565b600082825260208201905092915050565b600082825260208201905092915050565b600082825260208201905092915050565b600082825260208201905092915050565b600081905092915050565b6000613f4a82613f67565b9050919050565b60008115159050919050565b6000819050919050565b600073ffffffffffffffffffffffffffffffffffffffff82169050919050565b6000819050919050565b82818337600083830152505050565b60005b83811015613fbe578082015181840152602081019050613fa3565b83811115613fcd576000848401525b50505050565b6000601f19601f8301169050919050565b613fed81613f3f565b8114613ff857600080fd5b50565b61400481613f5d565b811461400f57600080fd5b50565b61401b81613f87565b811461402657600080fd5b5056fea264697066735822122013129364bf079821bd9534b4b6fd03278177ba44d41216e0809b34cb990b38ac64736f6c63430006020033",
  "source": "// SPDX-License-Identifier: MIT\r\npragma experimental ABIEncoderV2;\r\npragma solidity >=0.6.0;\r\nimport \"@openzeppelin/contracts/access/Ownable.sol\";\r\nimport \"@openzeppelin/contracts/access/AccessControl.sol\";\r\n\r\ncontract Meme is Ownable, AccessControl {\r\n\r\n  bytes32 public constant USER_ROLE = keccak256(\"USER_ROLE\"); //  enum State { Created, Locked, Inactive }\r\n  \r\n  // array of structs // 0 default \r\n  struct userData {\r\n\r\n    bool userExists; \r\n    string acceptTermsConditionsDate; \r\n    string username;\r\n\r\n    bytes32[] imageHashes;\r\n    bytes32[] imageNames;\r\n    bytes32[] imageHashesSharedWithUser;\r\n    bytes32[] imageNamesSharedWithUser;\r\n    string[] dateImageUpload;\r\n\r\n    bytes32[] fileHashes;\r\n    bytes32[] fileNames;\r\n    bytes32[] fileHashesSharedWithUser;\r\n    bytes32[] fileNamesSharedWithUser;\r\n    string[] dateFileUpload;\r\n\r\n    address[] addressSharedWithUser;\r\n    address[] fileAddressSharedWithUser;\r\n    string[] usernameSharedWithUser;\r\n    string[] fileUsernameSharedWithUser;\r\n\r\n    string[] dateImageShareWithUser;\r\n    string[] dateFileShareWithUser;\r\n\r\n    // new: user shared files with:\r\n    address[] imageAddressUserSharedWith;\r\n    bytes32[] imageHashUserSharedWith;\r\n\r\n    address[] fileAddressUserSharedWith;\r\n    bytes32[] fileHashUserSharedWith;\r\n\r\n  }\r\n\r\n  mapping (address => userData) idUserData;\r\n\r\n  // onlyOwner fun that add users \r\n  bytes32[] initArr;\r\n  bytes32[] initArrShared;\r\n  function signUpUserOrLogin(string memory _usr, string memory _date) public { // onlyOwner { acc2 can connect, acc3,4 cannot }\r\n    // owner = msg.sender;\r\n    if (!idUserData[msg.sender].userExists) {\r\n      // idUserData[msg.sender].imageHashes = initArr;\r\n      // idUserData[msg.sender].imageNames = initArr;\r\n      // idUserData[msg.sender].fileHashes = initArr;\r\n      // idUserData[msg.sender].fileNames = initArr;\r\n      idUserData[msg.sender].userExists = true;\r\n      idUserData[msg.sender].username = _usr;\r\n      idUserData[msg.sender].acceptTermsConditionsDate = _date;\r\n      // check why do that******** Sign up problem\r\n      idUserData[msg.sender].imageHashesSharedWithUser;// = initArrShared;\r\n      // idUserData[msg.sender].imageNamesSharedWithUser; \r\n      idUserData[msg.sender].fileHashesSharedWithUser;// = initArrShared;\r\n      // idUserData[msg.sender].fileNamesSharedWithUser; \r\n      // idUserData[msg.sender].addressSharedWithUser;\r\n      // idUserData[msg.sender].usernameSharedWithUser;\r\n      // idUserData[msg.sender].fileAddressSharedWithUser;   \r\n      // idUserData[msg.sender].fileUsernameSharedWithUser;  \r\n\r\n      _setupRole(USER_ROLE, msg.sender);\r\n    } // else user already exists\r\n  }\r\n\r\n  // set msg.sender [from who it was shared] \r\n  function shareImage(string memory _usrName, address _address, bytes32 _imageHash, bytes32 _imageName, string memory _date) public {\r\n    require(hasRole(USER_ROLE, msg.sender), \"Caller is not a user\");\r\n\r\n    // prevents duplicate images from being inserted (shared again) - if same file and same address shared the file - do not allow\r\n    bool duplicateFound = false;\r\n    for (uint i = 0; i < idUserData[_address].imageHashesSharedWithUser.length; i++) {\r\n      if (idUserData[_address].imageHashesSharedWithUser[i] == _imageHash && idUserData[_address].addressSharedWithUser[i] == msg.sender && idUserData[_address].imageNamesSharedWithUser[i] == _imageName) {\r\n        duplicateFound = true;\r\n        break;\r\n      }\r\n    }\r\n    if (!duplicateFound) {\r\n      idUserData[_address].imageHashesSharedWithUser.push(_imageHash);\r\n      idUserData[_address].imageNamesSharedWithUser.push(_imageName);\r\n      idUserData[_address].usernameSharedWithUser.push(_usrName);\r\n      idUserData[_address].addressSharedWithUser.push(msg.sender); \r\n      idUserData[_address].dateImageShareWithUser.push(_date);\r\n\r\n      // new: User shared a file//image with the following address\r\n      idUserData[msg.sender].imageAddressUserSharedWith.push(_address);\r\n      idUserData[msg.sender].imageHashUserSharedWith.push(_imageHash);\r\n\r\n    } \r\n    // return duplicateFound;\r\n    //************** */ else alert user that it has already been shared with that user\r\n  }\r\n\r\n  function getSharedImageArr() public view returns (bytes32[] memory, bytes32[] memory, address[] memory, string[] memory, string[] memory) { \r\n    require(hasRole(USER_ROLE, msg.sender), \"Caller is not a user\");\r\n    return (idUserData[msg.sender].imageHashesSharedWithUser, idUserData[msg.sender].imageNamesSharedWithUser,\r\n    idUserData[msg.sender].addressSharedWithUser, idUserData[msg.sender].usernameSharedWithUser, idUserData[msg.sender].dateImageShareWithUser); \r\n  }\r\n\r\n\r\n    // set msg.sender [from who it was shared] \r\n  function shareFile(string memory _usrName, address _address, bytes32 _fileHash, bytes32 _fileName, string memory _date) public {\r\n    require(hasRole(USER_ROLE, msg.sender), \"Caller is not a user\");\r\n\r\n    // prevents duplicate files from being inserted (shared again)\r\n    bool duplicateFound = false;\r\n    for (uint i = 0; i < idUserData[_address].fileHashesSharedWithUser.length; i++) {\r\n      if (idUserData[_address].fileHashesSharedWithUser[i] == _fileHash && idUserData[_address].fileAddressSharedWithUser[i] == msg.sender && idUserData[_address].fileNamesSharedWithUser[i] == _fileName) {\r\n        duplicateFound = true;\r\n        break;\r\n      }\r\n    }\r\n    if (!duplicateFound) {\r\n      idUserData[_address].fileHashesSharedWithUser.push(_fileHash);\r\n      idUserData[_address].fileNamesSharedWithUser.push(_fileName);\r\n      idUserData[_address].fileUsernameSharedWithUser.push(_usrName);\r\n      idUserData[_address].fileAddressSharedWithUser.push(msg.sender); \r\n      idUserData[_address].dateFileShareWithUser.push(_date);\r\n\r\n      // new: User shared a file//image with the following address\r\n      idUserData[msg.sender].fileAddressUserSharedWith.push(_address);\r\n      idUserData[msg.sender].fileHashUserSharedWith.push(_fileHash);\r\n    } \r\n    // return duplicateFound;\r\n    //************** */ else alert user that it has already been shared with that user\r\n  }\r\n\r\n  function getSharedFileArr() public view returns (bytes32[] memory, bytes32[] memory, address[] memory, string[] memory, string[] memory) { \r\n    require(hasRole(USER_ROLE, msg.sender), \"Caller is not a user\");\r\n    return (idUserData[msg.sender].fileHashesSharedWithUser, idUserData[msg.sender].fileNamesSharedWithUser,\r\n    idUserData[msg.sender].fileAddressSharedWithUser, idUserData[msg.sender].fileUsernameSharedWithUser, idUserData[msg.sender].dateFileShareWithUser); \r\n  }\r\n\r\n\r\n  function set(bytes32 _imageHash, bytes32 _imageName, string memory _date) public { \r\n    require(hasRole(USER_ROLE, msg.sender), \"Caller is not a user\");\r\n    idUserData[msg.sender].imageHashes.push(_imageHash);\r\n    idUserData[msg.sender].imageNames.push(_imageName); \r\n    idUserData[msg.sender].dateImageUpload.push(_date);\r\n  }\r\n\r\n  function setFile(bytes32 _fileHash, bytes32 _fileName, string memory _date) public { \r\n    require(hasRole(USER_ROLE, msg.sender), \"Caller is not a user\");\r\n    idUserData[msg.sender].fileHashes.push(_fileHash);\r\n    idUserData[msg.sender].fileNames.push(_fileName);\r\n    idUserData[msg.sender].dateFileUpload.push(_date);\r\n  }\r\n\r\n  function get() public view returns (bytes32[] memory, bytes32[] memory, string memory, string[] memory, address[] memory, bytes32[] memory, string memory) {  // CATCH THE EXCEPTION: CALLER IS NOT A USER - HAPPENS WHEN GETS USERNAME \r\n    require(hasRole(USER_ROLE, msg.sender), \"Caller is not a user\");\r\n    return (idUserData[msg.sender].imageHashes, idUserData[msg.sender].imageNames, idUserData[msg.sender].username, idUserData[msg.sender].dateImageUpload,\r\n    idUserData[msg.sender].imageAddressUserSharedWith, idUserData[msg.sender].imageHashUserSharedWith, idUserData[msg.sender].acceptTermsConditionsDate); \r\n  }\r\n\r\n  function getFile() public view returns (bytes32[] memory, bytes32[] memory, string memory, string[] memory, address[] memory, bytes32[] memory) {  // CATCH THE EXCEPTION: CALLER IS NOT A USER - HAPPENS WHEN GETS USERNAME \r\n    require(hasRole(USER_ROLE, msg.sender), \"Caller is not a user\");\r\n    return (idUserData[msg.sender].fileHashes, idUserData[msg.sender].fileNames, idUserData[msg.sender].username, idUserData[msg.sender].dateFileUpload,\r\n    idUserData[msg.sender].fileAddressUserSharedWith, idUserData[msg.sender].fileHashUserSharedWith); \r\n  }\r\n\r\n  // delete: reset variable to default value\r\n  // function deleteImage(address userAddress, uint index) public {\r\n  //   delete idUserData[userAddress].imageHashes[index];\r\n  // }\r\n\r\n  // bytes32[] public imageHashes;\r\n  // function set(bytes32 _imageHash) public { // abstract 0.7.0\r\n  //   imageHashes.push(_imageHash);\r\n  // }\r\n\r\n  // function get() public view returns (bytes32[] memory) { //internal dw\r\n  //   return imageHashes;\r\n  // }\r\n}",
  "sourcePath": "/mnt/c/Users/theod/git/y3_project/contracts/Meme.sol",
  "compiler": {
    "name": "solc",
    "version": "0.6.2+commit.bacdbe57.Emscripten.clang"
  },
  "schemaVersion": "3.2.5",
  "updatedAt": "2021-02-27T19:40:16.832Z",
  "networkType": "ethereum",
  "devdoc": {
    "methods": {
      "getRoleAdmin(bytes32)": {
        "details": "Returns the admin role that controls `role`. See {grantRole} and {revokeRole}.     * To change a role's admin, use {_setRoleAdmin}."
      },
      "getRoleMember(bytes32,uint256)": {
        "details": "Returns one of the accounts that have `role`. `index` must be a value between 0 and {getRoleMemberCount}, non-inclusive.     * Role bearers are not sorted in any particular way, and their ordering may change at any point.     * WARNING: When using {getRoleMember} and {getRoleMemberCount}, make sure you perform all queries on the same block. See the following https://forum.openzeppelin.com/t/iterating-over-elements-on-enumerableset-in-openzeppelin-contracts/2296[forum post] for more information."
      },
      "getRoleMemberCount(bytes32)": {
        "details": "Returns the number of accounts that have `role`. Can be used together with {getRoleMember} to enumerate all bearers of a role."
      },
      "grantRole(bytes32,address)": {
        "details": "Grants `role` to `account`.     * If `account` had not been already granted `role`, emits a {RoleGranted} event.     * Requirements:     * - the caller must have ``role``'s admin role."
      },
      "hasRole(bytes32,address)": {
        "details": "Returns `true` if `account` has been granted `role`."
      },
      "owner()": {
        "details": "Returns the address of the current owner."
      },
      "renounceOwnership()": {
        "details": "Leaves the contract without owner. It will not be possible to call `onlyOwner` functions anymore. Can only be called by the current owner.     * NOTE: Renouncing ownership will leave the contract without an owner, thereby removing any functionality that is only available to the owner."
      },
      "renounceRole(bytes32,address)": {
        "details": "Revokes `role` from the calling account.     * Roles are often managed via {grantRole} and {revokeRole}: this function's purpose is to provide a mechanism for accounts to lose their privileges if they are compromised (such as when a trusted device is misplaced).     * If the calling account had been granted `role`, emits a {RoleRevoked} event.     * Requirements:     * - the caller must be `account`."
      },
      "revokeRole(bytes32,address)": {
        "details": "Revokes `role` from `account`.     * If `account` had been granted `role`, emits a {RoleRevoked} event.     * Requirements:     * - the caller must have ``role``'s admin role."
      },
      "transferOwnership(address)": {
        "details": "Transfers ownership of the contract to a new account (`newOwner`). Can only be called by the current owner."
      }
    }
  },
  "userdoc": {
    "methods": {}
  }
}