{
  "contractName": "Meme",
  "abi": [
    {
      "anonymous": false,
      "inputs": [
        {
          "indexed": true,
          "internalType": "address",
          "name": "previousOwner",
          "type": "address"
        },
        {
          "indexed": true,
          "internalType": "address",
          "name": "newOwner",
          "type": "address"
        }
      ],
      "name": "OwnershipTransferred",
      "type": "event"
    },
    {
      "anonymous": false,
      "inputs": [
        {
          "indexed": true,
          "internalType": "bytes32",
          "name": "role",
          "type": "bytes32"
        },
        {
          "indexed": true,
          "internalType": "bytes32",
          "name": "previousAdminRole",
          "type": "bytes32"
        },
        {
          "indexed": true,
          "internalType": "bytes32",
          "name": "newAdminRole",
          "type": "bytes32"
        }
      ],
      "name": "RoleAdminChanged",
      "type": "event"
    },
    {
      "anonymous": false,
      "inputs": [
        {
          "indexed": true,
          "internalType": "bytes32",
          "name": "role",
          "type": "bytes32"
        },
        {
          "indexed": true,
          "internalType": "address",
          "name": "account",
          "type": "address"
        },
        {
          "indexed": true,
          "internalType": "address",
          "name": "sender",
          "type": "address"
        }
      ],
      "name": "RoleGranted",
      "type": "event"
    },
    {
      "anonymous": false,
      "inputs": [
        {
          "indexed": true,
          "internalType": "bytes32",
          "name": "role",
          "type": "bytes32"
        },
        {
          "indexed": true,
          "internalType": "address",
          "name": "account",
          "type": "address"
        },
        {
          "indexed": true,
          "internalType": "address",
          "name": "sender",
          "type": "address"
        }
      ],
      "name": "RoleRevoked",
      "type": "event"
    },
    {
      "inputs": [],
      "name": "DEFAULT_ADMIN_ROLE",
      "outputs": [
        {
          "internalType": "bytes32",
          "name": "",
          "type": "bytes32"
        }
      ],
      "stateMutability": "view",
      "type": "function",
      "constant": true
    },
    {
      "inputs": [],
      "name": "USER_ROLE",
      "outputs": [
        {
          "internalType": "bytes32",
          "name": "",
          "type": "bytes32"
        }
      ],
      "stateMutability": "view",
      "type": "function",
      "constant": true
    },
    {
      "inputs": [
        {
          "internalType": "bytes32",
          "name": "role",
          "type": "bytes32"
        }
      ],
      "name": "getRoleAdmin",
      "outputs": [
        {
          "internalType": "bytes32",
          "name": "",
          "type": "bytes32"
        }
      ],
      "stateMutability": "view",
      "type": "function",
      "constant": true
    },
    {
      "inputs": [
        {
          "internalType": "bytes32",
          "name": "role",
          "type": "bytes32"
        },
        {
          "internalType": "uint256",
          "name": "index",
          "type": "uint256"
        }
      ],
      "name": "getRoleMember",
      "outputs": [
        {
          "internalType": "address",
          "name": "",
          "type": "address"
        }
      ],
      "stateMutability": "view",
      "type": "function",
      "constant": true
    },
    {
      "inputs": [
        {
          "internalType": "bytes32",
          "name": "role",
          "type": "bytes32"
        }
      ],
      "name": "getRoleMemberCount",
      "outputs": [
        {
          "internalType": "uint256",
          "name": "",
          "type": "uint256"
        }
      ],
      "stateMutability": "view",
      "type": "function",
      "constant": true
    },
    {
      "inputs": [
        {
          "internalType": "bytes32",
          "name": "role",
          "type": "bytes32"
        },
        {
          "internalType": "address",
          "name": "account",
          "type": "address"
        }
      ],
      "name": "grantRole",
      "outputs": [],
      "stateMutability": "nonpayable",
      "type": "function"
    },
    {
      "inputs": [
        {
          "internalType": "bytes32",
          "name": "role",
          "type": "bytes32"
        },
        {
          "internalType": "address",
          "name": "account",
          "type": "address"
        }
      ],
      "name": "hasRole",
      "outputs": [
        {
          "internalType": "bool",
          "name": "",
          "type": "bool"
        }
      ],
      "stateMutability": "view",
      "type": "function",
      "constant": true
    },
    {
      "inputs": [],
      "name": "owner",
      "outputs": [
        {
          "internalType": "address",
          "name": "",
          "type": "address"
        }
      ],
      "stateMutability": "view",
      "type": "function",
      "constant": true
    },
    {
      "inputs": [],
      "name": "renounceOwnership",
      "outputs": [],
      "stateMutability": "nonpayable",
      "type": "function"
    },
    {
      "inputs": [
        {
          "internalType": "bytes32",
          "name": "role",
          "type": "bytes32"
        },
        {
          "internalType": "address",
          "name": "account",
          "type": "address"
        }
      ],
      "name": "renounceRole",
      "outputs": [],
      "stateMutability": "nonpayable",
      "type": "function"
    },
    {
      "inputs": [
        {
          "internalType": "bytes32",
          "name": "role",
          "type": "bytes32"
        },
        {
          "internalType": "address",
          "name": "account",
          "type": "address"
        }
      ],
      "name": "revokeRole",
      "outputs": [],
      "stateMutability": "nonpayable",
      "type": "function"
    },
    {
      "inputs": [
        {
          "internalType": "address",
          "name": "newOwner",
          "type": "address"
        }
      ],
      "name": "transferOwnership",
      "outputs": [],
      "stateMutability": "nonpayable",
      "type": "function"
    },
    {
      "inputs": [
        {
          "internalType": "string",
          "name": "_usr",
          "type": "string"
        },
        {
          "internalType": "string",
          "name": "_date",
          "type": "string"
        }
      ],
      "name": "signUpUserOrLogin",
      "outputs": [],
      "stateMutability": "nonpayable",
      "type": "function"
    },
    {
      "inputs": [
        {
          "internalType": "string",
          "name": "_usrName",
          "type": "string"
        },
        {
          "internalType": "address",
          "name": "_address",
          "type": "address"
        },
        {
          "internalType": "bytes32",
          "name": "_imageHash",
          "type": "bytes32"
        },
        {
          "internalType": "bytes32",
          "name": "_imageName",
          "type": "bytes32"
        },
        {
          "internalType": "string",
          "name": "_date",
          "type": "string"
        },
        {
          "internalType": "bool",
          "name": "_viewOnly",
          "type": "bool"
        }
      ],
      "name": "shareImage",
      "outputs": [],
      "stateMutability": "nonpayable",
      "type": "function"
    },
    {
      "inputs": [],
      "name": "getSharedImageArr",
      "outputs": [
        {
          "internalType": "bytes32[]",
          "name": "",
          "type": "bytes32[]"
        },
        {
          "internalType": "bytes32[]",
          "name": "",
          "type": "bytes32[]"
        },
        {
          "internalType": "address[]",
          "name": "",
          "type": "address[]"
        },
        {
          "internalType": "string[]",
          "name": "",
          "type": "string[]"
        },
        {
          "internalType": "string[]",
          "name": "",
          "type": "string[]"
        },
        {
          "internalType": "bool[]",
          "name": "",
          "type": "bool[]"
        }
      ],
      "stateMutability": "view",
      "type": "function",
      "constant": true
    },
    {
      "inputs": [
        {
          "internalType": "string",
          "name": "_usrName",
          "type": "string"
        },
        {
          "internalType": "address",
          "name": "_address",
          "type": "address"
        },
        {
          "internalType": "bytes32",
          "name": "_fileHash",
          "type": "bytes32"
        },
        {
          "internalType": "bytes32",
          "name": "_fileName",
          "type": "bytes32"
        },
        {
          "internalType": "string",
          "name": "_date",
          "type": "string"
        },
        {
          "internalType": "bool",
          "name": "_viewOnly",
          "type": "bool"
        }
      ],
      "name": "shareFile",
      "outputs": [],
      "stateMutability": "nonpayable",
      "type": "function"
    },
    {
      "inputs": [],
      "name": "getSharedFileArr",
      "outputs": [
        {
          "internalType": "bytes32[]",
          "name": "",
          "type": "bytes32[]"
        },
        {
          "internalType": "bytes32[]",
          "name": "",
          "type": "bytes32[]"
        },
        {
          "internalType": "address[]",
          "name": "",
          "type": "address[]"
        },
        {
          "internalType": "string[]",
          "name": "",
          "type": "string[]"
        },
        {
          "internalType": "string[]",
          "name": "",
          "type": "string[]"
        },
        {
          "internalType": "bool[]",
          "name": "",
          "type": "bool[]"
        }
      ],
      "stateMutability": "view",
      "type": "function",
      "constant": true
    },
    {
      "inputs": [
        {
          "internalType": "bytes32",
          "name": "_imageHash",
          "type": "bytes32"
        },
        {
          "internalType": "bytes32",
          "name": "_imageName",
          "type": "bytes32"
        },
        {
          "internalType": "string",
          "name": "_date",
          "type": "string"
        }
      ],
      "name": "set",
      "outputs": [],
      "stateMutability": "nonpayable",
      "type": "function"
    },
    {
      "inputs": [
        {
          "internalType": "bytes32",
          "name": "_fileHash",
          "type": "bytes32"
        },
        {
          "internalType": "bytes32",
          "name": "_fileName",
          "type": "bytes32"
        },
        {
          "internalType": "string",
          "name": "_date",
          "type": "string"
        }
      ],
      "name": "setFile",
      "outputs": [],
      "stateMutability": "nonpayable",
      "type": "function"
    },
    {
      "inputs": [],
      "name": "get",
      "outputs": [
        {
          "internalType": "bytes32[]",
          "name": "",
          "type": "bytes32[]"
        },
        {
          "internalType": "bytes32[]",
          "name": "",
          "type": "bytes32[]"
        },
        {
          "internalType": "string",
          "name": "",
          "type": "string"
        },
        {
          "internalType": "string[]",
          "name": "",
          "type": "string[]"
        },
        {
          "internalType": "address[]",
          "name": "",
          "type": "address[]"
        },
        {
          "internalType": "bytes32[]",
          "name": "",
          "type": "bytes32[]"
        },
        {
          "internalType": "string",
          "name": "",
          "type": "string"
        }
      ],
      "stateMutability": "view",
      "type": "function",
      "constant": true
    },
    {
      "inputs": [],
      "name": "getFile",
      "outputs": [
        {
          "internalType": "bytes32[]",
          "name": "",
          "type": "bytes32[]"
        },
        {
          "internalType": "bytes32[]",
          "name": "",
          "type": "bytes32[]"
        },
        {
          "internalType": "string",
          "name": "",
          "type": "string"
        },
        {
          "internalType": "string[]",
          "name": "",
          "type": "string[]"
        },
        {
          "internalType": "address[]",
          "name": "",
          "type": "address[]"
        },
        {
          "internalType": "bytes32[]",
          "name": "",
          "type": "bytes32[]"
        }
      ],
      "stateMutability": "view",
      "type": "function",
      "constant": true
    }
  ],
  "bytecode": "0x6080604052600062000016620000ba60201b60201c565b9050806000806101000a81548173ffffffffffffffffffffffffffffffffffffffff021916908373ffffffffffffffffffffffffffffffffffffffff1602179055508073ffffffffffffffffffffffffffffffffffffffff16600073ffffffffffffffffffffffffffffffffffffffff167f8be0079c531659141344cd1fd0a4f28419497f9722a3daafe3b4186f6b6457e060405160405180910390a350620000c2565b600033905090565b61402c80620000d26000396000f3fe608060405234801561001057600080fd5b50600436106101375760003560e01c806387e3310f116100b8578063c10e3d651161007c578063c10e3d651461032d578063ca15c87314610349578063cf9b75e714610379578063d547741f14610395578063f2fde38b146103b1578063fa0b3ed9146103cd57610137565b806387e3310f146102755780638da5cb5b146102915780639010d07c146102af57806391d14854146102df578063a217fddf1461030f57610137565b80632fa81692116100ff5780632fa81692146101e557806336568abe146102085780636d4ce63c14610224578063715018a61461024857806384acf9631461025257610137565b8063131191611461013c57806313d921581461015a578063248a9ca31461017d5780632ad8cb03146101ad5780632f2ff15d146101c9575b600080fd5b6101446103e9565b6040516101519190613c5f565b60405180910390f35b610162610400565b60405161017496959493929190613a8e565b60405180910390f35b610197600480360361019291908101906132ad565b61096e565b6040516101a49190613c5f565b60405180910390f35b6101c760048036036101c2919081019061346e565b61098e565b005b6101e360048036036101de91908101906132d6565b610b8d565b005b6101ed610c01565b6040516101ff96959493929190613b19565b60405180910390f35b610222600480360361021d91908101906132d6565b611103565b005b61022c611186565b60405161023f9796959493929190613ba4565b60405180910390f35b61025061176b565b005b61025a6118c0565b60405161026c96959493929190613a8e565b60405180910390f35b61028f600480360361028a9190810190613312565b611e2e565b005b610299611fdd565b6040516102a69190613a73565b60405180910390f35b6102c960048036036102c49190810190613379565b612006565b6040516102d69190613a73565b60405180910390f35b6102f960048036036102f491908101906132d6565b612038565b6040516103069190613c44565b60405180910390f35b61031761206a565b6040516103249190613c5f565b60405180910390f35b61034760048036036103429190810190613312565b612071565b005b610363600480360361035e91908101906132ad565b612220565b6040516103709190613d5a565b60405180910390f35b610393600480360361038e91908101906133b5565b612247565b005b6103af60048036036103aa91908101906132d6565b6126a8565b005b6103cb60048036036103c69190810190613284565b61271c565b005b6103e760048036036103e291908101906133b5565b6128e0565b005b6040516103f590613a5e565b604051809103902081565b60608060608060608061042660405161041890613a5e565b604051809103902033612038565b610465576040517f08c379a000000000000000000000000000000000000000000000000000000000815260040161045c90613d1a565b60405180910390fd5b600260003373ffffffffffffffffffffffffffffffffffffffff1673ffffffffffffffffffffffffffffffffffffffff168152602001908152602001600020600c01600260003373ffffffffffffffffffffffffffffffffffffffff1673ffffffffffffffffffffffffffffffffffffffff168152602001908152602001600020600d01600260003373ffffffffffffffffffffffffffffffffffffffff1673ffffffffffffffffffffffffffffffffffffffff168152602001908152602001600020601001600260003373ffffffffffffffffffffffffffffffffffffffff1673ffffffffffffffffffffffffffffffffffffffff168152602001908152602001600020601201600260003373ffffffffffffffffffffffffffffffffffffffff1673ffffffffffffffffffffffffffffffffffffffff168152602001908152602001600020601401600260003373ffffffffffffffffffffffffffffffffffffffff1673ffffffffffffffffffffffffffffffffffffffff1681526020019081526020016000206004018580548060200260200160405190810160405280929190818152602001828054801561063c57602002820191906000526020600020905b815481526020019060010190808311610628575b505050505095508480548060200260200160405190810160405280929190818152602001828054801561068e57602002820191906000526020600020905b81548152602001906001019080831161067a575b505050505094508380548060200260200160405190810160405280929190818152602001828054801561071657602002820191906000526020600020905b8160009054906101000a900473ffffffffffffffffffffffffffffffffffffffff1673ffffffffffffffffffffffffffffffffffffffff16815260200190600101908083116106cc575b5050505050935082805480602002602001604051908101604052809291908181526020016000905b828210156107fa578382906000526020600020018054600181600116156101000203166002900480601f0160208091040260200160405190810160405280929190818152602001828054600181600116156101000203166002900480156107e65780601f106107bb576101008083540402835291602001916107e6565b820191906000526020600020905b8154815290600101906020018083116107c957829003601f168201915b50505050508152602001906001019061073e565b50505050925081805480602002602001604051908101604052809291908181526020016000905b828210156108dd578382906000526020600020018054600181600116156101000203166002900480601f0160208091040260200160405190810160405280929190818152602001828054600181600116156101000203166002900480156108c95780601f1061089e576101008083540402835291602001916108c9565b820191906000526020600020905b8154815290600101906020018083116108ac57829003601f168201915b505050505081526020019060010190610821565b5050505091508080548060200260200160405190810160405280929190818152602001828054801561095357602002820191906000526020600020906000905b82829054906101000a900460ff1615158152602001906001019060208260000104928301926001038202915080841161091d5790505b50505050509050955095509550955095509550909192939495565b600060016000838152602001908152602001600020600201549050919050565b600260003373ffffffffffffffffffffffffffffffffffffffff1673ffffffffffffffffffffffffffffffffffffffff16815260200190815260200160002060000160009054906101000a900460ff16610b89576001600260003373ffffffffffffffffffffffffffffffffffffffff1673ffffffffffffffffffffffffffffffffffffffff16815260200190815260200160002060000160006101000a81548160ff02191690831515021790555081600260003373ffffffffffffffffffffffffffffffffffffffff1673ffffffffffffffffffffffffffffffffffffffff1681526020019081526020016000206002019080519060200190610a93929190613137565b5080600260003373ffffffffffffffffffffffffffffffffffffffff1673ffffffffffffffffffffffffffffffffffffffff1681526020019081526020016000206001019080519060200190610aea929190613137565b50600260003373ffffffffffffffffffffffffffffffffffffffff1673ffffffffffffffffffffffffffffffffffffffff16815260200190815260200160002050600260003373ffffffffffffffffffffffffffffffffffffffff1673ffffffffffffffffffffffffffffffffffffffff16815260200190815260200160002050610b88604051610b7a90613a5e565b604051809103902033612d41565b5b5050565b610bb46001600084815260200190815260200160002060020154610baf612d4f565b612038565b610bf3576040517f08c379a0000000000000000000000000000000000000000000000000000000008152600401610bea90613c9a565b60405180910390fd5b610bfd8282612d57565b5050565b606080606080606080610c27604051610c1990613a5e565b604051809103902033612038565b610c66576040517f08c379a0000000000000000000000000000000000000000000000000000000008152600401610c5d90613d1a565b60405180910390fd5b600260003373ffffffffffffffffffffffffffffffffffffffff1673ffffffffffffffffffffffffffffffffffffffff168152602001908152602001600020600a01600260003373ffffffffffffffffffffffffffffffffffffffff1673ffffffffffffffffffffffffffffffffffffffff168152602001908152602001600020600b01600260003373ffffffffffffffffffffffffffffffffffffffff1673ffffffffffffffffffffffffffffffffffffffff168152602001908152602001600020600201600260003373ffffffffffffffffffffffffffffffffffffffff1673ffffffffffffffffffffffffffffffffffffffff168152602001908152602001600020600e01600260003373ffffffffffffffffffffffffffffffffffffffff1673ffffffffffffffffffffffffffffffffffffffff168152602001908152602001600020601701600260003373ffffffffffffffffffffffffffffffffffffffff1673ffffffffffffffffffffffffffffffffffffffff16815260200190815260200160002060180185805480602002602001604051908101604052809291908181526020018280548015610e3d57602002820191906000526020600020905b815481526020019060010190808311610e29575b5050505050955084805480602002602001604051908101604052809291908181526020018280548015610e8f57602002820191906000526020600020905b815481526020019060010190808311610e7b575b50505050509450838054600181600116156101000203166002900480601f016020809104026020016040519081016040528092919081815260200182805460018160011615610100020316600290048015610f2b5780601f10610f0057610100808354040283529160200191610f2b565b820191906000526020600020905b815481529060010190602001808311610f0e57829003601f168201915b5050505050935082805480602002602001604051908101604052809291908181526020016000905b8282101561100f578382906000526020600020018054600181600116156101000203166002900480601f016020809104026020016040519081016040528092919081815260200182805460018160011615610100020316600290048015610ffb5780601f10610fd057610100808354040283529160200191610ffb565b820191906000526020600020905b815481529060010190602001808311610fde57829003601f168201915b505050505081526020019060010190610f53565b5050505092508180548060200260200160405190810160405280929190818152602001828054801561109657602002820191906000526020600020905b8160009054906101000a900473ffffffffffffffffffffffffffffffffffffffff1673ffffffffffffffffffffffffffffffffffffffff168152602001906001019080831161104c575b50505050509150808054806020026020016040519081016040528092919081815260200182805480156110e857602002820191906000526020600020905b8154815260200190600101908083116110d4575b50505050509050955095509550955095509550909192939495565b61110b612d4f565b73ffffffffffffffffffffffffffffffffffffffff168173ffffffffffffffffffffffffffffffffffffffff1614611178576040517f08c379a000000000000000000000000000000000000000000000000000000000815260040161116f90613d3a565b60405180910390fd5b6111828282612deb565b5050565b60608060608060608060606111ae6040516111a090613a5e565b604051809103902033612038565b6111ed576040517f08c379a00000000000000000000000000000000000000000000000000000000081526004016111e490613d1a565b60405180910390fd5b600260003373ffffffffffffffffffffffffffffffffffffffff1673ffffffffffffffffffffffffffffffffffffffff168152602001908152602001600020600501600260003373ffffffffffffffffffffffffffffffffffffffff1673ffffffffffffffffffffffffffffffffffffffff168152602001908152602001600020600601600260003373ffffffffffffffffffffffffffffffffffffffff1673ffffffffffffffffffffffffffffffffffffffff168152602001908152602001600020600201600260003373ffffffffffffffffffffffffffffffffffffffff1673ffffffffffffffffffffffffffffffffffffffff168152602001908152602001600020600901600260003373ffffffffffffffffffffffffffffffffffffffff1673ffffffffffffffffffffffffffffffffffffffff168152602001908152602001600020601501600260003373ffffffffffffffffffffffffffffffffffffffff1673ffffffffffffffffffffffffffffffffffffffff168152602001908152602001600020601601600260003373ffffffffffffffffffffffffffffffffffffffff1673ffffffffffffffffffffffffffffffffffffffff1681526020019081526020016000206001018680548060200260200160405190810160405280929190818152602001828054801561140657602002820191906000526020600020905b8154815260200190600101908083116113f2575b505050505096508580548060200260200160405190810160405280929190818152602001828054801561145857602002820191906000526020600020905b815481526020019060010190808311611444575b50505050509550848054600181600116156101000203166002900480601f0160208091040260200160405190810160405280929190818152602001828054600181600116156101000203166002900480156114f45780601f106114c9576101008083540402835291602001916114f4565b820191906000526020600020905b8154815290600101906020018083116114d757829003601f168201915b5050505050945083805480602002602001604051908101604052809291908181526020016000905b828210156115d8578382906000526020600020018054600181600116156101000203166002900480601f0160208091040260200160405190810160405280929190818152602001828054600181600116156101000203166002900480156115c45780601f10611599576101008083540402835291602001916115c4565b820191906000526020600020905b8154815290600101906020018083116115a757829003601f168201915b50505050508152602001906001019061151c565b5050505093508280548060200260200160405190810160405280929190818152602001828054801561165f57602002820191906000526020600020905b8160009054906101000a900473ffffffffffffffffffffffffffffffffffffffff1673ffffffffffffffffffffffffffffffffffffffff1681526020019060010190808311611615575b50505050509250818054806020026020016040519081016040528092919081815260200182805480156116b157602002820191906000526020600020905b81548152602001906001019080831161169d575b50505050509150808054600181600116156101000203166002900480601f01602080910402602001604051908101604052809291908181526020018280546001816001161561010002031660029004801561174d5780601f106117225761010080835404028352916020019161174d565b820191906000526020600020905b81548152906001019060200180831161173057829003601f168201915b50505050509050965096509650965096509650965090919293949596565b611773612d4f565b73ffffffffffffffffffffffffffffffffffffffff166000809054906101000a900473ffffffffffffffffffffffffffffffffffffffff1673ffffffffffffffffffffffffffffffffffffffff1614611801576040517f08c379a00000000000000000000000000000000000000000000000000000000081526004016117f890613cfa565b60405180910390fd5b600073ffffffffffffffffffffffffffffffffffffffff166000809054906101000a900473ffffffffffffffffffffffffffffffffffffffff1673ffffffffffffffffffffffffffffffffffffffff167f8be0079c531659141344cd1fd0a4f28419497f9722a3daafe3b4186f6b6457e060405160405180910390a360008060006101000a81548173ffffffffffffffffffffffffffffffffffffffff021916908373ffffffffffffffffffffffffffffffffffffffff160217905550565b6060806060806060806118e66040516118d890613a5e565b604051809103902033612038565b611925576040517f08c379a000000000000000000000000000000000000000000000000000000000815260040161191c90613d1a565b60405180910390fd5b600260003373ffffffffffffffffffffffffffffffffffffffff1673ffffffffffffffffffffffffffffffffffffffff168152602001908152602001600020600701600260003373ffffffffffffffffffffffffffffffffffffffff1673ffffffffffffffffffffffffffffffffffffffff168152602001908152602001600020600801600260003373ffffffffffffffffffffffffffffffffffffffff1673ffffffffffffffffffffffffffffffffffffffff168152602001908152602001600020600f01600260003373ffffffffffffffffffffffffffffffffffffffff1673ffffffffffffffffffffffffffffffffffffffff168152602001908152602001600020601101600260003373ffffffffffffffffffffffffffffffffffffffff1673ffffffffffffffffffffffffffffffffffffffff168152602001908152602001600020601301600260003373ffffffffffffffffffffffffffffffffffffffff1673ffffffffffffffffffffffffffffffffffffffff16815260200190815260200160002060030185805480602002602001604051908101604052809291908181526020018280548015611afc57602002820191906000526020600020905b815481526020019060010190808311611ae8575b5050505050955084805480602002602001604051908101604052809291908181526020018280548015611b4e57602002820191906000526020600020905b815481526020019060010190808311611b3a575b5050505050945083805480602002602001604051908101604052809291908181526020018280548015611bd657602002820191906000526020600020905b8160009054906101000a900473ffffffffffffffffffffffffffffffffffffffff1673ffffffffffffffffffffffffffffffffffffffff1681526020019060010190808311611b8c575b5050505050935082805480602002602001604051908101604052809291908181526020016000905b82821015611cba578382906000526020600020018054600181600116156101000203166002900480601f016020809104026020016040519081016040528092919081815260200182805460018160011615610100020316600290048015611ca65780601f10611c7b57610100808354040283529160200191611ca6565b820191906000526020600020905b815481529060010190602001808311611c8957829003601f168201915b505050505081526020019060010190611bfe565b50505050925081805480602002602001604051908101604052809291908181526020016000905b82821015611d9d578382906000526020600020018054600181600116156101000203166002900480601f016020809104026020016040519081016040528092919081815260200182805460018160011615610100020316600290048015611d895780601f10611d5e57610100808354040283529160200191611d89565b820191906000526020600020905b815481529060010190602001808311611d6c57829003601f168201915b505050505081526020019060010190611ce1565b50505050915080805480602002602001604051908101604052809291908181526020018280548015611e1357602002820191906000526020600020906000905b82829054906101000a900460ff16151581526020019060010190602082600001049283019260010382029150808411611ddd5790505b50505050509050955095509550955095509550909192939495565b611e4b604051611e3d90613a5e565b604051809103902033612038565b611e8a576040517f08c379a0000000000000000000000000000000000000000000000000000000008152600401611e8190613d1a565b60405180910390fd5b600260003373ffffffffffffffffffffffffffffffffffffffff1673ffffffffffffffffffffffffffffffffffffffff168152602001908152602001600020600a01839080600181540180825580915050600190039060005260206000200160009091909190915055600260003373ffffffffffffffffffffffffffffffffffffffff1673ffffffffffffffffffffffffffffffffffffffff168152602001908152602001600020600b01829080600181540180825580915050600190039060005260206000200160009091909190915055600260003373ffffffffffffffffffffffffffffffffffffffff1673ffffffffffffffffffffffffffffffffffffffff168152602001908152602001600020600e0181908060018154018082558091505060019003906000526020600020016000909190919091509080519060200190611fd7929190613137565b50505050565b60008060009054906101000a900473ffffffffffffffffffffffffffffffffffffffff16905090565b60006120308260016000868152602001908152602001600020600001612e7f90919063ffffffff16565b905092915050565b60006120628260016000868152602001908152602001600020600001612e9990919063ffffffff16565b905092915050565b6000801b81565b61208e60405161208090613a5e565b604051809103902033612038565b6120cd576040517f08c379a00000000000000000000000000000000000000000000000000000000081526004016120c490613d1a565b60405180910390fd5b600260003373ffffffffffffffffffffffffffffffffffffffff1673ffffffffffffffffffffffffffffffffffffffff168152602001908152602001600020600501839080600181540180825580915050600190039060005260206000200160009091909190915055600260003373ffffffffffffffffffffffffffffffffffffffff1673ffffffffffffffffffffffffffffffffffffffff168152602001908152602001600020600601829080600181540180825580915050600190039060005260206000200160009091909190915055600260003373ffffffffffffffffffffffffffffffffffffffff1673ffffffffffffffffffffffffffffffffffffffff1681526020019081526020016000206009018190806001815401808255809150506001900390600052602060002001600090919091909150908051906020019061221a929190613137565b50505050565b600061224060016000848152602001908152602001600020600001612ec9565b9050919050565b61226460405161225690613a5e565b604051809103902033612038565b6122a3576040517f08c379a000000000000000000000000000000000000000000000000000000000815260040161229a90613d1a565b60405180910390fd5b600260008673ffffffffffffffffffffffffffffffffffffffff1673ffffffffffffffffffffffffffffffffffffffff168152602001908152602001600020600c01849080600181540180825580915050600190039060005260206000200160009091909190915055600260008673ffffffffffffffffffffffffffffffffffffffff1673ffffffffffffffffffffffffffffffffffffffff168152602001908152602001600020600d01839080600181540180825580915050600190039060005260206000200160009091909190915055600260008673ffffffffffffffffffffffffffffffffffffffff1673ffffffffffffffffffffffffffffffffffffffff168152602001908152602001600020601201869080600181540180825580915050600190039060005260206000200160009091909190915090805190602001906123f0929190613137565b50600260008673ffffffffffffffffffffffffffffffffffffffff1673ffffffffffffffffffffffffffffffffffffffff168152602001908152602001600020601001339080600181540180825580915050600190039060005260206000200160009091909190916101000a81548173ffffffffffffffffffffffffffffffffffffffff021916908373ffffffffffffffffffffffffffffffffffffffff160217905550600260008673ffffffffffffffffffffffffffffffffffffffff1673ffffffffffffffffffffffffffffffffffffffff1681526020019081526020016000206014018290806001815401808255809150506001900390600052602060002001600090919091909150908051906020019061250f929190613137565b50600260003373ffffffffffffffffffffffffffffffffffffffff1673ffffffffffffffffffffffffffffffffffffffff168152602001908152602001600020601701859080600181540180825580915050600190039060005260206000200160009091909190916101000a81548173ffffffffffffffffffffffffffffffffffffffff021916908373ffffffffffffffffffffffffffffffffffffffff160217905550600260003373ffffffffffffffffffffffffffffffffffffffff1673ffffffffffffffffffffffffffffffffffffffff168152602001908152602001600020601801849080600181540180825580915050600190039060005260206000200160009091909190915055600260008673ffffffffffffffffffffffffffffffffffffffff1673ffffffffffffffffffffffffffffffffffffffff1681526020019081526020016000206004018190806001815401808255809150506001900390600052602060002090602091828204019190069091909190916101000a81548160ff021916908315150217905550505050505050565b6126cf60016000848152602001908152602001600020600201546126ca612d4f565b612038565b61270e576040517f08c379a000000000000000000000000000000000000000000000000000000000815260040161270590613cda565b60405180910390fd5b6127188282612deb565b5050565b612724612d4f565b73ffffffffffffffffffffffffffffffffffffffff166000809054906101000a900473ffffffffffffffffffffffffffffffffffffffff1673ffffffffffffffffffffffffffffffffffffffff16146127b2576040517f08c379a00000000000000000000000000000000000000000000000000000000081526004016127a990613cfa565b60405180910390fd5b600073ffffffffffffffffffffffffffffffffffffffff168173ffffffffffffffffffffffffffffffffffffffff161415612822576040517f08c379a000000000000000000000000000000000000000000000000000000000815260040161281990613cba565b60405180910390fd5b8073ffffffffffffffffffffffffffffffffffffffff166000809054906101000a900473ffffffffffffffffffffffffffffffffffffffff1673ffffffffffffffffffffffffffffffffffffffff167f8be0079c531659141344cd1fd0a4f28419497f9722a3daafe3b4186f6b6457e060405160405180910390a3806000806101000a81548173ffffffffffffffffffffffffffffffffffffffff021916908373ffffffffffffffffffffffffffffffffffffffff16021790555050565b6128fd6040516128ef90613a5e565b604051809103902033612038565b61293c576040517f08c379a000000000000000000000000000000000000000000000000000000000815260040161293390613d1a565b60405180910390fd5b600260008673ffffffffffffffffffffffffffffffffffffffff1673ffffffffffffffffffffffffffffffffffffffff168152602001908152602001600020600701849080600181540180825580915050600190039060005260206000200160009091909190915055600260008673ffffffffffffffffffffffffffffffffffffffff1673ffffffffffffffffffffffffffffffffffffffff168152602001908152602001600020600801839080600181540180825580915050600190039060005260206000200160009091909190915055600260008673ffffffffffffffffffffffffffffffffffffffff1673ffffffffffffffffffffffffffffffffffffffff16815260200190815260200160002060110186908060018154018082558091505060019003906000526020600020016000909190919091509080519060200190612a89929190613137565b50600260008673ffffffffffffffffffffffffffffffffffffffff1673ffffffffffffffffffffffffffffffffffffffff168152602001908152602001600020600f01339080600181540180825580915050600190039060005260206000200160009091909190916101000a81548173ffffffffffffffffffffffffffffffffffffffff021916908373ffffffffffffffffffffffffffffffffffffffff160217905550600260008673ffffffffffffffffffffffffffffffffffffffff1673ffffffffffffffffffffffffffffffffffffffff16815260200190815260200160002060130182908060018154018082558091505060019003906000526020600020016000909190919091509080519060200190612ba8929190613137565b50600260003373ffffffffffffffffffffffffffffffffffffffff1673ffffffffffffffffffffffffffffffffffffffff168152602001908152602001600020601501859080600181540180825580915050600190039060005260206000200160009091909190916101000a81548173ffffffffffffffffffffffffffffffffffffffff021916908373ffffffffffffffffffffffffffffffffffffffff160217905550600260003373ffffffffffffffffffffffffffffffffffffffff1673ffffffffffffffffffffffffffffffffffffffff168152602001908152602001600020601601849080600181540180825580915050600190039060005260206000200160009091909190915055600260008673ffffffffffffffffffffffffffffffffffffffff1673ffffffffffffffffffffffffffffffffffffffff1681526020019081526020016000206003018190806001815401808255809150506001900390600052602060002090602091828204019190069091909190916101000a81548160ff021916908315150217905550505050505050565b612d4b8282612d57565b5050565b600033905090565b612d7f8160016000858152602001908152602001600020600001612ede90919063ffffffff16565b15612de757612d8c612d4f565b73ffffffffffffffffffffffffffffffffffffffff168173ffffffffffffffffffffffffffffffffffffffff16837f2f8788117e7eff1d82e926ec794901d17c78024a50270940304540a733656f0d60405160405180910390a45b5050565b612e138160016000858152602001908152602001600020600001612f0e90919063ffffffff16565b15612e7b57612e20612d4f565b73ffffffffffffffffffffffffffffffffffffffff168173ffffffffffffffffffffffffffffffffffffffff16837ff6391f5c32d9c69d2a47ea670b442974b53935d1edc7fd64eb21e047a839171b60405160405180910390a45b5050565b6000612e8e8360000183612f3e565b60001c905092915050565b6000612ec1836000018373ffffffffffffffffffffffffffffffffffffffff1660001b612fab565b905092915050565b6000612ed782600001612fce565b9050919050565b6000612f06836000018373ffffffffffffffffffffffffffffffffffffffff1660001b612fdf565b905092915050565b6000612f36836000018373ffffffffffffffffffffffffffffffffffffffff1660001b61304f565b905092915050565b600081836000018054905011612f89576040517f08c379a0000000000000000000000000000000000000000000000000000000008152600401612f8090613c7a565b60405180910390fd5b826000018281548110612f9857fe5b9060005260206000200154905092915050565b600080836001016000848152602001908152602001600020541415905092915050565b600081600001805490509050919050565b6000612feb8383612fab565b613044578260000182908060018154018082558091505060019003906000526020600020016000909190919091505582600001805490508360010160008481526020019081526020016000208190555060019050613049565b600090505b92915050565b6000808360010160008481526020019081526020016000205490506000811461312b576000600182039050600060018660000180549050039050600086600001828154811061309a57fe5b90600052602060002001549050808760000184815481106130b757fe5b90600052602060002001819055506001830187600101600083815260200190815260200160002081905550866000018054806130ef57fe5b60019003818190600052602060002001600090559055866001016000878152602001908152602001600020600090556001945050505050613131565b60009150505b92915050565b828054600181600116156101000203166002900490600052602060002090601f016020900481019282601f1061317857805160ff19168380011785556131a6565b828001600101855582156131a6579182015b828111156131a557825182559160200191906001019061318a565b5b5090506131b391906131b7565b5090565b6131d991905b808211156131d55760008160009055506001016131bd565b5090565b90565b6000813590506131eb81613f9a565b92915050565b60008135905061320081613fb1565b92915050565b60008135905061321581613fc8565b92915050565b600082601f83011261322c57600080fd5b813561323f61323a82613da2565b613d75565b9150808252602083016020830185838301111561325b57600080fd5b613266838284613f47565b50505092915050565b60008135905061327e81613fdf565b92915050565b60006020828403121561329657600080fd5b60006132a4848285016131dc565b91505092915050565b6000602082840312156132bf57600080fd5b60006132cd84828501613206565b91505092915050565b600080604083850312156132e957600080fd5b60006132f785828601613206565b9250506020613308858286016131dc565b9150509250929050565b60008060006060848603121561332757600080fd5b600061333586828701613206565b935050602061334686828701613206565b925050604084013567ffffffffffffffff81111561336357600080fd5b61336f8682870161321b565b9150509250925092565b6000806040838503121561338c57600080fd5b600061339a85828601613206565b92505060206133ab8582860161326f565b9150509250929050565b60008060008060008060c087890312156133ce57600080fd5b600087013567ffffffffffffffff8111156133e857600080fd5b6133f489828a0161321b565b965050602061340589828a016131dc565b955050604061341689828a01613206565b945050606061342789828a01613206565b935050608087013567ffffffffffffffff81111561344457600080fd5b61345089828a0161321b565b92505060a061346189828a016131f1565b9150509295509295509295565b6000806040838503121561348157600080fd5b600083013567ffffffffffffffff81111561349b57600080fd5b6134a78582860161321b565b925050602083013567ffffffffffffffff8111156134c457600080fd5b6134d08582860161321b565b9150509250929050565b60006134e68383613536565b60208301905092915050565b60006134fe83836136e3565b60208301905092915050565b60006135168383613701565b60208301905092915050565b600061352e8383613758565b905092915050565b61353f81613ef5565b82525050565b61354e81613ef5565b82525050565b600061355f82613e0e565b6135698185613e84565b935061357483613dce565b8060005b838110156135a557815161358c88826134da565b975061359783613e50565b925050600181019050613578565b5085935050505092915050565b60006135bd82613e19565b6135c78185613e95565b93506135d283613dde565b8060005b838110156136035781516135ea88826134f2565b97506135f583613e5d565b9250506001810190506135d6565b5085935050505092915050565b600061361b82613e24565b6136258185613ea6565b935061363083613dee565b8060005b83811015613661578151613648888261350a565b975061365383613e6a565b925050600181019050613634565b5085935050505092915050565b600061367982613e2f565b6136838185613eb7565b93508360208202850161369585613dfe565b8060005b858110156136d157848403895281516136b28582613522565b94506136bd83613e77565b925060208a01995050600181019050613699565b50829750879550505050505092915050565b6136ec81613f07565b82525050565b6136fb81613f07565b82525050565b61370a81613f13565b82525050565b61371981613f13565b82525050565b600061372a82613e45565b6137348185613ed9565b9350613744818560208601613f56565b61374d81613f89565b840191505092915050565b600061376382613e3a565b61376d8185613ec8565b935061377d818560208601613f56565b61378681613f89565b840191505092915050565b600061379e602283613ed9565b91507f456e756d657261626c655365743a20696e646578206f7574206f6620626f756e60008301527f64730000000000000000000000000000000000000000000000000000000000006020830152604082019050919050565b6000613804602f83613ed9565b91507f416363657373436f6e74726f6c3a2073656e646572206d75737420626520616e60008301527f2061646d696e20746f206772616e7400000000000000000000000000000000006020830152604082019050919050565b600061386a600983613eea565b91507f555345525f524f4c4500000000000000000000000000000000000000000000006000830152600982019050919050565b60006138aa602683613ed9565b91507f4f776e61626c653a206e6577206f776e657220697320746865207a65726f206160008301527f64647265737300000000000000000000000000000000000000000000000000006020830152604082019050919050565b6000613910603083613ed9565b91507f416363657373436f6e74726f6c3a2073656e646572206d75737420626520616e60008301527f2061646d696e20746f207265766f6b65000000000000000000000000000000006020830152604082019050919050565b6000613976602083613ed9565b91507f4f776e61626c653a2063616c6c6572206973206e6f7420746865206f776e65726000830152602082019050919050565b60006139b6601483613ed9565b91507f43616c6c6572206973206e6f74206120757365720000000000000000000000006000830152602082019050919050565b60006139f6602f83613ed9565b91507f416363657373436f6e74726f6c3a2063616e206f6e6c792072656e6f756e636560008301527f20726f6c657320666f722073656c6600000000000000000000000000000000006020830152604082019050919050565b613a5881613f3d565b82525050565b6000613a698261385d565b9150819050919050565b6000602082019050613a886000830184613545565b92915050565b600060c0820190508181036000830152613aa88189613610565b90508181036020830152613abc8188613610565b90508181036040830152613ad08187613554565b90508181036060830152613ae4818661366e565b90508181036080830152613af8818561366e565b905081810360a0830152613b0c81846135b2565b9050979650505050505050565b600060c0820190508181036000830152613b338189613610565b90508181036020830152613b478188613610565b90508181036040830152613b5b818761371f565b90508181036060830152613b6f818661366e565b90508181036080830152613b838185613554565b905081810360a0830152613b978184613610565b9050979650505050505050565b600060e0820190508181036000830152613bbe818a613610565b90508181036020830152613bd28189613610565b90508181036040830152613be6818861371f565b90508181036060830152613bfa818761366e565b90508181036080830152613c0e8186613554565b905081810360a0830152613c228185613610565b905081810360c0830152613c36818461371f565b905098975050505050505050565b6000602082019050613c5960008301846136f2565b92915050565b6000602082019050613c746000830184613710565b92915050565b60006020820190508181036000830152613c9381613791565b9050919050565b60006020820190508181036000830152613cb3816137f7565b9050919050565b60006020820190508181036000830152613cd38161389d565b9050919050565b60006020820190508181036000830152613cf381613903565b9050919050565b60006020820190508181036000830152613d1381613969565b9050919050565b60006020820190508181036000830152613d33816139a9565b9050919050565b60006020820190508181036000830152613d53816139e9565b9050919050565b6000602082019050613d6f6000830184613a4f565b92915050565b6000604051905081810181811067ffffffffffffffff82111715613d9857600080fd5b8060405250919050565b600067ffffffffffffffff821115613db957600080fd5b601f19601f8301169050602081019050919050565b6000819050602082019050919050565b6000819050602082019050919050565b6000819050602082019050919050565b6000819050602082019050919050565b600081519050919050565b600081519050919050565b600081519050919050565b600081519050919050565b600081519050919050565b600081519050919050565b6000602082019050919050565b6000602082019050919050565b6000602082019050919050565b6000602082019050919050565b600082825260208201905092915050565b600082825260208201905092915050565b600082825260208201905092915050565b600082825260208201905092915050565b600082825260208201905092915050565b600082825260208201905092915050565b600081905092915050565b6000613f0082613f1d565b9050919050565b60008115159050919050565b6000819050919050565b600073ffffffffffffffffffffffffffffffffffffffff82169050919050565b6000819050919050565b82818337600083830152505050565b60005b83811015613f74578082015181840152602081019050613f59565b83811115613f83576000848401525b50505050565b6000601f19601f8301169050919050565b613fa381613ef5565b8114613fae57600080fd5b50565b613fba81613f07565b8114613fc557600080fd5b50565b613fd181613f13565b8114613fdc57600080fd5b50565b613fe881613f3d565b8114613ff357600080fd5b5056fea2646970667358221220c00563ec944acb2755b93e9de4f589a37850553c2df747ae07a280c99cf2cd0164736f6c63430006020033",
  "source": "// SPDX-License-Identifier: MIT\r\npragma experimental ABIEncoderV2;\r\npragma solidity >=0.6.0;\r\nimport \"@openzeppelin/contracts/access/Ownable.sol\";\r\nimport \"@openzeppelin/contracts/access/AccessControl.sol\";\r\n\r\ncontract Meme is Ownable, AccessControl {\r\n\r\n  bytes32 public constant USER_ROLE = keccak256(\"USER_ROLE\"); //  enum State { Created, Locked, Inactive }\r\n  \r\n  // array of structs // 0 default \r\n  struct userData {\r\n\r\n    bool userExists; \r\n    string acceptTermsConditionsDate; \r\n    string username;\r\n    bool[] viewOnlyImage;\r\n    bool[] viewOnlyFile;\r\n    // int256 newlySharedItems;\r\n    // if user does getSharedFileArr & getSharedImageArr means that user logged in and is in sharepoint \r\n\r\n    bytes32[] imageHashes;\r\n    bytes32[] imageNames;\r\n    bytes32[] imageHashesSharedWithUser;\r\n    bytes32[] imageNamesSharedWithUser;\r\n    string[] dateImageUpload;\r\n\r\n    bytes32[] fileHashes;\r\n    bytes32[] fileNames;\r\n    bytes32[] fileHashesSharedWithUser;\r\n    bytes32[] fileNamesSharedWithUser;\r\n    string[] dateFileUpload;\r\n\r\n    address[] addressSharedWithUser;\r\n    address[] fileAddressSharedWithUser;\r\n    string[] usernameSharedWithUser;\r\n    string[] fileUsernameSharedWithUser;\r\n\r\n    string[] dateImageShareWithUser;\r\n    string[] dateFileShareWithUser;\r\n\r\n    // new: user shared files with:\r\n    address[] imageAddressUserSharedWith;\r\n    bytes32[] imageHashUserSharedWith;\r\n\r\n    address[] fileAddressUserSharedWith;\r\n    bytes32[] fileHashUserSharedWith;\r\n\r\n  }\r\n\r\n  mapping (address => userData) idUserData;\r\n\r\n  // onlyOwner fun that add users \r\n  bytes32[] initArr;\r\n  bytes32[] initArrShared;\r\n  function signUpUserOrLogin(string memory _usr, string memory _date) public { // onlyOwner { acc2 can connect, acc3,4 cannot }\r\n    // owner = msg.sender;\r\n    if (!idUserData[msg.sender].userExists) {\r\n      // idUserData[msg.sender].imageHashes = initArr;\r\n      // idUserData[msg.sender].imageNames = initArr;\r\n      // idUserData[msg.sender].fileHashes = initArr;\r\n      // idUserData[msg.sender].fileNames = initArr;\r\n      idUserData[msg.sender].userExists = true;\r\n      idUserData[msg.sender].username = _usr;\r\n      idUserData[msg.sender].acceptTermsConditionsDate = _date;\r\n      // check why do that******** Sign up problem\r\n      idUserData[msg.sender].imageHashesSharedWithUser;// = initArrShared;\r\n      // idUserData[msg.sender].imageNamesSharedWithUser; \r\n      idUserData[msg.sender].fileHashesSharedWithUser;// = initArrShared;\r\n      // idUserData[msg.sender].fileNamesSharedWithUser; \r\n      // idUserData[msg.sender].addressSharedWithUser;\r\n      // idUserData[msg.sender].usernameSharedWithUser;\r\n      // idUserData[msg.sender].fileAddressSharedWithUser;   \r\n      // idUserData[msg.sender].fileUsernameSharedWithUser;  \r\n\r\n      _setupRole(USER_ROLE, msg.sender);\r\n    } // else user already exists\r\n  }\r\n\r\n  function shareImage(string memory _usrName, address _address, bytes32 _imageHash, bytes32 _imageName, string memory _date, bool _viewOnly) public {\r\n    require(hasRole(USER_ROLE, msg.sender), \"Caller is not a user\");\r\n\r\n    // prevents duplicate images from being inserted (shared again) - if same file and same address shared the file - do not allow\r\n    // bool duplicateFound = false;\r\n    // for (uint i = 0; i < idUserData[_address].imageHashesSharedWithUser.length; i++) {\r\n    //   if (idUserData[_address].imageHashesSharedWithUser[i] == _imageHash && idUserData[_address].addressSharedWithUser[i] == msg.sender && idUserData[_address].imageNamesSharedWithUser[i] == _imageName) {\r\n    //     duplicateFound = true;\r\n    //     break;\r\n    //   }\r\n    // }\r\n    // if (!duplicateFound) {\r\n      idUserData[_address].imageHashesSharedWithUser.push(_imageHash);\r\n      idUserData[_address].imageNamesSharedWithUser.push(_imageName);\r\n      idUserData[_address].usernameSharedWithUser.push(_usrName);\r\n      idUserData[_address].addressSharedWithUser.push(msg.sender); \r\n      idUserData[_address].dateImageShareWithUser.push(_date);\r\n\r\n      // new: User shared a file//image with the following address - viewOnly option\r\n      idUserData[msg.sender].imageAddressUserSharedWith.push(_address);\r\n      idUserData[msg.sender].imageHashUserSharedWith.push(_imageHash);\r\n      idUserData[_address].viewOnlyImage.push(_viewOnly);\r\n    // }   \r\n  }\r\n\r\n  function getSharedImageArr() public view returns (bytes32[] memory, bytes32[] memory, address[] memory, string[] memory, string[] memory, bool[] memory) { \r\n    require(hasRole(USER_ROLE, msg.sender), \"Caller is not a user\");\r\n    return (idUserData[msg.sender].imageHashesSharedWithUser, idUserData[msg.sender].imageNamesSharedWithUser,\r\n    idUserData[msg.sender].addressSharedWithUser, idUserData[msg.sender].usernameSharedWithUser, idUserData[msg.sender].dateImageShareWithUser,\r\n    idUserData[msg.sender].viewOnlyImage); \r\n  }\r\n\r\n  function shareFile(string memory _usrName, address _address, bytes32 _fileHash, bytes32 _fileName, string memory _date, bool _viewOnly) public {\r\n    require(hasRole(USER_ROLE, msg.sender), \"Caller is not a user\");\r\n\r\n    // prevents duplicate files from being inserted (shared again)\r\n    // bool duplicateFound = false;\r\n    // for (uint i = 0; i < idUserData[_address].fileHashesSharedWithUser.length; i++) {\r\n    //   if (idUserData[_address].fileHashesSharedWithUser[i] == _fileHash && idUserData[_address].fileAddressSharedWithUser[i] == msg.sender && idUserData[_address].fileNamesSharedWithUser[i] == _fileName) {\r\n    //     duplicateFound = true;\r\n    //     break;\r\n    //   }\r\n    // }\r\n    // if (!duplicateFound) {\r\n      idUserData[_address].fileHashesSharedWithUser.push(_fileHash);\r\n      idUserData[_address].fileNamesSharedWithUser.push(_fileName);\r\n      idUserData[_address].fileUsernameSharedWithUser.push(_usrName);\r\n      idUserData[_address].fileAddressSharedWithUser.push(msg.sender); \r\n      idUserData[_address].dateFileShareWithUser.push(_date);\r\n\r\n      // new: User shared a file//image with the following address - viewOnly option\r\n      idUserData[msg.sender].fileAddressUserSharedWith.push(_address);\r\n      idUserData[msg.sender].fileHashUserSharedWith.push(_fileHash);\r\n      idUserData[_address].viewOnlyFile.push(_viewOnly);\r\n    // } \r\n  }\r\n\r\n  function getSharedFileArr() public view returns (bytes32[] memory, bytes32[] memory, address[] memory, string[] memory, string[] memory, bool[] memory) { \r\n    require(hasRole(USER_ROLE, msg.sender), \"Caller is not a user\");\r\n    return (idUserData[msg.sender].fileHashesSharedWithUser, idUserData[msg.sender].fileNamesSharedWithUser,\r\n    idUserData[msg.sender].fileAddressSharedWithUser, idUserData[msg.sender].fileUsernameSharedWithUser, idUserData[msg.sender].dateFileShareWithUser,\r\n    idUserData[msg.sender].viewOnlyFile); \r\n  }\r\n\r\n\r\n  function set(bytes32 _imageHash, bytes32 _imageName, string memory _date) public { \r\n    require(hasRole(USER_ROLE, msg.sender), \"Caller is not a user\");\r\n    idUserData[msg.sender].imageHashes.push(_imageHash);\r\n    idUserData[msg.sender].imageNames.push(_imageName); \r\n    idUserData[msg.sender].dateImageUpload.push(_date);\r\n  }\r\n\r\n  function setFile(bytes32 _fileHash, bytes32 _fileName, string memory _date) public { \r\n    require(hasRole(USER_ROLE, msg.sender), \"Caller is not a user\");\r\n    idUserData[msg.sender].fileHashes.push(_fileHash);\r\n    idUserData[msg.sender].fileNames.push(_fileName);\r\n    idUserData[msg.sender].dateFileUpload.push(_date);\r\n  }\r\n\r\n  // CATCH THE EXCEPTION: CALLER IS NOT A USER - HAPPENS WHEN GETS USERNAME \r\n  function get() public view returns (bytes32[] memory, bytes32[] memory, string memory, string[] memory, address[] memory, bytes32[] memory, string memory) {  \r\n    require(hasRole(USER_ROLE, msg.sender), \"Caller is not a user\");\r\n    return (idUserData[msg.sender].imageHashes, idUserData[msg.sender].imageNames, idUserData[msg.sender].username, idUserData[msg.sender].dateImageUpload,\r\n    idUserData[msg.sender].imageAddressUserSharedWith, idUserData[msg.sender].imageHashUserSharedWith, idUserData[msg.sender].acceptTermsConditionsDate); \r\n  }\r\n\r\n  function getFile() public view returns (bytes32[] memory, bytes32[] memory, string memory, string[] memory, address[] memory, bytes32[] memory) {  // CATCH THE EXCEPTION: CALLER IS NOT A USER - HAPPENS WHEN GETS USERNAME \r\n    require(hasRole(USER_ROLE, msg.sender), \"Caller is not a user\");\r\n    return (idUserData[msg.sender].fileHashes, idUserData[msg.sender].fileNames, idUserData[msg.sender].username, idUserData[msg.sender].dateFileUpload,\r\n    idUserData[msg.sender].fileAddressUserSharedWith, idUserData[msg.sender].fileHashUserSharedWith); \r\n  }\r\n\r\n  // delete: reset variable to default value\r\n  // function deleteImage(address userAddress, uint index) public {\r\n  //   delete idUserData[userAddress].imageHashes[index];\r\n  // }\r\n\r\n  // bytes32[] public imageHashes;\r\n  // function set(bytes32 _imageHash) public { // abstract 0.7.0\r\n  //   imageHashes.push(_imageHash);\r\n  // }\r\n\r\n  // function get() public view returns (bytes32[] memory) { //internal dw\r\n  //   return imageHashes;\r\n  // }\r\n}",
  "sourcePath": "/mnt/c/Users/theod/git/y3_project/contracts/Meme.sol",
  "compiler": {
    "name": "solc",
    "version": "0.6.2+commit.bacdbe57.Emscripten.clang"
  },
  "schemaVersion": "3.2.5",
  "updatedAt": "2021-03-05T21:55:22.455Z",
  "networkType": "ethereum",
  "devdoc": {
    "methods": {
      "getRoleAdmin(bytes32)": {
        "details": "Returns the admin role that controls `role`. See {grantRole} and {revokeRole}.     * To change a role's admin, use {_setRoleAdmin}."
      },
      "getRoleMember(bytes32,uint256)": {
        "details": "Returns one of the accounts that have `role`. `index` must be a value between 0 and {getRoleMemberCount}, non-inclusive.     * Role bearers are not sorted in any particular way, and their ordering may change at any point.     * WARNING: When using {getRoleMember} and {getRoleMemberCount}, make sure you perform all queries on the same block. See the following https://forum.openzeppelin.com/t/iterating-over-elements-on-enumerableset-in-openzeppelin-contracts/2296[forum post] for more information."
      },
      "getRoleMemberCount(bytes32)": {
        "details": "Returns the number of accounts that have `role`. Can be used together with {getRoleMember} to enumerate all bearers of a role."
      },
      "grantRole(bytes32,address)": {
        "details": "Grants `role` to `account`.     * If `account` had not been already granted `role`, emits a {RoleGranted} event.     * Requirements:     * - the caller must have ``role``'s admin role."
      },
      "hasRole(bytes32,address)": {
        "details": "Returns `true` if `account` has been granted `role`."
      },
      "owner()": {
        "details": "Returns the address of the current owner."
      },
      "renounceOwnership()": {
        "details": "Leaves the contract without owner. It will not be possible to call `onlyOwner` functions anymore. Can only be called by the current owner.     * NOTE: Renouncing ownership will leave the contract without an owner, thereby removing any functionality that is only available to the owner."
      },
      "renounceRole(bytes32,address)": {
        "details": "Revokes `role` from the calling account.     * Roles are often managed via {grantRole} and {revokeRole}: this function's purpose is to provide a mechanism for accounts to lose their privileges if they are compromised (such as when a trusted device is misplaced).     * If the calling account had been granted `role`, emits a {RoleRevoked} event.     * Requirements:     * - the caller must be `account`."
      },
      "revokeRole(bytes32,address)": {
        "details": "Revokes `role` from `account`.     * If `account` had been granted `role`, emits a {RoleRevoked} event.     * Requirements:     * - the caller must have ``role``'s admin role."
      },
      "transferOwnership(address)": {
        "details": "Transfers ownership of the contract to a new account (`newOwner`). Can only be called by the current owner."
      }
    }
  },
  "userdoc": {
    "methods": {}
  }
}