{
  "contractName": "Meme",
  "abi": [
    {
      "constant": true,
      "inputs": [
        {
          "internalType": "uint256",
          "name": "",
          "type": "uint256"
        }
      ],
      "name": "imageHashes",
      "outputs": [
        {
          "internalType": "bytes32",
          "name": "",
          "type": "bytes32"
        }
      ],
      "payable": false,
      "stateMutability": "view",
      "type": "function"
    },
    {
      "constant": false,
      "inputs": [
        {
          "internalType": "bytes32",
          "name": "_imageHash",
          "type": "bytes32"
        }
      ],
      "name": "set",
      "outputs": [],
      "payable": false,
      "stateMutability": "nonpayable",
      "type": "function"
    },
    {
      "constant": true,
      "inputs": [],
      "name": "get",
      "outputs": [
        {
          "internalType": "bytes32[]",
          "name": "",
          "type": "bytes32[]"
        }
      ],
      "payable": false,
      "stateMutability": "view",
      "type": "function"
    }
  ],
  "bytecode": "0x608060405234801561001057600080fd5b506101f2806100206000396000f3fe608060405234801561001057600080fd5b50600436106100415760003560e01c80636d4ce63c14610046578063a8d4ab6c146100a5578063db80813f146100e7575b600080fd5b61004e610115565b6040518080602001828103825283818151815260200191508051906020019060200280838360005b83811015610091578082015181840152602081019050610076565b505050509050019250505060405180910390f35b6100d1600480360360208110156100bb57600080fd5b810190808035906020019092919050505061016d565b6040518082815260200191505060405180910390f35b610113600480360360208110156100fd57600080fd5b810190808035906020019092919050505061018e565b005b6060600080548060200260200160405190810160405280929190818152602001828054801561016357602002820191906000526020600020905b81548152602001906001019080831161014f575b5050505050905090565b6000818154811061017a57fe5b906000526020600020016000915090505481565b60008190806001815401808255809150509060018203906000526020600020016000909192909190915055505056fea265627a7a7231582097df87da9238ac268b9c48811f26922ecae57cb05e48ae410134484da1b5b26664736f6c63430005100032",
  "source": "// SPDX-License-Identifier: MIT\r\npragma solidity >=0.4.0;\r\n// pragma experimental ABIEncoderV2;\r\n\r\ncontract Meme {\r\n\r\n  bytes32[] public imageHashes;\r\n\r\n  function set(bytes32 _imageHash) public { // abstract 0.7.0\r\n    imageHashes.push(_imageHash);\r\n  }\r\n\r\n  function get() public view returns (bytes32[] memory) { //internal dw\r\n    return imageHashes;\r\n  }\r\n}",
  "sourcePath": "/mnt/c/Users/theod/git/y3_project/contracts/Meme.sol",
  "compiler": {
    "name": "solc",
    "version": "0.5.16+commit.9c3226ce.Emscripten.clang"
  },
  "schemaVersion": "3.2.5",
  "updatedAt": "2020-10-13T00:13:25.721Z",
  "networkType": "ethereum",
  "devdoc": {
    "methods": {}
  },
  "userdoc": {
    "methods": {}
  }
}