{
  "contractName": "Meme",
  "abi": [
    {
      "constant": false,
      "inputs": [
        {
          "internalType": "address",
          "name": "_address",
          "type": "address"
        }
      ],
      "name": "signUpUserOrLogin",
      "outputs": [
        {
          "internalType": "bool",
          "name": "",
          "type": "bool"
        }
      ],
      "payable": false,
      "stateMutability": "nonpayable",
      "type": "function"
    },
    {
      "constant": false,
      "inputs": [
        {
          "internalType": "address",
          "name": "userAddress",
          "type": "address"
        },
        {
          "internalType": "bytes32",
          "name": "_imageHash",
          "type": "bytes32"
        }
      ],
      "name": "set",
      "outputs": [],
      "payable": false,
      "stateMutability": "nonpayable",
      "type": "function"
    },
    {
      "constant": true,
      "inputs": [
        {
          "internalType": "address",
          "name": "userAddress",
          "type": "address"
        }
      ],
      "name": "get",
      "outputs": [
        {
          "internalType": "bytes32[]",
          "name": "",
          "type": "bytes32[]"
        }
      ],
      "payable": false,
      "stateMutability": "view",
      "type": "function"
    }
  ],
  "bytecode": "0x608060405234801561001057600080fd5b5061044d806100206000396000f3fe608060405234801561001057600080fd5b50600436106100415760003560e01c806306673ad5146100465780633e7b8e71146100a2578063c2bc2efc146100f0575b600080fd5b6100886004803603602081101561005c57600080fd5b81019080803573ffffffffffffffffffffffffffffffffffffffff169060200190929190505050610189565b604051808215151515815260200191505060405180910390f35b6100ee600480360360408110156100b857600080fd5b81019080803573ffffffffffffffffffffffffffffffffffffffff16906020019092919080359060200190929190505050610299565b005b6101326004803603602081101561010657600080fd5b81019080803573ffffffffffffffffffffffffffffffffffffffff169060200190929190505050610308565b6040518080602001828103825283818151815260200191508051906020019060200280838360005b8381101561017557808201518184015260208101905061015a565b505050509050019250505060405180910390f35b600080600190506000808473ffffffffffffffffffffffffffffffffffffffff1673ffffffffffffffffffffffffffffffffffffffff16815260200190815260200160002060010160009054906101000a900460ff166102905760016000808573ffffffffffffffffffffffffffffffffffffffff1673ffffffffffffffffffffffffffffffffffffffff1681526020019081526020016000206000019080546102349291906103a1565b5060016000808573ffffffffffffffffffffffffffffffffffffffff1673ffffffffffffffffffffffffffffffffffffffff16815260200190815260200160002060010160006101000a81548160ff0219169083151502179055505b80915050919050565b6000808373ffffffffffffffffffffffffffffffffffffffff1673ffffffffffffffffffffffffffffffffffffffff1681526020019081526020016000206000018190806001815401808255809150509060018203906000526020600020016000909192909190915055505050565b60606000808373ffffffffffffffffffffffffffffffffffffffff1673ffffffffffffffffffffffffffffffffffffffff16815260200190815260200160002060000180548060200260200160405190810160405280929190818152602001828054801561039557602002820191906000526020600020905b815481526020019060010190808311610381575b50505050509050919050565b8280548282559060005260206000209081019282156103e25760005260206000209182015b828111156103e15782548255916001019190600101906103c6565b5b5090506103ef91906103f3565b5090565b61041591905b808211156104115760008160009055506001016103f9565b5090565b9056fea265627a7a7231582045b5dff3f90faecbf71e36ad41d6421e882cd90e2e74ad7f31eb7e76714fac1864736f6c63430005100032",
  "source": "// SPDX-License-Identifier: MIT\r\npragma solidity >=0.4.0;\r\n// pragma experimental ABIEncoderV2;\r\n\r\ncontract Meme {\r\n\r\n// array of structs \r\n  struct userData {\r\n    bytes32[] imageHashes;\r\n    bool userExists; // 0 default \r\n  }\r\n\r\n  mapping (address => userData) idUserData;\r\n\r\n  bytes32[] initArr;\r\n  function signUpUserOrLogin(address _address) public returns (bool) {\r\n    bool authenticated = true;\r\n\r\n    if (!idUserData[_address].userExists) {\r\n      idUserData[_address].imageHashes = initArr;\r\n      idUserData[_address].userExists = true;\r\n    } // else user already exists  try catch\r\n\r\n    return authenticated;\r\n  }\r\n\r\n  function set(address userAddress, bytes32 _imageHash) public { // abstract 0.7.3\r\n    idUserData[userAddress].imageHashes.push(_imageHash);\r\n  }\r\n\r\n  function get(address userAddress) public view returns (bytes32[] memory) { //internal dwk\r\n    return idUserData[userAddress].imageHashes; //imageHashes;\r\n  }\r\n  // bytes32[] public imageHashes;\r\n  // function set(bytes32 _imageHash) public { // abstract 0.7.0\r\n  //   imageHashes.push(_imageHash);\r\n  // }\r\n\r\n  // function get() public view returns (bytes32[] memory) { //internal dw\r\n  //   return imageHashes;\r\n  // }\r\n}",
  "sourcePath": "/mnt/c/Users/theod/git/y3_project/contracts/Meme.sol",
  "compiler": {
    "name": "solc",
    "version": "0.5.16+commit.9c3226ce.Emscripten.clang"
  },
  "schemaVersion": "3.2.5",
  "updatedAt": "2020-10-19T19:44:42.517Z",
  "networkType": "ethereum",
  "devdoc": {
    "methods": {}
  },
  "userdoc": {
    "methods": {}
  }
}