{
  "contractName": "Addition",
  "abi": [
    {
      "constant": true,
      "inputs": [],
      "name": "sum",
      "outputs": [
        {
          "internalType": "int256",
          "name": "",
          "type": "int256"
        }
      ],
      "payable": false,
      "stateMutability": "view",
      "type": "function"
    },
    {
      "constant": false,
      "inputs": [
        {
          "internalType": "int256",
          "name": "x",
          "type": "int256"
        },
        {
          "internalType": "int256",
          "name": "y",
          "type": "int256"
        }
      ],
      "name": "add",
      "outputs": [],
      "payable": false,
      "stateMutability": "nonpayable",
      "type": "function"
    }
  ],
  "bytecode": "0x60806040526000805534801561001457600080fd5b5060d0806100236000396000f3fe6080604052348015600f57600080fd5b506004361060325760003560e01c8063853255cc146037578063a5f3c23b146053575b600080fd5b603d6088565b6040518082815260200191505060405180910390f35b608660048036036040811015606757600080fd5b810190808035906020019092919080359060200190929190505050608e565b005b60005481565b808201600081905550505056fea265627a7a72315820682580c1702d394c53fcaec4edf903bafbb2d2f7fe684be9de683b86004eda1c64736f6c63430005100032",
  "source": "// SPDX-License-Identifier: <SPDX-License>\r\npragma solidity >=0.5.0;\r\n\r\ncontract Addition {\r\n  int public sum = 0;\r\n\r\nfunction add (int x, int y) public {\r\n    sum = x + y;\r\n  }\r\n}",
  "sourcePath": "/mnt/c/Users/theod/git/R-demo-Drizz/contracts/Additions.sol",
  "compiler": {
    "name": "solc",
    "version": "0.5.16+commit.9c3226ce.Emscripten.clang"
  },
  "schemaVersion": "3.2.5",
  "updatedAt": "2020-10-06T14:20:09.091Z",
  "networkType": "ethereum",
  "devdoc": {
    "methods": {}
  },
  "userdoc": {
    "methods": {}
  }
}